{
	"data": {
		"bytecode": {
			"linkReferences": {},
			"object": "608060405260016009556005600a553480156200001b57600080fd5b506040516200606e3803806200606e8339810160408190526200003e91620004db565b826200004a81620000a8565b506200005633620000ba565b600562000064848262000664565b50600780546001600160a01b038085166001600160a01b03199283161790925560088054928416929091169190911790556200009f6200010c565b50505062000746565b6002620000b6828262000664565b5050565b600380546001600160a01b038381166001600160a01b0319831681179093556040519116919082907f8be0079c531659141344cd1fd0a4f28419497f9722a3daafe3b4186f6b6457e090600090a35050565b6040805160a08101825260006080820181815282526020820181905291810182905260608101829052600f80546001810182559252805190916004027f8d1108e10bcb7c27dddfc02ed9d693a074039d026cf4ea4240b40f7d581ac8020190819062000179908262000664565b506020828101516001838101919091556040808501516002850155606094850151600390940193909355825160a08101845260008082528451808501865281815293820193845293810184905293840183905260808401839052600e8054918201815590925282517fbb7b4a454dc3493923482f07822329ed19e8244eff582cc204f8554c3620c3fd600590930292830180546001600160a01b0319166001600160a01b03909216919091178155905190917fbb7b4a454dc3493923482f07822329ed19e8244eff582cc204f8554c3620c3fe01906200025a908262000664565b506040828101516002830155606083015160038301556080909201516004909101805460ff1916911515919091179055805160c08101909152601090806000815260006020808301829052604080518083018252838152818501528051808201825283815280830184905260608501528051808201909152828152808201839052608084015260a09092018190528354600181810186559482529190208251600790920201805492939092839160ff199091169083600281111562000323576200032362000730565b0217905550602082015160018201556040820151600282019062000348908262000664565b506060820151620003609060038301906002620003a4565b50608082015162000378906005830190600262000401565b5060a09190910151600690910180546001600160a01b0319166001600160a01b03909216919091179055565b8260028101928215620003ef579160200282015b82811115620003ef57825182546001600160a01b0319166001600160a01b03909116178255602090920191600190910190620003b8565b50620003fd92915062000491565b5090565b600183019183908215620003ef5791602002820160005b838211156200045857835183826101000a81548160ff021916908360ff160217905550926020019260010160208160000104928301926001030262000418565b8015620004875782816101000a81549060ff021916905560010160208160000104928301926001030262000458565b5050620003fd9291505b5b80821115620003fd576000815560010162000492565b634e487b7160e01b600052604160045260246000fd5b80516001600160a01b0381168114620004d657600080fd5b919050565b600080600060608486031215620004f157600080fd5b83516001600160401b03808211156200050957600080fd5b818601915086601f8301126200051e57600080fd5b815181811115620005335762000533620004a8565b604051601f8201601f19908116603f011681019083821181831017156200055e576200055e620004a8565b816040528281526020935089848487010111156200057b57600080fd5b600091505b828210156200059f578482018401518183018501529083019062000580565b6000848483010152809750505050620005ba818701620004be565b93505050620005cc60408501620004be565b90509250925092565b600181811c90821680620005ea57607f821691505b6020821081036200060b57634e487b7160e01b600052602260045260246000fd5b50919050565b601f8211156200065f57600081815260208120601f850160051c810160208610156200063a5750805b601f850160051c820191505b818110156200065b5782815560010162000646565b5050505b505050565b81516001600160401b03811115620006805762000680620004a8565b6200069881620006918454620005d5565b8462000611565b602080601f831160018114620006d05760008415620006b75750858301515b600019600386901b1c1916600185901b1785556200065b565b600085815260208120601f198616915b828110156200070157888601518255948401946001909101908401620006e0565b5085821015620007205787850151600019600388901b60f8161c191681555b5050505050600190811b01905550565b634e487b7160e01b600052602160045260246000fd5b61591880620007566000396000f3fe6080604052600436106102ad5760003560e01c8063715018a611610166578063bf103a4d116100d3578063e985e9c51161008f578063f242432a1161006c578063f242432a146108fe578063f2fde38b1461091e578063f71d96cb1461093e578063fc0c546a1461096f57005b8063e985e9c51461087e578063efa1c482146108c7578063f1da7339146108e957005b8063bf103a4d146107e9578063c4e41b2214610809578063c87b56dd1461081e578063d2198cc51461083e578063d24257c014610853578063de96cefc1461086957005b80639ec40aa3116101225780639ec40aa314610719578063a1b4f57c14610739578063a22cb4651461074c578063ba2749561461076c578063bd85b0391461078c578063bf034b69146107b957005b8063715018a614610648578063845f433b1461065d5780638da5cb5b1461067d578063996d7bea146106af5780639b09cc87146106cf5780639e4ecd111461070457005b80632711162e1161021c5780634f558e79116101d85780635ea1d6f8116101b55780635ea1d6f8146105d8578063606d2e96146105ee5780636c0360eb1461061e578063703730a51461063357005b80634f558e791461055a5780635c12cd4b146105895780635c93fc3d146105b657005b80632711162e1461045b5780632ca04522146104885780632eb2c2d6146104a85780633835e2b5146104c85780634b114691146105005780634e1273f41461052d57005b80630daea2cd1161026b5780630daea2cd146103895780630e89341c1461039e57806310898e4c146103cb5780631107ae3d146103f857806316801d171461041857806318160ddd1461044557005b8062fdd58e146102af578063015a3792146102e257806301ffc9a71461030457806302fe5305146103345780630677aa4e1461035457806309c95e1014610369575b005b3480156102bb57600080fd5b506102cf6102ca366004614974565b61098f565b6040519081526020015b60405180910390f35b3480156102ee57600080fd5b506102f7610a28565b6040516102d99190614a2d565b34801561031057600080fd5b5061032461031f366004614aa5565b610b37565b60405190151581526020016102d9565b34801561034057600080fd5b506102ad61034f366004614b7e565b610b87565b34801561036057600080fd5b506102cf600381565b34801561037557600080fd5b50610324610384366004614bb2565b610b9b565b34801561039557600080fd5b506102cf600a81565b3480156103aa57600080fd5b506103be6103b9366004614bcd565b610bcf565b6040516102d99190614be6565b3480156103d757600080fd5b506103eb6103e6366004614bb2565b610c63565b6040516102d99190614bf9565b34801561040457600080fd5b50610324610413366004614b7e565b610de1565b34801561042457600080fd5b50610438610433366004614b7e565b610e11565b6040516102d99190614d00565b34801561045157600080fd5b506102cf60065481565b34801561046757600080fd5b506102cf610476366004614bb2565b600c6020526000908152604090205481565b34801561049457600080fd5b506104386104a3366004614b7e565b61102c565b3480156104b457600080fd5b506102ad6104c3366004614da7565b611252565b3480156104d457600080fd5b506102cf6104e3366004614b7e565b8051602081830181018051600d8252928201919093012091525481565b34801561050c57600080fd5b506102cf61051b366004614bb2565b600b6020526000908152604090205481565b34801561053957600080fd5b5061054d610548366004614e50565b61129e565b6040516102d99190614f55565b34801561056657600080fd5b50610324610575366004614bcd565b600090815260046020526040902054151590565b34801561059557600080fd5b506105a96105a4366004614bb2565b6113c7565b6040516102d99190614fbb565b3480156105c257600080fd5b506105cb61156b565b6040516102d99190614fce565b3480156105e457600080fd5b506102cf600a5481565b3480156105fa57600080fd5b5061060e610609366004614bcd565b611736565b6040516102d99493929190615023565b34801561062a57600080fd5b506103be611808565b34801561063f57600080fd5b506102cf600281565b34801561065457600080fd5b506102ad611896565b34801561066957600080fd5b506102ad610678366004615062565b6118aa565b34801561068957600080fd5b506003546001600160a01b03165b6040516001600160a01b0390911681526020016102d9565b3480156106bb57600080fd5b506102ad6106ca366004614b7e565b611b0d565b3480156106db57600080fd5b506106ef6106ea366004614b7e565b611bd4565b604080519283526020830191909152016102d9565b34801561071057600080fd5b506102cf600581565b34801561072557600080fd5b506102ad610734366004614b7e565b611bfe565b610438610747366004614b7e565b611cb2565b34801561075857600080fd5b506102ad6107673660046150c9565b612250565b34801561077857600080fd5b506102ad610787366004615100565b61225b565b34801561079857600080fd5b506102cf6107a7366004614bcd565b60009081526004602052604090205490565b3480156107c557600080fd5b506107d96107d4366004614bcd565b612552565b6040516102d9949392919061514b565b3480156107f557600080fd5b50610324610804366004614bb2565b61261a565b34801561081557600080fd5b506006546102cf565b34801561082a57600080fd5b506103be610839366004614bcd565b612641565b34801561084a57600080fd5b506102cf600081565b34801561085f57600080fd5b506102cf60095481565b34801561087557600080fd5b506102cf600181565b34801561088a57600080fd5b5061032461089936600461517a565b6001600160a01b03918216600090815260016020908152604080832093909416825291909152205460ff1690565b3480156108d357600080fd5b506108dc612675565b6040516102d991906151ad565b3480156108f557600080fd5b506102cf600481565b34801561090a57600080fd5b506102ad610919366004615202565b61279c565b34801561092a57600080fd5b506102ad610939366004614bb2565b6127e1565b34801561094a57600080fd5b5061095e610959366004614bcd565b612857565b6040516102d9959493929190615266565b34801561097b57600080fd5b50600754610697906001600160a01b031681565b60006001600160a01b0383166109ff5760405162461bcd60e51b815260206004820152602a60248201527f455243313135353a2061646472657373207a65726f206973206e6f742061207660448201526930b634b21037bbb732b960b11b60648201526084015b60405180910390fd5b506000818152602081815260408083206001600160a01b03861684529091529020545b92915050565b6060600f805480602002602001604051908101604052809291908181526020016000905b82821015610b2e5783829060005260206000209060040201604051806080016040529081600082018054610a7f906152a9565b80601f0160208091040260200160405190810160405280929190818152602001828054610aab906152a9565b8015610af85780601f10610acd57610100808354040283529160200191610af8565b820191906000526020600020905b815481529060010190602001808311610adb57829003601f168201915b50505050508152602001600182015481526020016002820154815260200160038201548152505081526020019060010190610a4c565b50505050905090565b60006001600160e01b03198216636cdb3d1360e11b1480610b6857506001600160e01b031982166303a24d0760e21b145b80610a2257506301ffc9a760e01b6001600160e01b0319831614610a22565b610b8f612930565b610b988161298a565b50565b6001600160a01b0381166000908152600b60205260408120548103610bc257506000919050565b506001919050565b919050565b606060028054610bde906152a9565b80601f0160208091040260200160405190810160405280929190818152602001828054610c0a906152a9565b8015610c575780601f10610c2c57610100808354040283529160200191610c57565b820191906000526020600020905b815481529060010190602001808311610c3a57829003601f168201915b50505050509050919050565b610c8e6040518060800160405280606081526020016000815260200160008152602001600081525090565b610c978261261a565b610ce35760405162461bcd60e51b815260206004820152601960248201527f47616d6520746f6b656e20646f65736e2774206578697374210000000000000060448201526064016109f6565b6001600160a01b0382166000908152600c6020526040902054600f80549091908110610d1157610d116152e3565b9060005260206000209060040201604051806080016040529081600082018054610d3a906152a9565b80601f0160208091040260200160405190810160405280929190818152602001828054610d66906152a9565b8015610db35780601f10610d8857610100808354040283529160200191610db3565b820191906000526020600020905b815481529060010190602001808311610d9657829003601f168201915b5050505050815260200160018201548152602001600282015481526020016003820154815250509050919050565b6000600d82604051610df391906152f9565b908152602001604051809103902054600003610bc257506000919050565b610e19614801565b610e2282610de1565b610e665760405162461bcd60e51b8152602060048201526015602482015274426174746c6520646f65736e27742065786973742160581b60448201526064016109f6565b6010600d83604051610e7891906152f9565b90815260200160405180910390205481548110610e9757610e976152e3565b600091825260209091206040805160c081019091526007909202018054829060ff166002811115610eca57610eca614c0c565b6002811115610edb57610edb614c0c565b815260200160018201548152602001600282018054610ef9906152a9565b80601f0160208091040260200160405190810160405280929190818152602001828054610f25906152a9565b8015610f725780601f10610f4757610100808354040283529160200191610f72565b820191906000526020600020905b815481529060010190602001808311610f5557829003601f168201915b5050509183525050604080518082019182905260209092019190600384019060029082845b81546001600160a01b03168152600190910190602001808311610f975750505091835250506040805180820191829052602090920191906005840190600290826000855b825461010083900a900460ff16815260206001928301818104948501949093039092029101808411610fdb57505050928452505050600691909101546001600160a01b031660209091015292915050565b611034614801565b61103d33610b9b565b6110895760405162461bcd60e51b815260206004820152601c60248201527f506c6561736520526567697374657220506c617965722046697273740000000060448201526064016109f6565b61109282610de1565b156110d85760405162461bcd60e51b8152602060048201526016602482015275426174746c6520616c7265616479206578697374732160501b60448201526064016109f6565b6000826040516020016110eb9190614be6565b60408051808303601f19018152828252805160209182012060c084018352600080855282850182905284840188905283518085018552338152808401829052606086015283518085018552818152928301819052608085019290925260a084019190915260105491519093508190600d906111679088906152f9565b908152604051908190036020019020556010805460018181018355600092909252835160079091027f1b6847dc741a1b0cd08d278845f9d819d87b734759afb55fe2de5cb82a9ae6720180548593919291839160ff1916908360028111156111d1576111d1614c0c565b021790555060208201516001820155604082015160028201906111f4908261535b565b50606082015161120a9060038301906002614844565b506080820151611220906005830190600261489c565b5060a09190910151600690910180546001600160a01b0319166001600160a01b03909216919091179055509392505050565b6001600160a01b03851633148061126e575061126e8533610899565b61128a5760405162461bcd60e51b81526004016109f69061541a565b6112978585858585612996565b5050505050565b606081518351146113035760405162461bcd60e51b815260206004820152602960248201527f455243313135353a206163636f756e747320616e6420696473206c656e677468604482015268040dad2e6dac2e8c6d60bb1b60648201526084016109f6565b600083516001600160401b0381111561131e5761131e614ac9565b604051908082528060200260200182016040528015611347578160200160208202803683370190505b50905060005b84518110156113bf5761139285828151811061136b5761136b6152e3565b6020026020010151858381518110611385576113856152e3565b602002602001015161098f565b8282815181106113a4576113a46152e3565b60209081029190910101526113b88161547f565b905061134d565b509392505050565b6114046040518060a0016040528060006001600160a01b031681526020016060815260200160008152602001600081526020016000151581525090565b61140d82610b9b565b6114515760405162461bcd60e51b8152602060048201526015602482015274506c6179657220646f65736e27742065786973742160581b60448201526064016109f6565b6001600160a01b0382166000908152600b6020526040902054600e8054909190811061147f5761147f6152e3565b60009182526020918290206040805160a0810190915260059092020180546001600160a01b0316825260018101805492939192918401916114bf906152a9565b80601f01602080910402602001604051908101604052809291908181526020018280546114eb906152a9565b80156115385780601f1061150d57610100808354040283529160200191611538565b820191906000526020600020905b81548152906001019060200180831161151b57829003601f168201915b5050509183525050600282015460208201526003820154604082015260049091015460ff16151560609091015292915050565b60606010805480602002602001604051908101604052809291908181526020016000905b82821015610b2e576000848152602090206040805160c08101909152600784029091018054829060ff1660028111156115ca576115ca614c0c565b60028111156115db576115db614c0c565b8152602001600182015481526020016002820180546115f9906152a9565b80601f0160208091040260200160405190810160405280929190818152602001828054611625906152a9565b80156116725780601f1061164757610100808354040283529160200191611672565b820191906000526020600020905b81548152906001019060200180831161165557829003601f168201915b5050509183525050604080518082019182905260209092019190600384019060029082845b81546001600160a01b031681526001909101906020018083116116975750505091835250506040805180820191829052602090920191906005840190600290826000855b825461010083900a900460ff168152602060019283018181049485019490930390920291018084116116db57505050928452505050600691909101546001600160a01b0316602091820152908252600192909201910161158f565b6010818154811061174657600080fd5b600091825260209091206007909102018054600182015460028301805460ff9093169450909291611776906152a9565b80601f01602080910402602001604051908101604052809291908181526020018280546117a2906152a9565b80156117ef5780601f106117c4576101008083540402835291602001916117ef565b820191906000526020600020905b8154815290600101906020018083116117d257829003601f168201915b505050600690930154919250506001600160a01b031684565b60058054611815906152a9565b80601f0160208091040260200160405190810160405280929190818152602001828054611841906152a9565b801561188e5780601f106118635761010080835404028352916020019161188e565b820191906000526020600020905b81548152906001019060200180831161187157829003601f168201915b505050505081565b61189e612930565b6118a86000612b81565b565b6118b333610b9b565b156119005760405162461bcd60e51b815260206004820152601960248201527f506c6179657220616c726561647920726567697374657265640000000000000060448201526064016109f6565b600e80546040805160a08101825233815260208101868152600a92820192909252601960608201526000608082018190526001840185559390935282517fbb7b4a454dc3493923482f07822329ed19e8244eff582cc204f8554c3620c3fd6005840290810180546001600160a01b0319166001600160a01b03909316929092178255915192939290917fbb7b4a454dc3493923482f07822329ed19e8244eff582cc204f8554c3620c3fe01906119b6908261535b565b506040828101516002830155606083015160038301556080909201516004918201805460ff1916911515919091179055336000818152600b602052839020849055600754925163a9059cbb60e01b815291820152678ac7230489e8000060248201819052916001600160a01b03169063a9059cbb906044016020604051808303816000875af1158015611a4d573d6000803e3d6000fd5b505050506040513d601f19601f82011682018060405250810190611a719190615498565b611abd5760405162461bcd60e51b815260206004820152601860248201527f4661696c656420746f207472616e7366657220746f6b656e000000000000000060448201526064016109f6565b611ac683611bfe565b336001600160a01b03167f81ef79d1cda814a60c0fc60792e648a06d9c6bae67176346d1cc8b63030bfccd85604051611aff9190614be6565b60405180910390a250505050565b6000611b1882610e11565b6060810151519091506001600160a01b0316331480611b4757506060810151602001516001600160a01b031633145b611b935760405162461bcd60e51b815260206004820152601b60248201527f596f7520617265206e6f7420696e207468697320626174746c6521000000000060448201526064016109f6565b6060810151516001600160a01b03163314611bc4576060810151611bbf9060005b602002015182612bd3565b505050565b6060810151611bbf906001611bb4565b6000806000611be284610e11565b60800151805160209091015160ff918216969116945092505050565b611c07336113c7565b6080015115611c505760405162461bcd60e51b8152602060048201526015602482015274506c6179657220697320696e206120626174746c6560581b60448201526064016109f6565b611c5933610b9b565b611ca55760405162461bcd60e51b815260206004820152601c60248201527f506c6561736520526567697374657220506c617965722046697273740000000060448201526064016109f6565b611cae81613058565b5050565b611cba614801565b6000611cc583610e11565b9050600081516002811115611cdc57611cdc614c0c565b14611d295760405162461bcd60e51b815260206004820152601760248201527f426174746c6520616c726561647920737461727465642100000000000000000060448201526064016109f6565b606081015151336001600160a01b0390911603611d925760405162461bcd60e51b815260206004820152602160248201527f4f6e6c7920706c617965722074776f2063616e206a6f696e206120626174746c6044820152606560f81b60648201526084016109f6565b611d9b336113c7565b6080015115611de05760405162461bcd60e51b8152602060048201526011602482015270416c726561647920696e20626174746c6560781b60448201526064016109f6565b600954600754604051636eb1769f60e11b81523360048201523060248201526001600160a01b039091169063dd62ed3e90604401602060405180830381865afa158015611e31573d6000803e3d6000fd5b505050506040513d601f19601f82011682018060405250810190611e5591906154b5565b1015611ea35760405162461bcd60e51b815260206004820152601f60248201527f746f6b656e20616c6c6f77616e6365206e6f742073657420666f7220796f750060448201526064016109f6565b600954600754606083015151604051636eb1769f60e11b81526001600160a01b03918216600482015230602482015291169063dd62ed3e90604401602060405180830381865afa158015611efb573d6000803e3d6000fd5b505050506040513d601f19601f82011682018060405250810190611f1f91906154b5565b1015611f795760405162461bcd60e51b8152602060048201526024808201527f746f6b656e20616c6c6f77616e6365206e6f742073657420666f72206f70706f6044820152631b995b9d60e21b60648201526084016109f6565b6007546009546040516323b872dd60e01b815233600482015230602482015260448101919091526001600160a01b03909116906323b872dd906064016020604051808303816000875af1158015611fd4573d6000803e3d6000fd5b505050506040513d601f19601f82011682018060405250810190611ff89190615498565b6120445760405162461bcd60e51b815260206004820152601d60248201527f746f6b656e207472616e73666572206661696c656420666f7220796f7500000060448201526064016109f6565b6007546060820151516009546040516323b872dd60e01b81526001600160a01b03928316600482015230602482015260448101919091529116906323b872dd906064016020604051808303816000875af11580156120a6573d6000803e3d6000fd5b505050506040513d601f19601f820116820180604052508101906120ca9190615498565b61210f5760405162461bcd60e51b815260206004820152601660248201527503a37b5b2b7103a3930b739b332b9103330b4b632b2160551b60448201526064016109f6565b600181526060810151336020909101526121298382613263565b6001600e600b60008460600151600060028110612148576121486152e3565b60200201516001600160a01b03166001600160a01b03168152602001908152602001600020548154811061217e5761217e6152e3565b60009182526020808320600592909202909101600401805460ff19169315159390931790925560608301518201516001600160a01b03168152600b9091526040902054600e80546001929081106121d7576121d76152e3565b60009182526020822060059190910201600401805460ff1916921515929092179091556060820151339160200201516001600160a01b03167f024187b16c217a79f8d8e6252b542ec6e278fa91304acd9cfd866f2bbf00bd0883604001516040516122429190614be6565b60405180910390a392915050565b611cae33838361338f565b600061226682610e11565b905060018151600281111561227d5761227d614c0c565b146122fa5760405162461bcd60e51b815260206004820152604160248201527f426174746c65206e6f7420737461727465642e20506c656173652074656c6c2060448201527f616e6f7468657220706c6179657220746f206a6f696e2074686520626174746c6064820152606560f81b608482015260a4016109f6565b60028151600281111561230f5761230f614c0c565b0361235c5760405162461bcd60e51b815260206004820152601860248201527f426174746c652068617320616c726561647920656e646564000000000000000060448201526064016109f6565b6060810151516001600160a01b031633148061238857506060810151602001516001600160a01b031633145b6123d45760405162461bcd60e51b815260206004820152601a60248201527f596f7520617265206e6f7420696e207468697320626174746c6500000000000060448201526064016109f6565b60808101516060820151516001600160a01b031633146123f55760016123f8565b60005b60ff166002811061240b5761240b6152e3565b602002015160ff16156124605760405162461bcd60e51b815260206004820152601d60248201527f596f75206861766520616c7265616479206d6164652061206d6f76652100000060448201526064016109f6565b60608101515161248d906001600160a01b03163314612480576001612483565b60005b60ff16848461346f565b61249682610e11565b60808101516020015190915060009060ff16156124b45760016124b7565b60005b60808301515160ff16156124cc5760016124cf565b60005b6124da9060026154ce565b6124e491906154ce565b60ff169050806001146124f85760006124fb565b60015b15158360405161250b91906152f9565b604051908190038120907f54b82b77e7ae55a8e6c9e89deba70c7191dea2a3b08ae647b380e9f981d6a0f890600090a38060000361254c5761254c836135c4565b50505050565b600f818154811061256257600080fd5b9060005260206000209060040201600091509050806000018054612585906152a9565b80601f01602080910402602001604051908101604052809291908181526020018280546125b1906152a9565b80156125fe5780601f106125d3576101008083540402835291602001916125fe565b820191906000526020600020905b8154815290600101906020018083116125e157829003601f168201915b5050505050908060010154908060020154908060030154905084565b6001600160a01b0381166000908152600c60205260408120548103610bc257506000919050565b6060600561264e836136de565b60405160200161265f9291906154e7565b6040516020818303038152906040529050919050565b6060600e805480602002602001604051908101604052809291908181526020016000905b82821015610b2e5760008481526020908190206040805160a081019091526005850290910180546001600160a01b0316825260018101805492939192918401916126e2906152a9565b80601f016020809104026020016040519081016040528092919081815260200182805461270e906152a9565b801561275b5780601f106127305761010080835404028352916020019161275b565b820191906000526020600020905b81548152906001019060200180831161273e57829003601f168201915b505050918352505060028201546020808301919091526003830154604083015260049092015460ff1615156060909101529082526001929092019101612699565b6001600160a01b0385163314806127b857506127b88533610899565b6127d45760405162461bcd60e51b81526004016109f69061541a565b6112978585858585613809565b6127e9612930565b6001600160a01b03811661284e5760405162461bcd60e51b815260206004820152602660248201527f4f776e61626c653a206e6577206f776e657220697320746865207a65726f206160448201526564647265737360d01b60648201526084016109f6565b610b9881612b81565b600e818154811061286757600080fd5b6000918252602090912060059091020180546001820180546001600160a01b03909216935090612896906152a9565b80601f01602080910402602001604051908101604052809291908181526020018280546128c2906152a9565b801561290f5780601f106128e45761010080835404028352916020019161290f565b820191906000526020600020905b8154815290600101906020018083116128f257829003601f168201915b50505050600283015460038401546004909401549293909290915060ff1685565b6003546001600160a01b031633146118a85760405162461bcd60e51b815260206004820181905260248201527f4f776e61626c653a2063616c6c6572206973206e6f7420746865206f776e657260448201526064016109f6565b6002611cae828261535b565b81518351146129f85760405162461bcd60e51b815260206004820152602860248201527f455243313135353a2069647320616e6420616d6f756e7473206c656e677468206044820152670dad2e6dac2e8c6d60c31b60648201526084016109f6565b6001600160a01b038416612a1e5760405162461bcd60e51b81526004016109f69061558d565b33612a2d818787878787613941565b60005b8451811015612b13576000858281518110612a4d57612a4d6152e3565b602002602001015190506000858381518110612a6b57612a6b6152e3565b602090810291909101810151600084815280835260408082206001600160a01b038e168352909352919091205490915081811015612abb5760405162461bcd60e51b81526004016109f6906155d2565b6000838152602081815260408083206001600160a01b038e8116855292528083208585039055908b16825281208054849290612af890849061561c565b9250508190555050505080612b0c9061547f565b9050612a30565b50846001600160a01b0316866001600160a01b0316826001600160a01b03167f4a39dc06d4c0dbc64b70af90fd698a233a518aa5d07e595d983b8c0526c8f7fb8787604051612b6392919061562f565b60405180910390a4612b7981878787878761394f565b505050505050565b600380546001600160a01b038381166001600160a01b0319831681179093556040519116919082907f8be0079c531659141344cd1fd0a4f28419497f9722a3daafe3b4186f6b6457e090600090a35050565b612bdb614801565b600282516002811115612bf057612bf0614c0c565b03612c345760405162461bcd60e51b815260206004820152601460248201527310985d1d1b1948185b1c9958591e48195b99195960621b60448201526064016109f6565b600282526001600160a01b03831660a08301526040820151612c569083613263565b6000600b60008460600151600060028110612c7357612c736152e3565b60200201516001600160a01b03166001600160a01b031681526020019081526020016000205490506000600b60008560600151600160028110612cb857612cb86152e3565b60200201516001600160a01b03166001600160a01b031681526020019081526020016000205490506000600e8381548110612cf557612cf56152e3565b906000526020600020906005020160040160006101000a81548160ff0219169083151502179055506019600e8381548110612d3257612d326152e3565b906000526020600020906005020160030181905550600a600e8381548110612d5c57612d5c6152e3565b9060005260206000209060050201600201819055506000600e8281548110612d8657612d866152e3565b906000526020600020906005020160040160006101000a81548160ff0219169083151502179055506019600e8281548110612dc357612dc36152e3565b906000526020600020906005020160030181905550600a600e8281548110612ded57612ded6152e3565b60009182526020822060059190910201600201919091556060850151516001600160a01b03878116911614612e2757606085015151612e31565b6060850151602001515b905060006009546002612e44919061565d565b905060006064600a54600954612e5a919061565d565b612e649190615692565b90506000612e7282846156a6565b60075460405163a9059cbb60e01b81526001600160a01b038c811660048301526024820184905292935091169063a9059cbb906044016020604051808303816000875af1158015612ec7573d6000803e3d6000fd5b505050506040513d601f19601f82011682018060405250810190612eeb9190615498565b612f375760405162461bcd60e51b815260206004820152601a60248201527f7472616e73666572206661696c656420666f722077696e6e657200000000000060448201526064016109f6565b60075460085460405163a9059cbb60e01b81526001600160a01b0391821660048201526024810185905291169063a9059cbb906044016020604051808303816000875af1158015612f8c573d6000803e3d6000fd5b505050506040513d601f19601f82011682018060405250810190612fb09190615498565b612ffc5760405162461bcd60e51b815260206004820152601d60248201527f7472616e73666572206661696c656420666f7220636f6d6d6973696f6e00000060448201526064016109f6565b836001600160a01b0316896001600160a01b03167fae6e5eafb6cd1cb4b139e7a0b9140aa182ee7d50e99f50d660156f79212acbc08a604001516040516130439190614be6565b60405180910390a35095979650505050505050565b6130836040518060800160405280606081526020016000815260200160008152602001600081525090565b6000613090600a33613ab3565b9050600061309f82600a6156a6565b90506000606442336040516020016130d392919091825260601b6bffffffffffffffffffffffff1916602082015260340190565b6040516020818303038152906040528051906020012060001c6130f691906156b9565b90506131036006826156cd565b90508060ff1660000361311e578061311a816156ef565b9150505b6040805160808101825286815260ff8316602082015290810184905260608101839052600f805460018101825560009190915281518290600483027f8d1108e10bcb7c27dddfc02ed9d693a074039d026cf4ea4240b40f7d581ac80201908190613188908261535b565b50602082015181600101556040820151816002015560608201518160030155505080600c6000336001600160a01b03166001600160a01b03168152602001908152602001600020819055506131fe338460ff1660016040518060400160405280600381526020016203078360ec1b815250613b31565b6006805490600061320e8361547f565b90915550506040805160ff851681526020810187905290810185905233907fca8ab07e9ed17d119729fc652dd24df9d8430ca862dda4631925b5b4b99da3629060600160405180910390a25095945050505050565b61326c82610de1565b6132af5760405162461bcd60e51b815260206004820152601460248201527310985d1d1b1948191bd95cdb89dd08195e1a5cdd60621b60448201526064016109f6565b806010600d846040516132c291906152f9565b908152602001604051809103902054815481106132e1576132e16152e3565b6000918252602090912082516007909202018054909190829060ff1916600183600281111561331257613312614c0c565b02179055506020820151600182015560408201516002820190613335908261535b565b50606082015161334b9060038301906002614844565b506080820151613361906005830190600261489c565b5060a09190910151600690910180546001600160a01b0319166001600160a01b039092169190911790555050565b816001600160a01b0316836001600160a01b0316036134025760405162461bcd60e51b815260206004820152602960248201527f455243313135353a2073657474696e6720617070726f76616c20737461747573604482015268103337b91039b2b63360b91b60648201526084016109f6565b6001600160a01b03838116600081815260016020908152604080832094871680845294825291829020805460ff191686151590811790915591519182527f17307eab39ab6107e8899845ad3d59bd9653f200f220920489ca2b5937696c31910160405180910390a3505050565b8160ff166001148061348457508160ff166002145b6134d05760405162461bcd60e51b815260206004820152601f60248201527f43686f6963652073686f756c64206265206569746865722031206f722032210060448201526064016109f6565b8160ff166001146134e25760016134f4565b60036134ed336113c7565b6040015110155b61354b5760405162461bcd60e51b815260206004820152602260248201527f4d616e61206e6f742073756666696369656e7420666f722061747461636b696e604482015261672160f01b60648201526084016109f6565b816010600d8360405161355e91906152f9565b9081526020016040518091039020548154811061357d5761357d6152e3565b9060005260206000209060070201600501846002811061359f5761359f6152e3565b602091828204019190066101000a81548160ff021916908360ff160217905550505050565b60006135cf82610e11565b6060810151519091506001600160a01b03163314806135fe57506060810151602001516001600160a01b031633145b61365e5760405162461bcd60e51b815260206004820152602b60248201527f4f6e6c7920706c617965727320696e207468697320626174746c652063616e2060448201526a6d616b652061206d6f766560a81b60648201526084016109f6565b60808101515160ff161580159061367f575060808101516020015160ff1615155b6136d55760405162461bcd60e51b815260206004820152602160248201527f506c6179657273207374696c6c206e65656420746f206d616b652061206d6f766044820152606560f81b60648201526084016109f6565b611cae81613c4b565b6060816000036137055750506040805180820190915260018152600360fc1b602082015290565b8160005b811561372f57806137198161547f565b91506137289050600a83615692565b9150613709565b6000816001600160401b0381111561374957613749614ac9565b6040519080825280601f01601f191660200182016040528015613773576020820181803683370190505b509050815b8515613800576137896001826156a6565b90506000613798600a88615692565b6137a390600a61565d565b6137ad90886156a6565b6137b890603061570e565b905060008160f81b9050808484815181106137d5576137d56152e3565b60200101906001600160f81b031916908160001a9053506137f7600a89615692565b97505050613778565b50949350505050565b6001600160a01b03841661382f5760405162461bcd60e51b81526004016109f69061558d565b33600061383b85614582565b9050600061384885614582565b9050613858838989858589613941565b6000868152602081815260408083206001600160a01b038c168452909152902054858110156138995760405162461bcd60e51b81526004016109f6906155d2565b6000878152602081815260408083206001600160a01b038d8116855292528083208985039055908a168252812080548892906138d690849061561c565b909155505060408051888152602081018890526001600160a01b03808b16928c821692918816917fc3d58168c5ae7397731d063d5bbf3d657854427343f4c083240f7aacaa2d0f62910160405180910390a4613936848a8a8a8a8a6145cd565b505050505050505050565b612b79868686868686614688565b6001600160a01b0384163b15612b795760405163bc197c8160e01b81526001600160a01b0385169063bc197c81906139939089908990889088908890600401615727565b6020604051808303816000875af19250505080156139ce575060408051601f3d908101601f191682019092526139cb91810190615785565b60015b613a7a576139da6157a2565b806308c379a003613a1357506139ee6157be565b806139f95750613a15565b8060405162461bcd60e51b81526004016109f69190614be6565b505b60405162461bcd60e51b815260206004820152603460248201527f455243313135353a207472616e7366657220746f206e6f6e20455243313135356044820152732932b1b2b4bb32b91034b6b83632b6b2b73a32b960611b60648201526084016109f6565b6001600160e01b0319811663bc197c8160e01b14613aaa5760405162461bcd60e51b81526004016109f690615847565b50505050505050565b600080444284604051602001613aee93929190928352602083019190915260601b6bffffffffffffffffffffffff1916604082015260540190565b60408051601f1981840301815291905280516020909101209050613b1284826156b9565b915081600003613b2a57613b27600285615692565b91505b5092915050565b6001600160a01b038416613b915760405162461bcd60e51b815260206004820152602160248201527f455243313135353a206d696e7420746f20746865207a65726f206164647265736044820152607360f81b60648201526084016109f6565b336000613b9d85614582565b90506000613baa85614582565b9050613bbb83600089858589613941565b6000868152602081815260408083206001600160a01b038b16845290915281208054879290613beb90849061561c565b909155505060408051878152602081018790526001600160a01b03808a1692600092918716917fc3d58168c5ae7397731d063d5bbf3d657854427343f4c083240f7aacaa2d0f62910160405180910390a4613aaa836000898989896145cd565b60006040518060a00160405280600b60008560600151600060028110613c7357613c736152e3565b60200201516001600160a01b03166001600160a01b031681526020019081526020016000205481526020018360800151600060028110613cb557613cb56152e3565b602002015160ff168152602001613ce68460600151600060028110613cdc57613cdc6152e3565b60200201516113c7565b606001518152602001613d138460600151600060028110613d0957613d096152e3565b6020020151610c63565b604001518152602001613d368460600151600060028110613d0957613d096152e3565b60600151815250905060006040518060a00160405280600b60008660600151600160028110613d6757613d676152e3565b60200201516001600160a01b03166001600160a01b031681526020019081526020016000205481526020018460800151600160028110613da957613da96152e3565b602002015160ff168152602001613dd08560600151600160028110613cdc57613cdc6152e3565b606001518152602001613df38560600151600160028110613d0957613d096152e3565b604001518152602001613e168560600151600160028110613d0957613d096152e3565b6060015190526040805180820190915260008082526020808301919091528401519192509060011480613e4d575081602001516001145b15613e9f578160400151836060015110613e7e576060840151613e789060005b602002015185612bd3565b50613e9f565b8260400151826060015110613e9f576060840151613e9d906001613e6d565b505b82602001516001148015613eb7575081602001516001145b15614007578160400151836060015110613ee1576060840151613edb906000613e6d565b50614322565b8260400151826060015110613f00576060840151613edb906001613e6d565b8160600151600e846000015181548110613f1c57613f1c6152e3565b90600052602060002090600502016003016000828254613f3c91906156a6565b909155505060608301518251600e80549091908110613f5d57613f5d6152e3565b90600052602060002090600502016003016000828254613f7d91906156a6565b90915550508251600e8054600392908110613f9a57613f9a6152e3565b90600052602060002090600502016002016000828254613fba91906156a6565b90915550508151600e8054600392908110613fd757613fd76152e3565b90600052602060002090600502016002016000828254613ff791906156a6565b9091555050506060830151614322565b8260200151600114801561401f575081602001516002145b156141565760008260800151836040015161403a919061561c565b90508084606001511061406457606085015161405e9060005b602002015186612bd3565b50613edb565b6000846060015184608001511115614081575060408301516140a7565b606085015161409090836156a6565b6060870151602001516001600160a01b0316845290505b80600e8560000151815481106140bf576140bf6152e3565b9060005260206000209060050201600301819055506003600e8660000151815481106140ed576140ed6152e3565b9060005260206000209060050201600201600082825461410d91906156a6565b90915550508351600e805460039290811061412a5761412a6152e3565b9060005260206000209060050201600201600082825461414a919061561c565b90915550505050614322565b8260200151600214801561416e575081602001516001145b1561428957600083608001518460400151614189919061561c565b9050808360600151106141a657606085015161405e906001614053565b60008360600151856080015111156141c3575060408401516141e6565b60608401516141d290836156a6565b6060870151516001600160a01b0316845290505b80600e8660000151815481106141fe576141fe6152e3565b9060005260206000209060050201600301819055506003600e86600001518154811061422c5761422c6152e3565b9060005260206000209060050201600201600082825461424c919061561c565b90915550508351600e8054600392908110614269576142696152e3565b9060005260206000209060050201600201600082825461414a91906156a6565b826020015160021480156142a1575081602001516002145b15614322576003600e8460000151815481106142bf576142bf6152e3565b906000526020600020906005020160020160008282546142df919061561c565b90915550508151600e80546003929081106142fc576142fc6152e3565b9060005260206000209060050201600201600082825461431c919061561c565b90915550505b7fc6bf860cbc15f7020f73993a671f01bbb1831a8a7a12c126ca735eb632e7577581604051614351919061588f565b60405180910390a1608084018051600090819052905160200152604084015161437a9085613263565b60006143a2600a8660600151600060028110614398576143986152e3565b6020020151613ab3565b905080600f600c600088606001516000600281106143c2576143c26152e3565b60200201516001600160a01b03166001600160a01b0316815260200190815260200160002054815481106143f8576143f86152e3565b600091825260209091206002600490920201015561441781600a6156a6565b600f600c60008860600151600060028110614434576144346152e3565b60200201516001600160a01b03166001600160a01b03168152602001908152602001600020548154811061446a5761446a6152e3565b906000526020600020906004020160030181905550600061449d600a8760600151600160028110614398576143986152e3565b905080600f600c600089606001516001600281106144bd576144bd6152e3565b60200201516001600160a01b03166001600160a01b0316815260200190815260200160002054815481106144f3576144f36152e3565b600091825260209091206002600490920201015561451281600a6156a6565b600f600c6000896060015160016002811061452f5761452f6152e3565b60200201516001600160a01b03166001600160a01b031681526020019081526020016000205481548110614565576145656152e3565b906000526020600020906004020160030181905550505050505050565b604080516001808252818301909252606091600091906020808301908036833701905050905082816000815181106145bc576145bc6152e3565b602090810291909101015292915050565b6001600160a01b0384163b15612b795760405163f23a6e6160e01b81526001600160a01b0385169063f23a6e6190614611908990899088908890889060040161589d565b6020604051808303816000875af192505050801561464c575060408051601f3d908101601f1916820190925261464991810190615785565b60015b614658576139da6157a2565b6001600160e01b0319811663f23a6e6160e01b14613aaa5760405162461bcd60e51b81526004016109f690615847565b6001600160a01b03851661470f5760005b835181101561470d578281815181106146b4576146b46152e3565b6020026020010151600460008684815181106146d2576146d26152e3565b6020026020010151815260200190815260200160002060008282546146f7919061561c565b9091555061470690508161547f565b9050614699565b505b6001600160a01b038416612b795760005b8351811015613aaa57600084828151811061473d5761473d6152e3565b60200260200101519050600084838151811061475b5761475b6152e3565b60200260200101519050600060046000848152602001908152602001600020549050818110156147de5760405162461bcd60e51b815260206004820152602860248201527f455243313135353a206275726e20616d6f756e74206578636565647320746f74604482015267616c537570706c7960c01b60648201526084016109f6565b600092835260046020526040909220910390556147fa8161547f565b9050614720565b6040805160c081019091528060008152600060208201526060604082018190520161482a61492a565b815260200161483761492a565b8152600060209091015290565b826002810192821561488c579160200282015b8281111561488c57825182546001600160a01b0319166001600160a01b03909116178255602090920191600190910190614857565b50614898929150614948565b5090565b60018301918390821561488c5791602002820160005b838211156148f057835183826101000a81548160ff021916908360ff16021790555092602001926001016020816000010492830192600103026148b2565b801561491d5782816101000a81549060ff02191690556001016020816000010492830192600103026148f0565b5050614898929150614948565b60405180604001604052806002906020820280368337509192915050565b5b808211156148985760008155600101614949565b80356001600160a01b0381168114610bca57600080fd5b6000806040838503121561498757600080fd5b6149908361495d565b946020939093013593505050565b60005b838110156149b95781810151838201526020016149a1565b50506000910152565b600081518084526149da81602086016020860161499e565b601f01601f19169290920160200192915050565b6000815160808452614a0360808501826149c2565b90506020830151602085015260408301516040850152606083015160608501528091505092915050565b6000602080830181845280855180835260408601915060408160051b870101925083870160005b82811015614a8257603f19888603018452614a708583516149ee565b94509285019290850190600101614a54565b5092979650505050505050565b6001600160e01b031981168114610b9857600080fd5b600060208284031215614ab757600080fd5b8135614ac281614a8f565b9392505050565b634e487b7160e01b600052604160045260246000fd5b601f8201601f191681016001600160401b0381118282101715614b0457614b04614ac9565b6040525050565b600082601f830112614b1c57600080fd5b81356001600160401b03811115614b3557614b35614ac9565b604051614b4c601f8301601f191660200182614adf565b818152846020838601011115614b6157600080fd5b816020850160208301376000918101602001919091529392505050565b600060208284031215614b9057600080fd5b81356001600160401b03811115614ba657600080fd5b613b2784828501614b0b565b600060208284031215614bc457600080fd5b614ac28261495d565b600060208284031215614bdf57600080fd5b5035919050565b602081526000614ac260208301846149c2565b602081526000614ac260208301846149ee565b634e487b7160e01b600052602160045260246000fd5b60038110614c4057634e487b7160e01b600052602160045260246000fd5b9052565b8060005b600281101561254c5781516001600160a01b0316845260209384019390910190600101614c48565b6000610100614c80848451614c22565b602080840151818601526040840151826040870152614ca1838701826149c2565b9250506060840151614cb66060870182614c44565b50608084015160a0860160005b6002811015614ce357825160ff1682529183019190830190600101614cc3565b5050505060a08301516001600160a01b03811660e08601526113bf565b602081526000614ac26020830184614c70565b60006001600160401b03821115614d2c57614d2c614ac9565b5060051b60200190565b600082601f830112614d4757600080fd5b81356020614d5482614d13565b604051614d618282614adf565b83815260059390931b8501820192828101915086841115614d8157600080fd5b8286015b84811015614d9c5780358352918301918301614d85565b509695505050505050565b600080600080600060a08688031215614dbf57600080fd5b614dc88661495d565b9450614dd66020870161495d565b935060408601356001600160401b0380821115614df257600080fd5b614dfe89838a01614d36565b94506060880135915080821115614e1457600080fd5b614e2089838a01614d36565b93506080880135915080821115614e3657600080fd5b50614e4388828901614b0b565b9150509295509295909350565b60008060408385031215614e6357600080fd5b82356001600160401b0380821115614e7a57600080fd5b818501915085601f830112614e8e57600080fd5b81356020614e9b82614d13565b604051614ea88282614adf565b83815260059390931b8501820192828101915089841115614ec857600080fd5b948201945b83861015614eed57614ede8661495d565b82529482019490820190614ecd565b96505086013592505080821115614f0357600080fd5b50614f1085828601614d36565b9150509250929050565b600081518084526020808501945080840160005b83811015614f4a57815187529582019590820190600101614f2e565b509495945050505050565b602081526000614ac26020830184614f1a565b60018060a01b0381511682526000602082015160a06020850152614f8f60a08501826149c2565b905060408301516040850152606083015160608501526080830151151560808501528091505092915050565b602081526000614ac26020830184614f68565b6000602080830181845280855180835260408601915060408160051b870101925083870160005b82811015614a8257603f19888603018452615011858351614c70565b94509285019290850190600101614ff5565b61502d8186614c22565b83602082015260806040820152600061504960808301856149c2565b905060018060a01b038316606083015295945050505050565b6000806040838503121561507557600080fd5b82356001600160401b038082111561508c57600080fd5b61509886838701614b0b565b935060208501359150808211156150ae57600080fd5b50614f1085828601614b0b565b8015158114610b9857600080fd5b600080604083850312156150dc57600080fd5b6150e58361495d565b915060208301356150f5816150bb565b809150509250929050565b6000806040838503121561511357600080fd5b823560ff8116811461512457600080fd5b915060208301356001600160401b0381111561513f57600080fd5b614f1085828601614b0b565b60808152600061515e60808301876149c2565b6020830195909552506040810192909252606090910152919050565b6000806040838503121561518d57600080fd5b6151968361495d565b91506151a46020840161495d565b90509250929050565b6000602080830181845280855180835260408601915060408160051b870101925083870160005b82811015614a8257603f198886030184526151f0858351614f68565b945092850192908501906001016151d4565b600080600080600060a0868803121561521a57600080fd5b6152238661495d565b94506152316020870161495d565b9350604086013592506060860135915060808601356001600160401b0381111561525a57600080fd5b614e4388828901614b0b565b6001600160a01b038616815260a06020820181905260009061528a908301876149c2565b6040830195909552506060810192909252151560809091015292915050565b600181811c908216806152bd57607f821691505b6020821081036152dd57634e487b7160e01b600052602260045260246000fd5b50919050565b634e487b7160e01b600052603260045260246000fd5b6000825161530b81846020870161499e565b9190910192915050565b601f821115611bbf57600081815260208120601f850160051c8101602086101561533c5750805b601f850160051c820191505b81811015612b7957828155600101615348565b81516001600160401b0381111561537457615374614ac9565b6153888161538284546152a9565b84615315565b602080601f8311600181146153bd57600084156153a55750858301515b600019600386901b1c1916600185901b178555612b79565b600085815260208120601f198616915b828110156153ec578886015182559484019460019091019084016153cd565b508582101561540a5787850151600019600388901b60f8161c191681555b5050505050600190811b01905550565b6020808252602f908201527f455243313135353a2063616c6c6572206973206e6f7420746f6b656e206f776e60408201526e195c881b9bdc88185c1c1c9bdd9959608a1b606082015260800190565b634e487b7160e01b600052601160045260246000fd5b60006001820161549157615491615469565b5060010190565b6000602082840312156154aa57600080fd5b8151614ac2816150bb565b6000602082840312156154c757600080fd5b5051919050565b60ff8281168282160390811115610a2257610a22615469565b60008084546154f5816152a9565b6001828116801561550d576001811461552257615551565b60ff1984168752821515830287019450615551565b8860005260208060002060005b858110156155485781548a82015290840190820161552f565b50505082870194505b50602f60f81b84528651925061556d8382860160208a0161499e565b64173539b7b760d91b939092019182019290925260060195945050505050565b60208082526025908201527f455243313135353a207472616e7366657220746f20746865207a65726f206164604082015264647265737360d81b606082015260800190565b6020808252602a908201527f455243313135353a20696e73756666696369656e742062616c616e636520666f60408201526939103a3930b739b332b960b11b606082015260800190565b80820180821115610a2257610a22615469565b6040815260006156426040830185614f1a565b82810360208401526156548185614f1a565b95945050505050565b600081600019048311821515161561567757615677615469565b500290565b634e487b7160e01b600052601260045260246000fd5b6000826156a1576156a161567c565b500490565b81810381811115610a2257610a22615469565b6000826156c8576156c861567c565b500690565b600060ff8316806156e0576156e061567c565b8060ff84160691505092915050565b600060ff821660ff810361570557615705615469565b60010192915050565b60ff8181168382160190811115610a2257610a22615469565b6001600160a01b0386811682528516602082015260a06040820181905260009061575390830186614f1a565b82810360608401526157658186614f1a565b9050828103608084015261577981856149c2565b98975050505050505050565b60006020828403121561579757600080fd5b8151614ac281614a8f565b600060033d11156157bb5760046000803e5060005160e01c5b90565b600060443d10156157cc5790565b6040516003193d81016004833e81513d6001600160401b0381602484011181841117156157fb57505050505090565b82850191508151818111156158135750505050505090565b843d870101602082850101111561582d5750505050505090565b61583c60208286010187614adf565b509095945050505050565b60208082526028908201527f455243313135353a204552433131353552656365697665722072656a656374656040820152676420746f6b656e7360c01b606082015260800190565b60408101610a228284614c44565b6001600160a01b03868116825285166020820152604081018490526060810183905260a0608082018190526000906158d7908301846149c2565b97965050505050505056fea2646970667358221220c01fe891c63b33a84649842ee84c2368fbd26e7c6bedf5d878585a652255c9f964736f6c63430008100033",
			"opcodes": "PUSH1 0x80 PUSH1 0x40 MSTORE PUSH1 0x1 PUSH1 0x9 SSTORE PUSH1 0x5 PUSH1 0xA SSTORE CALLVALUE DUP1 ISZERO PUSH3 0x1B JUMPI PUSH1 0x0 DUP1 REVERT JUMPDEST POP PUSH1 0x40 MLOAD PUSH3 0x606E CODESIZE SUB DUP1 PUSH3 0x606E DUP4 CODECOPY DUP2 ADD PUSH1 0x40 DUP2 SWAP1 MSTORE PUSH3 0x3E SWAP2 PUSH3 0x4DB JUMP JUMPDEST DUP3 PUSH3 0x4A DUP2 PUSH3 0xA8 JUMP JUMPDEST POP PUSH3 0x56 CALLER PUSH3 0xBA JUMP JUMPDEST PUSH1 0x5 PUSH3 0x64 DUP5 DUP3 PUSH3 0x664 JUMP JUMPDEST POP PUSH1 0x7 DUP1 SLOAD PUSH1 0x1 PUSH1 0x1 PUSH1 0xA0 SHL SUB DUP1 DUP6 AND PUSH1 0x1 PUSH1 0x1 PUSH1 0xA0 SHL SUB NOT SWAP3 DUP4 AND OR SWAP1 SWAP3 SSTORE PUSH1 0x8 DUP1 SLOAD SWAP3 DUP5 AND SWAP3 SWAP1 SWAP2 AND SWAP2 SWAP1 SWAP2 OR SWAP1 SSTORE PUSH3 0x9F PUSH3 0x10C JUMP JUMPDEST POP POP POP PUSH3 0x746 JUMP JUMPDEST PUSH1 0x2 PUSH3 0xB6 DUP3 DUP3 PUSH3 0x664 JUMP JUMPDEST POP POP JUMP JUMPDEST PUSH1 0x3 DUP1 SLOAD PUSH1 0x1 PUSH1 0x1 PUSH1 0xA0 SHL SUB DUP4 DUP2 AND PUSH1 0x1 PUSH1 0x1 PUSH1 0xA0 SHL SUB NOT DUP4 AND DUP2 OR SWAP1 SWAP4 SSTORE PUSH1 0x40 MLOAD SWAP2 AND SWAP2 SWAP1 DUP3 SWAP1 PUSH32 0x8BE0079C531659141344CD1FD0A4F28419497F9722A3DAAFE3B4186F6B6457E0 SWAP1 PUSH1 0x0 SWAP1 LOG3 POP POP JUMP JUMPDEST PUSH1 0x40 DUP1 MLOAD PUSH1 0xA0 DUP2 ADD DUP3 MSTORE PUSH1 0x0 PUSH1 0x80 DUP3 ADD DUP2 DUP2 MSTORE DUP3 MSTORE PUSH1 0x20 DUP3 ADD DUP2 SWAP1 MSTORE SWAP2 DUP2 ADD DUP3 SWAP1 MSTORE PUSH1 0x60 DUP2 ADD DUP3 SWAP1 MSTORE PUSH1 0xF DUP1 SLOAD PUSH1 0x1 DUP2 ADD DUP3 SSTORE SWAP3 MSTORE DUP1 MLOAD SWAP1 SWAP2 PUSH1 0x4 MUL PUSH32 0x8D1108E10BCB7C27DDDFC02ED9D693A074039D026CF4EA4240B40F7D581AC802 ADD SWAP1 DUP2 SWAP1 PUSH3 0x179 SWAP1 DUP3 PUSH3 0x664 JUMP JUMPDEST POP PUSH1 0x20 DUP3 DUP2 ADD MLOAD PUSH1 0x1 DUP4 DUP2 ADD SWAP2 SWAP1 SWAP2 SSTORE PUSH1 0x40 DUP1 DUP6 ADD MLOAD PUSH1 0x2 DUP6 ADD SSTORE PUSH1 0x60 SWAP5 DUP6 ADD MLOAD PUSH1 0x3 SWAP1 SWAP5 ADD SWAP4 SWAP1 SWAP4 SSTORE DUP3 MLOAD PUSH1 0xA0 DUP2 ADD DUP5 MSTORE PUSH1 0x0 DUP1 DUP3 MSTORE DUP5 MLOAD DUP1 DUP6 ADD DUP7 MSTORE DUP2 DUP2 MSTORE SWAP4 DUP3 ADD SWAP4 DUP5 MSTORE SWAP4 DUP2 ADD DUP5 SWAP1 MSTORE SWAP4 DUP5 ADD DUP4 SWAP1 MSTORE PUSH1 0x80 DUP5 ADD DUP4 SWAP1 MSTORE PUSH1 0xE DUP1 SLOAD SWAP2 DUP3 ADD DUP2 SSTORE SWAP1 SWAP3 MSTORE DUP3 MLOAD PUSH32 0xBB7B4A454DC3493923482F07822329ED19E8244EFF582CC204F8554C3620C3FD PUSH1 0x5 SWAP1 SWAP4 MUL SWAP3 DUP4 ADD DUP1 SLOAD PUSH1 0x1 PUSH1 0x1 PUSH1 0xA0 SHL SUB NOT AND PUSH1 0x1 PUSH1 0x1 PUSH1 0xA0 SHL SUB SWAP1 SWAP3 AND SWAP2 SWAP1 SWAP2 OR DUP2 SSTORE SWAP1 MLOAD SWAP1 SWAP2 PUSH32 0xBB7B4A454DC3493923482F07822329ED19E8244EFF582CC204F8554C3620C3FE ADD SWAP1 PUSH3 0x25A SWAP1 DUP3 PUSH3 0x664 JUMP JUMPDEST POP PUSH1 0x40 DUP3 DUP2 ADD MLOAD PUSH1 0x2 DUP4 ADD SSTORE PUSH1 0x60 DUP4 ADD MLOAD PUSH1 0x3 DUP4 ADD SSTORE PUSH1 0x80 SWAP1 SWAP3 ADD MLOAD PUSH1 0x4 SWAP1 SWAP2 ADD DUP1 SLOAD PUSH1 0xFF NOT AND SWAP2 ISZERO ISZERO SWAP2 SWAP1 SWAP2 OR SWAP1 SSTORE DUP1 MLOAD PUSH1 0xC0 DUP2 ADD SWAP1 SWAP2 MSTORE PUSH1 0x10 SWAP1 DUP1 PUSH1 0x0 DUP2 MSTORE PUSH1 0x0 PUSH1 0x20 DUP1 DUP4 ADD DUP3 SWAP1 MSTORE PUSH1 0x40 DUP1 MLOAD DUP1 DUP4 ADD DUP3 MSTORE DUP4 DUP2 MSTORE DUP2 DUP6 ADD MSTORE DUP1 MLOAD DUP1 DUP3 ADD DUP3 MSTORE DUP4 DUP2 MSTORE DUP1 DUP4 ADD DUP5 SWAP1 MSTORE PUSH1 0x60 DUP6 ADD MSTORE DUP1 MLOAD DUP1 DUP3 ADD SWAP1 SWAP2 MSTORE DUP3 DUP2 MSTORE DUP1 DUP3 ADD DUP4 SWAP1 MSTORE PUSH1 0x80 DUP5 ADD MSTORE PUSH1 0xA0 SWAP1 SWAP3 ADD DUP2 SWAP1 MSTORE DUP4 SLOAD PUSH1 0x1 DUP2 DUP2 ADD DUP7 SSTORE SWAP5 DUP3 MSTORE SWAP2 SWAP1 KECCAK256 DUP3 MLOAD PUSH1 0x7 SWAP1 SWAP3 MUL ADD DUP1 SLOAD SWAP3 SWAP4 SWAP1 SWAP3 DUP4 SWAP2 PUSH1 0xFF NOT SWAP1 SWAP2 AND SWAP1 DUP4 PUSH1 0x2 DUP2 GT ISZERO PUSH3 0x323 JUMPI PUSH3 0x323 PUSH3 0x730 JUMP JUMPDEST MUL OR SWAP1 SSTORE POP PUSH1 0x20 DUP3 ADD MLOAD PUSH1 0x1 DUP3 ADD SSTORE PUSH1 0x40 DUP3 ADD MLOAD PUSH1 0x2 DUP3 ADD SWAP1 PUSH3 0x348 SWAP1 DUP3 PUSH3 0x664 JUMP JUMPDEST POP PUSH1 0x60 DUP3 ADD MLOAD PUSH3 0x360 SWAP1 PUSH1 0x3 DUP4 ADD SWAP1 PUSH1 0x2 PUSH3 0x3A4 JUMP JUMPDEST POP PUSH1 0x80 DUP3 ADD MLOAD PUSH3 0x378 SWAP1 PUSH1 0x5 DUP4 ADD SWAP1 PUSH1 0x2 PUSH3 0x401 JUMP JUMPDEST POP PUSH1 0xA0 SWAP2 SWAP1 SWAP2 ADD MLOAD PUSH1 0x6 SWAP1 SWAP2 ADD DUP1 SLOAD PUSH1 0x1 PUSH1 0x1 PUSH1 0xA0 SHL SUB NOT AND PUSH1 0x1 PUSH1 0x1 PUSH1 0xA0 SHL SUB SWAP1 SWAP3 AND SWAP2 SWAP1 SWAP2 OR SWAP1 SSTORE JUMP JUMPDEST DUP3 PUSH1 0x2 DUP2 ADD SWAP3 DUP3 ISZERO PUSH3 0x3EF JUMPI SWAP2 PUSH1 0x20 MUL DUP3 ADD JUMPDEST DUP3 DUP2 GT ISZERO PUSH3 0x3EF JUMPI DUP3 MLOAD DUP3 SLOAD PUSH1 0x1 PUSH1 0x1 PUSH1 0xA0 SHL SUB NOT AND PUSH1 0x1 PUSH1 0x1 PUSH1 0xA0 SHL SUB SWAP1 SWAP2 AND OR DUP3 SSTORE PUSH1 0x20 SWAP1 SWAP3 ADD SWAP2 PUSH1 0x1 SWAP1 SWAP2 ADD SWAP1 PUSH3 0x3B8 JUMP JUMPDEST POP PUSH3 0x3FD SWAP3 SWAP2 POP PUSH3 0x491 JUMP JUMPDEST POP SWAP1 JUMP JUMPDEST PUSH1 0x1 DUP4 ADD SWAP2 DUP4 SWAP1 DUP3 ISZERO PUSH3 0x3EF JUMPI SWAP2 PUSH1 0x20 MUL DUP3 ADD PUSH1 0x0 JUMPDEST DUP4 DUP3 GT ISZERO PUSH3 0x458 JUMPI DUP4 MLOAD DUP4 DUP3 PUSH2 0x100 EXP DUP2 SLOAD DUP2 PUSH1 0xFF MUL NOT AND SWAP1 DUP4 PUSH1 0xFF AND MUL OR SWAP1 SSTORE POP SWAP3 PUSH1 0x20 ADD SWAP3 PUSH1 0x1 ADD PUSH1 0x20 DUP2 PUSH1 0x0 ADD DIV SWAP3 DUP4 ADD SWAP3 PUSH1 0x1 SUB MUL PUSH3 0x418 JUMP JUMPDEST DUP1 ISZERO PUSH3 0x487 JUMPI DUP3 DUP2 PUSH2 0x100 EXP DUP2 SLOAD SWAP1 PUSH1 0xFF MUL NOT AND SWAP1 SSTORE PUSH1 0x1 ADD PUSH1 0x20 DUP2 PUSH1 0x0 ADD DIV SWAP3 DUP4 ADD SWAP3 PUSH1 0x1 SUB MUL PUSH3 0x458 JUMP JUMPDEST POP POP PUSH3 0x3FD SWAP3 SWAP2 POP JUMPDEST JUMPDEST DUP1 DUP3 GT ISZERO PUSH3 0x3FD JUMPI PUSH1 0x0 DUP2 SSTORE PUSH1 0x1 ADD PUSH3 0x492 JUMP JUMPDEST PUSH4 0x4E487B71 PUSH1 0xE0 SHL PUSH1 0x0 MSTORE PUSH1 0x41 PUSH1 0x4 MSTORE PUSH1 0x24 PUSH1 0x0 REVERT JUMPDEST DUP1 MLOAD PUSH1 0x1 PUSH1 0x1 PUSH1 0xA0 SHL SUB DUP2 AND DUP2 EQ PUSH3 0x4D6 JUMPI PUSH1 0x0 DUP1 REVERT JUMPDEST SWAP2 SWAP1 POP JUMP JUMPDEST PUSH1 0x0 DUP1 PUSH1 0x0 PUSH1 0x60 DUP5 DUP7 SUB SLT ISZERO PUSH3 0x4F1 JUMPI PUSH1 0x0 DUP1 REVERT JUMPDEST DUP4 MLOAD PUSH1 0x1 PUSH1 0x1 PUSH1 0x40 SHL SUB DUP1 DUP3 GT ISZERO PUSH3 0x509 JUMPI PUSH1 0x0 DUP1 REVERT JUMPDEST DUP2 DUP7 ADD SWAP2 POP DUP7 PUSH1 0x1F DUP4 ADD SLT PUSH3 0x51E JUMPI PUSH1 0x0 DUP1 REVERT JUMPDEST DUP2 MLOAD DUP2 DUP2 GT ISZERO PUSH3 0x533 JUMPI PUSH3 0x533 PUSH3 0x4A8 JUMP JUMPDEST PUSH1 0x40 MLOAD PUSH1 0x1F DUP3 ADD PUSH1 0x1F NOT SWAP1 DUP2 AND PUSH1 0x3F ADD AND DUP2 ADD SWAP1 DUP4 DUP3 GT DUP2 DUP4 LT OR ISZERO PUSH3 0x55E JUMPI PUSH3 0x55E PUSH3 0x4A8 JUMP JUMPDEST DUP2 PUSH1 0x40 MSTORE DUP3 DUP2 MSTORE PUSH1 0x20 SWAP4 POP DUP10 DUP5 DUP5 DUP8 ADD ADD GT ISZERO PUSH3 0x57B JUMPI PUSH1 0x0 DUP1 REVERT JUMPDEST PUSH1 0x0 SWAP2 POP JUMPDEST DUP3 DUP3 LT ISZERO PUSH3 0x59F JUMPI DUP5 DUP3 ADD DUP5 ADD MLOAD DUP2 DUP4 ADD DUP6 ADD MSTORE SWAP1 DUP4 ADD SWAP1 PUSH3 0x580 JUMP JUMPDEST PUSH1 0x0 DUP5 DUP5 DUP4 ADD ADD MSTORE DUP1 SWAP8 POP POP POP POP PUSH3 0x5BA DUP2 DUP8 ADD PUSH3 0x4BE JUMP JUMPDEST SWAP4 POP POP POP PUSH3 0x5CC PUSH1 0x40 DUP6 ADD PUSH3 0x4BE JUMP JUMPDEST SWAP1 POP SWAP3 POP SWAP3 POP SWAP3 JUMP JUMPDEST PUSH1 0x1 DUP2 DUP2 SHR SWAP1 DUP3 AND DUP1 PUSH3 0x5EA JUMPI PUSH1 0x7F DUP3 AND SWAP2 POP JUMPDEST PUSH1 0x20 DUP3 LT DUP2 SUB PUSH3 0x60B JUMPI PUSH4 0x4E487B71 PUSH1 0xE0 SHL PUSH1 0x0 MSTORE PUSH1 0x22 PUSH1 0x4 MSTORE PUSH1 0x24 PUSH1 0x0 REVERT JUMPDEST POP SWAP2 SWAP1 POP JUMP JUMPDEST PUSH1 0x1F DUP3 GT ISZERO PUSH3 0x65F JUMPI PUSH1 0x0 DUP2 DUP2 MSTORE PUSH1 0x20 DUP2 KECCAK256 PUSH1 0x1F DUP6 ADD PUSH1 0x5 SHR DUP2 ADD PUSH1 0x20 DUP7 LT ISZERO PUSH3 0x63A JUMPI POP DUP1 JUMPDEST PUSH1 0x1F DUP6 ADD PUSH1 0x5 SHR DUP3 ADD SWAP2 POP JUMPDEST DUP2 DUP2 LT ISZERO PUSH3 0x65B JUMPI DUP3 DUP2 SSTORE PUSH1 0x1 ADD PUSH3 0x646 JUMP JUMPDEST POP POP POP JUMPDEST POP POP POP JUMP JUMPDEST DUP2 MLOAD PUSH1 0x1 PUSH1 0x1 PUSH1 0x40 SHL SUB DUP2 GT ISZERO PUSH3 0x680 JUMPI PUSH3 0x680 PUSH3 0x4A8 JUMP JUMPDEST PUSH3 0x698 DUP2 PUSH3 0x691 DUP5 SLOAD PUSH3 0x5D5 JUMP JUMPDEST DUP5 PUSH3 0x611 JUMP JUMPDEST PUSH1 0x20 DUP1 PUSH1 0x1F DUP4 GT PUSH1 0x1 DUP2 EQ PUSH3 0x6D0 JUMPI PUSH1 0x0 DUP5 ISZERO PUSH3 0x6B7 JUMPI POP DUP6 DUP4 ADD MLOAD JUMPDEST PUSH1 0x0 NOT PUSH1 0x3 DUP7 SWAP1 SHL SHR NOT AND PUSH1 0x1 DUP6 SWAP1 SHL OR DUP6 SSTORE PUSH3 0x65B JUMP JUMPDEST PUSH1 0x0 DUP6 DUP2 MSTORE PUSH1 0x20 DUP2 KECCAK256 PUSH1 0x1F NOT DUP7 AND SWAP2 JUMPDEST DUP3 DUP2 LT ISZERO PUSH3 0x701 JUMPI DUP9 DUP7 ADD MLOAD DUP3 SSTORE SWAP5 DUP5 ADD SWAP5 PUSH1 0x1 SWAP1 SWAP2 ADD SWAP1 DUP5 ADD PUSH3 0x6E0 JUMP JUMPDEST POP DUP6 DUP3 LT ISZERO PUSH3 0x720 JUMPI DUP8 DUP6 ADD MLOAD PUSH1 0x0 NOT PUSH1 0x3 DUP9 SWAP1 SHL PUSH1 0xF8 AND SHR NOT AND DUP2 SSTORE JUMPDEST POP POP POP POP POP PUSH1 0x1 SWAP1 DUP2 SHL ADD SWAP1 SSTORE POP JUMP JUMPDEST PUSH4 0x4E487B71 PUSH1 0xE0 SHL PUSH1 0x0 MSTORE PUSH1 0x21 PUSH1 0x4 MSTORE PUSH1 0x24 PUSH1 0x0 REVERT JUMPDEST PUSH2 0x5918 DUP1 PUSH3 0x756 PUSH1 0x0 CODECOPY PUSH1 0x0 RETURN INVALID PUSH1 0x80 PUSH1 0x40 MSTORE PUSH1 0x4 CALLDATASIZE LT PUSH2 0x2AD JUMPI PUSH1 0x0 CALLDATALOAD PUSH1 0xE0 SHR DUP1 PUSH4 0x715018A6 GT PUSH2 0x166 JUMPI DUP1 PUSH4 0xBF103A4D GT PUSH2 0xD3 JUMPI DUP1 PUSH4 0xE985E9C5 GT PUSH2 0x8F JUMPI DUP1 PUSH4 0xF242432A GT PUSH2 0x6C JUMPI DUP1 PUSH4 0xF242432A EQ PUSH2 0x8FE JUMPI DUP1 PUSH4 0xF2FDE38B EQ PUSH2 0x91E JUMPI DUP1 PUSH4 0xF71D96CB EQ PUSH2 0x93E JUMPI DUP1 PUSH4 0xFC0C546A EQ PUSH2 0x96F JUMPI STOP JUMPDEST DUP1 PUSH4 0xE985E9C5 EQ PUSH2 0x87E JUMPI DUP1 PUSH4 0xEFA1C482 EQ PUSH2 0x8C7 JUMPI DUP1 PUSH4 0xF1DA7339 EQ PUSH2 0x8E9 JUMPI STOP JUMPDEST DUP1 PUSH4 0xBF103A4D EQ PUSH2 0x7E9 JUMPI DUP1 PUSH4 0xC4E41B22 EQ PUSH2 0x809 JUMPI DUP1 PUSH4 0xC87B56DD EQ PUSH2 0x81E JUMPI DUP1 PUSH4 0xD2198CC5 EQ PUSH2 0x83E JUMPI DUP1 PUSH4 0xD24257C0 EQ PUSH2 0x853 JUMPI DUP1 PUSH4 0xDE96CEFC EQ PUSH2 0x869 JUMPI STOP JUMPDEST DUP1 PUSH4 0x9EC40AA3 GT PUSH2 0x122 JUMPI DUP1 PUSH4 0x9EC40AA3 EQ PUSH2 0x719 JUMPI DUP1 PUSH4 0xA1B4F57C EQ PUSH2 0x739 JUMPI DUP1 PUSH4 0xA22CB465 EQ PUSH2 0x74C JUMPI DUP1 PUSH4 0xBA274956 EQ PUSH2 0x76C JUMPI DUP1 PUSH4 0xBD85B039 EQ PUSH2 0x78C JUMPI DUP1 PUSH4 0xBF034B69 EQ PUSH2 0x7B9 JUMPI STOP JUMPDEST DUP1 PUSH4 0x715018A6 EQ PUSH2 0x648 JUMPI DUP1 PUSH4 0x845F433B EQ PUSH2 0x65D JUMPI DUP1 PUSH4 0x8DA5CB5B EQ PUSH2 0x67D JUMPI DUP1 PUSH4 0x996D7BEA EQ PUSH2 0x6AF JUMPI DUP1 PUSH4 0x9B09CC87 EQ PUSH2 0x6CF JUMPI DUP1 PUSH4 0x9E4ECD11 EQ PUSH2 0x704 JUMPI STOP JUMPDEST DUP1 PUSH4 0x2711162E GT PUSH2 0x21C JUMPI DUP1 PUSH4 0x4F558E79 GT PUSH2 0x1D8 JUMPI DUP1 PUSH4 0x5EA1D6F8 GT PUSH2 0x1B5 JUMPI DUP1 PUSH4 0x5EA1D6F8 EQ PUSH2 0x5D8 JUMPI DUP1 PUSH4 0x606D2E96 EQ PUSH2 0x5EE JUMPI DUP1 PUSH4 0x6C0360EB EQ PUSH2 0x61E JUMPI DUP1 PUSH4 0x703730A5 EQ PUSH2 0x633 JUMPI STOP JUMPDEST DUP1 PUSH4 0x4F558E79 EQ PUSH2 0x55A JUMPI DUP1 PUSH4 0x5C12CD4B EQ PUSH2 0x589 JUMPI DUP1 PUSH4 0x5C93FC3D EQ PUSH2 0x5B6 JUMPI STOP JUMPDEST DUP1 PUSH4 0x2711162E EQ PUSH2 0x45B JUMPI DUP1 PUSH4 0x2CA04522 EQ PUSH2 0x488 JUMPI DUP1 PUSH4 0x2EB2C2D6 EQ PUSH2 0x4A8 JUMPI DUP1 PUSH4 0x3835E2B5 EQ PUSH2 0x4C8 JUMPI DUP1 PUSH4 0x4B114691 EQ PUSH2 0x500 JUMPI DUP1 PUSH4 0x4E1273F4 EQ PUSH2 0x52D JUMPI STOP JUMPDEST DUP1 PUSH4 0xDAEA2CD GT PUSH2 0x26B JUMPI DUP1 PUSH4 0xDAEA2CD EQ PUSH2 0x389 JUMPI DUP1 PUSH4 0xE89341C EQ PUSH2 0x39E JUMPI DUP1 PUSH4 0x10898E4C EQ PUSH2 0x3CB JUMPI DUP1 PUSH4 0x1107AE3D EQ PUSH2 0x3F8 JUMPI DUP1 PUSH4 0x16801D17 EQ PUSH2 0x418 JUMPI DUP1 PUSH4 0x18160DDD EQ PUSH2 0x445 JUMPI STOP JUMPDEST DUP1 PUSH3 0xFDD58E EQ PUSH2 0x2AF JUMPI DUP1 PUSH4 0x15A3792 EQ PUSH2 0x2E2 JUMPI DUP1 PUSH4 0x1FFC9A7 EQ PUSH2 0x304 JUMPI DUP1 PUSH4 0x2FE5305 EQ PUSH2 0x334 JUMPI DUP1 PUSH4 0x677AA4E EQ PUSH2 0x354 JUMPI DUP1 PUSH4 0x9C95E10 EQ PUSH2 0x369 JUMPI JUMPDEST STOP JUMPDEST CALLVALUE DUP1 ISZERO PUSH2 0x2BB JUMPI PUSH1 0x0 DUP1 REVERT JUMPDEST POP PUSH2 0x2CF PUSH2 0x2CA CALLDATASIZE PUSH1 0x4 PUSH2 0x4974 JUMP JUMPDEST PUSH2 0x98F JUMP JUMPDEST PUSH1 0x40 MLOAD SWAP1 DUP2 MSTORE PUSH1 0x20 ADD JUMPDEST PUSH1 0x40 MLOAD DUP1 SWAP2 SUB SWAP1 RETURN JUMPDEST CALLVALUE DUP1 ISZERO PUSH2 0x2EE JUMPI PUSH1 0x0 DUP1 REVERT JUMPDEST POP PUSH2 0x2F7 PUSH2 0xA28 JUMP JUMPDEST PUSH1 0x40 MLOAD PUSH2 0x2D9 SWAP2 SWAP1 PUSH2 0x4A2D JUMP JUMPDEST CALLVALUE DUP1 ISZERO PUSH2 0x310 JUMPI PUSH1 0x0 DUP1 REVERT JUMPDEST POP PUSH2 0x324 PUSH2 0x31F CALLDATASIZE PUSH1 0x4 PUSH2 0x4AA5 JUMP JUMPDEST PUSH2 0xB37 JUMP JUMPDEST PUSH1 0x40 MLOAD SWAP1 ISZERO ISZERO DUP2 MSTORE PUSH1 0x20 ADD PUSH2 0x2D9 JUMP JUMPDEST CALLVALUE DUP1 ISZERO PUSH2 0x340 JUMPI PUSH1 0x0 DUP1 REVERT JUMPDEST POP PUSH2 0x2AD PUSH2 0x34F CALLDATASIZE PUSH1 0x4 PUSH2 0x4B7E JUMP JUMPDEST PUSH2 0xB87 JUMP JUMPDEST CALLVALUE DUP1 ISZERO PUSH2 0x360 JUMPI PUSH1 0x0 DUP1 REVERT JUMPDEST POP PUSH2 0x2CF PUSH1 0x3 DUP2 JUMP JUMPDEST CALLVALUE DUP1 ISZERO PUSH2 0x375 JUMPI PUSH1 0x0 DUP1 REVERT JUMPDEST POP PUSH2 0x324 PUSH2 0x384 CALLDATASIZE PUSH1 0x4 PUSH2 0x4BB2 JUMP JUMPDEST PUSH2 0xB9B JUMP JUMPDEST CALLVALUE DUP1 ISZERO PUSH2 0x395 JUMPI PUSH1 0x0 DUP1 REVERT JUMPDEST POP PUSH2 0x2CF PUSH1 0xA DUP2 JUMP JUMPDEST CALLVALUE DUP1 ISZERO PUSH2 0x3AA JUMPI PUSH1 0x0 DUP1 REVERT JUMPDEST POP PUSH2 0x3BE PUSH2 0x3B9 CALLDATASIZE PUSH1 0x4 PUSH2 0x4BCD JUMP JUMPDEST PUSH2 0xBCF JUMP JUMPDEST PUSH1 0x40 MLOAD PUSH2 0x2D9 SWAP2 SWAP1 PUSH2 0x4BE6 JUMP JUMPDEST CALLVALUE DUP1 ISZERO PUSH2 0x3D7 JUMPI PUSH1 0x0 DUP1 REVERT JUMPDEST POP PUSH2 0x3EB PUSH2 0x3E6 CALLDATASIZE PUSH1 0x4 PUSH2 0x4BB2 JUMP JUMPDEST PUSH2 0xC63 JUMP JUMPDEST PUSH1 0x40 MLOAD PUSH2 0x2D9 SWAP2 SWAP1 PUSH2 0x4BF9 JUMP JUMPDEST CALLVALUE DUP1 ISZERO PUSH2 0x404 JUMPI PUSH1 0x0 DUP1 REVERT JUMPDEST POP PUSH2 0x324 PUSH2 0x413 CALLDATASIZE PUSH1 0x4 PUSH2 0x4B7E JUMP JUMPDEST PUSH2 0xDE1 JUMP JUMPDEST CALLVALUE DUP1 ISZERO PUSH2 0x424 JUMPI PUSH1 0x0 DUP1 REVERT JUMPDEST POP PUSH2 0x438 PUSH2 0x433 CALLDATASIZE PUSH1 0x4 PUSH2 0x4B7E JUMP JUMPDEST PUSH2 0xE11 JUMP JUMPDEST PUSH1 0x40 MLOAD PUSH2 0x2D9 SWAP2 SWAP1 PUSH2 0x4D00 JUMP JUMPDEST CALLVALUE DUP1 ISZERO PUSH2 0x451 JUMPI PUSH1 0x0 DUP1 REVERT JUMPDEST POP PUSH2 0x2CF PUSH1 0x6 SLOAD DUP2 JUMP JUMPDEST CALLVALUE DUP1 ISZERO PUSH2 0x467 JUMPI PUSH1 0x0 DUP1 REVERT JUMPDEST POP PUSH2 0x2CF PUSH2 0x476 CALLDATASIZE PUSH1 0x4 PUSH2 0x4BB2 JUMP JUMPDEST PUSH1 0xC PUSH1 0x20 MSTORE PUSH1 0x0 SWAP1 DUP2 MSTORE PUSH1 0x40 SWAP1 KECCAK256 SLOAD DUP2 JUMP JUMPDEST CALLVALUE DUP1 ISZERO PUSH2 0x494 JUMPI PUSH1 0x0 DUP1 REVERT JUMPDEST POP PUSH2 0x438 PUSH2 0x4A3 CALLDATASIZE PUSH1 0x4 PUSH2 0x4B7E JUMP JUMPDEST PUSH2 0x102C JUMP JUMPDEST CALLVALUE DUP1 ISZERO PUSH2 0x4B4 JUMPI PUSH1 0x0 DUP1 REVERT JUMPDEST POP PUSH2 0x2AD PUSH2 0x4C3 CALLDATASIZE PUSH1 0x4 PUSH2 0x4DA7 JUMP JUMPDEST PUSH2 0x1252 JUMP JUMPDEST CALLVALUE DUP1 ISZERO PUSH2 0x4D4 JUMPI PUSH1 0x0 DUP1 REVERT JUMPDEST POP PUSH2 0x2CF PUSH2 0x4E3 CALLDATASIZE PUSH1 0x4 PUSH2 0x4B7E JUMP JUMPDEST DUP1 MLOAD PUSH1 0x20 DUP2 DUP4 ADD DUP2 ADD DUP1 MLOAD PUSH1 0xD DUP3 MSTORE SWAP3 DUP3 ADD SWAP2 SWAP1 SWAP4 ADD KECCAK256 SWAP2 MSTORE SLOAD DUP2 JUMP JUMPDEST CALLVALUE DUP1 ISZERO PUSH2 0x50C JUMPI PUSH1 0x0 DUP1 REVERT JUMPDEST POP PUSH2 0x2CF PUSH2 0x51B CALLDATASIZE PUSH1 0x4 PUSH2 0x4BB2 JUMP JUMPDEST PUSH1 0xB PUSH1 0x20 MSTORE PUSH1 0x0 SWAP1 DUP2 MSTORE PUSH1 0x40 SWAP1 KECCAK256 SLOAD DUP2 JUMP JUMPDEST CALLVALUE DUP1 ISZERO PUSH2 0x539 JUMPI PUSH1 0x0 DUP1 REVERT JUMPDEST POP PUSH2 0x54D PUSH2 0x548 CALLDATASIZE PUSH1 0x4 PUSH2 0x4E50 JUMP JUMPDEST PUSH2 0x129E JUMP JUMPDEST PUSH1 0x40 MLOAD PUSH2 0x2D9 SWAP2 SWAP1 PUSH2 0x4F55 JUMP JUMPDEST CALLVALUE DUP1 ISZERO PUSH2 0x566 JUMPI PUSH1 0x0 DUP1 REVERT JUMPDEST POP PUSH2 0x324 PUSH2 0x575 CALLDATASIZE PUSH1 0x4 PUSH2 0x4BCD JUMP JUMPDEST PUSH1 0x0 SWAP1 DUP2 MSTORE PUSH1 0x4 PUSH1 0x20 MSTORE PUSH1 0x40 SWAP1 KECCAK256 SLOAD ISZERO ISZERO SWAP1 JUMP JUMPDEST CALLVALUE DUP1 ISZERO PUSH2 0x595 JUMPI PUSH1 0x0 DUP1 REVERT JUMPDEST POP PUSH2 0x5A9 PUSH2 0x5A4 CALLDATASIZE PUSH1 0x4 PUSH2 0x4BB2 JUMP JUMPDEST PUSH2 0x13C7 JUMP JUMPDEST PUSH1 0x40 MLOAD PUSH2 0x2D9 SWAP2 SWAP1 PUSH2 0x4FBB JUMP JUMPDEST CALLVALUE DUP1 ISZERO PUSH2 0x5C2 JUMPI PUSH1 0x0 DUP1 REVERT JUMPDEST POP PUSH2 0x5CB PUSH2 0x156B JUMP JUMPDEST PUSH1 0x40 MLOAD PUSH2 0x2D9 SWAP2 SWAP1 PUSH2 0x4FCE JUMP JUMPDEST CALLVALUE DUP1 ISZERO PUSH2 0x5E4 JUMPI PUSH1 0x0 DUP1 REVERT JUMPDEST POP PUSH2 0x2CF PUSH1 0xA SLOAD DUP2 JUMP JUMPDEST CALLVALUE DUP1 ISZERO PUSH2 0x5FA JUMPI PUSH1 0x0 DUP1 REVERT JUMPDEST POP PUSH2 0x60E PUSH2 0x609 CALLDATASIZE PUSH1 0x4 PUSH2 0x4BCD JUMP JUMPDEST PUSH2 0x1736 JUMP JUMPDEST PUSH1 0x40 MLOAD PUSH2 0x2D9 SWAP5 SWAP4 SWAP3 SWAP2 SWAP1 PUSH2 0x5023 JUMP JUMPDEST CALLVALUE DUP1 ISZERO PUSH2 0x62A JUMPI PUSH1 0x0 DUP1 REVERT JUMPDEST POP PUSH2 0x3BE PUSH2 0x1808 JUMP JUMPDEST CALLVALUE DUP1 ISZERO PUSH2 0x63F JUMPI PUSH1 0x0 DUP1 REVERT JUMPDEST POP PUSH2 0x2CF PUSH1 0x2 DUP2 JUMP JUMPDEST CALLVALUE DUP1 ISZERO PUSH2 0x654 JUMPI PUSH1 0x0 DUP1 REVERT JUMPDEST POP PUSH2 0x2AD PUSH2 0x1896 JUMP JUMPDEST CALLVALUE DUP1 ISZERO PUSH2 0x669 JUMPI PUSH1 0x0 DUP1 REVERT JUMPDEST POP PUSH2 0x2AD PUSH2 0x678 CALLDATASIZE PUSH1 0x4 PUSH2 0x5062 JUMP JUMPDEST PUSH2 0x18AA JUMP JUMPDEST CALLVALUE DUP1 ISZERO PUSH2 0x689 JUMPI PUSH1 0x0 DUP1 REVERT JUMPDEST POP PUSH1 0x3 SLOAD PUSH1 0x1 PUSH1 0x1 PUSH1 0xA0 SHL SUB AND JUMPDEST PUSH1 0x40 MLOAD PUSH1 0x1 PUSH1 0x1 PUSH1 0xA0 SHL SUB SWAP1 SWAP2 AND DUP2 MSTORE PUSH1 0x20 ADD PUSH2 0x2D9 JUMP JUMPDEST CALLVALUE DUP1 ISZERO PUSH2 0x6BB JUMPI PUSH1 0x0 DUP1 REVERT JUMPDEST POP PUSH2 0x2AD PUSH2 0x6CA CALLDATASIZE PUSH1 0x4 PUSH2 0x4B7E JUMP JUMPDEST PUSH2 0x1B0D JUMP JUMPDEST CALLVALUE DUP1 ISZERO PUSH2 0x6DB JUMPI PUSH1 0x0 DUP1 REVERT JUMPDEST POP PUSH2 0x6EF PUSH2 0x6EA CALLDATASIZE PUSH1 0x4 PUSH2 0x4B7E JUMP JUMPDEST PUSH2 0x1BD4 JUMP JUMPDEST PUSH1 0x40 DUP1 MLOAD SWAP3 DUP4 MSTORE PUSH1 0x20 DUP4 ADD SWAP2 SWAP1 SWAP2 MSTORE ADD PUSH2 0x2D9 JUMP JUMPDEST CALLVALUE DUP1 ISZERO PUSH2 0x710 JUMPI PUSH1 0x0 DUP1 REVERT JUMPDEST POP PUSH2 0x2CF PUSH1 0x5 DUP2 JUMP JUMPDEST CALLVALUE DUP1 ISZERO PUSH2 0x725 JUMPI PUSH1 0x0 DUP1 REVERT JUMPDEST POP PUSH2 0x2AD PUSH2 0x734 CALLDATASIZE PUSH1 0x4 PUSH2 0x4B7E JUMP JUMPDEST PUSH2 0x1BFE JUMP JUMPDEST PUSH2 0x438 PUSH2 0x747 CALLDATASIZE PUSH1 0x4 PUSH2 0x4B7E JUMP JUMPDEST PUSH2 0x1CB2 JUMP JUMPDEST CALLVALUE DUP1 ISZERO PUSH2 0x758 JUMPI PUSH1 0x0 DUP1 REVERT JUMPDEST POP PUSH2 0x2AD PUSH2 0x767 CALLDATASIZE PUSH1 0x4 PUSH2 0x50C9 JUMP JUMPDEST PUSH2 0x2250 JUMP JUMPDEST CALLVALUE DUP1 ISZERO PUSH2 0x778 JUMPI PUSH1 0x0 DUP1 REVERT JUMPDEST POP PUSH2 0x2AD PUSH2 0x787 CALLDATASIZE PUSH1 0x4 PUSH2 0x5100 JUMP JUMPDEST PUSH2 0x225B JUMP JUMPDEST CALLVALUE DUP1 ISZERO PUSH2 0x798 JUMPI PUSH1 0x0 DUP1 REVERT JUMPDEST POP PUSH2 0x2CF PUSH2 0x7A7 CALLDATASIZE PUSH1 0x4 PUSH2 0x4BCD JUMP JUMPDEST PUSH1 0x0 SWAP1 DUP2 MSTORE PUSH1 0x4 PUSH1 0x20 MSTORE PUSH1 0x40 SWAP1 KECCAK256 SLOAD SWAP1 JUMP JUMPDEST CALLVALUE DUP1 ISZERO PUSH2 0x7C5 JUMPI PUSH1 0x0 DUP1 REVERT JUMPDEST POP PUSH2 0x7D9 PUSH2 0x7D4 CALLDATASIZE PUSH1 0x4 PUSH2 0x4BCD JUMP JUMPDEST PUSH2 0x2552 JUMP JUMPDEST PUSH1 0x40 MLOAD PUSH2 0x2D9 SWAP5 SWAP4 SWAP3 SWAP2 SWAP1 PUSH2 0x514B JUMP JUMPDEST CALLVALUE DUP1 ISZERO PUSH2 0x7F5 JUMPI PUSH1 0x0 DUP1 REVERT JUMPDEST POP PUSH2 0x324 PUSH2 0x804 CALLDATASIZE PUSH1 0x4 PUSH2 0x4BB2 JUMP JUMPDEST PUSH2 0x261A JUMP JUMPDEST CALLVALUE DUP1 ISZERO PUSH2 0x815 JUMPI PUSH1 0x0 DUP1 REVERT JUMPDEST POP PUSH1 0x6 SLOAD PUSH2 0x2CF JUMP JUMPDEST CALLVALUE DUP1 ISZERO PUSH2 0x82A JUMPI PUSH1 0x0 DUP1 REVERT JUMPDEST POP PUSH2 0x3BE PUSH2 0x839 CALLDATASIZE PUSH1 0x4 PUSH2 0x4BCD JUMP JUMPDEST PUSH2 0x2641 JUMP JUMPDEST CALLVALUE DUP1 ISZERO PUSH2 0x84A JUMPI PUSH1 0x0 DUP1 REVERT JUMPDEST POP PUSH2 0x2CF PUSH1 0x0 DUP2 JUMP JUMPDEST CALLVALUE DUP1 ISZERO PUSH2 0x85F JUMPI PUSH1 0x0 DUP1 REVERT JUMPDEST POP PUSH2 0x2CF PUSH1 0x9 SLOAD DUP2 JUMP JUMPDEST CALLVALUE DUP1 ISZERO PUSH2 0x875 JUMPI PUSH1 0x0 DUP1 REVERT JUMPDEST POP PUSH2 0x2CF PUSH1 0x1 DUP2 JUMP JUMPDEST CALLVALUE DUP1 ISZERO PUSH2 0x88A JUMPI PUSH1 0x0 DUP1 REVERT JUMPDEST POP PUSH2 0x324 PUSH2 0x899 CALLDATASIZE PUSH1 0x4 PUSH2 0x517A JUMP JUMPDEST PUSH1 0x1 PUSH1 0x1 PUSH1 0xA0 SHL SUB SWAP2 DUP3 AND PUSH1 0x0 SWAP1 DUP2 MSTORE PUSH1 0x1 PUSH1 0x20 SWAP1 DUP2 MSTORE PUSH1 0x40 DUP1 DUP4 KECCAK256 SWAP4 SWAP1 SWAP5 AND DUP3 MSTORE SWAP2 SWAP1 SWAP2 MSTORE KECCAK256 SLOAD PUSH1 0xFF AND SWAP1 JUMP JUMPDEST CALLVALUE DUP1 ISZERO PUSH2 0x8D3 JUMPI PUSH1 0x0 DUP1 REVERT JUMPDEST POP PUSH2 0x8DC PUSH2 0x2675 JUMP JUMPDEST PUSH1 0x40 MLOAD PUSH2 0x2D9 SWAP2 SWAP1 PUSH2 0x51AD JUMP JUMPDEST CALLVALUE DUP1 ISZERO PUSH2 0x8F5 JUMPI PUSH1 0x0 DUP1 REVERT JUMPDEST POP PUSH2 0x2CF PUSH1 0x4 DUP2 JUMP JUMPDEST CALLVALUE DUP1 ISZERO PUSH2 0x90A JUMPI PUSH1 0x0 DUP1 REVERT JUMPDEST POP PUSH2 0x2AD PUSH2 0x919 CALLDATASIZE PUSH1 0x4 PUSH2 0x5202 JUMP JUMPDEST PUSH2 0x279C JUMP JUMPDEST CALLVALUE DUP1 ISZERO PUSH2 0x92A JUMPI PUSH1 0x0 DUP1 REVERT JUMPDEST POP PUSH2 0x2AD PUSH2 0x939 CALLDATASIZE PUSH1 0x4 PUSH2 0x4BB2 JUMP JUMPDEST PUSH2 0x27E1 JUMP JUMPDEST CALLVALUE DUP1 ISZERO PUSH2 0x94A JUMPI PUSH1 0x0 DUP1 REVERT JUMPDEST POP PUSH2 0x95E PUSH2 0x959 CALLDATASIZE PUSH1 0x4 PUSH2 0x4BCD JUMP JUMPDEST PUSH2 0x2857 JUMP JUMPDEST PUSH1 0x40 MLOAD PUSH2 0x2D9 SWAP6 SWAP5 SWAP4 SWAP3 SWAP2 SWAP1 PUSH2 0x5266 JUMP JUMPDEST CALLVALUE DUP1 ISZERO PUSH2 0x97B JUMPI PUSH1 0x0 DUP1 REVERT JUMPDEST POP PUSH1 0x7 SLOAD PUSH2 0x697 SWAP1 PUSH1 0x1 PUSH1 0x1 PUSH1 0xA0 SHL SUB AND DUP2 JUMP JUMPDEST PUSH1 0x0 PUSH1 0x1 PUSH1 0x1 PUSH1 0xA0 SHL SUB DUP4 AND PUSH2 0x9FF JUMPI PUSH1 0x40 MLOAD PUSH3 0x461BCD PUSH1 0xE5 SHL DUP2 MSTORE PUSH1 0x20 PUSH1 0x4 DUP3 ADD MSTORE PUSH1 0x2A PUSH1 0x24 DUP3 ADD MSTORE PUSH32 0x455243313135353A2061646472657373207A65726F206973206E6F7420612076 PUSH1 0x44 DUP3 ADD MSTORE PUSH10 0x30B634B21037BBB732B9 PUSH1 0xB1 SHL PUSH1 0x64 DUP3 ADD MSTORE PUSH1 0x84 ADD JUMPDEST PUSH1 0x40 MLOAD DUP1 SWAP2 SUB SWAP1 REVERT JUMPDEST POP PUSH1 0x0 DUP2 DUP2 MSTORE PUSH1 0x20 DUP2 DUP2 MSTORE PUSH1 0x40 DUP1 DUP4 KECCAK256 PUSH1 0x1 PUSH1 0x1 PUSH1 0xA0 SHL SUB DUP7 AND DUP5 MSTORE SWAP1 SWAP2 MSTORE SWAP1 KECCAK256 SLOAD JUMPDEST SWAP3 SWAP2 POP POP JUMP JUMPDEST PUSH1 0x60 PUSH1 0xF DUP1 SLOAD DUP1 PUSH1 0x20 MUL PUSH1 0x20 ADD PUSH1 0x40 MLOAD SWAP1 DUP2 ADD PUSH1 0x40 MSTORE DUP1 SWAP3 SWAP2 SWAP1 DUP2 DUP2 MSTORE PUSH1 0x20 ADD PUSH1 0x0 SWAP1 JUMPDEST DUP3 DUP3 LT ISZERO PUSH2 0xB2E JUMPI DUP4 DUP3 SWAP1 PUSH1 0x0 MSTORE PUSH1 0x20 PUSH1 0x0 KECCAK256 SWAP1 PUSH1 0x4 MUL ADD PUSH1 0x40 MLOAD DUP1 PUSH1 0x80 ADD PUSH1 0x40 MSTORE SWAP1 DUP2 PUSH1 0x0 DUP3 ADD DUP1 SLOAD PUSH2 0xA7F SWAP1 PUSH2 0x52A9 JUMP JUMPDEST DUP1 PUSH1 0x1F ADD PUSH1 0x20 DUP1 SWAP2 DIV MUL PUSH1 0x20 ADD PUSH1 0x40 MLOAD SWAP1 DUP2 ADD PUSH1 0x40 MSTORE DUP1 SWAP3 SWAP2 SWAP1 DUP2 DUP2 MSTORE PUSH1 0x20 ADD DUP3 DUP1 SLOAD PUSH2 0xAAB SWAP1 PUSH2 0x52A9 JUMP JUMPDEST DUP1 ISZERO PUSH2 0xAF8 JUMPI DUP1 PUSH1 0x1F LT PUSH2 0xACD JUMPI PUSH2 0x100 DUP1 DUP4 SLOAD DIV MUL DUP4 MSTORE SWAP2 PUSH1 0x20 ADD SWAP2 PUSH2 0xAF8 JUMP JUMPDEST DUP3 ADD SWAP2 SWAP1 PUSH1 0x0 MSTORE PUSH1 0x20 PUSH1 0x0 KECCAK256 SWAP1 JUMPDEST DUP2 SLOAD DUP2 MSTORE SWAP1 PUSH1 0x1 ADD SWAP1 PUSH1 0x20 ADD DUP1 DUP4 GT PUSH2 0xADB JUMPI DUP3 SWAP1 SUB PUSH1 0x1F AND DUP3 ADD SWAP2 JUMPDEST POP POP POP POP POP DUP2 MSTORE PUSH1 0x20 ADD PUSH1 0x1 DUP3 ADD SLOAD DUP2 MSTORE PUSH1 0x20 ADD PUSH1 0x2 DUP3 ADD SLOAD DUP2 MSTORE PUSH1 0x20 ADD PUSH1 0x3 DUP3 ADD SLOAD DUP2 MSTORE POP POP DUP2 MSTORE PUSH1 0x20 ADD SWAP1 PUSH1 0x1 ADD SWAP1 PUSH2 0xA4C JUMP JUMPDEST POP POP POP POP SWAP1 POP SWAP1 JUMP JUMPDEST PUSH1 0x0 PUSH1 0x1 PUSH1 0x1 PUSH1 0xE0 SHL SUB NOT DUP3 AND PUSH4 0x6CDB3D13 PUSH1 0xE1 SHL EQ DUP1 PUSH2 0xB68 JUMPI POP PUSH1 0x1 PUSH1 0x1 PUSH1 0xE0 SHL SUB NOT DUP3 AND PUSH4 0x3A24D07 PUSH1 0xE2 SHL EQ JUMPDEST DUP1 PUSH2 0xA22 JUMPI POP PUSH4 0x1FFC9A7 PUSH1 0xE0 SHL PUSH1 0x1 PUSH1 0x1 PUSH1 0xE0 SHL SUB NOT DUP4 AND EQ PUSH2 0xA22 JUMP JUMPDEST PUSH2 0xB8F PUSH2 0x2930 JUMP JUMPDEST PUSH2 0xB98 DUP2 PUSH2 0x298A JUMP JUMPDEST POP JUMP JUMPDEST PUSH1 0x1 PUSH1 0x1 PUSH1 0xA0 SHL SUB DUP2 AND PUSH1 0x0 SWAP1 DUP2 MSTORE PUSH1 0xB PUSH1 0x20 MSTORE PUSH1 0x40 DUP2 KECCAK256 SLOAD DUP2 SUB PUSH2 0xBC2 JUMPI POP PUSH1 0x0 SWAP2 SWAP1 POP JUMP JUMPDEST POP PUSH1 0x1 SWAP2 SWAP1 POP JUMP JUMPDEST SWAP2 SWAP1 POP JUMP JUMPDEST PUSH1 0x60 PUSH1 0x2 DUP1 SLOAD PUSH2 0xBDE SWAP1 PUSH2 0x52A9 JUMP JUMPDEST DUP1 PUSH1 0x1F ADD PUSH1 0x20 DUP1 SWAP2 DIV MUL PUSH1 0x20 ADD PUSH1 0x40 MLOAD SWAP1 DUP2 ADD PUSH1 0x40 MSTORE DUP1 SWAP3 SWAP2 SWAP1 DUP2 DUP2 MSTORE PUSH1 0x20 ADD DUP3 DUP1 SLOAD PUSH2 0xC0A SWAP1 PUSH2 0x52A9 JUMP JUMPDEST DUP1 ISZERO PUSH2 0xC57 JUMPI DUP1 PUSH1 0x1F LT PUSH2 0xC2C JUMPI PUSH2 0x100 DUP1 DUP4 SLOAD DIV MUL DUP4 MSTORE SWAP2 PUSH1 0x20 ADD SWAP2 PUSH2 0xC57 JUMP JUMPDEST DUP3 ADD SWAP2 SWAP1 PUSH1 0x0 MSTORE PUSH1 0x20 PUSH1 0x0 KECCAK256 SWAP1 JUMPDEST DUP2 SLOAD DUP2 MSTORE SWAP1 PUSH1 0x1 ADD SWAP1 PUSH1 0x20 ADD DUP1 DUP4 GT PUSH2 0xC3A JUMPI DUP3 SWAP1 SUB PUSH1 0x1F AND DUP3 ADD SWAP2 JUMPDEST POP POP POP POP POP SWAP1 POP SWAP2 SWAP1 POP JUMP JUMPDEST PUSH2 0xC8E PUSH1 0x40 MLOAD DUP1 PUSH1 0x80 ADD PUSH1 0x40 MSTORE DUP1 PUSH1 0x60 DUP2 MSTORE PUSH1 0x20 ADD PUSH1 0x0 DUP2 MSTORE PUSH1 0x20 ADD PUSH1 0x0 DUP2 MSTORE PUSH1 0x20 ADD PUSH1 0x0 DUP2 MSTORE POP SWAP1 JUMP JUMPDEST PUSH2 0xC97 DUP3 PUSH2 0x261A JUMP JUMPDEST PUSH2 0xCE3 JUMPI PUSH1 0x40 MLOAD PUSH3 0x461BCD PUSH1 0xE5 SHL DUP2 MSTORE PUSH1 0x20 PUSH1 0x4 DUP3 ADD MSTORE PUSH1 0x19 PUSH1 0x24 DUP3 ADD MSTORE PUSH32 0x47616D6520746F6B656E20646F65736E27742065786973742100000000000000 PUSH1 0x44 DUP3 ADD MSTORE PUSH1 0x64 ADD PUSH2 0x9F6 JUMP JUMPDEST PUSH1 0x1 PUSH1 0x1 PUSH1 0xA0 SHL SUB DUP3 AND PUSH1 0x0 SWAP1 DUP2 MSTORE PUSH1 0xC PUSH1 0x20 MSTORE PUSH1 0x40 SWAP1 KECCAK256 SLOAD PUSH1 0xF DUP1 SLOAD SWAP1 SWAP2 SWAP1 DUP2 LT PUSH2 0xD11 JUMPI PUSH2 0xD11 PUSH2 0x52E3 JUMP JUMPDEST SWAP1 PUSH1 0x0 MSTORE PUSH1 0x20 PUSH1 0x0 KECCAK256 SWAP1 PUSH1 0x4 MUL ADD PUSH1 0x40 MLOAD DUP1 PUSH1 0x80 ADD PUSH1 0x40 MSTORE SWAP1 DUP2 PUSH1 0x0 DUP3 ADD DUP1 SLOAD PUSH2 0xD3A SWAP1 PUSH2 0x52A9 JUMP JUMPDEST DUP1 PUSH1 0x1F ADD PUSH1 0x20 DUP1 SWAP2 DIV MUL PUSH1 0x20 ADD PUSH1 0x40 MLOAD SWAP1 DUP2 ADD PUSH1 0x40 MSTORE DUP1 SWAP3 SWAP2 SWAP1 DUP2 DUP2 MSTORE PUSH1 0x20 ADD DUP3 DUP1 SLOAD PUSH2 0xD66 SWAP1 PUSH2 0x52A9 JUMP JUMPDEST DUP1 ISZERO PUSH2 0xDB3 JUMPI DUP1 PUSH1 0x1F LT PUSH2 0xD88 JUMPI PUSH2 0x100 DUP1 DUP4 SLOAD DIV MUL DUP4 MSTORE SWAP2 PUSH1 0x20 ADD SWAP2 PUSH2 0xDB3 JUMP JUMPDEST DUP3 ADD SWAP2 SWAP1 PUSH1 0x0 MSTORE PUSH1 0x20 PUSH1 0x0 KECCAK256 SWAP1 JUMPDEST DUP2 SLOAD DUP2 MSTORE SWAP1 PUSH1 0x1 ADD SWAP1 PUSH1 0x20 ADD DUP1 DUP4 GT PUSH2 0xD96 JUMPI DUP3 SWAP1 SUB PUSH1 0x1F AND DUP3 ADD SWAP2 JUMPDEST POP POP POP POP POP DUP2 MSTORE PUSH1 0x20 ADD PUSH1 0x1 DUP3 ADD SLOAD DUP2 MSTORE PUSH1 0x20 ADD PUSH1 0x2 DUP3 ADD SLOAD DUP2 MSTORE PUSH1 0x20 ADD PUSH1 0x3 DUP3 ADD SLOAD DUP2 MSTORE POP POP SWAP1 POP SWAP2 SWAP1 POP JUMP JUMPDEST PUSH1 0x0 PUSH1 0xD DUP3 PUSH1 0x40 MLOAD PUSH2 0xDF3 SWAP2 SWAP1 PUSH2 0x52F9 JUMP JUMPDEST SWAP1 DUP2 MSTORE PUSH1 0x20 ADD PUSH1 0x40 MLOAD DUP1 SWAP2 SUB SWAP1 KECCAK256 SLOAD PUSH1 0x0 SUB PUSH2 0xBC2 JUMPI POP PUSH1 0x0 SWAP2 SWAP1 POP JUMP JUMPDEST PUSH2 0xE19 PUSH2 0x4801 JUMP JUMPDEST PUSH2 0xE22 DUP3 PUSH2 0xDE1 JUMP JUMPDEST PUSH2 0xE66 JUMPI PUSH1 0x40 MLOAD PUSH3 0x461BCD PUSH1 0xE5 SHL DUP2 MSTORE PUSH1 0x20 PUSH1 0x4 DUP3 ADD MSTORE PUSH1 0x15 PUSH1 0x24 DUP3 ADD MSTORE PUSH21 0x426174746C6520646F65736E277420657869737421 PUSH1 0x58 SHL PUSH1 0x44 DUP3 ADD MSTORE PUSH1 0x64 ADD PUSH2 0x9F6 JUMP JUMPDEST PUSH1 0x10 PUSH1 0xD DUP4 PUSH1 0x40 MLOAD PUSH2 0xE78 SWAP2 SWAP1 PUSH2 0x52F9 JUMP JUMPDEST SWAP1 DUP2 MSTORE PUSH1 0x20 ADD PUSH1 0x40 MLOAD DUP1 SWAP2 SUB SWAP1 KECCAK256 SLOAD DUP2 SLOAD DUP2 LT PUSH2 0xE97 JUMPI PUSH2 0xE97 PUSH2 0x52E3 JUMP JUMPDEST PUSH1 0x0 SWAP2 DUP3 MSTORE PUSH1 0x20 SWAP1 SWAP2 KECCAK256 PUSH1 0x40 DUP1 MLOAD PUSH1 0xC0 DUP2 ADD SWAP1 SWAP2 MSTORE PUSH1 0x7 SWAP1 SWAP3 MUL ADD DUP1 SLOAD DUP3 SWAP1 PUSH1 0xFF AND PUSH1 0x2 DUP2 GT ISZERO PUSH2 0xECA JUMPI PUSH2 0xECA PUSH2 0x4C0C JUMP JUMPDEST PUSH1 0x2 DUP2 GT ISZERO PUSH2 0xEDB JUMPI PUSH2 0xEDB PUSH2 0x4C0C JUMP JUMPDEST DUP2 MSTORE PUSH1 0x20 ADD PUSH1 0x1 DUP3 ADD SLOAD DUP2 MSTORE PUSH1 0x20 ADD PUSH1 0x2 DUP3 ADD DUP1 SLOAD PUSH2 0xEF9 SWAP1 PUSH2 0x52A9 JUMP JUMPDEST DUP1 PUSH1 0x1F ADD PUSH1 0x20 DUP1 SWAP2 DIV MUL PUSH1 0x20 ADD PUSH1 0x40 MLOAD SWAP1 DUP2 ADD PUSH1 0x40 MSTORE DUP1 SWAP3 SWAP2 SWAP1 DUP2 DUP2 MSTORE PUSH1 0x20 ADD DUP3 DUP1 SLOAD PUSH2 0xF25 SWAP1 PUSH2 0x52A9 JUMP JUMPDEST DUP1 ISZERO PUSH2 0xF72 JUMPI DUP1 PUSH1 0x1F LT PUSH2 0xF47 JUMPI PUSH2 0x100 DUP1 DUP4 SLOAD DIV MUL DUP4 MSTORE SWAP2 PUSH1 0x20 ADD SWAP2 PUSH2 0xF72 JUMP JUMPDEST DUP3 ADD SWAP2 SWAP1 PUSH1 0x0 MSTORE PUSH1 0x20 PUSH1 0x0 KECCAK256 SWAP1 JUMPDEST DUP2 SLOAD DUP2 MSTORE SWAP1 PUSH1 0x1 ADD SWAP1 PUSH1 0x20 ADD DUP1 DUP4 GT PUSH2 0xF55 JUMPI DUP3 SWAP1 SUB PUSH1 0x1F AND DUP3 ADD SWAP2 JUMPDEST POP POP POP SWAP2 DUP4 MSTORE POP POP PUSH1 0x40 DUP1 MLOAD DUP1 DUP3 ADD SWAP2 DUP3 SWAP1 MSTORE PUSH1 0x20 SWAP1 SWAP3 ADD SWAP2 SWAP1 PUSH1 0x3 DUP5 ADD SWAP1 PUSH1 0x2 SWAP1 DUP3 DUP5 JUMPDEST DUP2 SLOAD PUSH1 0x1 PUSH1 0x1 PUSH1 0xA0 SHL SUB AND DUP2 MSTORE PUSH1 0x1 SWAP1 SWAP2 ADD SWAP1 PUSH1 0x20 ADD DUP1 DUP4 GT PUSH2 0xF97 JUMPI POP POP POP SWAP2 DUP4 MSTORE POP POP PUSH1 0x40 DUP1 MLOAD DUP1 DUP3 ADD SWAP2 DUP3 SWAP1 MSTORE PUSH1 0x20 SWAP1 SWAP3 ADD SWAP2 SWAP1 PUSH1 0x5 DUP5 ADD SWAP1 PUSH1 0x2 SWAP1 DUP3 PUSH1 0x0 DUP6 JUMPDEST DUP3 SLOAD PUSH2 0x100 DUP4 SWAP1 EXP SWAP1 DIV PUSH1 0xFF AND DUP2 MSTORE PUSH1 0x20 PUSH1 0x1 SWAP3 DUP4 ADD DUP2 DUP2 DIV SWAP5 DUP6 ADD SWAP5 SWAP1 SWAP4 SUB SWAP1 SWAP3 MUL SWAP2 ADD DUP1 DUP5 GT PUSH2 0xFDB JUMPI POP POP POP SWAP3 DUP5 MSTORE POP POP POP PUSH1 0x6 SWAP2 SWAP1 SWAP2 ADD SLOAD PUSH1 0x1 PUSH1 0x1 PUSH1 0xA0 SHL SUB AND PUSH1 0x20 SWAP1 SWAP2 ADD MSTORE SWAP3 SWAP2 POP POP JUMP JUMPDEST PUSH2 0x1034 PUSH2 0x4801 JUMP JUMPDEST PUSH2 0x103D CALLER PUSH2 0xB9B JUMP JUMPDEST PUSH2 0x1089 JUMPI PUSH1 0x40 MLOAD PUSH3 0x461BCD PUSH1 0xE5 SHL DUP2 MSTORE PUSH1 0x20 PUSH1 0x4 DUP3 ADD MSTORE PUSH1 0x1C PUSH1 0x24 DUP3 ADD MSTORE PUSH32 0x506C6561736520526567697374657220506C6179657220466972737400000000 PUSH1 0x44 DUP3 ADD MSTORE PUSH1 0x64 ADD PUSH2 0x9F6 JUMP JUMPDEST PUSH2 0x1092 DUP3 PUSH2 0xDE1 JUMP JUMPDEST ISZERO PUSH2 0x10D8 JUMPI PUSH1 0x40 MLOAD PUSH3 0x461BCD PUSH1 0xE5 SHL DUP2 MSTORE PUSH1 0x20 PUSH1 0x4 DUP3 ADD MSTORE PUSH1 0x16 PUSH1 0x24 DUP3 ADD MSTORE PUSH22 0x426174746C6520616C72656164792065786973747321 PUSH1 0x50 SHL PUSH1 0x44 DUP3 ADD MSTORE PUSH1 0x64 ADD PUSH2 0x9F6 JUMP JUMPDEST PUSH1 0x0 DUP3 PUSH1 0x40 MLOAD PUSH1 0x20 ADD PUSH2 0x10EB SWAP2 SWAP1 PUSH2 0x4BE6 JUMP JUMPDEST PUSH1 0x40 DUP1 MLOAD DUP1 DUP4 SUB PUSH1 0x1F NOT ADD DUP2 MSTORE DUP3 DUP3 MSTORE DUP1 MLOAD PUSH1 0x20 SWAP2 DUP3 ADD KECCAK256 PUSH1 0xC0 DUP5 ADD DUP4 MSTORE PUSH1 0x0 DUP1 DUP6 MSTORE DUP3 DUP6 ADD DUP3 SWAP1 MSTORE DUP5 DUP5 ADD DUP9 SWAP1 MSTORE DUP4 MLOAD DUP1 DUP6 ADD DUP6 MSTORE CALLER DUP2 MSTORE DUP1 DUP5 ADD DUP3 SWAP1 MSTORE PUSH1 0x60 DUP7 ADD MSTORE DUP4 MLOAD DUP1 DUP6 ADD DUP6 MSTORE DUP2 DUP2 MSTORE SWAP3 DUP4 ADD DUP2 SWAP1 MSTORE PUSH1 0x80 DUP6 ADD SWAP3 SWAP1 SWAP3 MSTORE PUSH1 0xA0 DUP5 ADD SWAP2 SWAP1 SWAP2 MSTORE PUSH1 0x10 SLOAD SWAP2 MLOAD SWAP1 SWAP4 POP DUP2 SWAP1 PUSH1 0xD SWAP1 PUSH2 0x1167 SWAP1 DUP9 SWAP1 PUSH2 0x52F9 JUMP JUMPDEST SWAP1 DUP2 MSTORE PUSH1 0x40 MLOAD SWAP1 DUP2 SWAP1 SUB PUSH1 0x20 ADD SWAP1 KECCAK256 SSTORE PUSH1 0x10 DUP1 SLOAD PUSH1 0x1 DUP2 DUP2 ADD DUP4 SSTORE PUSH1 0x0 SWAP3 SWAP1 SWAP3 MSTORE DUP4 MLOAD PUSH1 0x7 SWAP1 SWAP2 MUL PUSH32 0x1B6847DC741A1B0CD08D278845F9D819D87B734759AFB55FE2DE5CB82A9AE672 ADD DUP1 SLOAD DUP6 SWAP4 SWAP2 SWAP3 SWAP2 DUP4 SWAP2 PUSH1 0xFF NOT AND SWAP1 DUP4 PUSH1 0x2 DUP2 GT ISZERO PUSH2 0x11D1 JUMPI PUSH2 0x11D1 PUSH2 0x4C0C JUMP JUMPDEST MUL OR SWAP1 SSTORE POP PUSH1 0x20 DUP3 ADD MLOAD PUSH1 0x1 DUP3 ADD SSTORE PUSH1 0x40 DUP3 ADD MLOAD PUSH1 0x2 DUP3 ADD SWAP1 PUSH2 0x11F4 SWAP1 DUP3 PUSH2 0x535B JUMP JUMPDEST POP PUSH1 0x60 DUP3 ADD MLOAD PUSH2 0x120A SWAP1 PUSH1 0x3 DUP4 ADD SWAP1 PUSH1 0x2 PUSH2 0x4844 JUMP JUMPDEST POP PUSH1 0x80 DUP3 ADD MLOAD PUSH2 0x1220 SWAP1 PUSH1 0x5 DUP4 ADD SWAP1 PUSH1 0x2 PUSH2 0x489C JUMP JUMPDEST POP PUSH1 0xA0 SWAP2 SWAP1 SWAP2 ADD MLOAD PUSH1 0x6 SWAP1 SWAP2 ADD DUP1 SLOAD PUSH1 0x1 PUSH1 0x1 PUSH1 0xA0 SHL SUB NOT AND PUSH1 0x1 PUSH1 0x1 PUSH1 0xA0 SHL SUB SWAP1 SWAP3 AND SWAP2 SWAP1 SWAP2 OR SWAP1 SSTORE POP SWAP4 SWAP3 POP POP POP JUMP JUMPDEST PUSH1 0x1 PUSH1 0x1 PUSH1 0xA0 SHL SUB DUP6 AND CALLER EQ DUP1 PUSH2 0x126E JUMPI POP PUSH2 0x126E DUP6 CALLER PUSH2 0x899 JUMP JUMPDEST PUSH2 0x128A JUMPI PUSH1 0x40 MLOAD PUSH3 0x461BCD PUSH1 0xE5 SHL DUP2 MSTORE PUSH1 0x4 ADD PUSH2 0x9F6 SWAP1 PUSH2 0x541A JUMP JUMPDEST PUSH2 0x1297 DUP6 DUP6 DUP6 DUP6 DUP6 PUSH2 0x2996 JUMP JUMPDEST POP POP POP POP POP JUMP JUMPDEST PUSH1 0x60 DUP2 MLOAD DUP4 MLOAD EQ PUSH2 0x1303 JUMPI PUSH1 0x40 MLOAD PUSH3 0x461BCD PUSH1 0xE5 SHL DUP2 MSTORE PUSH1 0x20 PUSH1 0x4 DUP3 ADD MSTORE PUSH1 0x29 PUSH1 0x24 DUP3 ADD MSTORE PUSH32 0x455243313135353A206163636F756E747320616E6420696473206C656E677468 PUSH1 0x44 DUP3 ADD MSTORE PUSH9 0x40DAD2E6DAC2E8C6D PUSH1 0xBB SHL PUSH1 0x64 DUP3 ADD MSTORE PUSH1 0x84 ADD PUSH2 0x9F6 JUMP JUMPDEST PUSH1 0x0 DUP4 MLOAD PUSH1 0x1 PUSH1 0x1 PUSH1 0x40 SHL SUB DUP2 GT ISZERO PUSH2 0x131E JUMPI PUSH2 0x131E PUSH2 0x4AC9 JUMP JUMPDEST PUSH1 0x40 MLOAD SWAP1 DUP1 DUP3 MSTORE DUP1 PUSH1 0x20 MUL PUSH1 0x20 ADD DUP3 ADD PUSH1 0x40 MSTORE DUP1 ISZERO PUSH2 0x1347 JUMPI DUP2 PUSH1 0x20 ADD PUSH1 0x20 DUP3 MUL DUP1 CALLDATASIZE DUP4 CALLDATACOPY ADD SWAP1 POP JUMPDEST POP SWAP1 POP PUSH1 0x0 JUMPDEST DUP5 MLOAD DUP2 LT ISZERO PUSH2 0x13BF JUMPI PUSH2 0x1392 DUP6 DUP3 DUP2 MLOAD DUP2 LT PUSH2 0x136B JUMPI PUSH2 0x136B PUSH2 0x52E3 JUMP JUMPDEST PUSH1 0x20 MUL PUSH1 0x20 ADD ADD MLOAD DUP6 DUP4 DUP2 MLOAD DUP2 LT PUSH2 0x1385 JUMPI PUSH2 0x1385 PUSH2 0x52E3 JUMP JUMPDEST PUSH1 0x20 MUL PUSH1 0x20 ADD ADD MLOAD PUSH2 0x98F JUMP JUMPDEST DUP3 DUP3 DUP2 MLOAD DUP2 LT PUSH2 0x13A4 JUMPI PUSH2 0x13A4 PUSH2 0x52E3 JUMP JUMPDEST PUSH1 0x20 SWAP1 DUP2 MUL SWAP2 SWAP1 SWAP2 ADD ADD MSTORE PUSH2 0x13B8 DUP2 PUSH2 0x547F JUMP JUMPDEST SWAP1 POP PUSH2 0x134D JUMP JUMPDEST POP SWAP4 SWAP3 POP POP POP JUMP JUMPDEST PUSH2 0x1404 PUSH1 0x40 MLOAD DUP1 PUSH1 0xA0 ADD PUSH1 0x40 MSTORE DUP1 PUSH1 0x0 PUSH1 0x1 PUSH1 0x1 PUSH1 0xA0 SHL SUB AND DUP2 MSTORE PUSH1 0x20 ADD PUSH1 0x60 DUP2 MSTORE PUSH1 0x20 ADD PUSH1 0x0 DUP2 MSTORE PUSH1 0x20 ADD PUSH1 0x0 DUP2 MSTORE PUSH1 0x20 ADD PUSH1 0x0 ISZERO ISZERO DUP2 MSTORE POP SWAP1 JUMP JUMPDEST PUSH2 0x140D DUP3 PUSH2 0xB9B JUMP JUMPDEST PUSH2 0x1451 JUMPI PUSH1 0x40 MLOAD PUSH3 0x461BCD PUSH1 0xE5 SHL DUP2 MSTORE PUSH1 0x20 PUSH1 0x4 DUP3 ADD MSTORE PUSH1 0x15 PUSH1 0x24 DUP3 ADD MSTORE PUSH21 0x506C6179657220646F65736E277420657869737421 PUSH1 0x58 SHL PUSH1 0x44 DUP3 ADD MSTORE PUSH1 0x64 ADD PUSH2 0x9F6 JUMP JUMPDEST PUSH1 0x1 PUSH1 0x1 PUSH1 0xA0 SHL SUB DUP3 AND PUSH1 0x0 SWAP1 DUP2 MSTORE PUSH1 0xB PUSH1 0x20 MSTORE PUSH1 0x40 SWAP1 KECCAK256 SLOAD PUSH1 0xE DUP1 SLOAD SWAP1 SWAP2 SWAP1 DUP2 LT PUSH2 0x147F JUMPI PUSH2 0x147F PUSH2 0x52E3 JUMP JUMPDEST PUSH1 0x0 SWAP2 DUP3 MSTORE PUSH1 0x20 SWAP2 DUP3 SWAP1 KECCAK256 PUSH1 0x40 DUP1 MLOAD PUSH1 0xA0 DUP2 ADD SWAP1 SWAP2 MSTORE PUSH1 0x5 SWAP1 SWAP3 MUL ADD DUP1 SLOAD PUSH1 0x1 PUSH1 0x1 PUSH1 0xA0 SHL SUB AND DUP3 MSTORE PUSH1 0x1 DUP2 ADD DUP1 SLOAD SWAP3 SWAP4 SWAP2 SWAP3 SWAP2 DUP5 ADD SWAP2 PUSH2 0x14BF SWAP1 PUSH2 0x52A9 JUMP JUMPDEST DUP1 PUSH1 0x1F ADD PUSH1 0x20 DUP1 SWAP2 DIV MUL PUSH1 0x20 ADD PUSH1 0x40 MLOAD SWAP1 DUP2 ADD PUSH1 0x40 MSTORE DUP1 SWAP3 SWAP2 SWAP1 DUP2 DUP2 MSTORE PUSH1 0x20 ADD DUP3 DUP1 SLOAD PUSH2 0x14EB SWAP1 PUSH2 0x52A9 JUMP JUMPDEST DUP1 ISZERO PUSH2 0x1538 JUMPI DUP1 PUSH1 0x1F LT PUSH2 0x150D JUMPI PUSH2 0x100 DUP1 DUP4 SLOAD DIV MUL DUP4 MSTORE SWAP2 PUSH1 0x20 ADD SWAP2 PUSH2 0x1538 JUMP JUMPDEST DUP3 ADD SWAP2 SWAP1 PUSH1 0x0 MSTORE PUSH1 0x20 PUSH1 0x0 KECCAK256 SWAP1 JUMPDEST DUP2 SLOAD DUP2 MSTORE SWAP1 PUSH1 0x1 ADD SWAP1 PUSH1 0x20 ADD DUP1 DUP4 GT PUSH2 0x151B JUMPI DUP3 SWAP1 SUB PUSH1 0x1F AND DUP3 ADD SWAP2 JUMPDEST POP POP POP SWAP2 DUP4 MSTORE POP POP PUSH1 0x2 DUP3 ADD SLOAD PUSH1 0x20 DUP3 ADD MSTORE PUSH1 0x3 DUP3 ADD SLOAD PUSH1 0x40 DUP3 ADD MSTORE PUSH1 0x4 SWAP1 SWAP2 ADD SLOAD PUSH1 0xFF AND ISZERO ISZERO PUSH1 0x60 SWAP1 SWAP2 ADD MSTORE SWAP3 SWAP2 POP POP JUMP JUMPDEST PUSH1 0x60 PUSH1 0x10 DUP1 SLOAD DUP1 PUSH1 0x20 MUL PUSH1 0x20 ADD PUSH1 0x40 MLOAD SWAP1 DUP2 ADD PUSH1 0x40 MSTORE DUP1 SWAP3 SWAP2 SWAP1 DUP2 DUP2 MSTORE PUSH1 0x20 ADD PUSH1 0x0 SWAP1 JUMPDEST DUP3 DUP3 LT ISZERO PUSH2 0xB2E JUMPI PUSH1 0x0 DUP5 DUP2 MSTORE PUSH1 0x20 SWAP1 KECCAK256 PUSH1 0x40 DUP1 MLOAD PUSH1 0xC0 DUP2 ADD SWAP1 SWAP2 MSTORE PUSH1 0x7 DUP5 MUL SWAP1 SWAP2 ADD DUP1 SLOAD DUP3 SWAP1 PUSH1 0xFF AND PUSH1 0x2 DUP2 GT ISZERO PUSH2 0x15CA JUMPI PUSH2 0x15CA PUSH2 0x4C0C JUMP JUMPDEST PUSH1 0x2 DUP2 GT ISZERO PUSH2 0x15DB JUMPI PUSH2 0x15DB PUSH2 0x4C0C JUMP JUMPDEST DUP2 MSTORE PUSH1 0x20 ADD PUSH1 0x1 DUP3 ADD SLOAD DUP2 MSTORE PUSH1 0x20 ADD PUSH1 0x2 DUP3 ADD DUP1 SLOAD PUSH2 0x15F9 SWAP1 PUSH2 0x52A9 JUMP JUMPDEST DUP1 PUSH1 0x1F ADD PUSH1 0x20 DUP1 SWAP2 DIV MUL PUSH1 0x20 ADD PUSH1 0x40 MLOAD SWAP1 DUP2 ADD PUSH1 0x40 MSTORE DUP1 SWAP3 SWAP2 SWAP1 DUP2 DUP2 MSTORE PUSH1 0x20 ADD DUP3 DUP1 SLOAD PUSH2 0x1625 SWAP1 PUSH2 0x52A9 JUMP JUMPDEST DUP1 ISZERO PUSH2 0x1672 JUMPI DUP1 PUSH1 0x1F LT PUSH2 0x1647 JUMPI PUSH2 0x100 DUP1 DUP4 SLOAD DIV MUL DUP4 MSTORE SWAP2 PUSH1 0x20 ADD SWAP2 PUSH2 0x1672 JUMP JUMPDEST DUP3 ADD SWAP2 SWAP1 PUSH1 0x0 MSTORE PUSH1 0x20 PUSH1 0x0 KECCAK256 SWAP1 JUMPDEST DUP2 SLOAD DUP2 MSTORE SWAP1 PUSH1 0x1 ADD SWAP1 PUSH1 0x20 ADD DUP1 DUP4 GT PUSH2 0x1655 JUMPI DUP3 SWAP1 SUB PUSH1 0x1F AND DUP3 ADD SWAP2 JUMPDEST POP POP POP SWAP2 DUP4 MSTORE POP POP PUSH1 0x40 DUP1 MLOAD DUP1 DUP3 ADD SWAP2 DUP3 SWAP1 MSTORE PUSH1 0x20 SWAP1 SWAP3 ADD SWAP2 SWAP1 PUSH1 0x3 DUP5 ADD SWAP1 PUSH1 0x2 SWAP1 DUP3 DUP5 JUMPDEST DUP2 SLOAD PUSH1 0x1 PUSH1 0x1 PUSH1 0xA0 SHL SUB AND DUP2 MSTORE PUSH1 0x1 SWAP1 SWAP2 ADD SWAP1 PUSH1 0x20 ADD DUP1 DUP4 GT PUSH2 0x1697 JUMPI POP POP POP SWAP2 DUP4 MSTORE POP POP PUSH1 0x40 DUP1 MLOAD DUP1 DUP3 ADD SWAP2 DUP3 SWAP1 MSTORE PUSH1 0x20 SWAP1 SWAP3 ADD SWAP2 SWAP1 PUSH1 0x5 DUP5 ADD SWAP1 PUSH1 0x2 SWAP1 DUP3 PUSH1 0x0 DUP6 JUMPDEST DUP3 SLOAD PUSH2 0x100 DUP4 SWAP1 EXP SWAP1 DIV PUSH1 0xFF AND DUP2 MSTORE PUSH1 0x20 PUSH1 0x1 SWAP3 DUP4 ADD DUP2 DUP2 DIV SWAP5 DUP6 ADD SWAP5 SWAP1 SWAP4 SUB SWAP1 SWAP3 MUL SWAP2 ADD DUP1 DUP5 GT PUSH2 0x16DB JUMPI POP POP POP SWAP3 DUP5 MSTORE POP POP POP PUSH1 0x6 SWAP2 SWAP1 SWAP2 ADD SLOAD PUSH1 0x1 PUSH1 0x1 PUSH1 0xA0 SHL SUB AND PUSH1 0x20 SWAP2 DUP3 ADD MSTORE SWAP1 DUP3 MSTORE PUSH1 0x1 SWAP3 SWAP1 SWAP3 ADD SWAP2 ADD PUSH2 0x158F JUMP JUMPDEST PUSH1 0x10 DUP2 DUP2 SLOAD DUP2 LT PUSH2 0x1746 JUMPI PUSH1 0x0 DUP1 REVERT JUMPDEST PUSH1 0x0 SWAP2 DUP3 MSTORE PUSH1 0x20 SWAP1 SWAP2 KECCAK256 PUSH1 0x7 SWAP1 SWAP2 MUL ADD DUP1 SLOAD PUSH1 0x1 DUP3 ADD SLOAD PUSH1 0x2 DUP4 ADD DUP1 SLOAD PUSH1 0xFF SWAP1 SWAP4 AND SWAP5 POP SWAP1 SWAP3 SWAP2 PUSH2 0x1776 SWAP1 PUSH2 0x52A9 JUMP JUMPDEST DUP1 PUSH1 0x1F ADD PUSH1 0x20 DUP1 SWAP2 DIV MUL PUSH1 0x20 ADD PUSH1 0x40 MLOAD SWAP1 DUP2 ADD PUSH1 0x40 MSTORE DUP1 SWAP3 SWAP2 SWAP1 DUP2 DUP2 MSTORE PUSH1 0x20 ADD DUP3 DUP1 SLOAD PUSH2 0x17A2 SWAP1 PUSH2 0x52A9 JUMP JUMPDEST DUP1 ISZERO PUSH2 0x17EF JUMPI DUP1 PUSH1 0x1F LT PUSH2 0x17C4 JUMPI PUSH2 0x100 DUP1 DUP4 SLOAD DIV MUL DUP4 MSTORE SWAP2 PUSH1 0x20 ADD SWAP2 PUSH2 0x17EF JUMP JUMPDEST DUP3 ADD SWAP2 SWAP1 PUSH1 0x0 MSTORE PUSH1 0x20 PUSH1 0x0 KECCAK256 SWAP1 JUMPDEST DUP2 SLOAD DUP2 MSTORE SWAP1 PUSH1 0x1 ADD SWAP1 PUSH1 0x20 ADD DUP1 DUP4 GT PUSH2 0x17D2 JUMPI DUP3 SWAP1 SUB PUSH1 0x1F AND DUP3 ADD SWAP2 JUMPDEST POP POP POP PUSH1 0x6 SWAP1 SWAP4 ADD SLOAD SWAP2 SWAP3 POP POP PUSH1 0x1 PUSH1 0x1 PUSH1 0xA0 SHL SUB AND DUP5 JUMP JUMPDEST PUSH1 0x5 DUP1 SLOAD PUSH2 0x1815 SWAP1 PUSH2 0x52A9 JUMP JUMPDEST DUP1 PUSH1 0x1F ADD PUSH1 0x20 DUP1 SWAP2 DIV MUL PUSH1 0x20 ADD PUSH1 0x40 MLOAD SWAP1 DUP2 ADD PUSH1 0x40 MSTORE DUP1 SWAP3 SWAP2 SWAP1 DUP2 DUP2 MSTORE PUSH1 0x20 ADD DUP3 DUP1 SLOAD PUSH2 0x1841 SWAP1 PUSH2 0x52A9 JUMP JUMPDEST DUP1 ISZERO PUSH2 0x188E JUMPI DUP1 PUSH1 0x1F LT PUSH2 0x1863 JUMPI PUSH2 0x100 DUP1 DUP4 SLOAD DIV MUL DUP4 MSTORE SWAP2 PUSH1 0x20 ADD SWAP2 PUSH2 0x188E JUMP JUMPDEST DUP3 ADD SWAP2 SWAP1 PUSH1 0x0 MSTORE PUSH1 0x20 PUSH1 0x0 KECCAK256 SWAP1 JUMPDEST DUP2 SLOAD DUP2 MSTORE SWAP1 PUSH1 0x1 ADD SWAP1 PUSH1 0x20 ADD DUP1 DUP4 GT PUSH2 0x1871 JUMPI DUP3 SWAP1 SUB PUSH1 0x1F AND DUP3 ADD SWAP2 JUMPDEST POP POP POP POP POP DUP2 JUMP JUMPDEST PUSH2 0x189E PUSH2 0x2930 JUMP JUMPDEST PUSH2 0x18A8 PUSH1 0x0 PUSH2 0x2B81 JUMP JUMPDEST JUMP JUMPDEST PUSH2 0x18B3 CALLER PUSH2 0xB9B JUMP JUMPDEST ISZERO PUSH2 0x1900 JUMPI PUSH1 0x40 MLOAD PUSH3 0x461BCD PUSH1 0xE5 SHL DUP2 MSTORE PUSH1 0x20 PUSH1 0x4 DUP3 ADD MSTORE PUSH1 0x19 PUSH1 0x24 DUP3 ADD MSTORE PUSH32 0x506C6179657220616C7265616479207265676973746572656400000000000000 PUSH1 0x44 DUP3 ADD MSTORE PUSH1 0x64 ADD PUSH2 0x9F6 JUMP JUMPDEST PUSH1 0xE DUP1 SLOAD PUSH1 0x40 DUP1 MLOAD PUSH1 0xA0 DUP2 ADD DUP3 MSTORE CALLER DUP2 MSTORE PUSH1 0x20 DUP2 ADD DUP7 DUP2 MSTORE PUSH1 0xA SWAP3 DUP3 ADD SWAP3 SWAP1 SWAP3 MSTORE PUSH1 0x19 PUSH1 0x60 DUP3 ADD MSTORE PUSH1 0x0 PUSH1 0x80 DUP3 ADD DUP2 SWAP1 MSTORE PUSH1 0x1 DUP5 ADD DUP6 SSTORE SWAP4 SWAP1 SWAP4 MSTORE DUP3 MLOAD PUSH32 0xBB7B4A454DC3493923482F07822329ED19E8244EFF582CC204F8554C3620C3FD PUSH1 0x5 DUP5 MUL SWAP1 DUP2 ADD DUP1 SLOAD PUSH1 0x1 PUSH1 0x1 PUSH1 0xA0 SHL SUB NOT AND PUSH1 0x1 PUSH1 0x1 PUSH1 0xA0 SHL SUB SWAP1 SWAP4 AND SWAP3 SWAP1 SWAP3 OR DUP3 SSTORE SWAP2 MLOAD SWAP3 SWAP4 SWAP3 SWAP1 SWAP2 PUSH32 0xBB7B4A454DC3493923482F07822329ED19E8244EFF582CC204F8554C3620C3FE ADD SWAP1 PUSH2 0x19B6 SWAP1 DUP3 PUSH2 0x535B JUMP JUMPDEST POP PUSH1 0x40 DUP3 DUP2 ADD MLOAD PUSH1 0x2 DUP4 ADD SSTORE PUSH1 0x60 DUP4 ADD MLOAD PUSH1 0x3 DUP4 ADD SSTORE PUSH1 0x80 SWAP1 SWAP3 ADD MLOAD PUSH1 0x4 SWAP2 DUP3 ADD DUP1 SLOAD PUSH1 0xFF NOT AND SWAP2 ISZERO ISZERO SWAP2 SWAP1 SWAP2 OR SWAP1 SSTORE CALLER PUSH1 0x0 DUP2 DUP2 MSTORE PUSH1 0xB PUSH1 0x20 MSTORE DUP4 SWAP1 KECCAK256 DUP5 SWAP1 SSTORE PUSH1 0x7 SLOAD SWAP3 MLOAD PUSH4 0xA9059CBB PUSH1 0xE0 SHL DUP2 MSTORE SWAP2 DUP3 ADD MSTORE PUSH8 0x8AC7230489E80000 PUSH1 0x24 DUP3 ADD DUP2 SWAP1 MSTORE SWAP2 PUSH1 0x1 PUSH1 0x1 PUSH1 0xA0 SHL SUB AND SWAP1 PUSH4 0xA9059CBB SWAP1 PUSH1 0x44 ADD PUSH1 0x20 PUSH1 0x40 MLOAD DUP1 DUP4 SUB DUP2 PUSH1 0x0 DUP8 GAS CALL ISZERO DUP1 ISZERO PUSH2 0x1A4D JUMPI RETURNDATASIZE PUSH1 0x0 DUP1 RETURNDATACOPY RETURNDATASIZE PUSH1 0x0 REVERT JUMPDEST POP POP POP POP PUSH1 0x40 MLOAD RETURNDATASIZE PUSH1 0x1F NOT PUSH1 0x1F DUP3 ADD AND DUP3 ADD DUP1 PUSH1 0x40 MSTORE POP DUP2 ADD SWAP1 PUSH2 0x1A71 SWAP2 SWAP1 PUSH2 0x5498 JUMP JUMPDEST PUSH2 0x1ABD JUMPI PUSH1 0x40 MLOAD PUSH3 0x461BCD PUSH1 0xE5 SHL DUP2 MSTORE PUSH1 0x20 PUSH1 0x4 DUP3 ADD MSTORE PUSH1 0x18 PUSH1 0x24 DUP3 ADD MSTORE PUSH32 0x4661696C656420746F207472616E7366657220746F6B656E0000000000000000 PUSH1 0x44 DUP3 ADD MSTORE PUSH1 0x64 ADD PUSH2 0x9F6 JUMP JUMPDEST PUSH2 0x1AC6 DUP4 PUSH2 0x1BFE JUMP JUMPDEST CALLER PUSH1 0x1 PUSH1 0x1 PUSH1 0xA0 SHL SUB AND PUSH32 0x81EF79D1CDA814A60C0FC60792E648A06D9C6BAE67176346D1CC8B63030BFCCD DUP6 PUSH1 0x40 MLOAD PUSH2 0x1AFF SWAP2 SWAP1 PUSH2 0x4BE6 JUMP JUMPDEST PUSH1 0x40 MLOAD DUP1 SWAP2 SUB SWAP1 LOG2 POP POP POP POP JUMP JUMPDEST PUSH1 0x0 PUSH2 0x1B18 DUP3 PUSH2 0xE11 JUMP JUMPDEST PUSH1 0x60 DUP2 ADD MLOAD MLOAD SWAP1 SWAP2 POP PUSH1 0x1 PUSH1 0x1 PUSH1 0xA0 SHL SUB AND CALLER EQ DUP1 PUSH2 0x1B47 JUMPI POP PUSH1 0x60 DUP2 ADD MLOAD PUSH1 0x20 ADD MLOAD PUSH1 0x1 PUSH1 0x1 PUSH1 0xA0 SHL SUB AND CALLER EQ JUMPDEST PUSH2 0x1B93 JUMPI PUSH1 0x40 MLOAD PUSH3 0x461BCD PUSH1 0xE5 SHL DUP2 MSTORE PUSH1 0x20 PUSH1 0x4 DUP3 ADD MSTORE PUSH1 0x1B PUSH1 0x24 DUP3 ADD MSTORE PUSH32 0x596F7520617265206E6F7420696E207468697320626174746C65210000000000 PUSH1 0x44 DUP3 ADD MSTORE PUSH1 0x64 ADD PUSH2 0x9F6 JUMP JUMPDEST PUSH1 0x60 DUP2 ADD MLOAD MLOAD PUSH1 0x1 PUSH1 0x1 PUSH1 0xA0 SHL SUB AND CALLER EQ PUSH2 0x1BC4 JUMPI PUSH1 0x60 DUP2 ADD MLOAD PUSH2 0x1BBF SWAP1 PUSH1 0x0 JUMPDEST PUSH1 0x20 MUL ADD MLOAD DUP3 PUSH2 0x2BD3 JUMP JUMPDEST POP POP POP JUMP JUMPDEST PUSH1 0x60 DUP2 ADD MLOAD PUSH2 0x1BBF SWAP1 PUSH1 0x1 PUSH2 0x1BB4 JUMP JUMPDEST PUSH1 0x0 DUP1 PUSH1 0x0 PUSH2 0x1BE2 DUP5 PUSH2 0xE11 JUMP JUMPDEST PUSH1 0x80 ADD MLOAD DUP1 MLOAD PUSH1 0x20 SWAP1 SWAP2 ADD MLOAD PUSH1 0xFF SWAP2 DUP3 AND SWAP7 SWAP2 AND SWAP5 POP SWAP3 POP POP POP JUMP JUMPDEST PUSH2 0x1C07 CALLER PUSH2 0x13C7 JUMP JUMPDEST PUSH1 0x80 ADD MLOAD ISZERO PUSH2 0x1C50 JUMPI PUSH1 0x40 MLOAD PUSH3 0x461BCD PUSH1 0xE5 SHL DUP2 MSTORE PUSH1 0x20 PUSH1 0x4 DUP3 ADD MSTORE PUSH1 0x15 PUSH1 0x24 DUP3 ADD MSTORE PUSH21 0x506C6179657220697320696E206120626174746C65 PUSH1 0x58 SHL PUSH1 0x44 DUP3 ADD MSTORE PUSH1 0x64 ADD PUSH2 0x9F6 JUMP JUMPDEST PUSH2 0x1C59 CALLER PUSH2 0xB9B JUMP JUMPDEST PUSH2 0x1CA5 JUMPI PUSH1 0x40 MLOAD PUSH3 0x461BCD PUSH1 0xE5 SHL DUP2 MSTORE PUSH1 0x20 PUSH1 0x4 DUP3 ADD MSTORE PUSH1 0x1C PUSH1 0x24 DUP3 ADD MSTORE PUSH32 0x506C6561736520526567697374657220506C6179657220466972737400000000 PUSH1 0x44 DUP3 ADD MSTORE PUSH1 0x64 ADD PUSH2 0x9F6 JUMP JUMPDEST PUSH2 0x1CAE DUP2 PUSH2 0x3058 JUMP JUMPDEST POP POP JUMP JUMPDEST PUSH2 0x1CBA PUSH2 0x4801 JUMP JUMPDEST PUSH1 0x0 PUSH2 0x1CC5 DUP4 PUSH2 0xE11 JUMP JUMPDEST SWAP1 POP PUSH1 0x0 DUP2 MLOAD PUSH1 0x2 DUP2 GT ISZERO PUSH2 0x1CDC JUMPI PUSH2 0x1CDC PUSH2 0x4C0C JUMP JUMPDEST EQ PUSH2 0x1D29 JUMPI PUSH1 0x40 MLOAD PUSH3 0x461BCD PUSH1 0xE5 SHL DUP2 MSTORE PUSH1 0x20 PUSH1 0x4 DUP3 ADD MSTORE PUSH1 0x17 PUSH1 0x24 DUP3 ADD MSTORE PUSH32 0x426174746C6520616C7265616479207374617274656421000000000000000000 PUSH1 0x44 DUP3 ADD MSTORE PUSH1 0x64 ADD PUSH2 0x9F6 JUMP JUMPDEST PUSH1 0x60 DUP2 ADD MLOAD MLOAD CALLER PUSH1 0x1 PUSH1 0x1 PUSH1 0xA0 SHL SUB SWAP1 SWAP2 AND SUB PUSH2 0x1D92 JUMPI PUSH1 0x40 MLOAD PUSH3 0x461BCD PUSH1 0xE5 SHL DUP2 MSTORE PUSH1 0x20 PUSH1 0x4 DUP3 ADD MSTORE PUSH1 0x21 PUSH1 0x24 DUP3 ADD MSTORE PUSH32 0x4F6E6C7920706C617965722074776F2063616E206A6F696E206120626174746C PUSH1 0x44 DUP3 ADD MSTORE PUSH1 0x65 PUSH1 0xF8 SHL PUSH1 0x64 DUP3 ADD MSTORE PUSH1 0x84 ADD PUSH2 0x9F6 JUMP JUMPDEST PUSH2 0x1D9B CALLER PUSH2 0x13C7 JUMP JUMPDEST PUSH1 0x80 ADD MLOAD ISZERO PUSH2 0x1DE0 JUMPI PUSH1 0x40 MLOAD PUSH3 0x461BCD PUSH1 0xE5 SHL DUP2 MSTORE PUSH1 0x20 PUSH1 0x4 DUP3 ADD MSTORE PUSH1 0x11 PUSH1 0x24 DUP3 ADD MSTORE PUSH17 0x416C726561647920696E20626174746C65 PUSH1 0x78 SHL PUSH1 0x44 DUP3 ADD MSTORE PUSH1 0x64 ADD PUSH2 0x9F6 JUMP JUMPDEST PUSH1 0x9 SLOAD PUSH1 0x7 SLOAD PUSH1 0x40 MLOAD PUSH4 0x6EB1769F PUSH1 0xE1 SHL DUP2 MSTORE CALLER PUSH1 0x4 DUP3 ADD MSTORE ADDRESS PUSH1 0x24 DUP3 ADD MSTORE PUSH1 0x1 PUSH1 0x1 PUSH1 0xA0 SHL SUB SWAP1 SWAP2 AND SWAP1 PUSH4 0xDD62ED3E SWAP1 PUSH1 0x44 ADD PUSH1 0x20 PUSH1 0x40 MLOAD DUP1 DUP4 SUB DUP2 DUP7 GAS STATICCALL ISZERO DUP1 ISZERO PUSH2 0x1E31 JUMPI RETURNDATASIZE PUSH1 0x0 DUP1 RETURNDATACOPY RETURNDATASIZE PUSH1 0x0 REVERT JUMPDEST POP POP POP POP PUSH1 0x40 MLOAD RETURNDATASIZE PUSH1 0x1F NOT PUSH1 0x1F DUP3 ADD AND DUP3 ADD DUP1 PUSH1 0x40 MSTORE POP DUP2 ADD SWAP1 PUSH2 0x1E55 SWAP2 SWAP1 PUSH2 0x54B5 JUMP JUMPDEST LT ISZERO PUSH2 0x1EA3 JUMPI PUSH1 0x40 MLOAD PUSH3 0x461BCD PUSH1 0xE5 SHL DUP2 MSTORE PUSH1 0x20 PUSH1 0x4 DUP3 ADD MSTORE PUSH1 0x1F PUSH1 0x24 DUP3 ADD MSTORE PUSH32 0x746F6B656E20616C6C6F77616E6365206E6F742073657420666F7220796F7500 PUSH1 0x44 DUP3 ADD MSTORE PUSH1 0x64 ADD PUSH2 0x9F6 JUMP JUMPDEST PUSH1 0x9 SLOAD PUSH1 0x7 SLOAD PUSH1 0x60 DUP4 ADD MLOAD MLOAD PUSH1 0x40 MLOAD PUSH4 0x6EB1769F PUSH1 0xE1 SHL DUP2 MSTORE PUSH1 0x1 PUSH1 0x1 PUSH1 0xA0 SHL SUB SWAP2 DUP3 AND PUSH1 0x4 DUP3 ADD MSTORE ADDRESS PUSH1 0x24 DUP3 ADD MSTORE SWAP2 AND SWAP1 PUSH4 0xDD62ED3E SWAP1 PUSH1 0x44 ADD PUSH1 0x20 PUSH1 0x40 MLOAD DUP1 DUP4 SUB DUP2 DUP7 GAS STATICCALL ISZERO DUP1 ISZERO PUSH2 0x1EFB JUMPI RETURNDATASIZE PUSH1 0x0 DUP1 RETURNDATACOPY RETURNDATASIZE PUSH1 0x0 REVERT JUMPDEST POP POP POP POP PUSH1 0x40 MLOAD RETURNDATASIZE PUSH1 0x1F NOT PUSH1 0x1F DUP3 ADD AND DUP3 ADD DUP1 PUSH1 0x40 MSTORE POP DUP2 ADD SWAP1 PUSH2 0x1F1F SWAP2 SWAP1 PUSH2 0x54B5 JUMP JUMPDEST LT ISZERO PUSH2 0x1F79 JUMPI PUSH1 0x40 MLOAD PUSH3 0x461BCD PUSH1 0xE5 SHL DUP2 MSTORE PUSH1 0x20 PUSH1 0x4 DUP3 ADD MSTORE PUSH1 0x24 DUP1 DUP3 ADD MSTORE PUSH32 0x746F6B656E20616C6C6F77616E6365206E6F742073657420666F72206F70706F PUSH1 0x44 DUP3 ADD MSTORE PUSH4 0x1B995B9D PUSH1 0xE2 SHL PUSH1 0x64 DUP3 ADD MSTORE PUSH1 0x84 ADD PUSH2 0x9F6 JUMP JUMPDEST PUSH1 0x7 SLOAD PUSH1 0x9 SLOAD PUSH1 0x40 MLOAD PUSH4 0x23B872DD PUSH1 0xE0 SHL DUP2 MSTORE CALLER PUSH1 0x4 DUP3 ADD MSTORE ADDRESS PUSH1 0x24 DUP3 ADD MSTORE PUSH1 0x44 DUP2 ADD SWAP2 SWAP1 SWAP2 MSTORE PUSH1 0x1 PUSH1 0x1 PUSH1 0xA0 SHL SUB SWAP1 SWAP2 AND SWAP1 PUSH4 0x23B872DD SWAP1 PUSH1 0x64 ADD PUSH1 0x20 PUSH1 0x40 MLOAD DUP1 DUP4 SUB DUP2 PUSH1 0x0 DUP8 GAS CALL ISZERO DUP1 ISZERO PUSH2 0x1FD4 JUMPI RETURNDATASIZE PUSH1 0x0 DUP1 RETURNDATACOPY RETURNDATASIZE PUSH1 0x0 REVERT JUMPDEST POP POP POP POP PUSH1 0x40 MLOAD RETURNDATASIZE PUSH1 0x1F NOT PUSH1 0x1F DUP3 ADD AND DUP3 ADD DUP1 PUSH1 0x40 MSTORE POP DUP2 ADD SWAP1 PUSH2 0x1FF8 SWAP2 SWAP1 PUSH2 0x5498 JUMP JUMPDEST PUSH2 0x2044 JUMPI PUSH1 0x40 MLOAD PUSH3 0x461BCD PUSH1 0xE5 SHL DUP2 MSTORE PUSH1 0x20 PUSH1 0x4 DUP3 ADD MSTORE PUSH1 0x1D PUSH1 0x24 DUP3 ADD MSTORE PUSH32 0x746F6B656E207472616E73666572206661696C656420666F7220796F75000000 PUSH1 0x44 DUP3 ADD MSTORE PUSH1 0x64 ADD PUSH2 0x9F6 JUMP JUMPDEST PUSH1 0x7 SLOAD PUSH1 0x60 DUP3 ADD MLOAD MLOAD PUSH1 0x9 SLOAD PUSH1 0x40 MLOAD PUSH4 0x23B872DD PUSH1 0xE0 SHL DUP2 MSTORE PUSH1 0x1 PUSH1 0x1 PUSH1 0xA0 SHL SUB SWAP3 DUP4 AND PUSH1 0x4 DUP3 ADD MSTORE ADDRESS PUSH1 0x24 DUP3 ADD MSTORE PUSH1 0x44 DUP2 ADD SWAP2 SWAP1 SWAP2 MSTORE SWAP2 AND SWAP1 PUSH4 0x23B872DD SWAP1 PUSH1 0x64 ADD PUSH1 0x20 PUSH1 0x40 MLOAD DUP1 DUP4 SUB DUP2 PUSH1 0x0 DUP8 GAS CALL ISZERO DUP1 ISZERO PUSH2 0x20A6 JUMPI RETURNDATASIZE PUSH1 0x0 DUP1 RETURNDATACOPY RETURNDATASIZE PUSH1 0x0 REVERT JUMPDEST POP POP POP POP PUSH1 0x40 MLOAD RETURNDATASIZE PUSH1 0x1F NOT PUSH1 0x1F DUP3 ADD AND DUP3 ADD DUP1 PUSH1 0x40 MSTORE POP DUP2 ADD SWAP1 PUSH2 0x20CA SWAP2 SWAP1 PUSH2 0x5498 JUMP JUMPDEST PUSH2 0x210F JUMPI PUSH1 0x40 MLOAD PUSH3 0x461BCD PUSH1 0xE5 SHL DUP2 MSTORE PUSH1 0x20 PUSH1 0x4 DUP3 ADD MSTORE PUSH1 0x16 PUSH1 0x24 DUP3 ADD MSTORE PUSH22 0x3A37B5B2B7103A3930B739B332B9103330B4B632B21 PUSH1 0x55 SHL PUSH1 0x44 DUP3 ADD MSTORE PUSH1 0x64 ADD PUSH2 0x9F6 JUMP JUMPDEST PUSH1 0x1 DUP2 MSTORE PUSH1 0x60 DUP2 ADD MLOAD CALLER PUSH1 0x20 SWAP1 SWAP2 ADD MSTORE PUSH2 0x2129 DUP4 DUP3 PUSH2 0x3263 JUMP JUMPDEST PUSH1 0x1 PUSH1 0xE PUSH1 0xB PUSH1 0x0 DUP5 PUSH1 0x60 ADD MLOAD PUSH1 0x0 PUSH1 0x2 DUP2 LT PUSH2 0x2148 JUMPI PUSH2 0x2148 PUSH2 0x52E3 JUMP JUMPDEST PUSH1 0x20 MUL ADD MLOAD PUSH1 0x1 PUSH1 0x1 PUSH1 0xA0 SHL SUB AND PUSH1 0x1 PUSH1 0x1 PUSH1 0xA0 SHL SUB AND DUP2 MSTORE PUSH1 0x20 ADD SWAP1 DUP2 MSTORE PUSH1 0x20 ADD PUSH1 0x0 KECCAK256 SLOAD DUP2 SLOAD DUP2 LT PUSH2 0x217E JUMPI PUSH2 0x217E PUSH2 0x52E3 JUMP JUMPDEST PUSH1 0x0 SWAP2 DUP3 MSTORE PUSH1 0x20 DUP1 DUP4 KECCAK256 PUSH1 0x5 SWAP3 SWAP1 SWAP3 MUL SWAP1 SWAP2 ADD PUSH1 0x4 ADD DUP1 SLOAD PUSH1 0xFF NOT AND SWAP4 ISZERO ISZERO SWAP4 SWAP1 SWAP4 OR SWAP1 SWAP3 SSTORE PUSH1 0x60 DUP4 ADD MLOAD DUP3 ADD MLOAD PUSH1 0x1 PUSH1 0x1 PUSH1 0xA0 SHL SUB AND DUP2 MSTORE PUSH1 0xB SWAP1 SWAP2 MSTORE PUSH1 0x40 SWAP1 KECCAK256 SLOAD PUSH1 0xE DUP1 SLOAD PUSH1 0x1 SWAP3 SWAP1 DUP2 LT PUSH2 0x21D7 JUMPI PUSH2 0x21D7 PUSH2 0x52E3 JUMP JUMPDEST PUSH1 0x0 SWAP2 DUP3 MSTORE PUSH1 0x20 DUP3 KECCAK256 PUSH1 0x5 SWAP2 SWAP1 SWAP2 MUL ADD PUSH1 0x4 ADD DUP1 SLOAD PUSH1 0xFF NOT AND SWAP3 ISZERO ISZERO SWAP3 SWAP1 SWAP3 OR SWAP1 SWAP2 SSTORE PUSH1 0x60 DUP3 ADD MLOAD CALLER SWAP2 PUSH1 0x20 MUL ADD MLOAD PUSH1 0x1 PUSH1 0x1 PUSH1 0xA0 SHL SUB AND PUSH32 0x24187B16C217A79F8D8E6252B542EC6E278FA91304ACD9CFD866F2BBF00BD08 DUP4 PUSH1 0x40 ADD MLOAD PUSH1 0x40 MLOAD PUSH2 0x2242 SWAP2 SWAP1 PUSH2 0x4BE6 JUMP JUMPDEST PUSH1 0x40 MLOAD DUP1 SWAP2 SUB SWAP1 LOG3 SWAP3 SWAP2 POP POP JUMP JUMPDEST PUSH2 0x1CAE CALLER DUP4 DUP4 PUSH2 0x338F JUMP JUMPDEST PUSH1 0x0 PUSH2 0x2266 DUP3 PUSH2 0xE11 JUMP JUMPDEST SWAP1 POP PUSH1 0x1 DUP2 MLOAD PUSH1 0x2 DUP2 GT ISZERO PUSH2 0x227D JUMPI PUSH2 0x227D PUSH2 0x4C0C JUMP JUMPDEST EQ PUSH2 0x22FA JUMPI PUSH1 0x40 MLOAD PUSH3 0x461BCD PUSH1 0xE5 SHL DUP2 MSTORE PUSH1 0x20 PUSH1 0x4 DUP3 ADD MSTORE PUSH1 0x41 PUSH1 0x24 DUP3 ADD MSTORE PUSH32 0x426174746C65206E6F7420737461727465642E20506C656173652074656C6C20 PUSH1 0x44 DUP3 ADD MSTORE PUSH32 0x616E6F7468657220706C6179657220746F206A6F696E2074686520626174746C PUSH1 0x64 DUP3 ADD MSTORE PUSH1 0x65 PUSH1 0xF8 SHL PUSH1 0x84 DUP3 ADD MSTORE PUSH1 0xA4 ADD PUSH2 0x9F6 JUMP JUMPDEST PUSH1 0x2 DUP2 MLOAD PUSH1 0x2 DUP2 GT ISZERO PUSH2 0x230F JUMPI PUSH2 0x230F PUSH2 0x4C0C JUMP JUMPDEST SUB PUSH2 0x235C JUMPI PUSH1 0x40 MLOAD PUSH3 0x461BCD PUSH1 0xE5 SHL DUP2 MSTORE PUSH1 0x20 PUSH1 0x4 DUP3 ADD MSTORE PUSH1 0x18 PUSH1 0x24 DUP3 ADD MSTORE PUSH32 0x426174746C652068617320616C726561647920656E6465640000000000000000 PUSH1 0x44 DUP3 ADD MSTORE PUSH1 0x64 ADD PUSH2 0x9F6 JUMP JUMPDEST PUSH1 0x60 DUP2 ADD MLOAD MLOAD PUSH1 0x1 PUSH1 0x1 PUSH1 0xA0 SHL SUB AND CALLER EQ DUP1 PUSH2 0x2388 JUMPI POP PUSH1 0x60 DUP2 ADD MLOAD PUSH1 0x20 ADD MLOAD PUSH1 0x1 PUSH1 0x1 PUSH1 0xA0 SHL SUB AND CALLER EQ JUMPDEST PUSH2 0x23D4 JUMPI PUSH1 0x40 MLOAD PUSH3 0x461BCD PUSH1 0xE5 SHL DUP2 MSTORE PUSH1 0x20 PUSH1 0x4 DUP3 ADD MSTORE PUSH1 0x1A PUSH1 0x24 DUP3 ADD MSTORE PUSH32 0x596F7520617265206E6F7420696E207468697320626174746C65000000000000 PUSH1 0x44 DUP3 ADD MSTORE PUSH1 0x64 ADD PUSH2 0x9F6 JUMP JUMPDEST PUSH1 0x80 DUP2 ADD MLOAD PUSH1 0x60 DUP3 ADD MLOAD MLOAD PUSH1 0x1 PUSH1 0x1 PUSH1 0xA0 SHL SUB AND CALLER EQ PUSH2 0x23F5 JUMPI PUSH1 0x1 PUSH2 0x23F8 JUMP JUMPDEST PUSH1 0x0 JUMPDEST PUSH1 0xFF AND PUSH1 0x2 DUP2 LT PUSH2 0x240B JUMPI PUSH2 0x240B PUSH2 0x52E3 JUMP JUMPDEST PUSH1 0x20 MUL ADD MLOAD PUSH1 0xFF AND ISZERO PUSH2 0x2460 JUMPI PUSH1 0x40 MLOAD PUSH3 0x461BCD PUSH1 0xE5 SHL DUP2 MSTORE PUSH1 0x20 PUSH1 0x4 DUP3 ADD MSTORE PUSH1 0x1D PUSH1 0x24 DUP3 ADD MSTORE PUSH32 0x596F75206861766520616C7265616479206D6164652061206D6F766521000000 PUSH1 0x44 DUP3 ADD MSTORE PUSH1 0x64 ADD PUSH2 0x9F6 JUMP JUMPDEST PUSH1 0x60 DUP2 ADD MLOAD MLOAD PUSH2 0x248D SWAP1 PUSH1 0x1 PUSH1 0x1 PUSH1 0xA0 SHL SUB AND CALLER EQ PUSH2 0x2480 JUMPI PUSH1 0x1 PUSH2 0x2483 JUMP JUMPDEST PUSH1 0x0 JUMPDEST PUSH1 0xFF AND DUP5 DUP5 PUSH2 0x346F JUMP JUMPDEST PUSH2 0x2496 DUP3 PUSH2 0xE11 JUMP JUMPDEST PUSH1 0x80 DUP2 ADD MLOAD PUSH1 0x20 ADD MLOAD SWAP1 SWAP2 POP PUSH1 0x0 SWAP1 PUSH1 0xFF AND ISZERO PUSH2 0x24B4 JUMPI PUSH1 0x1 PUSH2 0x24B7 JUMP JUMPDEST PUSH1 0x0 JUMPDEST PUSH1 0x80 DUP4 ADD MLOAD MLOAD PUSH1 0xFF AND ISZERO PUSH2 0x24CC JUMPI PUSH1 0x1 PUSH2 0x24CF JUMP JUMPDEST PUSH1 0x0 JUMPDEST PUSH2 0x24DA SWAP1 PUSH1 0x2 PUSH2 0x54CE JUMP JUMPDEST PUSH2 0x24E4 SWAP2 SWAP1 PUSH2 0x54CE JUMP JUMPDEST PUSH1 0xFF AND SWAP1 POP DUP1 PUSH1 0x1 EQ PUSH2 0x24F8 JUMPI PUSH1 0x0 PUSH2 0x24FB JUMP JUMPDEST PUSH1 0x1 JUMPDEST ISZERO ISZERO DUP4 PUSH1 0x40 MLOAD PUSH2 0x250B SWAP2 SWAP1 PUSH2 0x52F9 JUMP JUMPDEST PUSH1 0x40 MLOAD SWAP1 DUP2 SWAP1 SUB DUP2 KECCAK256 SWAP1 PUSH32 0x54B82B77E7AE55A8E6C9E89DEBA70C7191DEA2A3B08AE647B380E9F981D6A0F8 SWAP1 PUSH1 0x0 SWAP1 LOG3 DUP1 PUSH1 0x0 SUB PUSH2 0x254C JUMPI PUSH2 0x254C DUP4 PUSH2 0x35C4 JUMP JUMPDEST POP POP POP POP JUMP JUMPDEST PUSH1 0xF DUP2 DUP2 SLOAD DUP2 LT PUSH2 0x2562 JUMPI PUSH1 0x0 DUP1 REVERT JUMPDEST SWAP1 PUSH1 0x0 MSTORE PUSH1 0x20 PUSH1 0x0 KECCAK256 SWAP1 PUSH1 0x4 MUL ADD PUSH1 0x0 SWAP2 POP SWAP1 POP DUP1 PUSH1 0x0 ADD DUP1 SLOAD PUSH2 0x2585 SWAP1 PUSH2 0x52A9 JUMP JUMPDEST DUP1 PUSH1 0x1F ADD PUSH1 0x20 DUP1 SWAP2 DIV MUL PUSH1 0x20 ADD PUSH1 0x40 MLOAD SWAP1 DUP2 ADD PUSH1 0x40 MSTORE DUP1 SWAP3 SWAP2 SWAP1 DUP2 DUP2 MSTORE PUSH1 0x20 ADD DUP3 DUP1 SLOAD PUSH2 0x25B1 SWAP1 PUSH2 0x52A9 JUMP JUMPDEST DUP1 ISZERO PUSH2 0x25FE JUMPI DUP1 PUSH1 0x1F LT PUSH2 0x25D3 JUMPI PUSH2 0x100 DUP1 DUP4 SLOAD DIV MUL DUP4 MSTORE SWAP2 PUSH1 0x20 ADD SWAP2 PUSH2 0x25FE JUMP JUMPDEST DUP3 ADD SWAP2 SWAP1 PUSH1 0x0 MSTORE PUSH1 0x20 PUSH1 0x0 KECCAK256 SWAP1 JUMPDEST DUP2 SLOAD DUP2 MSTORE SWAP1 PUSH1 0x1 ADD SWAP1 PUSH1 0x20 ADD DUP1 DUP4 GT PUSH2 0x25E1 JUMPI DUP3 SWAP1 SUB PUSH1 0x1F AND DUP3 ADD SWAP2 JUMPDEST POP POP POP POP POP SWAP1 DUP1 PUSH1 0x1 ADD SLOAD SWAP1 DUP1 PUSH1 0x2 ADD SLOAD SWAP1 DUP1 PUSH1 0x3 ADD SLOAD SWAP1 POP DUP5 JUMP JUMPDEST PUSH1 0x1 PUSH1 0x1 PUSH1 0xA0 SHL SUB DUP2 AND PUSH1 0x0 SWAP1 DUP2 MSTORE PUSH1 0xC PUSH1 0x20 MSTORE PUSH1 0x40 DUP2 KECCAK256 SLOAD DUP2 SUB PUSH2 0xBC2 JUMPI POP PUSH1 0x0 SWAP2 SWAP1 POP JUMP JUMPDEST PUSH1 0x60 PUSH1 0x5 PUSH2 0x264E DUP4 PUSH2 0x36DE JUMP JUMPDEST PUSH1 0x40 MLOAD PUSH1 0x20 ADD PUSH2 0x265F SWAP3 SWAP2 SWAP1 PUSH2 0x54E7 JUMP JUMPDEST PUSH1 0x40 MLOAD PUSH1 0x20 DUP2 DUP4 SUB SUB DUP2 MSTORE SWAP1 PUSH1 0x40 MSTORE SWAP1 POP SWAP2 SWAP1 POP JUMP JUMPDEST PUSH1 0x60 PUSH1 0xE DUP1 SLOAD DUP1 PUSH1 0x20 MUL PUSH1 0x20 ADD PUSH1 0x40 MLOAD SWAP1 DUP2 ADD PUSH1 0x40 MSTORE DUP1 SWAP3 SWAP2 SWAP1 DUP2 DUP2 MSTORE PUSH1 0x20 ADD PUSH1 0x0 SWAP1 JUMPDEST DUP3 DUP3 LT ISZERO PUSH2 0xB2E JUMPI PUSH1 0x0 DUP5 DUP2 MSTORE PUSH1 0x20 SWAP1 DUP2 SWAP1 KECCAK256 PUSH1 0x40 DUP1 MLOAD PUSH1 0xA0 DUP2 ADD SWAP1 SWAP2 MSTORE PUSH1 0x5 DUP6 MUL SWAP1 SWAP2 ADD DUP1 SLOAD PUSH1 0x1 PUSH1 0x1 PUSH1 0xA0 SHL SUB AND DUP3 MSTORE PUSH1 0x1 DUP2 ADD DUP1 SLOAD SWAP3 SWAP4 SWAP2 SWAP3 SWAP2 DUP5 ADD SWAP2 PUSH2 0x26E2 SWAP1 PUSH2 0x52A9 JUMP JUMPDEST DUP1 PUSH1 0x1F ADD PUSH1 0x20 DUP1 SWAP2 DIV MUL PUSH1 0x20 ADD PUSH1 0x40 MLOAD SWAP1 DUP2 ADD PUSH1 0x40 MSTORE DUP1 SWAP3 SWAP2 SWAP1 DUP2 DUP2 MSTORE PUSH1 0x20 ADD DUP3 DUP1 SLOAD PUSH2 0x270E SWAP1 PUSH2 0x52A9 JUMP JUMPDEST DUP1 ISZERO PUSH2 0x275B JUMPI DUP1 PUSH1 0x1F LT PUSH2 0x2730 JUMPI PUSH2 0x100 DUP1 DUP4 SLOAD DIV MUL DUP4 MSTORE SWAP2 PUSH1 0x20 ADD SWAP2 PUSH2 0x275B JUMP JUMPDEST DUP3 ADD SWAP2 SWAP1 PUSH1 0x0 MSTORE PUSH1 0x20 PUSH1 0x0 KECCAK256 SWAP1 JUMPDEST DUP2 SLOAD DUP2 MSTORE SWAP1 PUSH1 0x1 ADD SWAP1 PUSH1 0x20 ADD DUP1 DUP4 GT PUSH2 0x273E JUMPI DUP3 SWAP1 SUB PUSH1 0x1F AND DUP3 ADD SWAP2 JUMPDEST POP POP POP SWAP2 DUP4 MSTORE POP POP PUSH1 0x2 DUP3 ADD SLOAD PUSH1 0x20 DUP1 DUP4 ADD SWAP2 SWAP1 SWAP2 MSTORE PUSH1 0x3 DUP4 ADD SLOAD PUSH1 0x40 DUP4 ADD MSTORE PUSH1 0x4 SWAP1 SWAP3 ADD SLOAD PUSH1 0xFF AND ISZERO ISZERO PUSH1 0x60 SWAP1 SWAP2 ADD MSTORE SWAP1 DUP3 MSTORE PUSH1 0x1 SWAP3 SWAP1 SWAP3 ADD SWAP2 ADD PUSH2 0x2699 JUMP JUMPDEST PUSH1 0x1 PUSH1 0x1 PUSH1 0xA0 SHL SUB DUP6 AND CALLER EQ DUP1 PUSH2 0x27B8 JUMPI POP PUSH2 0x27B8 DUP6 CALLER PUSH2 0x899 JUMP JUMPDEST PUSH2 0x27D4 JUMPI PUSH1 0x40 MLOAD PUSH3 0x461BCD PUSH1 0xE5 SHL DUP2 MSTORE PUSH1 0x4 ADD PUSH2 0x9F6 SWAP1 PUSH2 0x541A JUMP JUMPDEST PUSH2 0x1297 DUP6 DUP6 DUP6 DUP6 DUP6 PUSH2 0x3809 JUMP JUMPDEST PUSH2 0x27E9 PUSH2 0x2930 JUMP JUMPDEST PUSH1 0x1 PUSH1 0x1 PUSH1 0xA0 SHL SUB DUP2 AND PUSH2 0x284E JUMPI PUSH1 0x40 MLOAD PUSH3 0x461BCD PUSH1 0xE5 SHL DUP2 MSTORE PUSH1 0x20 PUSH1 0x4 DUP3 ADD MSTORE PUSH1 0x26 PUSH1 0x24 DUP3 ADD MSTORE PUSH32 0x4F776E61626C653A206E6577206F776E657220697320746865207A65726F2061 PUSH1 0x44 DUP3 ADD MSTORE PUSH6 0x646472657373 PUSH1 0xD0 SHL PUSH1 0x64 DUP3 ADD MSTORE PUSH1 0x84 ADD PUSH2 0x9F6 JUMP JUMPDEST PUSH2 0xB98 DUP2 PUSH2 0x2B81 JUMP JUMPDEST PUSH1 0xE DUP2 DUP2 SLOAD DUP2 LT PUSH2 0x2867 JUMPI PUSH1 0x0 DUP1 REVERT JUMPDEST PUSH1 0x0 SWAP2 DUP3 MSTORE PUSH1 0x20 SWAP1 SWAP2 KECCAK256 PUSH1 0x5 SWAP1 SWAP2 MUL ADD DUP1 SLOAD PUSH1 0x1 DUP3 ADD DUP1 SLOAD PUSH1 0x1 PUSH1 0x1 PUSH1 0xA0 SHL SUB SWAP1 SWAP3 AND SWAP4 POP SWAP1 PUSH2 0x2896 SWAP1 PUSH2 0x52A9 JUMP JUMPDEST DUP1 PUSH1 0x1F ADD PUSH1 0x20 DUP1 SWAP2 DIV MUL PUSH1 0x20 ADD PUSH1 0x40 MLOAD SWAP1 DUP2 ADD PUSH1 0x40 MSTORE DUP1 SWAP3 SWAP2 SWAP1 DUP2 DUP2 MSTORE PUSH1 0x20 ADD DUP3 DUP1 SLOAD PUSH2 0x28C2 SWAP1 PUSH2 0x52A9 JUMP JUMPDEST DUP1 ISZERO PUSH2 0x290F JUMPI DUP1 PUSH1 0x1F LT PUSH2 0x28E4 JUMPI PUSH2 0x100 DUP1 DUP4 SLOAD DIV MUL DUP4 MSTORE SWAP2 PUSH1 0x20 ADD SWAP2 PUSH2 0x290F JUMP JUMPDEST DUP3 ADD SWAP2 SWAP1 PUSH1 0x0 MSTORE PUSH1 0x20 PUSH1 0x0 KECCAK256 SWAP1 JUMPDEST DUP2 SLOAD DUP2 MSTORE SWAP1 PUSH1 0x1 ADD SWAP1 PUSH1 0x20 ADD DUP1 DUP4 GT PUSH2 0x28F2 JUMPI DUP3 SWAP1 SUB PUSH1 0x1F AND DUP3 ADD SWAP2 JUMPDEST POP POP POP POP PUSH1 0x2 DUP4 ADD SLOAD PUSH1 0x3 DUP5 ADD SLOAD PUSH1 0x4 SWAP1 SWAP5 ADD SLOAD SWAP3 SWAP4 SWAP1 SWAP3 SWAP1 SWAP2 POP PUSH1 0xFF AND DUP6 JUMP JUMPDEST PUSH1 0x3 SLOAD PUSH1 0x1 PUSH1 0x1 PUSH1 0xA0 SHL SUB AND CALLER EQ PUSH2 0x18A8 JUMPI PUSH1 0x40 MLOAD PUSH3 0x461BCD PUSH1 0xE5 SHL DUP2 MSTORE PUSH1 0x20 PUSH1 0x4 DUP3 ADD DUP2 SWAP1 MSTORE PUSH1 0x24 DUP3 ADD MSTORE PUSH32 0x4F776E61626C653A2063616C6C6572206973206E6F7420746865206F776E6572 PUSH1 0x44 DUP3 ADD MSTORE PUSH1 0x64 ADD PUSH2 0x9F6 JUMP JUMPDEST PUSH1 0x2 PUSH2 0x1CAE DUP3 DUP3 PUSH2 0x535B JUMP JUMPDEST DUP2 MLOAD DUP4 MLOAD EQ PUSH2 0x29F8 JUMPI PUSH1 0x40 MLOAD PUSH3 0x461BCD PUSH1 0xE5 SHL DUP2 MSTORE PUSH1 0x20 PUSH1 0x4 DUP3 ADD MSTORE PUSH1 0x28 PUSH1 0x24 DUP3 ADD MSTORE PUSH32 0x455243313135353A2069647320616E6420616D6F756E7473206C656E67746820 PUSH1 0x44 DUP3 ADD MSTORE PUSH8 0xDAD2E6DAC2E8C6D PUSH1 0xC3 SHL PUSH1 0x64 DUP3 ADD MSTORE PUSH1 0x84 ADD PUSH2 0x9F6 JUMP JUMPDEST PUSH1 0x1 PUSH1 0x1 PUSH1 0xA0 SHL SUB DUP5 AND PUSH2 0x2A1E JUMPI PUSH1 0x40 MLOAD PUSH3 0x461BCD PUSH1 0xE5 SHL DUP2 MSTORE PUSH1 0x4 ADD PUSH2 0x9F6 SWAP1 PUSH2 0x558D JUMP JUMPDEST CALLER PUSH2 0x2A2D DUP2 DUP8 DUP8 DUP8 DUP8 DUP8 PUSH2 0x3941 JUMP JUMPDEST PUSH1 0x0 JUMPDEST DUP5 MLOAD DUP2 LT ISZERO PUSH2 0x2B13 JUMPI PUSH1 0x0 DUP6 DUP3 DUP2 MLOAD DUP2 LT PUSH2 0x2A4D JUMPI PUSH2 0x2A4D PUSH2 0x52E3 JUMP JUMPDEST PUSH1 0x20 MUL PUSH1 0x20 ADD ADD MLOAD SWAP1 POP PUSH1 0x0 DUP6 DUP4 DUP2 MLOAD DUP2 LT PUSH2 0x2A6B JUMPI PUSH2 0x2A6B PUSH2 0x52E3 JUMP JUMPDEST PUSH1 0x20 SWAP1 DUP2 MUL SWAP2 SWAP1 SWAP2 ADD DUP2 ADD MLOAD PUSH1 0x0 DUP5 DUP2 MSTORE DUP1 DUP4 MSTORE PUSH1 0x40 DUP1 DUP3 KECCAK256 PUSH1 0x1 PUSH1 0x1 PUSH1 0xA0 SHL SUB DUP15 AND DUP4 MSTORE SWAP1 SWAP4 MSTORE SWAP2 SWAP1 SWAP2 KECCAK256 SLOAD SWAP1 SWAP2 POP DUP2 DUP2 LT ISZERO PUSH2 0x2ABB JUMPI PUSH1 0x40 MLOAD PUSH3 0x461BCD PUSH1 0xE5 SHL DUP2 MSTORE PUSH1 0x4 ADD PUSH2 0x9F6 SWAP1 PUSH2 0x55D2 JUMP JUMPDEST PUSH1 0x0 DUP4 DUP2 MSTORE PUSH1 0x20 DUP2 DUP2 MSTORE PUSH1 0x40 DUP1 DUP4 KECCAK256 PUSH1 0x1 PUSH1 0x1 PUSH1 0xA0 SHL SUB DUP15 DUP2 AND DUP6 MSTORE SWAP3 MSTORE DUP1 DUP4 KECCAK256 DUP6 DUP6 SUB SWAP1 SSTORE SWAP1 DUP12 AND DUP3 MSTORE DUP2 KECCAK256 DUP1 SLOAD DUP5 SWAP3 SWAP1 PUSH2 0x2AF8 SWAP1 DUP5 SWAP1 PUSH2 0x561C JUMP JUMPDEST SWAP3 POP POP DUP2 SWAP1 SSTORE POP POP POP POP DUP1 PUSH2 0x2B0C SWAP1 PUSH2 0x547F JUMP JUMPDEST SWAP1 POP PUSH2 0x2A30 JUMP JUMPDEST POP DUP5 PUSH1 0x1 PUSH1 0x1 PUSH1 0xA0 SHL SUB AND DUP7 PUSH1 0x1 PUSH1 0x1 PUSH1 0xA0 SHL SUB AND DUP3 PUSH1 0x1 PUSH1 0x1 PUSH1 0xA0 SHL SUB AND PUSH32 0x4A39DC06D4C0DBC64B70AF90FD698A233A518AA5D07E595D983B8C0526C8F7FB DUP8 DUP8 PUSH1 0x40 MLOAD PUSH2 0x2B63 SWAP3 SWAP2 SWAP1 PUSH2 0x562F JUMP JUMPDEST PUSH1 0x40 MLOAD DUP1 SWAP2 SUB SWAP1 LOG4 PUSH2 0x2B79 DUP2 DUP8 DUP8 DUP8 DUP8 DUP8 PUSH2 0x394F JUMP JUMPDEST POP POP POP POP POP POP JUMP JUMPDEST PUSH1 0x3 DUP1 SLOAD PUSH1 0x1 PUSH1 0x1 PUSH1 0xA0 SHL SUB DUP4 DUP2 AND PUSH1 0x1 PUSH1 0x1 PUSH1 0xA0 SHL SUB NOT DUP4 AND DUP2 OR SWAP1 SWAP4 SSTORE PUSH1 0x40 MLOAD SWAP2 AND SWAP2 SWAP1 DUP3 SWAP1 PUSH32 0x8BE0079C531659141344CD1FD0A4F28419497F9722A3DAAFE3B4186F6B6457E0 SWAP1 PUSH1 0x0 SWAP1 LOG3 POP POP JUMP JUMPDEST PUSH2 0x2BDB PUSH2 0x4801 JUMP JUMPDEST PUSH1 0x2 DUP3 MLOAD PUSH1 0x2 DUP2 GT ISZERO PUSH2 0x2BF0 JUMPI PUSH2 0x2BF0 PUSH2 0x4C0C JUMP JUMPDEST SUB PUSH2 0x2C34 JUMPI PUSH1 0x40 MLOAD PUSH3 0x461BCD PUSH1 0xE5 SHL DUP2 MSTORE PUSH1 0x20 PUSH1 0x4 DUP3 ADD MSTORE PUSH1 0x14 PUSH1 0x24 DUP3 ADD MSTORE PUSH20 0x10985D1D1B1948185B1C9958591E48195B991959 PUSH1 0x62 SHL PUSH1 0x44 DUP3 ADD MSTORE PUSH1 0x64 ADD PUSH2 0x9F6 JUMP JUMPDEST PUSH1 0x2 DUP3 MSTORE PUSH1 0x1 PUSH1 0x1 PUSH1 0xA0 SHL SUB DUP4 AND PUSH1 0xA0 DUP4 ADD MSTORE PUSH1 0x40 DUP3 ADD MLOAD PUSH2 0x2C56 SWAP1 DUP4 PUSH2 0x3263 JUMP JUMPDEST PUSH1 0x0 PUSH1 0xB PUSH1 0x0 DUP5 PUSH1 0x60 ADD MLOAD PUSH1 0x0 PUSH1 0x2 DUP2 LT PUSH2 0x2C73 JUMPI PUSH2 0x2C73 PUSH2 0x52E3 JUMP JUMPDEST PUSH1 0x20 MUL ADD MLOAD PUSH1 0x1 PUSH1 0x1 PUSH1 0xA0 SHL SUB AND PUSH1 0x1 PUSH1 0x1 PUSH1 0xA0 SHL SUB AND DUP2 MSTORE PUSH1 0x20 ADD SWAP1 DUP2 MSTORE PUSH1 0x20 ADD PUSH1 0x0 KECCAK256 SLOAD SWAP1 POP PUSH1 0x0 PUSH1 0xB PUSH1 0x0 DUP6 PUSH1 0x60 ADD MLOAD PUSH1 0x1 PUSH1 0x2 DUP2 LT PUSH2 0x2CB8 JUMPI PUSH2 0x2CB8 PUSH2 0x52E3 JUMP JUMPDEST PUSH1 0x20 MUL ADD MLOAD PUSH1 0x1 PUSH1 0x1 PUSH1 0xA0 SHL SUB AND PUSH1 0x1 PUSH1 0x1 PUSH1 0xA0 SHL SUB AND DUP2 MSTORE PUSH1 0x20 ADD SWAP1 DUP2 MSTORE PUSH1 0x20 ADD PUSH1 0x0 KECCAK256 SLOAD SWAP1 POP PUSH1 0x0 PUSH1 0xE DUP4 DUP2 SLOAD DUP2 LT PUSH2 0x2CF5 JUMPI PUSH2 0x2CF5 PUSH2 0x52E3 JUMP JUMPDEST SWAP1 PUSH1 0x0 MSTORE PUSH1 0x20 PUSH1 0x0 KECCAK256 SWAP1 PUSH1 0x5 MUL ADD PUSH1 0x4 ADD PUSH1 0x0 PUSH2 0x100 EXP DUP2 SLOAD DUP2 PUSH1 0xFF MUL NOT AND SWAP1 DUP4 ISZERO ISZERO MUL OR SWAP1 SSTORE POP PUSH1 0x19 PUSH1 0xE DUP4 DUP2 SLOAD DUP2 LT PUSH2 0x2D32 JUMPI PUSH2 0x2D32 PUSH2 0x52E3 JUMP JUMPDEST SWAP1 PUSH1 0x0 MSTORE PUSH1 0x20 PUSH1 0x0 KECCAK256 SWAP1 PUSH1 0x5 MUL ADD PUSH1 0x3 ADD DUP2 SWAP1 SSTORE POP PUSH1 0xA PUSH1 0xE DUP4 DUP2 SLOAD DUP2 LT PUSH2 0x2D5C JUMPI PUSH2 0x2D5C PUSH2 0x52E3 JUMP JUMPDEST SWAP1 PUSH1 0x0 MSTORE PUSH1 0x20 PUSH1 0x0 KECCAK256 SWAP1 PUSH1 0x5 MUL ADD PUSH1 0x2 ADD DUP2 SWAP1 SSTORE POP PUSH1 0x0 PUSH1 0xE DUP3 DUP2 SLOAD DUP2 LT PUSH2 0x2D86 JUMPI PUSH2 0x2D86 PUSH2 0x52E3 JUMP JUMPDEST SWAP1 PUSH1 0x0 MSTORE PUSH1 0x20 PUSH1 0x0 KECCAK256 SWAP1 PUSH1 0x5 MUL ADD PUSH1 0x4 ADD PUSH1 0x0 PUSH2 0x100 EXP DUP2 SLOAD DUP2 PUSH1 0xFF MUL NOT AND SWAP1 DUP4 ISZERO ISZERO MUL OR SWAP1 SSTORE POP PUSH1 0x19 PUSH1 0xE DUP3 DUP2 SLOAD DUP2 LT PUSH2 0x2DC3 JUMPI PUSH2 0x2DC3 PUSH2 0x52E3 JUMP JUMPDEST SWAP1 PUSH1 0x0 MSTORE PUSH1 0x20 PUSH1 0x0 KECCAK256 SWAP1 PUSH1 0x5 MUL ADD PUSH1 0x3 ADD DUP2 SWAP1 SSTORE POP PUSH1 0xA PUSH1 0xE DUP3 DUP2 SLOAD DUP2 LT PUSH2 0x2DED JUMPI PUSH2 0x2DED PUSH2 0x52E3 JUMP JUMPDEST PUSH1 0x0 SWAP2 DUP3 MSTORE PUSH1 0x20 DUP3 KECCAK256 PUSH1 0x5 SWAP2 SWAP1 SWAP2 MUL ADD PUSH1 0x2 ADD SWAP2 SWAP1 SWAP2 SSTORE PUSH1 0x60 DUP6 ADD MLOAD MLOAD PUSH1 0x1 PUSH1 0x1 PUSH1 0xA0 SHL SUB DUP8 DUP2 AND SWAP2 AND EQ PUSH2 0x2E27 JUMPI PUSH1 0x60 DUP6 ADD MLOAD MLOAD PUSH2 0x2E31 JUMP JUMPDEST PUSH1 0x60 DUP6 ADD MLOAD PUSH1 0x20 ADD MLOAD JUMPDEST SWAP1 POP PUSH1 0x0 PUSH1 0x9 SLOAD PUSH1 0x2 PUSH2 0x2E44 SWAP2 SWAP1 PUSH2 0x565D JUMP JUMPDEST SWAP1 POP PUSH1 0x0 PUSH1 0x64 PUSH1 0xA SLOAD PUSH1 0x9 SLOAD PUSH2 0x2E5A SWAP2 SWAP1 PUSH2 0x565D JUMP JUMPDEST PUSH2 0x2E64 SWAP2 SWAP1 PUSH2 0x5692 JUMP JUMPDEST SWAP1 POP PUSH1 0x0 PUSH2 0x2E72 DUP3 DUP5 PUSH2 0x56A6 JUMP JUMPDEST PUSH1 0x7 SLOAD PUSH1 0x40 MLOAD PUSH4 0xA9059CBB PUSH1 0xE0 SHL DUP2 MSTORE PUSH1 0x1 PUSH1 0x1 PUSH1 0xA0 SHL SUB DUP13 DUP2 AND PUSH1 0x4 DUP4 ADD MSTORE PUSH1 0x24 DUP3 ADD DUP5 SWAP1 MSTORE SWAP3 SWAP4 POP SWAP2 AND SWAP1 PUSH4 0xA9059CBB SWAP1 PUSH1 0x44 ADD PUSH1 0x20 PUSH1 0x40 MLOAD DUP1 DUP4 SUB DUP2 PUSH1 0x0 DUP8 GAS CALL ISZERO DUP1 ISZERO PUSH2 0x2EC7 JUMPI RETURNDATASIZE PUSH1 0x0 DUP1 RETURNDATACOPY RETURNDATASIZE PUSH1 0x0 REVERT JUMPDEST POP POP POP POP PUSH1 0x40 MLOAD RETURNDATASIZE PUSH1 0x1F NOT PUSH1 0x1F DUP3 ADD AND DUP3 ADD DUP1 PUSH1 0x40 MSTORE POP DUP2 ADD SWAP1 PUSH2 0x2EEB SWAP2 SWAP1 PUSH2 0x5498 JUMP JUMPDEST PUSH2 0x2F37 JUMPI PUSH1 0x40 MLOAD PUSH3 0x461BCD PUSH1 0xE5 SHL DUP2 MSTORE PUSH1 0x20 PUSH1 0x4 DUP3 ADD MSTORE PUSH1 0x1A PUSH1 0x24 DUP3 ADD MSTORE PUSH32 0x7472616E73666572206661696C656420666F722077696E6E6572000000000000 PUSH1 0x44 DUP3 ADD MSTORE PUSH1 0x64 ADD PUSH2 0x9F6 JUMP JUMPDEST PUSH1 0x7 SLOAD PUSH1 0x8 SLOAD PUSH1 0x40 MLOAD PUSH4 0xA9059CBB PUSH1 0xE0 SHL DUP2 MSTORE PUSH1 0x1 PUSH1 0x1 PUSH1 0xA0 SHL SUB SWAP2 DUP3 AND PUSH1 0x4 DUP3 ADD MSTORE PUSH1 0x24 DUP2 ADD DUP6 SWAP1 MSTORE SWAP2 AND SWAP1 PUSH4 0xA9059CBB SWAP1 PUSH1 0x44 ADD PUSH1 0x20 PUSH1 0x40 MLOAD DUP1 DUP4 SUB DUP2 PUSH1 0x0 DUP8 GAS CALL ISZERO DUP1 ISZERO PUSH2 0x2F8C JUMPI RETURNDATASIZE PUSH1 0x0 DUP1 RETURNDATACOPY RETURNDATASIZE PUSH1 0x0 REVERT JUMPDEST POP POP POP POP PUSH1 0x40 MLOAD RETURNDATASIZE PUSH1 0x1F NOT PUSH1 0x1F DUP3 ADD AND DUP3 ADD DUP1 PUSH1 0x40 MSTORE POP DUP2 ADD SWAP1 PUSH2 0x2FB0 SWAP2 SWAP1 PUSH2 0x5498 JUMP JUMPDEST PUSH2 0x2FFC JUMPI PUSH1 0x40 MLOAD PUSH3 0x461BCD PUSH1 0xE5 SHL DUP2 MSTORE PUSH1 0x20 PUSH1 0x4 DUP3 ADD MSTORE PUSH1 0x1D PUSH1 0x24 DUP3 ADD MSTORE PUSH32 0x7472616E73666572206661696C656420666F7220636F6D6D6973696F6E000000 PUSH1 0x44 DUP3 ADD MSTORE PUSH1 0x64 ADD PUSH2 0x9F6 JUMP JUMPDEST DUP4 PUSH1 0x1 PUSH1 0x1 PUSH1 0xA0 SHL SUB AND DUP10 PUSH1 0x1 PUSH1 0x1 PUSH1 0xA0 SHL SUB AND PUSH32 0xAE6E5EAFB6CD1CB4B139E7A0B9140AA182EE7D50E99F50D660156F79212ACBC0 DUP11 PUSH1 0x40 ADD MLOAD PUSH1 0x40 MLOAD PUSH2 0x3043 SWAP2 SWAP1 PUSH2 0x4BE6 JUMP JUMPDEST PUSH1 0x40 MLOAD DUP1 SWAP2 SUB SWAP1 LOG3 POP SWAP6 SWAP8 SWAP7 POP POP POP POP POP POP POP JUMP JUMPDEST PUSH2 0x3083 PUSH1 0x40 MLOAD DUP1 PUSH1 0x80 ADD PUSH1 0x40 MSTORE DUP1 PUSH1 0x60 DUP2 MSTORE PUSH1 0x20 ADD PUSH1 0x0 DUP2 MSTORE PUSH1 0x20 ADD PUSH1 0x0 DUP2 MSTORE PUSH1 0x20 ADD PUSH1 0x0 DUP2 MSTORE POP SWAP1 JUMP JUMPDEST PUSH1 0x0 PUSH2 0x3090 PUSH1 0xA CALLER PUSH2 0x3AB3 JUMP JUMPDEST SWAP1 POP PUSH1 0x0 PUSH2 0x309F DUP3 PUSH1 0xA PUSH2 0x56A6 JUMP JUMPDEST SWAP1 POP PUSH1 0x0 PUSH1 0x64 TIMESTAMP CALLER PUSH1 0x40 MLOAD PUSH1 0x20 ADD PUSH2 0x30D3 SWAP3 SWAP2 SWAP1 SWAP2 DUP3 MSTORE PUSH1 0x60 SHL PUSH12 0xFFFFFFFFFFFFFFFFFFFFFFFF NOT AND PUSH1 0x20 DUP3 ADD MSTORE PUSH1 0x34 ADD SWAP1 JUMP JUMPDEST PUSH1 0x40 MLOAD PUSH1 0x20 DUP2 DUP4 SUB SUB DUP2 MSTORE SWAP1 PUSH1 0x40 MSTORE DUP1 MLOAD SWAP1 PUSH1 0x20 ADD KECCAK256 PUSH1 0x0 SHR PUSH2 0x30F6 SWAP2 SWAP1 PUSH2 0x56B9 JUMP JUMPDEST SWAP1 POP PUSH2 0x3103 PUSH1 0x6 DUP3 PUSH2 0x56CD JUMP JUMPDEST SWAP1 POP DUP1 PUSH1 0xFF AND PUSH1 0x0 SUB PUSH2 0x311E JUMPI DUP1 PUSH2 0x311A DUP2 PUSH2 0x56EF JUMP JUMPDEST SWAP2 POP POP JUMPDEST PUSH1 0x40 DUP1 MLOAD PUSH1 0x80 DUP2 ADD DUP3 MSTORE DUP7 DUP2 MSTORE PUSH1 0xFF DUP4 AND PUSH1 0x20 DUP3 ADD MSTORE SWAP1 DUP2 ADD DUP5 SWAP1 MSTORE PUSH1 0x60 DUP2 ADD DUP4 SWAP1 MSTORE PUSH1 0xF DUP1 SLOAD PUSH1 0x1 DUP2 ADD DUP3 SSTORE PUSH1 0x0 SWAP2 SWAP1 SWAP2 MSTORE DUP2 MLOAD DUP3 SWAP1 PUSH1 0x4 DUP4 MUL PUSH32 0x8D1108E10BCB7C27DDDFC02ED9D693A074039D026CF4EA4240B40F7D581AC802 ADD SWAP1 DUP2 SWAP1 PUSH2 0x3188 SWAP1 DUP3 PUSH2 0x535B JUMP JUMPDEST POP PUSH1 0x20 DUP3 ADD MLOAD DUP2 PUSH1 0x1 ADD SSTORE PUSH1 0x40 DUP3 ADD MLOAD DUP2 PUSH1 0x2 ADD SSTORE PUSH1 0x60 DUP3 ADD MLOAD DUP2 PUSH1 0x3 ADD SSTORE POP POP DUP1 PUSH1 0xC PUSH1 0x0 CALLER PUSH1 0x1 PUSH1 0x1 PUSH1 0xA0 SHL SUB AND PUSH1 0x1 PUSH1 0x1 PUSH1 0xA0 SHL SUB AND DUP2 MSTORE PUSH1 0x20 ADD SWAP1 DUP2 MSTORE PUSH1 0x20 ADD PUSH1 0x0 KECCAK256 DUP2 SWAP1 SSTORE POP PUSH2 0x31FE CALLER DUP5 PUSH1 0xFF AND PUSH1 0x1 PUSH1 0x40 MLOAD DUP1 PUSH1 0x40 ADD PUSH1 0x40 MSTORE DUP1 PUSH1 0x3 DUP2 MSTORE PUSH1 0x20 ADD PUSH3 0x30783 PUSH1 0xEC SHL DUP2 MSTORE POP PUSH2 0x3B31 JUMP JUMPDEST PUSH1 0x6 DUP1 SLOAD SWAP1 PUSH1 0x0 PUSH2 0x320E DUP4 PUSH2 0x547F JUMP JUMPDEST SWAP1 SWAP2 SSTORE POP POP PUSH1 0x40 DUP1 MLOAD PUSH1 0xFF DUP6 AND DUP2 MSTORE PUSH1 0x20 DUP2 ADD DUP8 SWAP1 MSTORE SWAP1 DUP2 ADD DUP6 SWAP1 MSTORE CALLER SWAP1 PUSH32 0xCA8AB07E9ED17D119729FC652DD24DF9D8430CA862DDA4631925B5B4B99DA362 SWAP1 PUSH1 0x60 ADD PUSH1 0x40 MLOAD DUP1 SWAP2 SUB SWAP1 LOG2 POP SWAP6 SWAP5 POP POP POP POP POP JUMP JUMPDEST PUSH2 0x326C DUP3 PUSH2 0xDE1 JUMP JUMPDEST PUSH2 0x32AF JUMPI PUSH1 0x40 MLOAD PUSH3 0x461BCD PUSH1 0xE5 SHL DUP2 MSTORE PUSH1 0x20 PUSH1 0x4 DUP3 ADD MSTORE PUSH1 0x14 PUSH1 0x24 DUP3 ADD MSTORE PUSH20 0x10985D1D1B1948191BD95CDB89DD08195E1A5CDD PUSH1 0x62 SHL PUSH1 0x44 DUP3 ADD MSTORE PUSH1 0x64 ADD PUSH2 0x9F6 JUMP JUMPDEST DUP1 PUSH1 0x10 PUSH1 0xD DUP5 PUSH1 0x40 MLOAD PUSH2 0x32C2 SWAP2 SWAP1 PUSH2 0x52F9 JUMP JUMPDEST SWAP1 DUP2 MSTORE PUSH1 0x20 ADD PUSH1 0x40 MLOAD DUP1 SWAP2 SUB SWAP1 KECCAK256 SLOAD DUP2 SLOAD DUP2 LT PUSH2 0x32E1 JUMPI PUSH2 0x32E1 PUSH2 0x52E3 JUMP JUMPDEST PUSH1 0x0 SWAP2 DUP3 MSTORE PUSH1 0x20 SWAP1 SWAP2 KECCAK256 DUP3 MLOAD PUSH1 0x7 SWAP1 SWAP3 MUL ADD DUP1 SLOAD SWAP1 SWAP2 SWAP1 DUP3 SWAP1 PUSH1 0xFF NOT AND PUSH1 0x1 DUP4 PUSH1 0x2 DUP2 GT ISZERO PUSH2 0x3312 JUMPI PUSH2 0x3312 PUSH2 0x4C0C JUMP JUMPDEST MUL OR SWAP1 SSTORE POP PUSH1 0x20 DUP3 ADD MLOAD PUSH1 0x1 DUP3 ADD SSTORE PUSH1 0x40 DUP3 ADD MLOAD PUSH1 0x2 DUP3 ADD SWAP1 PUSH2 0x3335 SWAP1 DUP3 PUSH2 0x535B JUMP JUMPDEST POP PUSH1 0x60 DUP3 ADD MLOAD PUSH2 0x334B SWAP1 PUSH1 0x3 DUP4 ADD SWAP1 PUSH1 0x2 PUSH2 0x4844 JUMP JUMPDEST POP PUSH1 0x80 DUP3 ADD MLOAD PUSH2 0x3361 SWAP1 PUSH1 0x5 DUP4 ADD SWAP1 PUSH1 0x2 PUSH2 0x489C JUMP JUMPDEST POP PUSH1 0xA0 SWAP2 SWAP1 SWAP2 ADD MLOAD PUSH1 0x6 SWAP1 SWAP2 ADD DUP1 SLOAD PUSH1 0x1 PUSH1 0x1 PUSH1 0xA0 SHL SUB NOT AND PUSH1 0x1 PUSH1 0x1 PUSH1 0xA0 SHL SUB SWAP1 SWAP3 AND SWAP2 SWAP1 SWAP2 OR SWAP1 SSTORE POP POP JUMP JUMPDEST DUP2 PUSH1 0x1 PUSH1 0x1 PUSH1 0xA0 SHL SUB AND DUP4 PUSH1 0x1 PUSH1 0x1 PUSH1 0xA0 SHL SUB AND SUB PUSH2 0x3402 JUMPI PUSH1 0x40 MLOAD PUSH3 0x461BCD PUSH1 0xE5 SHL DUP2 MSTORE PUSH1 0x20 PUSH1 0x4 DUP3 ADD MSTORE PUSH1 0x29 PUSH1 0x24 DUP3 ADD MSTORE PUSH32 0x455243313135353A2073657474696E6720617070726F76616C20737461747573 PUSH1 0x44 DUP3 ADD MSTORE PUSH9 0x103337B91039B2B633 PUSH1 0xB9 SHL PUSH1 0x64 DUP3 ADD MSTORE PUSH1 0x84 ADD PUSH2 0x9F6 JUMP JUMPDEST PUSH1 0x1 PUSH1 0x1 PUSH1 0xA0 SHL SUB DUP4 DUP2 AND PUSH1 0x0 DUP2 DUP2 MSTORE PUSH1 0x1 PUSH1 0x20 SWAP1 DUP2 MSTORE PUSH1 0x40 DUP1 DUP4 KECCAK256 SWAP5 DUP8 AND DUP1 DUP5 MSTORE SWAP5 DUP3 MSTORE SWAP2 DUP3 SWAP1 KECCAK256 DUP1 SLOAD PUSH1 0xFF NOT AND DUP7 ISZERO ISZERO SWAP1 DUP2 OR SWAP1 SWAP2 SSTORE SWAP2 MLOAD SWAP2 DUP3 MSTORE PUSH32 0x17307EAB39AB6107E8899845AD3D59BD9653F200F220920489CA2B5937696C31 SWAP2 ADD PUSH1 0x40 MLOAD DUP1 SWAP2 SUB SWAP1 LOG3 POP POP POP JUMP JUMPDEST DUP2 PUSH1 0xFF AND PUSH1 0x1 EQ DUP1 PUSH2 0x3484 JUMPI POP DUP2 PUSH1 0xFF AND PUSH1 0x2 EQ JUMPDEST PUSH2 0x34D0 JUMPI PUSH1 0x40 MLOAD PUSH3 0x461BCD PUSH1 0xE5 SHL DUP2 MSTORE PUSH1 0x20 PUSH1 0x4 DUP3 ADD MSTORE PUSH1 0x1F PUSH1 0x24 DUP3 ADD MSTORE PUSH32 0x43686F6963652073686F756C64206265206569746865722031206F7220322100 PUSH1 0x44 DUP3 ADD MSTORE PUSH1 0x64 ADD PUSH2 0x9F6 JUMP JUMPDEST DUP2 PUSH1 0xFF AND PUSH1 0x1 EQ PUSH2 0x34E2 JUMPI PUSH1 0x1 PUSH2 0x34F4 JUMP JUMPDEST PUSH1 0x3 PUSH2 0x34ED CALLER PUSH2 0x13C7 JUMP JUMPDEST PUSH1 0x40 ADD MLOAD LT ISZERO JUMPDEST PUSH2 0x354B JUMPI PUSH1 0x40 MLOAD PUSH3 0x461BCD PUSH1 0xE5 SHL DUP2 MSTORE PUSH1 0x20 PUSH1 0x4 DUP3 ADD MSTORE PUSH1 0x22 PUSH1 0x24 DUP3 ADD MSTORE PUSH32 0x4D616E61206E6F742073756666696369656E7420666F722061747461636B696E PUSH1 0x44 DUP3 ADD MSTORE PUSH2 0x6721 PUSH1 0xF0 SHL PUSH1 0x64 DUP3 ADD MSTORE PUSH1 0x84 ADD PUSH2 0x9F6 JUMP JUMPDEST DUP2 PUSH1 0x10 PUSH1 0xD DUP4 PUSH1 0x40 MLOAD PUSH2 0x355E SWAP2 SWAP1 PUSH2 0x52F9 JUMP JUMPDEST SWAP1 DUP2 MSTORE PUSH1 0x20 ADD PUSH1 0x40 MLOAD DUP1 SWAP2 SUB SWAP1 KECCAK256 SLOAD DUP2 SLOAD DUP2 LT PUSH2 0x357D JUMPI PUSH2 0x357D PUSH2 0x52E3 JUMP JUMPDEST SWAP1 PUSH1 0x0 MSTORE PUSH1 0x20 PUSH1 0x0 KECCAK256 SWAP1 PUSH1 0x7 MUL ADD PUSH1 0x5 ADD DUP5 PUSH1 0x2 DUP2 LT PUSH2 0x359F JUMPI PUSH2 0x359F PUSH2 0x52E3 JUMP JUMPDEST PUSH1 0x20 SWAP2 DUP3 DUP3 DIV ADD SWAP2 SWAP1 MOD PUSH2 0x100 EXP DUP2 SLOAD DUP2 PUSH1 0xFF MUL NOT AND SWAP1 DUP4 PUSH1 0xFF AND MUL OR SWAP1 SSTORE POP POP POP POP JUMP JUMPDEST PUSH1 0x0 PUSH2 0x35CF DUP3 PUSH2 0xE11 JUMP JUMPDEST PUSH1 0x60 DUP2 ADD MLOAD MLOAD SWAP1 SWAP2 POP PUSH1 0x1 PUSH1 0x1 PUSH1 0xA0 SHL SUB AND CALLER EQ DUP1 PUSH2 0x35FE JUMPI POP PUSH1 0x60 DUP2 ADD MLOAD PUSH1 0x20 ADD MLOAD PUSH1 0x1 PUSH1 0x1 PUSH1 0xA0 SHL SUB AND CALLER EQ JUMPDEST PUSH2 0x365E JUMPI PUSH1 0x40 MLOAD PUSH3 0x461BCD PUSH1 0xE5 SHL DUP2 MSTORE PUSH1 0x20 PUSH1 0x4 DUP3 ADD MSTORE PUSH1 0x2B PUSH1 0x24 DUP3 ADD MSTORE PUSH32 0x4F6E6C7920706C617965727320696E207468697320626174746C652063616E20 PUSH1 0x44 DUP3 ADD MSTORE PUSH11 0x6D616B652061206D6F7665 PUSH1 0xA8 SHL PUSH1 0x64 DUP3 ADD MSTORE PUSH1 0x84 ADD PUSH2 0x9F6 JUMP JUMPDEST PUSH1 0x80 DUP2 ADD MLOAD MLOAD PUSH1 0xFF AND ISZERO DUP1 ISZERO SWAP1 PUSH2 0x367F JUMPI POP PUSH1 0x80 DUP2 ADD MLOAD PUSH1 0x20 ADD MLOAD PUSH1 0xFF AND ISZERO ISZERO JUMPDEST PUSH2 0x36D5 JUMPI PUSH1 0x40 MLOAD PUSH3 0x461BCD PUSH1 0xE5 SHL DUP2 MSTORE PUSH1 0x20 PUSH1 0x4 DUP3 ADD MSTORE PUSH1 0x21 PUSH1 0x24 DUP3 ADD MSTORE PUSH32 0x506C6179657273207374696C6C206E65656420746F206D616B652061206D6F76 PUSH1 0x44 DUP3 ADD MSTORE PUSH1 0x65 PUSH1 0xF8 SHL PUSH1 0x64 DUP3 ADD MSTORE PUSH1 0x84 ADD PUSH2 0x9F6 JUMP JUMPDEST PUSH2 0x1CAE DUP2 PUSH2 0x3C4B JUMP JUMPDEST PUSH1 0x60 DUP2 PUSH1 0x0 SUB PUSH2 0x3705 JUMPI POP POP PUSH1 0x40 DUP1 MLOAD DUP1 DUP3 ADD SWAP1 SWAP2 MSTORE PUSH1 0x1 DUP2 MSTORE PUSH1 0x3 PUSH1 0xFC SHL PUSH1 0x20 DUP3 ADD MSTORE SWAP1 JUMP JUMPDEST DUP2 PUSH1 0x0 JUMPDEST DUP2 ISZERO PUSH2 0x372F JUMPI DUP1 PUSH2 0x3719 DUP2 PUSH2 0x547F JUMP JUMPDEST SWAP2 POP PUSH2 0x3728 SWAP1 POP PUSH1 0xA DUP4 PUSH2 0x5692 JUMP JUMPDEST SWAP2 POP PUSH2 0x3709 JUMP JUMPDEST PUSH1 0x0 DUP2 PUSH1 0x1 PUSH1 0x1 PUSH1 0x40 SHL SUB DUP2 GT ISZERO PUSH2 0x3749 JUMPI PUSH2 0x3749 PUSH2 0x4AC9 JUMP JUMPDEST PUSH1 0x40 MLOAD SWAP1 DUP1 DUP3 MSTORE DUP1 PUSH1 0x1F ADD PUSH1 0x1F NOT AND PUSH1 0x20 ADD DUP3 ADD PUSH1 0x40 MSTORE DUP1 ISZERO PUSH2 0x3773 JUMPI PUSH1 0x20 DUP3 ADD DUP2 DUP1 CALLDATASIZE DUP4 CALLDATACOPY ADD SWAP1 POP JUMPDEST POP SWAP1 POP DUP2 JUMPDEST DUP6 ISZERO PUSH2 0x3800 JUMPI PUSH2 0x3789 PUSH1 0x1 DUP3 PUSH2 0x56A6 JUMP JUMPDEST SWAP1 POP PUSH1 0x0 PUSH2 0x3798 PUSH1 0xA DUP9 PUSH2 0x5692 JUMP JUMPDEST PUSH2 0x37A3 SWAP1 PUSH1 0xA PUSH2 0x565D JUMP JUMPDEST PUSH2 0x37AD SWAP1 DUP9 PUSH2 0x56A6 JUMP JUMPDEST PUSH2 0x37B8 SWAP1 PUSH1 0x30 PUSH2 0x570E JUMP JUMPDEST SWAP1 POP PUSH1 0x0 DUP2 PUSH1 0xF8 SHL SWAP1 POP DUP1 DUP5 DUP5 DUP2 MLOAD DUP2 LT PUSH2 0x37D5 JUMPI PUSH2 0x37D5 PUSH2 0x52E3 JUMP JUMPDEST PUSH1 0x20 ADD ADD SWAP1 PUSH1 0x1 PUSH1 0x1 PUSH1 0xF8 SHL SUB NOT AND SWAP1 DUP2 PUSH1 0x0 BYTE SWAP1 MSTORE8 POP PUSH2 0x37F7 PUSH1 0xA DUP10 PUSH2 0x5692 JUMP JUMPDEST SWAP8 POP POP POP PUSH2 0x3778 JUMP JUMPDEST POP SWAP5 SWAP4 POP POP POP POP JUMP JUMPDEST PUSH1 0x1 PUSH1 0x1 PUSH1 0xA0 SHL SUB DUP5 AND PUSH2 0x382F JUMPI PUSH1 0x40 MLOAD PUSH3 0x461BCD PUSH1 0xE5 SHL DUP2 MSTORE PUSH1 0x4 ADD PUSH2 0x9F6 SWAP1 PUSH2 0x558D JUMP JUMPDEST CALLER PUSH1 0x0 PUSH2 0x383B DUP6 PUSH2 0x4582 JUMP JUMPDEST SWAP1 POP PUSH1 0x0 PUSH2 0x3848 DUP6 PUSH2 0x4582 JUMP JUMPDEST SWAP1 POP PUSH2 0x3858 DUP4 DUP10 DUP10 DUP6 DUP6 DUP10 PUSH2 0x3941 JUMP JUMPDEST PUSH1 0x0 DUP7 DUP2 MSTORE PUSH1 0x20 DUP2 DUP2 MSTORE PUSH1 0x40 DUP1 DUP4 KECCAK256 PUSH1 0x1 PUSH1 0x1 PUSH1 0xA0 SHL SUB DUP13 AND DUP5 MSTORE SWAP1 SWAP2 MSTORE SWAP1 KECCAK256 SLOAD DUP6 DUP2 LT ISZERO PUSH2 0x3899 JUMPI PUSH1 0x40 MLOAD PUSH3 0x461BCD PUSH1 0xE5 SHL DUP2 MSTORE PUSH1 0x4 ADD PUSH2 0x9F6 SWAP1 PUSH2 0x55D2 JUMP JUMPDEST PUSH1 0x0 DUP8 DUP2 MSTORE PUSH1 0x20 DUP2 DUP2 MSTORE PUSH1 0x40 DUP1 DUP4 KECCAK256 PUSH1 0x1 PUSH1 0x1 PUSH1 0xA0 SHL SUB DUP14 DUP2 AND DUP6 MSTORE SWAP3 MSTORE DUP1 DUP4 KECCAK256 DUP10 DUP6 SUB SWAP1 SSTORE SWAP1 DUP11 AND DUP3 MSTORE DUP2 KECCAK256 DUP1 SLOAD DUP9 SWAP3 SWAP1 PUSH2 0x38D6 SWAP1 DUP5 SWAP1 PUSH2 0x561C JUMP JUMPDEST SWAP1 SWAP2 SSTORE POP POP PUSH1 0x40 DUP1 MLOAD DUP9 DUP2 MSTORE PUSH1 0x20 DUP2 ADD DUP9 SWAP1 MSTORE PUSH1 0x1 PUSH1 0x1 PUSH1 0xA0 SHL SUB DUP1 DUP12 AND SWAP3 DUP13 DUP3 AND SWAP3 SWAP2 DUP9 AND SWAP2 PUSH32 0xC3D58168C5AE7397731D063D5BBF3D657854427343F4C083240F7AACAA2D0F62 SWAP2 ADD PUSH1 0x40 MLOAD DUP1 SWAP2 SUB SWAP1 LOG4 PUSH2 0x3936 DUP5 DUP11 DUP11 DUP11 DUP11 DUP11 PUSH2 0x45CD JUMP JUMPDEST POP POP POP POP POP POP POP POP POP JUMP JUMPDEST PUSH2 0x2B79 DUP7 DUP7 DUP7 DUP7 DUP7 DUP7 PUSH2 0x4688 JUMP JUMPDEST PUSH1 0x1 PUSH1 0x1 PUSH1 0xA0 SHL SUB DUP5 AND EXTCODESIZE ISZERO PUSH2 0x2B79 JUMPI PUSH1 0x40 MLOAD PUSH4 0xBC197C81 PUSH1 0xE0 SHL DUP2 MSTORE PUSH1 0x1 PUSH1 0x1 PUSH1 0xA0 SHL SUB DUP6 AND SWAP1 PUSH4 0xBC197C81 SWAP1 PUSH2 0x3993 SWAP1 DUP10 SWAP1 DUP10 SWAP1 DUP9 SWAP1 DUP9 SWAP1 DUP9 SWAP1 PUSH1 0x4 ADD PUSH2 0x5727 JUMP JUMPDEST PUSH1 0x20 PUSH1 0x40 MLOAD DUP1 DUP4 SUB DUP2 PUSH1 0x0 DUP8 GAS CALL SWAP3 POP POP POP DUP1 ISZERO PUSH2 0x39CE JUMPI POP PUSH1 0x40 DUP1 MLOAD PUSH1 0x1F RETURNDATASIZE SWAP1 DUP2 ADD PUSH1 0x1F NOT AND DUP3 ADD SWAP1 SWAP3 MSTORE PUSH2 0x39CB SWAP2 DUP2 ADD SWAP1 PUSH2 0x5785 JUMP JUMPDEST PUSH1 0x1 JUMPDEST PUSH2 0x3A7A JUMPI PUSH2 0x39DA PUSH2 0x57A2 JUMP JUMPDEST DUP1 PUSH4 0x8C379A0 SUB PUSH2 0x3A13 JUMPI POP PUSH2 0x39EE PUSH2 0x57BE JUMP JUMPDEST DUP1 PUSH2 0x39F9 JUMPI POP PUSH2 0x3A15 JUMP JUMPDEST DUP1 PUSH1 0x40 MLOAD PUSH3 0x461BCD PUSH1 0xE5 SHL DUP2 MSTORE PUSH1 0x4 ADD PUSH2 0x9F6 SWAP2 SWAP1 PUSH2 0x4BE6 JUMP JUMPDEST POP JUMPDEST PUSH1 0x40 MLOAD PUSH3 0x461BCD PUSH1 0xE5 SHL DUP2 MSTORE PUSH1 0x20 PUSH1 0x4 DUP3 ADD MSTORE PUSH1 0x34 PUSH1 0x24 DUP3 ADD MSTORE PUSH32 0x455243313135353A207472616E7366657220746F206E6F6E2045524331313535 PUSH1 0x44 DUP3 ADD MSTORE PUSH20 0x2932B1B2B4BB32B91034B6B83632B6B2B73A32B9 PUSH1 0x61 SHL PUSH1 0x64 DUP3 ADD MSTORE PUSH1 0x84 ADD PUSH2 0x9F6 JUMP JUMPDEST PUSH1 0x1 PUSH1 0x1 PUSH1 0xE0 SHL SUB NOT DUP2 AND PUSH4 0xBC197C81 PUSH1 0xE0 SHL EQ PUSH2 0x3AAA JUMPI PUSH1 0x40 MLOAD PUSH3 0x461BCD PUSH1 0xE5 SHL DUP2 MSTORE PUSH1 0x4 ADD PUSH2 0x9F6 SWAP1 PUSH2 0x5847 JUMP JUMPDEST POP POP POP POP POP POP POP JUMP JUMPDEST PUSH1 0x0 DUP1 DIFFICULTY TIMESTAMP DUP5 PUSH1 0x40 MLOAD PUSH1 0x20 ADD PUSH2 0x3AEE SWAP4 SWAP3 SWAP2 SWAP1 SWAP3 DUP4 MSTORE PUSH1 0x20 DUP4 ADD SWAP2 SWAP1 SWAP2 MSTORE PUSH1 0x60 SHL PUSH12 0xFFFFFFFFFFFFFFFFFFFFFFFF NOT AND PUSH1 0x40 DUP3 ADD MSTORE PUSH1 0x54 ADD SWAP1 JUMP JUMPDEST PUSH1 0x40 DUP1 MLOAD PUSH1 0x1F NOT DUP2 DUP5 SUB ADD DUP2 MSTORE SWAP2 SWAP1 MSTORE DUP1 MLOAD PUSH1 0x20 SWAP1 SWAP2 ADD KECCAK256 SWAP1 POP PUSH2 0x3B12 DUP5 DUP3 PUSH2 0x56B9 JUMP JUMPDEST SWAP2 POP DUP2 PUSH1 0x0 SUB PUSH2 0x3B2A JUMPI PUSH2 0x3B27 PUSH1 0x2 DUP6 PUSH2 0x5692 JUMP JUMPDEST SWAP2 POP JUMPDEST POP SWAP3 SWAP2 POP POP JUMP JUMPDEST PUSH1 0x1 PUSH1 0x1 PUSH1 0xA0 SHL SUB DUP5 AND PUSH2 0x3B91 JUMPI PUSH1 0x40 MLOAD PUSH3 0x461BCD PUSH1 0xE5 SHL DUP2 MSTORE PUSH1 0x20 PUSH1 0x4 DUP3 ADD MSTORE PUSH1 0x21 PUSH1 0x24 DUP3 ADD MSTORE PUSH32 0x455243313135353A206D696E7420746F20746865207A65726F20616464726573 PUSH1 0x44 DUP3 ADD MSTORE PUSH1 0x73 PUSH1 0xF8 SHL PUSH1 0x64 DUP3 ADD MSTORE PUSH1 0x84 ADD PUSH2 0x9F6 JUMP JUMPDEST CALLER PUSH1 0x0 PUSH2 0x3B9D DUP6 PUSH2 0x4582 JUMP JUMPDEST SWAP1 POP PUSH1 0x0 PUSH2 0x3BAA DUP6 PUSH2 0x4582 JUMP JUMPDEST SWAP1 POP PUSH2 0x3BBB DUP4 PUSH1 0x0 DUP10 DUP6 DUP6 DUP10 PUSH2 0x3941 JUMP JUMPDEST PUSH1 0x0 DUP7 DUP2 MSTORE PUSH1 0x20 DUP2 DUP2 MSTORE PUSH1 0x40 DUP1 DUP4 KECCAK256 PUSH1 0x1 PUSH1 0x1 PUSH1 0xA0 SHL SUB DUP12 AND DUP5 MSTORE SWAP1 SWAP2 MSTORE DUP2 KECCAK256 DUP1 SLOAD DUP8 SWAP3 SWAP1 PUSH2 0x3BEB SWAP1 DUP5 SWAP1 PUSH2 0x561C JUMP JUMPDEST SWAP1 SWAP2 SSTORE POP POP PUSH1 0x40 DUP1 MLOAD DUP8 DUP2 MSTORE PUSH1 0x20 DUP2 ADD DUP8 SWAP1 MSTORE PUSH1 0x1 PUSH1 0x1 PUSH1 0xA0 SHL SUB DUP1 DUP11 AND SWAP3 PUSH1 0x0 SWAP3 SWAP2 DUP8 AND SWAP2 PUSH32 0xC3D58168C5AE7397731D063D5BBF3D657854427343F4C083240F7AACAA2D0F62 SWAP2 ADD PUSH1 0x40 MLOAD DUP1 SWAP2 SUB SWAP1 LOG4 PUSH2 0x3AAA DUP4 PUSH1 0x0 DUP10 DUP10 DUP10 DUP10 PUSH2 0x45CD JUMP JUMPDEST PUSH1 0x0 PUSH1 0x40 MLOAD DUP1 PUSH1 0xA0 ADD PUSH1 0x40 MSTORE DUP1 PUSH1 0xB PUSH1 0x0 DUP6 PUSH1 0x60 ADD MLOAD PUSH1 0x0 PUSH1 0x2 DUP2 LT PUSH2 0x3C73 JUMPI PUSH2 0x3C73 PUSH2 0x52E3 JUMP JUMPDEST PUSH1 0x20 MUL ADD MLOAD PUSH1 0x1 PUSH1 0x1 PUSH1 0xA0 SHL SUB AND PUSH1 0x1 PUSH1 0x1 PUSH1 0xA0 SHL SUB AND DUP2 MSTORE PUSH1 0x20 ADD SWAP1 DUP2 MSTORE PUSH1 0x20 ADD PUSH1 0x0 KECCAK256 SLOAD DUP2 MSTORE PUSH1 0x20 ADD DUP4 PUSH1 0x80 ADD MLOAD PUSH1 0x0 PUSH1 0x2 DUP2 LT PUSH2 0x3CB5 JUMPI PUSH2 0x3CB5 PUSH2 0x52E3 JUMP JUMPDEST PUSH1 0x20 MUL ADD MLOAD PUSH1 0xFF AND DUP2 MSTORE PUSH1 0x20 ADD PUSH2 0x3CE6 DUP5 PUSH1 0x60 ADD MLOAD PUSH1 0x0 PUSH1 0x2 DUP2 LT PUSH2 0x3CDC JUMPI PUSH2 0x3CDC PUSH2 0x52E3 JUMP JUMPDEST PUSH1 0x20 MUL ADD MLOAD PUSH2 0x13C7 JUMP JUMPDEST PUSH1 0x60 ADD MLOAD DUP2 MSTORE PUSH1 0x20 ADD PUSH2 0x3D13 DUP5 PUSH1 0x60 ADD MLOAD PUSH1 0x0 PUSH1 0x2 DUP2 LT PUSH2 0x3D09 JUMPI PUSH2 0x3D09 PUSH2 0x52E3 JUMP JUMPDEST PUSH1 0x20 MUL ADD MLOAD PUSH2 0xC63 JUMP JUMPDEST PUSH1 0x40 ADD MLOAD DUP2 MSTORE PUSH1 0x20 ADD PUSH2 0x3D36 DUP5 PUSH1 0x60 ADD MLOAD PUSH1 0x0 PUSH1 0x2 DUP2 LT PUSH2 0x3D09 JUMPI PUSH2 0x3D09 PUSH2 0x52E3 JUMP JUMPDEST PUSH1 0x60 ADD MLOAD DUP2 MSTORE POP SWAP1 POP PUSH1 0x0 PUSH1 0x40 MLOAD DUP1 PUSH1 0xA0 ADD PUSH1 0x40 MSTORE DUP1 PUSH1 0xB PUSH1 0x0 DUP7 PUSH1 0x60 ADD MLOAD PUSH1 0x1 PUSH1 0x2 DUP2 LT PUSH2 0x3D67 JUMPI PUSH2 0x3D67 PUSH2 0x52E3 JUMP JUMPDEST PUSH1 0x20 MUL ADD MLOAD PUSH1 0x1 PUSH1 0x1 PUSH1 0xA0 SHL SUB AND PUSH1 0x1 PUSH1 0x1 PUSH1 0xA0 SHL SUB AND DUP2 MSTORE PUSH1 0x20 ADD SWAP1 DUP2 MSTORE PUSH1 0x20 ADD PUSH1 0x0 KECCAK256 SLOAD DUP2 MSTORE PUSH1 0x20 ADD DUP5 PUSH1 0x80 ADD MLOAD PUSH1 0x1 PUSH1 0x2 DUP2 LT PUSH2 0x3DA9 JUMPI PUSH2 0x3DA9 PUSH2 0x52E3 JUMP JUMPDEST PUSH1 0x20 MUL ADD MLOAD PUSH1 0xFF AND DUP2 MSTORE PUSH1 0x20 ADD PUSH2 0x3DD0 DUP6 PUSH1 0x60 ADD MLOAD PUSH1 0x1 PUSH1 0x2 DUP2 LT PUSH2 0x3CDC JUMPI PUSH2 0x3CDC PUSH2 0x52E3 JUMP JUMPDEST PUSH1 0x60 ADD MLOAD DUP2 MSTORE PUSH1 0x20 ADD PUSH2 0x3DF3 DUP6 PUSH1 0x60 ADD MLOAD PUSH1 0x1 PUSH1 0x2 DUP2 LT PUSH2 0x3D09 JUMPI PUSH2 0x3D09 PUSH2 0x52E3 JUMP JUMPDEST PUSH1 0x40 ADD MLOAD DUP2 MSTORE PUSH1 0x20 ADD PUSH2 0x3E16 DUP6 PUSH1 0x60 ADD MLOAD PUSH1 0x1 PUSH1 0x2 DUP2 LT PUSH2 0x3D09 JUMPI PUSH2 0x3D09 PUSH2 0x52E3 JUMP JUMPDEST PUSH1 0x60 ADD MLOAD SWAP1 MSTORE PUSH1 0x40 DUP1 MLOAD DUP1 DUP3 ADD SWAP1 SWAP2 MSTORE PUSH1 0x0 DUP1 DUP3 MSTORE PUSH1 0x20 DUP1 DUP4 ADD SWAP2 SWAP1 SWAP2 MSTORE DUP5 ADD MLOAD SWAP2 SWAP3 POP SWAP1 PUSH1 0x1 EQ DUP1 PUSH2 0x3E4D JUMPI POP DUP2 PUSH1 0x20 ADD MLOAD PUSH1 0x1 EQ JUMPDEST ISZERO PUSH2 0x3E9F JUMPI DUP2 PUSH1 0x40 ADD MLOAD DUP4 PUSH1 0x60 ADD MLOAD LT PUSH2 0x3E7E JUMPI PUSH1 0x60 DUP5 ADD MLOAD PUSH2 0x3E78 SWAP1 PUSH1 0x0 JUMPDEST PUSH1 0x20 MUL ADD MLOAD DUP6 PUSH2 0x2BD3 JUMP JUMPDEST POP PUSH2 0x3E9F JUMP JUMPDEST DUP3 PUSH1 0x40 ADD MLOAD DUP3 PUSH1 0x60 ADD MLOAD LT PUSH2 0x3E9F JUMPI PUSH1 0x60 DUP5 ADD MLOAD PUSH2 0x3E9D SWAP1 PUSH1 0x1 PUSH2 0x3E6D JUMP JUMPDEST POP JUMPDEST DUP3 PUSH1 0x20 ADD MLOAD PUSH1 0x1 EQ DUP1 ISZERO PUSH2 0x3EB7 JUMPI POP DUP2 PUSH1 0x20 ADD MLOAD PUSH1 0x1 EQ JUMPDEST ISZERO PUSH2 0x4007 JUMPI DUP2 PUSH1 0x40 ADD MLOAD DUP4 PUSH1 0x60 ADD MLOAD LT PUSH2 0x3EE1 JUMPI PUSH1 0x60 DUP5 ADD MLOAD PUSH2 0x3EDB SWAP1 PUSH1 0x0 PUSH2 0x3E6D JUMP JUMPDEST POP PUSH2 0x4322 JUMP JUMPDEST DUP3 PUSH1 0x40 ADD MLOAD DUP3 PUSH1 0x60 ADD MLOAD LT PUSH2 0x3F00 JUMPI PUSH1 0x60 DUP5 ADD MLOAD PUSH2 0x3EDB SWAP1 PUSH1 0x1 PUSH2 0x3E6D JUMP JUMPDEST DUP2 PUSH1 0x60 ADD MLOAD PUSH1 0xE DUP5 PUSH1 0x0 ADD MLOAD DUP2 SLOAD DUP2 LT PUSH2 0x3F1C JUMPI PUSH2 0x3F1C PUSH2 0x52E3 JUMP JUMPDEST SWAP1 PUSH1 0x0 MSTORE PUSH1 0x20 PUSH1 0x0 KECCAK256 SWAP1 PUSH1 0x5 MUL ADD PUSH1 0x3 ADD PUSH1 0x0 DUP3 DUP3 SLOAD PUSH2 0x3F3C SWAP2 SWAP1 PUSH2 0x56A6 JUMP JUMPDEST SWAP1 SWAP2 SSTORE POP POP PUSH1 0x60 DUP4 ADD MLOAD DUP3 MLOAD PUSH1 0xE DUP1 SLOAD SWAP1 SWAP2 SWAP1 DUP2 LT PUSH2 0x3F5D JUMPI PUSH2 0x3F5D PUSH2 0x52E3 JUMP JUMPDEST SWAP1 PUSH1 0x0 MSTORE PUSH1 0x20 PUSH1 0x0 KECCAK256 SWAP1 PUSH1 0x5 MUL ADD PUSH1 0x3 ADD PUSH1 0x0 DUP3 DUP3 SLOAD PUSH2 0x3F7D SWAP2 SWAP1 PUSH2 0x56A6 JUMP JUMPDEST SWAP1 SWAP2 SSTORE POP POP DUP3 MLOAD PUSH1 0xE DUP1 SLOAD PUSH1 0x3 SWAP3 SWAP1 DUP2 LT PUSH2 0x3F9A JUMPI PUSH2 0x3F9A PUSH2 0x52E3 JUMP JUMPDEST SWAP1 PUSH1 0x0 MSTORE PUSH1 0x20 PUSH1 0x0 KECCAK256 SWAP1 PUSH1 0x5 MUL ADD PUSH1 0x2 ADD PUSH1 0x0 DUP3 DUP3 SLOAD PUSH2 0x3FBA SWAP2 SWAP1 PUSH2 0x56A6 JUMP JUMPDEST SWAP1 SWAP2 SSTORE POP POP DUP2 MLOAD PUSH1 0xE DUP1 SLOAD PUSH1 0x3 SWAP3 SWAP1 DUP2 LT PUSH2 0x3FD7 JUMPI PUSH2 0x3FD7 PUSH2 0x52E3 JUMP JUMPDEST SWAP1 PUSH1 0x0 MSTORE PUSH1 0x20 PUSH1 0x0 KECCAK256 SWAP1 PUSH1 0x5 MUL ADD PUSH1 0x2 ADD PUSH1 0x0 DUP3 DUP3 SLOAD PUSH2 0x3FF7 SWAP2 SWAP1 PUSH2 0x56A6 JUMP JUMPDEST SWAP1 SWAP2 SSTORE POP POP POP PUSH1 0x60 DUP4 ADD MLOAD PUSH2 0x4322 JUMP JUMPDEST DUP3 PUSH1 0x20 ADD MLOAD PUSH1 0x1 EQ DUP1 ISZERO PUSH2 0x401F JUMPI POP DUP2 PUSH1 0x20 ADD MLOAD PUSH1 0x2 EQ JUMPDEST ISZERO PUSH2 0x4156 JUMPI PUSH1 0x0 DUP3 PUSH1 0x80 ADD MLOAD DUP4 PUSH1 0x40 ADD MLOAD PUSH2 0x403A SWAP2 SWAP1 PUSH2 0x561C JUMP JUMPDEST SWAP1 POP DUP1 DUP5 PUSH1 0x60 ADD MLOAD LT PUSH2 0x4064 JUMPI PUSH1 0x60 DUP6 ADD MLOAD PUSH2 0x405E SWAP1 PUSH1 0x0 JUMPDEST PUSH1 0x20 MUL ADD MLOAD DUP7 PUSH2 0x2BD3 JUMP JUMPDEST POP PUSH2 0x3EDB JUMP JUMPDEST PUSH1 0x0 DUP5 PUSH1 0x60 ADD MLOAD DUP5 PUSH1 0x80 ADD MLOAD GT ISZERO PUSH2 0x4081 JUMPI POP PUSH1 0x40 DUP4 ADD MLOAD PUSH2 0x40A7 JUMP JUMPDEST PUSH1 0x60 DUP6 ADD MLOAD PUSH2 0x4090 SWAP1 DUP4 PUSH2 0x56A6 JUMP JUMPDEST PUSH1 0x60 DUP8 ADD MLOAD PUSH1 0x20 ADD MLOAD PUSH1 0x1 PUSH1 0x1 PUSH1 0xA0 SHL SUB AND DUP5 MSTORE SWAP1 POP JUMPDEST DUP1 PUSH1 0xE DUP6 PUSH1 0x0 ADD MLOAD DUP2 SLOAD DUP2 LT PUSH2 0x40BF JUMPI PUSH2 0x40BF PUSH2 0x52E3 JUMP JUMPDEST SWAP1 PUSH1 0x0 MSTORE PUSH1 0x20 PUSH1 0x0 KECCAK256 SWAP1 PUSH1 0x5 MUL ADD PUSH1 0x3 ADD DUP2 SWAP1 SSTORE POP PUSH1 0x3 PUSH1 0xE DUP7 PUSH1 0x0 ADD MLOAD DUP2 SLOAD DUP2 LT PUSH2 0x40ED JUMPI PUSH2 0x40ED PUSH2 0x52E3 JUMP JUMPDEST SWAP1 PUSH1 0x0 MSTORE PUSH1 0x20 PUSH1 0x0 KECCAK256 SWAP1 PUSH1 0x5 MUL ADD PUSH1 0x2 ADD PUSH1 0x0 DUP3 DUP3 SLOAD PUSH2 0x410D SWAP2 SWAP1 PUSH2 0x56A6 JUMP JUMPDEST SWAP1 SWAP2 SSTORE POP POP DUP4 MLOAD PUSH1 0xE DUP1 SLOAD PUSH1 0x3 SWAP3 SWAP1 DUP2 LT PUSH2 0x412A JUMPI PUSH2 0x412A PUSH2 0x52E3 JUMP JUMPDEST SWAP1 PUSH1 0x0 MSTORE PUSH1 0x20 PUSH1 0x0 KECCAK256 SWAP1 PUSH1 0x5 MUL ADD PUSH1 0x2 ADD PUSH1 0x0 DUP3 DUP3 SLOAD PUSH2 0x414A SWAP2 SWAP1 PUSH2 0x561C JUMP JUMPDEST SWAP1 SWAP2 SSTORE POP POP POP POP PUSH2 0x4322 JUMP JUMPDEST DUP3 PUSH1 0x20 ADD MLOAD PUSH1 0x2 EQ DUP1 ISZERO PUSH2 0x416E JUMPI POP DUP2 PUSH1 0x20 ADD MLOAD PUSH1 0x1 EQ JUMPDEST ISZERO PUSH2 0x4289 JUMPI PUSH1 0x0 DUP4 PUSH1 0x80 ADD MLOAD DUP5 PUSH1 0x40 ADD MLOAD PUSH2 0x4189 SWAP2 SWAP1 PUSH2 0x561C JUMP JUMPDEST SWAP1 POP DUP1 DUP4 PUSH1 0x60 ADD MLOAD LT PUSH2 0x41A6 JUMPI PUSH1 0x60 DUP6 ADD MLOAD PUSH2 0x405E SWAP1 PUSH1 0x1 PUSH2 0x4053 JUMP JUMPDEST PUSH1 0x0 DUP4 PUSH1 0x60 ADD MLOAD DUP6 PUSH1 0x80 ADD MLOAD GT ISZERO PUSH2 0x41C3 JUMPI POP PUSH1 0x40 DUP5 ADD MLOAD PUSH2 0x41E6 JUMP JUMPDEST PUSH1 0x60 DUP5 ADD MLOAD PUSH2 0x41D2 SWAP1 DUP4 PUSH2 0x56A6 JUMP JUMPDEST PUSH1 0x60 DUP8 ADD MLOAD MLOAD PUSH1 0x1 PUSH1 0x1 PUSH1 0xA0 SHL SUB AND DUP5 MSTORE SWAP1 POP JUMPDEST DUP1 PUSH1 0xE DUP7 PUSH1 0x0 ADD MLOAD DUP2 SLOAD DUP2 LT PUSH2 0x41FE JUMPI PUSH2 0x41FE PUSH2 0x52E3 JUMP JUMPDEST SWAP1 PUSH1 0x0 MSTORE PUSH1 0x20 PUSH1 0x0 KECCAK256 SWAP1 PUSH1 0x5 MUL ADD PUSH1 0x3 ADD DUP2 SWAP1 SSTORE POP PUSH1 0x3 PUSH1 0xE DUP7 PUSH1 0x0 ADD MLOAD DUP2 SLOAD DUP2 LT PUSH2 0x422C JUMPI PUSH2 0x422C PUSH2 0x52E3 JUMP JUMPDEST SWAP1 PUSH1 0x0 MSTORE PUSH1 0x20 PUSH1 0x0 KECCAK256 SWAP1 PUSH1 0x5 MUL ADD PUSH1 0x2 ADD PUSH1 0x0 DUP3 DUP3 SLOAD PUSH2 0x424C SWAP2 SWAP1 PUSH2 0x561C JUMP JUMPDEST SWAP1 SWAP2 SSTORE POP POP DUP4 MLOAD PUSH1 0xE DUP1 SLOAD PUSH1 0x3 SWAP3 SWAP1 DUP2 LT PUSH2 0x4269 JUMPI PUSH2 0x4269 PUSH2 0x52E3 JUMP JUMPDEST SWAP1 PUSH1 0x0 MSTORE PUSH1 0x20 PUSH1 0x0 KECCAK256 SWAP1 PUSH1 0x5 MUL ADD PUSH1 0x2 ADD PUSH1 0x0 DUP3 DUP3 SLOAD PUSH2 0x414A SWAP2 SWAP1 PUSH2 0x56A6 JUMP JUMPDEST DUP3 PUSH1 0x20 ADD MLOAD PUSH1 0x2 EQ DUP1 ISZERO PUSH2 0x42A1 JUMPI POP DUP2 PUSH1 0x20 ADD MLOAD PUSH1 0x2 EQ JUMPDEST ISZERO PUSH2 0x4322 JUMPI PUSH1 0x3 PUSH1 0xE DUP5 PUSH1 0x0 ADD MLOAD DUP2 SLOAD DUP2 LT PUSH2 0x42BF JUMPI PUSH2 0x42BF PUSH2 0x52E3 JUMP JUMPDEST SWAP1 PUSH1 0x0 MSTORE PUSH1 0x20 PUSH1 0x0 KECCAK256 SWAP1 PUSH1 0x5 MUL ADD PUSH1 0x2 ADD PUSH1 0x0 DUP3 DUP3 SLOAD PUSH2 0x42DF SWAP2 SWAP1 PUSH2 0x561C JUMP JUMPDEST SWAP1 SWAP2 SSTORE POP POP DUP2 MLOAD PUSH1 0xE DUP1 SLOAD PUSH1 0x3 SWAP3 SWAP1 DUP2 LT PUSH2 0x42FC JUMPI PUSH2 0x42FC PUSH2 0x52E3 JUMP JUMPDEST SWAP1 PUSH1 0x0 MSTORE PUSH1 0x20 PUSH1 0x0 KECCAK256 SWAP1 PUSH1 0x5 MUL ADD PUSH1 0x2 ADD PUSH1 0x0 DUP3 DUP3 SLOAD PUSH2 0x431C SWAP2 SWAP1 PUSH2 0x561C JUMP JUMPDEST SWAP1 SWAP2 SSTORE POP POP JUMPDEST PUSH32 0xC6BF860CBC15F7020F73993A671F01BBB1831A8A7A12C126CA735EB632E75775 DUP2 PUSH1 0x40 MLOAD PUSH2 0x4351 SWAP2 SWAP1 PUSH2 0x588F JUMP JUMPDEST PUSH1 0x40 MLOAD DUP1 SWAP2 SUB SWAP1 LOG1 PUSH1 0x80 DUP5 ADD DUP1 MLOAD PUSH1 0x0 SWAP1 DUP2 SWAP1 MSTORE SWAP1 MLOAD PUSH1 0x20 ADD MSTORE PUSH1 0x40 DUP5 ADD MLOAD PUSH2 0x437A SWAP1 DUP6 PUSH2 0x3263 JUMP JUMPDEST PUSH1 0x0 PUSH2 0x43A2 PUSH1 0xA DUP7 PUSH1 0x60 ADD MLOAD PUSH1 0x0 PUSH1 0x2 DUP2 LT PUSH2 0x4398 JUMPI PUSH2 0x4398 PUSH2 0x52E3 JUMP JUMPDEST PUSH1 0x20 MUL ADD MLOAD PUSH2 0x3AB3 JUMP JUMPDEST SWAP1 POP DUP1 PUSH1 0xF PUSH1 0xC PUSH1 0x0 DUP9 PUSH1 0x60 ADD MLOAD PUSH1 0x0 PUSH1 0x2 DUP2 LT PUSH2 0x43C2 JUMPI PUSH2 0x43C2 PUSH2 0x52E3 JUMP JUMPDEST PUSH1 0x20 MUL ADD MLOAD PUSH1 0x1 PUSH1 0x1 PUSH1 0xA0 SHL SUB AND PUSH1 0x1 PUSH1 0x1 PUSH1 0xA0 SHL SUB AND DUP2 MSTORE PUSH1 0x20 ADD SWAP1 DUP2 MSTORE PUSH1 0x20 ADD PUSH1 0x0 KECCAK256 SLOAD DUP2 SLOAD DUP2 LT PUSH2 0x43F8 JUMPI PUSH2 0x43F8 PUSH2 0x52E3 JUMP JUMPDEST PUSH1 0x0 SWAP2 DUP3 MSTORE PUSH1 0x20 SWAP1 SWAP2 KECCAK256 PUSH1 0x2 PUSH1 0x4 SWAP1 SWAP3 MUL ADD ADD SSTORE PUSH2 0x4417 DUP2 PUSH1 0xA PUSH2 0x56A6 JUMP JUMPDEST PUSH1 0xF PUSH1 0xC PUSH1 0x0 DUP9 PUSH1 0x60 ADD MLOAD PUSH1 0x0 PUSH1 0x2 DUP2 LT PUSH2 0x4434 JUMPI PUSH2 0x4434 PUSH2 0x52E3 JUMP JUMPDEST PUSH1 0x20 MUL ADD MLOAD PUSH1 0x1 PUSH1 0x1 PUSH1 0xA0 SHL SUB AND PUSH1 0x1 PUSH1 0x1 PUSH1 0xA0 SHL SUB AND DUP2 MSTORE PUSH1 0x20 ADD SWAP1 DUP2 MSTORE PUSH1 0x20 ADD PUSH1 0x0 KECCAK256 SLOAD DUP2 SLOAD DUP2 LT PUSH2 0x446A JUMPI PUSH2 0x446A PUSH2 0x52E3 JUMP JUMPDEST SWAP1 PUSH1 0x0 MSTORE PUSH1 0x20 PUSH1 0x0 KECCAK256 SWAP1 PUSH1 0x4 MUL ADD PUSH1 0x3 ADD DUP2 SWAP1 SSTORE POP PUSH1 0x0 PUSH2 0x449D PUSH1 0xA DUP8 PUSH1 0x60 ADD MLOAD PUSH1 0x1 PUSH1 0x2 DUP2 LT PUSH2 0x4398 JUMPI PUSH2 0x4398 PUSH2 0x52E3 JUMP JUMPDEST SWAP1 POP DUP1 PUSH1 0xF PUSH1 0xC PUSH1 0x0 DUP10 PUSH1 0x60 ADD MLOAD PUSH1 0x1 PUSH1 0x2 DUP2 LT PUSH2 0x44BD JUMPI PUSH2 0x44BD PUSH2 0x52E3 JUMP JUMPDEST PUSH1 0x20 MUL ADD MLOAD PUSH1 0x1 PUSH1 0x1 PUSH1 0xA0 SHL SUB AND PUSH1 0x1 PUSH1 0x1 PUSH1 0xA0 SHL SUB AND DUP2 MSTORE PUSH1 0x20 ADD SWAP1 DUP2 MSTORE PUSH1 0x20 ADD PUSH1 0x0 KECCAK256 SLOAD DUP2 SLOAD DUP2 LT PUSH2 0x44F3 JUMPI PUSH2 0x44F3 PUSH2 0x52E3 JUMP JUMPDEST PUSH1 0x0 SWAP2 DUP3 MSTORE PUSH1 0x20 SWAP1 SWAP2 KECCAK256 PUSH1 0x2 PUSH1 0x4 SWAP1 SWAP3 MUL ADD ADD SSTORE PUSH2 0x4512 DUP2 PUSH1 0xA PUSH2 0x56A6 JUMP JUMPDEST PUSH1 0xF PUSH1 0xC PUSH1 0x0 DUP10 PUSH1 0x60 ADD MLOAD PUSH1 0x1 PUSH1 0x2 DUP2 LT PUSH2 0x452F JUMPI PUSH2 0x452F PUSH2 0x52E3 JUMP JUMPDEST PUSH1 0x20 MUL ADD MLOAD PUSH1 0x1 PUSH1 0x1 PUSH1 0xA0 SHL SUB AND PUSH1 0x1 PUSH1 0x1 PUSH1 0xA0 SHL SUB AND DUP2 MSTORE PUSH1 0x20 ADD SWAP1 DUP2 MSTORE PUSH1 0x20 ADD PUSH1 0x0 KECCAK256 SLOAD DUP2 SLOAD DUP2 LT PUSH2 0x4565 JUMPI PUSH2 0x4565 PUSH2 0x52E3 JUMP JUMPDEST SWAP1 PUSH1 0x0 MSTORE PUSH1 0x20 PUSH1 0x0 KECCAK256 SWAP1 PUSH1 0x4 MUL ADD PUSH1 0x3 ADD DUP2 SWAP1 SSTORE POP POP POP POP POP POP POP JUMP JUMPDEST PUSH1 0x40 DUP1 MLOAD PUSH1 0x1 DUP1 DUP3 MSTORE DUP2 DUP4 ADD SWAP1 SWAP3 MSTORE PUSH1 0x60 SWAP2 PUSH1 0x0 SWAP2 SWAP1 PUSH1 0x20 DUP1 DUP4 ADD SWAP1 DUP1 CALLDATASIZE DUP4 CALLDATACOPY ADD SWAP1 POP POP SWAP1 POP DUP3 DUP2 PUSH1 0x0 DUP2 MLOAD DUP2 LT PUSH2 0x45BC JUMPI PUSH2 0x45BC PUSH2 0x52E3 JUMP JUMPDEST PUSH1 0x20 SWAP1 DUP2 MUL SWAP2 SWAP1 SWAP2 ADD ADD MSTORE SWAP3 SWAP2 POP POP JUMP JUMPDEST PUSH1 0x1 PUSH1 0x1 PUSH1 0xA0 SHL SUB DUP5 AND EXTCODESIZE ISZERO PUSH2 0x2B79 JUMPI PUSH1 0x40 MLOAD PUSH4 0xF23A6E61 PUSH1 0xE0 SHL DUP2 MSTORE PUSH1 0x1 PUSH1 0x1 PUSH1 0xA0 SHL SUB DUP6 AND SWAP1 PUSH4 0xF23A6E61 SWAP1 PUSH2 0x4611 SWAP1 DUP10 SWAP1 DUP10 SWAP1 DUP9 SWAP1 DUP9 SWAP1 DUP9 SWAP1 PUSH1 0x4 ADD PUSH2 0x589D JUMP JUMPDEST PUSH1 0x20 PUSH1 0x40 MLOAD DUP1 DUP4 SUB DUP2 PUSH1 0x0 DUP8 GAS CALL SWAP3 POP POP POP DUP1 ISZERO PUSH2 0x464C JUMPI POP PUSH1 0x40 DUP1 MLOAD PUSH1 0x1F RETURNDATASIZE SWAP1 DUP2 ADD PUSH1 0x1F NOT AND DUP3 ADD SWAP1 SWAP3 MSTORE PUSH2 0x4649 SWAP2 DUP2 ADD SWAP1 PUSH2 0x5785 JUMP JUMPDEST PUSH1 0x1 JUMPDEST PUSH2 0x4658 JUMPI PUSH2 0x39DA PUSH2 0x57A2 JUMP JUMPDEST PUSH1 0x1 PUSH1 0x1 PUSH1 0xE0 SHL SUB NOT DUP2 AND PUSH4 0xF23A6E61 PUSH1 0xE0 SHL EQ PUSH2 0x3AAA JUMPI PUSH1 0x40 MLOAD PUSH3 0x461BCD PUSH1 0xE5 SHL DUP2 MSTORE PUSH1 0x4 ADD PUSH2 0x9F6 SWAP1 PUSH2 0x5847 JUMP JUMPDEST PUSH1 0x1 PUSH1 0x1 PUSH1 0xA0 SHL SUB DUP6 AND PUSH2 0x470F JUMPI PUSH1 0x0 JUMPDEST DUP4 MLOAD DUP2 LT ISZERO PUSH2 0x470D JUMPI DUP3 DUP2 DUP2 MLOAD DUP2 LT PUSH2 0x46B4 JUMPI PUSH2 0x46B4 PUSH2 0x52E3 JUMP JUMPDEST PUSH1 0x20 MUL PUSH1 0x20 ADD ADD MLOAD PUSH1 0x4 PUSH1 0x0 DUP7 DUP5 DUP2 MLOAD DUP2 LT PUSH2 0x46D2 JUMPI PUSH2 0x46D2 PUSH2 0x52E3 JUMP JUMPDEST PUSH1 0x20 MUL PUSH1 0x20 ADD ADD MLOAD DUP2 MSTORE PUSH1 0x20 ADD SWAP1 DUP2 MSTORE PUSH1 0x20 ADD PUSH1 0x0 KECCAK256 PUSH1 0x0 DUP3 DUP3 SLOAD PUSH2 0x46F7 SWAP2 SWAP1 PUSH2 0x561C JUMP JUMPDEST SWAP1 SWAP2 SSTORE POP PUSH2 0x4706 SWAP1 POP DUP2 PUSH2 0x547F JUMP JUMPDEST SWAP1 POP PUSH2 0x4699 JUMP JUMPDEST POP JUMPDEST PUSH1 0x1 PUSH1 0x1 PUSH1 0xA0 SHL SUB DUP5 AND PUSH2 0x2B79 JUMPI PUSH1 0x0 JUMPDEST DUP4 MLOAD DUP2 LT ISZERO PUSH2 0x3AAA JUMPI PUSH1 0x0 DUP5 DUP3 DUP2 MLOAD DUP2 LT PUSH2 0x473D JUMPI PUSH2 0x473D PUSH2 0x52E3 JUMP JUMPDEST PUSH1 0x20 MUL PUSH1 0x20 ADD ADD MLOAD SWAP1 POP PUSH1 0x0 DUP5 DUP4 DUP2 MLOAD DUP2 LT PUSH2 0x475B JUMPI PUSH2 0x475B PUSH2 0x52E3 JUMP JUMPDEST PUSH1 0x20 MUL PUSH1 0x20 ADD ADD MLOAD SWAP1 POP PUSH1 0x0 PUSH1 0x4 PUSH1 0x0 DUP5 DUP2 MSTORE PUSH1 0x20 ADD SWAP1 DUP2 MSTORE PUSH1 0x20 ADD PUSH1 0x0 KECCAK256 SLOAD SWAP1 POP DUP2 DUP2 LT ISZERO PUSH2 0x47DE JUMPI PUSH1 0x40 MLOAD PUSH3 0x461BCD PUSH1 0xE5 SHL DUP2 MSTORE PUSH1 0x20 PUSH1 0x4 DUP3 ADD MSTORE PUSH1 0x28 PUSH1 0x24 DUP3 ADD MSTORE PUSH32 0x455243313135353A206275726E20616D6F756E74206578636565647320746F74 PUSH1 0x44 DUP3 ADD MSTORE PUSH8 0x616C537570706C79 PUSH1 0xC0 SHL PUSH1 0x64 DUP3 ADD MSTORE PUSH1 0x84 ADD PUSH2 0x9F6 JUMP JUMPDEST PUSH1 0x0 SWAP3 DUP4 MSTORE PUSH1 0x4 PUSH1 0x20 MSTORE PUSH1 0x40 SWAP1 SWAP3 KECCAK256 SWAP2 SUB SWAP1 SSTORE PUSH2 0x47FA DUP2 PUSH2 0x547F JUMP JUMPDEST SWAP1 POP PUSH2 0x4720 JUMP JUMPDEST PUSH1 0x40 DUP1 MLOAD PUSH1 0xC0 DUP2 ADD SWAP1 SWAP2 MSTORE DUP1 PUSH1 0x0 DUP2 MSTORE PUSH1 0x0 PUSH1 0x20 DUP3 ADD MSTORE PUSH1 0x60 PUSH1 0x40 DUP3 ADD DUP2 SWAP1 MSTORE ADD PUSH2 0x482A PUSH2 0x492A JUMP JUMPDEST DUP2 MSTORE PUSH1 0x20 ADD PUSH2 0x4837 PUSH2 0x492A JUMP JUMPDEST DUP2 MSTORE PUSH1 0x0 PUSH1 0x20 SWAP1 SWAP2 ADD MSTORE SWAP1 JUMP JUMPDEST DUP3 PUSH1 0x2 DUP2 ADD SWAP3 DUP3 ISZERO PUSH2 0x488C JUMPI SWAP2 PUSH1 0x20 MUL DUP3 ADD JUMPDEST DUP3 DUP2 GT ISZERO PUSH2 0x488C JUMPI DUP3 MLOAD DUP3 SLOAD PUSH1 0x1 PUSH1 0x1 PUSH1 0xA0 SHL SUB NOT AND PUSH1 0x1 PUSH1 0x1 PUSH1 0xA0 SHL SUB SWAP1 SWAP2 AND OR DUP3 SSTORE PUSH1 0x20 SWAP1 SWAP3 ADD SWAP2 PUSH1 0x1 SWAP1 SWAP2 ADD SWAP1 PUSH2 0x4857 JUMP JUMPDEST POP PUSH2 0x4898 SWAP3 SWAP2 POP PUSH2 0x4948 JUMP JUMPDEST POP SWAP1 JUMP JUMPDEST PUSH1 0x1 DUP4 ADD SWAP2 DUP4 SWAP1 DUP3 ISZERO PUSH2 0x488C JUMPI SWAP2 PUSH1 0x20 MUL DUP3 ADD PUSH1 0x0 JUMPDEST DUP4 DUP3 GT ISZERO PUSH2 0x48F0 JUMPI DUP4 MLOAD DUP4 DUP3 PUSH2 0x100 EXP DUP2 SLOAD DUP2 PUSH1 0xFF MUL NOT AND SWAP1 DUP4 PUSH1 0xFF AND MUL OR SWAP1 SSTORE POP SWAP3 PUSH1 0x20 ADD SWAP3 PUSH1 0x1 ADD PUSH1 0x20 DUP2 PUSH1 0x0 ADD DIV SWAP3 DUP4 ADD SWAP3 PUSH1 0x1 SUB MUL PUSH2 0x48B2 JUMP JUMPDEST DUP1 ISZERO PUSH2 0x491D JUMPI DUP3 DUP2 PUSH2 0x100 EXP DUP2 SLOAD SWAP1 PUSH1 0xFF MUL NOT AND SWAP1 SSTORE PUSH1 0x1 ADD PUSH1 0x20 DUP2 PUSH1 0x0 ADD DIV SWAP3 DUP4 ADD SWAP3 PUSH1 0x1 SUB MUL PUSH2 0x48F0 JUMP JUMPDEST POP POP PUSH2 0x4898 SWAP3 SWAP2 POP PUSH2 0x4948 JUMP JUMPDEST PUSH1 0x40 MLOAD DUP1 PUSH1 0x40 ADD PUSH1 0x40 MSTORE DUP1 PUSH1 0x2 SWAP1 PUSH1 0x20 DUP3 MUL DUP1 CALLDATASIZE DUP4 CALLDATACOPY POP SWAP2 SWAP3 SWAP2 POP POP JUMP JUMPDEST JUMPDEST DUP1 DUP3 GT ISZERO PUSH2 0x4898 JUMPI PUSH1 0x0 DUP2 SSTORE PUSH1 0x1 ADD PUSH2 0x4949 JUMP JUMPDEST DUP1 CALLDATALOAD PUSH1 0x1 PUSH1 0x1 PUSH1 0xA0 SHL SUB DUP2 AND DUP2 EQ PUSH2 0xBCA JUMPI PUSH1 0x0 DUP1 REVERT JUMPDEST PUSH1 0x0 DUP1 PUSH1 0x40 DUP4 DUP6 SUB SLT ISZERO PUSH2 0x4987 JUMPI PUSH1 0x0 DUP1 REVERT JUMPDEST PUSH2 0x4990 DUP4 PUSH2 0x495D JUMP JUMPDEST SWAP5 PUSH1 0x20 SWAP4 SWAP1 SWAP4 ADD CALLDATALOAD SWAP4 POP POP POP JUMP JUMPDEST PUSH1 0x0 JUMPDEST DUP4 DUP2 LT ISZERO PUSH2 0x49B9 JUMPI DUP2 DUP2 ADD MLOAD DUP4 DUP3 ADD MSTORE PUSH1 0x20 ADD PUSH2 0x49A1 JUMP JUMPDEST POP POP PUSH1 0x0 SWAP2 ADD MSTORE JUMP JUMPDEST PUSH1 0x0 DUP2 MLOAD DUP1 DUP5 MSTORE PUSH2 0x49DA DUP2 PUSH1 0x20 DUP7 ADD PUSH1 0x20 DUP7 ADD PUSH2 0x499E JUMP JUMPDEST PUSH1 0x1F ADD PUSH1 0x1F NOT AND SWAP3 SWAP1 SWAP3 ADD PUSH1 0x20 ADD SWAP3 SWAP2 POP POP JUMP JUMPDEST PUSH1 0x0 DUP2 MLOAD PUSH1 0x80 DUP5 MSTORE PUSH2 0x4A03 PUSH1 0x80 DUP6 ADD DUP3 PUSH2 0x49C2 JUMP JUMPDEST SWAP1 POP PUSH1 0x20 DUP4 ADD MLOAD PUSH1 0x20 DUP6 ADD MSTORE PUSH1 0x40 DUP4 ADD MLOAD PUSH1 0x40 DUP6 ADD MSTORE PUSH1 0x60 DUP4 ADD MLOAD PUSH1 0x60 DUP6 ADD MSTORE DUP1 SWAP2 POP POP SWAP3 SWAP2 POP POP JUMP JUMPDEST PUSH1 0x0 PUSH1 0x20 DUP1 DUP4 ADD DUP2 DUP5 MSTORE DUP1 DUP6 MLOAD DUP1 DUP4 MSTORE PUSH1 0x40 DUP7 ADD SWAP2 POP PUSH1 0x40 DUP2 PUSH1 0x5 SHL DUP8 ADD ADD SWAP3 POP DUP4 DUP8 ADD PUSH1 0x0 JUMPDEST DUP3 DUP2 LT ISZERO PUSH2 0x4A82 JUMPI PUSH1 0x3F NOT DUP9 DUP7 SUB ADD DUP5 MSTORE PUSH2 0x4A70 DUP6 DUP4 MLOAD PUSH2 0x49EE JUMP JUMPDEST SWAP5 POP SWAP3 DUP6 ADD SWAP3 SWAP1 DUP6 ADD SWAP1 PUSH1 0x1 ADD PUSH2 0x4A54 JUMP JUMPDEST POP SWAP3 SWAP8 SWAP7 POP POP POP POP POP POP POP JUMP JUMPDEST PUSH1 0x1 PUSH1 0x1 PUSH1 0xE0 SHL SUB NOT DUP2 AND DUP2 EQ PUSH2 0xB98 JUMPI PUSH1 0x0 DUP1 REVERT JUMPDEST PUSH1 0x0 PUSH1 0x20 DUP3 DUP5 SUB SLT ISZERO PUSH2 0x4AB7 JUMPI PUSH1 0x0 DUP1 REVERT JUMPDEST DUP2 CALLDATALOAD PUSH2 0x4AC2 DUP2 PUSH2 0x4A8F JUMP JUMPDEST SWAP4 SWAP3 POP POP POP JUMP JUMPDEST PUSH4 0x4E487B71 PUSH1 0xE0 SHL PUSH1 0x0 MSTORE PUSH1 0x41 PUSH1 0x4 MSTORE PUSH1 0x24 PUSH1 0x0 REVERT JUMPDEST PUSH1 0x1F DUP3 ADD PUSH1 0x1F NOT AND DUP2 ADD PUSH1 0x1 PUSH1 0x1 PUSH1 0x40 SHL SUB DUP2 GT DUP3 DUP3 LT OR ISZERO PUSH2 0x4B04 JUMPI PUSH2 0x4B04 PUSH2 0x4AC9 JUMP JUMPDEST PUSH1 0x40 MSTORE POP POP JUMP JUMPDEST PUSH1 0x0 DUP3 PUSH1 0x1F DUP4 ADD SLT PUSH2 0x4B1C JUMPI PUSH1 0x0 DUP1 REVERT JUMPDEST DUP2 CALLDATALOAD PUSH1 0x1 PUSH1 0x1 PUSH1 0x40 SHL SUB DUP2 GT ISZERO PUSH2 0x4B35 JUMPI PUSH2 0x4B35 PUSH2 0x4AC9 JUMP JUMPDEST PUSH1 0x40 MLOAD PUSH2 0x4B4C PUSH1 0x1F DUP4 ADD PUSH1 0x1F NOT AND PUSH1 0x20 ADD DUP3 PUSH2 0x4ADF JUMP JUMPDEST DUP2 DUP2 MSTORE DUP5 PUSH1 0x20 DUP4 DUP7 ADD ADD GT ISZERO PUSH2 0x4B61 JUMPI PUSH1 0x0 DUP1 REVERT JUMPDEST DUP2 PUSH1 0x20 DUP6 ADD PUSH1 0x20 DUP4 ADD CALLDATACOPY PUSH1 0x0 SWAP2 DUP2 ADD PUSH1 0x20 ADD SWAP2 SWAP1 SWAP2 MSTORE SWAP4 SWAP3 POP POP POP JUMP JUMPDEST PUSH1 0x0 PUSH1 0x20 DUP3 DUP5 SUB SLT ISZERO PUSH2 0x4B90 JUMPI PUSH1 0x0 DUP1 REVERT JUMPDEST DUP2 CALLDATALOAD PUSH1 0x1 PUSH1 0x1 PUSH1 0x40 SHL SUB DUP2 GT ISZERO PUSH2 0x4BA6 JUMPI PUSH1 0x0 DUP1 REVERT JUMPDEST PUSH2 0x3B27 DUP5 DUP3 DUP6 ADD PUSH2 0x4B0B JUMP JUMPDEST PUSH1 0x0 PUSH1 0x20 DUP3 DUP5 SUB SLT ISZERO PUSH2 0x4BC4 JUMPI PUSH1 0x0 DUP1 REVERT JUMPDEST PUSH2 0x4AC2 DUP3 PUSH2 0x495D JUMP JUMPDEST PUSH1 0x0 PUSH1 0x20 DUP3 DUP5 SUB SLT ISZERO PUSH2 0x4BDF JUMPI PUSH1 0x0 DUP1 REVERT JUMPDEST POP CALLDATALOAD SWAP2 SWAP1 POP JUMP JUMPDEST PUSH1 0x20 DUP2 MSTORE PUSH1 0x0 PUSH2 0x4AC2 PUSH1 0x20 DUP4 ADD DUP5 PUSH2 0x49C2 JUMP JUMPDEST PUSH1 0x20 DUP2 MSTORE PUSH1 0x0 PUSH2 0x4AC2 PUSH1 0x20 DUP4 ADD DUP5 PUSH2 0x49EE JUMP JUMPDEST PUSH4 0x4E487B71 PUSH1 0xE0 SHL PUSH1 0x0 MSTORE PUSH1 0x21 PUSH1 0x4 MSTORE PUSH1 0x24 PUSH1 0x0 REVERT JUMPDEST PUSH1 0x3 DUP2 LT PUSH2 0x4C40 JUMPI PUSH4 0x4E487B71 PUSH1 0xE0 SHL PUSH1 0x0 MSTORE PUSH1 0x21 PUSH1 0x4 MSTORE PUSH1 0x24 PUSH1 0x0 REVERT JUMPDEST SWAP1 MSTORE JUMP JUMPDEST DUP1 PUSH1 0x0 JUMPDEST PUSH1 0x2 DUP2 LT ISZERO PUSH2 0x254C JUMPI DUP2 MLOAD PUSH1 0x1 PUSH1 0x1 PUSH1 0xA0 SHL SUB AND DUP5 MSTORE PUSH1 0x20 SWAP4 DUP5 ADD SWAP4 SWAP1 SWAP2 ADD SWAP1 PUSH1 0x1 ADD PUSH2 0x4C48 JUMP JUMPDEST PUSH1 0x0 PUSH2 0x100 PUSH2 0x4C80 DUP5 DUP5 MLOAD PUSH2 0x4C22 JUMP JUMPDEST PUSH1 0x20 DUP1 DUP5 ADD MLOAD DUP2 DUP7 ADD MSTORE PUSH1 0x40 DUP5 ADD MLOAD DUP3 PUSH1 0x40 DUP8 ADD MSTORE PUSH2 0x4CA1 DUP4 DUP8 ADD DUP3 PUSH2 0x49C2 JUMP JUMPDEST SWAP3 POP POP PUSH1 0x60 DUP5 ADD MLOAD PUSH2 0x4CB6 PUSH1 0x60 DUP8 ADD DUP3 PUSH2 0x4C44 JUMP JUMPDEST POP PUSH1 0x80 DUP5 ADD MLOAD PUSH1 0xA0 DUP7 ADD PUSH1 0x0 JUMPDEST PUSH1 0x2 DUP2 LT ISZERO PUSH2 0x4CE3 JUMPI DUP3 MLOAD PUSH1 0xFF AND DUP3 MSTORE SWAP2 DUP4 ADD SWAP2 SWAP1 DUP4 ADD SWAP1 PUSH1 0x1 ADD PUSH2 0x4CC3 JUMP JUMPDEST POP POP POP POP PUSH1 0xA0 DUP4 ADD MLOAD PUSH1 0x1 PUSH1 0x1 PUSH1 0xA0 SHL SUB DUP2 AND PUSH1 0xE0 DUP7 ADD MSTORE PUSH2 0x13BF JUMP JUMPDEST PUSH1 0x20 DUP2 MSTORE PUSH1 0x0 PUSH2 0x4AC2 PUSH1 0x20 DUP4 ADD DUP5 PUSH2 0x4C70 JUMP JUMPDEST PUSH1 0x0 PUSH1 0x1 PUSH1 0x1 PUSH1 0x40 SHL SUB DUP3 GT ISZERO PUSH2 0x4D2C JUMPI PUSH2 0x4D2C PUSH2 0x4AC9 JUMP JUMPDEST POP PUSH1 0x5 SHL PUSH1 0x20 ADD SWAP1 JUMP JUMPDEST PUSH1 0x0 DUP3 PUSH1 0x1F DUP4 ADD SLT PUSH2 0x4D47 JUMPI PUSH1 0x0 DUP1 REVERT JUMPDEST DUP2 CALLDATALOAD PUSH1 0x20 PUSH2 0x4D54 DUP3 PUSH2 0x4D13 JUMP JUMPDEST PUSH1 0x40 MLOAD PUSH2 0x4D61 DUP3 DUP3 PUSH2 0x4ADF JUMP JUMPDEST DUP4 DUP2 MSTORE PUSH1 0x5 SWAP4 SWAP1 SWAP4 SHL DUP6 ADD DUP3 ADD SWAP3 DUP3 DUP2 ADD SWAP2 POP DUP7 DUP5 GT ISZERO PUSH2 0x4D81 JUMPI PUSH1 0x0 DUP1 REVERT JUMPDEST DUP3 DUP7 ADD JUMPDEST DUP5 DUP2 LT ISZERO PUSH2 0x4D9C JUMPI DUP1 CALLDATALOAD DUP4 MSTORE SWAP2 DUP4 ADD SWAP2 DUP4 ADD PUSH2 0x4D85 JUMP JUMPDEST POP SWAP7 SWAP6 POP POP POP POP POP POP JUMP JUMPDEST PUSH1 0x0 DUP1 PUSH1 0x0 DUP1 PUSH1 0x0 PUSH1 0xA0 DUP7 DUP9 SUB SLT ISZERO PUSH2 0x4DBF JUMPI PUSH1 0x0 DUP1 REVERT JUMPDEST PUSH2 0x4DC8 DUP7 PUSH2 0x495D JUMP JUMPDEST SWAP5 POP PUSH2 0x4DD6 PUSH1 0x20 DUP8 ADD PUSH2 0x495D JUMP JUMPDEST SWAP4 POP PUSH1 0x40 DUP7 ADD CALLDATALOAD PUSH1 0x1 PUSH1 0x1 PUSH1 0x40 SHL SUB DUP1 DUP3 GT ISZERO PUSH2 0x4DF2 JUMPI PUSH1 0x0 DUP1 REVERT JUMPDEST PUSH2 0x4DFE DUP10 DUP4 DUP11 ADD PUSH2 0x4D36 JUMP JUMPDEST SWAP5 POP PUSH1 0x60 DUP9 ADD CALLDATALOAD SWAP2 POP DUP1 DUP3 GT ISZERO PUSH2 0x4E14 JUMPI PUSH1 0x0 DUP1 REVERT JUMPDEST PUSH2 0x4E20 DUP10 DUP4 DUP11 ADD PUSH2 0x4D36 JUMP JUMPDEST SWAP4 POP PUSH1 0x80 DUP9 ADD CALLDATALOAD SWAP2 POP DUP1 DUP3 GT ISZERO PUSH2 0x4E36 JUMPI PUSH1 0x0 DUP1 REVERT JUMPDEST POP PUSH2 0x4E43 DUP9 DUP3 DUP10 ADD PUSH2 0x4B0B JUMP JUMPDEST SWAP2 POP POP SWAP3 SWAP6 POP SWAP3 SWAP6 SWAP1 SWAP4 POP JUMP JUMPDEST PUSH1 0x0 DUP1 PUSH1 0x40 DUP4 DUP6 SUB SLT ISZERO PUSH2 0x4E63 JUMPI PUSH1 0x0 DUP1 REVERT JUMPDEST DUP3 CALLDATALOAD PUSH1 0x1 PUSH1 0x1 PUSH1 0x40 SHL SUB DUP1 DUP3 GT ISZERO PUSH2 0x4E7A JUMPI PUSH1 0x0 DUP1 REVERT JUMPDEST DUP2 DUP6 ADD SWAP2 POP DUP6 PUSH1 0x1F DUP4 ADD SLT PUSH2 0x4E8E JUMPI PUSH1 0x0 DUP1 REVERT JUMPDEST DUP2 CALLDATALOAD PUSH1 0x20 PUSH2 0x4E9B DUP3 PUSH2 0x4D13 JUMP JUMPDEST PUSH1 0x40 MLOAD PUSH2 0x4EA8 DUP3 DUP3 PUSH2 0x4ADF JUMP JUMPDEST DUP4 DUP2 MSTORE PUSH1 0x5 SWAP4 SWAP1 SWAP4 SHL DUP6 ADD DUP3 ADD SWAP3 DUP3 DUP2 ADD SWAP2 POP DUP10 DUP5 GT ISZERO PUSH2 0x4EC8 JUMPI PUSH1 0x0 DUP1 REVERT JUMPDEST SWAP5 DUP3 ADD SWAP5 JUMPDEST DUP4 DUP7 LT ISZERO PUSH2 0x4EED JUMPI PUSH2 0x4EDE DUP7 PUSH2 0x495D JUMP JUMPDEST DUP3 MSTORE SWAP5 DUP3 ADD SWAP5 SWAP1 DUP3 ADD SWAP1 PUSH2 0x4ECD JUMP JUMPDEST SWAP7 POP POP DUP7 ADD CALLDATALOAD SWAP3 POP POP DUP1 DUP3 GT ISZERO PUSH2 0x4F03 JUMPI PUSH1 0x0 DUP1 REVERT JUMPDEST POP PUSH2 0x4F10 DUP6 DUP3 DUP7 ADD PUSH2 0x4D36 JUMP JUMPDEST SWAP2 POP POP SWAP3 POP SWAP3 SWAP1 POP JUMP JUMPDEST PUSH1 0x0 DUP2 MLOAD DUP1 DUP5 MSTORE PUSH1 0x20 DUP1 DUP6 ADD SWAP5 POP DUP1 DUP5 ADD PUSH1 0x0 JUMPDEST DUP4 DUP2 LT ISZERO PUSH2 0x4F4A JUMPI DUP2 MLOAD DUP8 MSTORE SWAP6 DUP3 ADD SWAP6 SWAP1 DUP3 ADD SWAP1 PUSH1 0x1 ADD PUSH2 0x4F2E JUMP JUMPDEST POP SWAP5 SWAP6 SWAP5 POP POP POP POP POP JUMP JUMPDEST PUSH1 0x20 DUP2 MSTORE PUSH1 0x0 PUSH2 0x4AC2 PUSH1 0x20 DUP4 ADD DUP5 PUSH2 0x4F1A JUMP JUMPDEST PUSH1 0x1 DUP1 PUSH1 0xA0 SHL SUB DUP2 MLOAD AND DUP3 MSTORE PUSH1 0x0 PUSH1 0x20 DUP3 ADD MLOAD PUSH1 0xA0 PUSH1 0x20 DUP6 ADD MSTORE PUSH2 0x4F8F PUSH1 0xA0 DUP6 ADD DUP3 PUSH2 0x49C2 JUMP JUMPDEST SWAP1 POP PUSH1 0x40 DUP4 ADD MLOAD PUSH1 0x40 DUP6 ADD MSTORE PUSH1 0x60 DUP4 ADD MLOAD PUSH1 0x60 DUP6 ADD MSTORE PUSH1 0x80 DUP4 ADD MLOAD ISZERO ISZERO PUSH1 0x80 DUP6 ADD MSTORE DUP1 SWAP2 POP POP SWAP3 SWAP2 POP POP JUMP JUMPDEST PUSH1 0x20 DUP2 MSTORE PUSH1 0x0 PUSH2 0x4AC2 PUSH1 0x20 DUP4 ADD DUP5 PUSH2 0x4F68 JUMP JUMPDEST PUSH1 0x0 PUSH1 0x20 DUP1 DUP4 ADD DUP2 DUP5 MSTORE DUP1 DUP6 MLOAD DUP1 DUP4 MSTORE PUSH1 0x40 DUP7 ADD SWAP2 POP PUSH1 0x40 DUP2 PUSH1 0x5 SHL DUP8 ADD ADD SWAP3 POP DUP4 DUP8 ADD PUSH1 0x0 JUMPDEST DUP3 DUP2 LT ISZERO PUSH2 0x4A82 JUMPI PUSH1 0x3F NOT DUP9 DUP7 SUB ADD DUP5 MSTORE PUSH2 0x5011 DUP6 DUP4 MLOAD PUSH2 0x4C70 JUMP JUMPDEST SWAP5 POP SWAP3 DUP6 ADD SWAP3 SWAP1 DUP6 ADD SWAP1 PUSH1 0x1 ADD PUSH2 0x4FF5 JUMP JUMPDEST PUSH2 0x502D DUP2 DUP7 PUSH2 0x4C22 JUMP JUMPDEST DUP4 PUSH1 0x20 DUP3 ADD MSTORE PUSH1 0x80 PUSH1 0x40 DUP3 ADD MSTORE PUSH1 0x0 PUSH2 0x5049 PUSH1 0x80 DUP4 ADD DUP6 PUSH2 0x49C2 JUMP JUMPDEST SWAP1 POP PUSH1 0x1 DUP1 PUSH1 0xA0 SHL SUB DUP4 AND PUSH1 0x60 DUP4 ADD MSTORE SWAP6 SWAP5 POP POP POP POP POP JUMP JUMPDEST PUSH1 0x0 DUP1 PUSH1 0x40 DUP4 DUP6 SUB SLT ISZERO PUSH2 0x5075 JUMPI PUSH1 0x0 DUP1 REVERT JUMPDEST DUP3 CALLDATALOAD PUSH1 0x1 PUSH1 0x1 PUSH1 0x40 SHL SUB DUP1 DUP3 GT ISZERO PUSH2 0x508C JUMPI PUSH1 0x0 DUP1 REVERT JUMPDEST PUSH2 0x5098 DUP7 DUP4 DUP8 ADD PUSH2 0x4B0B JUMP JUMPDEST SWAP4 POP PUSH1 0x20 DUP6 ADD CALLDATALOAD SWAP2 POP DUP1 DUP3 GT ISZERO PUSH2 0x50AE JUMPI PUSH1 0x0 DUP1 REVERT JUMPDEST POP PUSH2 0x4F10 DUP6 DUP3 DUP7 ADD PUSH2 0x4B0B JUMP JUMPDEST DUP1 ISZERO ISZERO DUP2 EQ PUSH2 0xB98 JUMPI PUSH1 0x0 DUP1 REVERT JUMPDEST PUSH1 0x0 DUP1 PUSH1 0x40 DUP4 DUP6 SUB SLT ISZERO PUSH2 0x50DC JUMPI PUSH1 0x0 DUP1 REVERT JUMPDEST PUSH2 0x50E5 DUP4 PUSH2 0x495D JUMP JUMPDEST SWAP2 POP PUSH1 0x20 DUP4 ADD CALLDATALOAD PUSH2 0x50F5 DUP2 PUSH2 0x50BB JUMP JUMPDEST DUP1 SWAP2 POP POP SWAP3 POP SWAP3 SWAP1 POP JUMP JUMPDEST PUSH1 0x0 DUP1 PUSH1 0x40 DUP4 DUP6 SUB SLT ISZERO PUSH2 0x5113 JUMPI PUSH1 0x0 DUP1 REVERT JUMPDEST DUP3 CALLDATALOAD PUSH1 0xFF DUP2 AND DUP2 EQ PUSH2 0x5124 JUMPI PUSH1 0x0 DUP1 REVERT JUMPDEST SWAP2 POP PUSH1 0x20 DUP4 ADD CALLDATALOAD PUSH1 0x1 PUSH1 0x1 PUSH1 0x40 SHL SUB DUP2 GT ISZERO PUSH2 0x513F JUMPI PUSH1 0x0 DUP1 REVERT JUMPDEST PUSH2 0x4F10 DUP6 DUP3 DUP7 ADD PUSH2 0x4B0B JUMP JUMPDEST PUSH1 0x80 DUP2 MSTORE PUSH1 0x0 PUSH2 0x515E PUSH1 0x80 DUP4 ADD DUP8 PUSH2 0x49C2 JUMP JUMPDEST PUSH1 0x20 DUP4 ADD SWAP6 SWAP1 SWAP6 MSTORE POP PUSH1 0x40 DUP2 ADD SWAP3 SWAP1 SWAP3 MSTORE PUSH1 0x60 SWAP1 SWAP2 ADD MSTORE SWAP2 SWAP1 POP JUMP JUMPDEST PUSH1 0x0 DUP1 PUSH1 0x40 DUP4 DUP6 SUB SLT ISZERO PUSH2 0x518D JUMPI PUSH1 0x0 DUP1 REVERT JUMPDEST PUSH2 0x5196 DUP4 PUSH2 0x495D JUMP JUMPDEST SWAP2 POP PUSH2 0x51A4 PUSH1 0x20 DUP5 ADD PUSH2 0x495D JUMP JUMPDEST SWAP1 POP SWAP3 POP SWAP3 SWAP1 POP JUMP JUMPDEST PUSH1 0x0 PUSH1 0x20 DUP1 DUP4 ADD DUP2 DUP5 MSTORE DUP1 DUP6 MLOAD DUP1 DUP4 MSTORE PUSH1 0x40 DUP7 ADD SWAP2 POP PUSH1 0x40 DUP2 PUSH1 0x5 SHL DUP8 ADD ADD SWAP3 POP DUP4 DUP8 ADD PUSH1 0x0 JUMPDEST DUP3 DUP2 LT ISZERO PUSH2 0x4A82 JUMPI PUSH1 0x3F NOT DUP9 DUP7 SUB ADD DUP5 MSTORE PUSH2 0x51F0 DUP6 DUP4 MLOAD PUSH2 0x4F68 JUMP JUMPDEST SWAP5 POP SWAP3 DUP6 ADD SWAP3 SWAP1 DUP6 ADD SWAP1 PUSH1 0x1 ADD PUSH2 0x51D4 JUMP JUMPDEST PUSH1 0x0 DUP1 PUSH1 0x0 DUP1 PUSH1 0x0 PUSH1 0xA0 DUP7 DUP9 SUB SLT ISZERO PUSH2 0x521A JUMPI PUSH1 0x0 DUP1 REVERT JUMPDEST PUSH2 0x5223 DUP7 PUSH2 0x495D JUMP JUMPDEST SWAP5 POP PUSH2 0x5231 PUSH1 0x20 DUP8 ADD PUSH2 0x495D JUMP JUMPDEST SWAP4 POP PUSH1 0x40 DUP7 ADD CALLDATALOAD SWAP3 POP PUSH1 0x60 DUP7 ADD CALLDATALOAD SWAP2 POP PUSH1 0x80 DUP7 ADD CALLDATALOAD PUSH1 0x1 PUSH1 0x1 PUSH1 0x40 SHL SUB DUP2 GT ISZERO PUSH2 0x525A JUMPI PUSH1 0x0 DUP1 REVERT JUMPDEST PUSH2 0x4E43 DUP9 DUP3 DUP10 ADD PUSH2 0x4B0B JUMP JUMPDEST PUSH1 0x1 PUSH1 0x1 PUSH1 0xA0 SHL SUB DUP7 AND DUP2 MSTORE PUSH1 0xA0 PUSH1 0x20 DUP3 ADD DUP2 SWAP1 MSTORE PUSH1 0x0 SWAP1 PUSH2 0x528A SWAP1 DUP4 ADD DUP8 PUSH2 0x49C2 JUMP JUMPDEST PUSH1 0x40 DUP4 ADD SWAP6 SWAP1 SWAP6 MSTORE POP PUSH1 0x60 DUP2 ADD SWAP3 SWAP1 SWAP3 MSTORE ISZERO ISZERO PUSH1 0x80 SWAP1 SWAP2 ADD MSTORE SWAP3 SWAP2 POP POP JUMP JUMPDEST PUSH1 0x1 DUP2 DUP2 SHR SWAP1 DUP3 AND DUP1 PUSH2 0x52BD JUMPI PUSH1 0x7F DUP3 AND SWAP2 POP JUMPDEST PUSH1 0x20 DUP3 LT DUP2 SUB PUSH2 0x52DD JUMPI PUSH4 0x4E487B71 PUSH1 0xE0 SHL PUSH1 0x0 MSTORE PUSH1 0x22 PUSH1 0x4 MSTORE PUSH1 0x24 PUSH1 0x0 REVERT JUMPDEST POP SWAP2 SWAP1 POP JUMP JUMPDEST PUSH4 0x4E487B71 PUSH1 0xE0 SHL PUSH1 0x0 MSTORE PUSH1 0x32 PUSH1 0x4 MSTORE PUSH1 0x24 PUSH1 0x0 REVERT JUMPDEST PUSH1 0x0 DUP3 MLOAD PUSH2 0x530B DUP2 DUP5 PUSH1 0x20 DUP8 ADD PUSH2 0x499E JUMP JUMPDEST SWAP2 SWAP1 SWAP2 ADD SWAP3 SWAP2 POP POP JUMP JUMPDEST PUSH1 0x1F DUP3 GT ISZERO PUSH2 0x1BBF JUMPI PUSH1 0x0 DUP2 DUP2 MSTORE PUSH1 0x20 DUP2 KECCAK256 PUSH1 0x1F DUP6 ADD PUSH1 0x5 SHR DUP2 ADD PUSH1 0x20 DUP7 LT ISZERO PUSH2 0x533C JUMPI POP DUP1 JUMPDEST PUSH1 0x1F DUP6 ADD PUSH1 0x5 SHR DUP3 ADD SWAP2 POP JUMPDEST DUP2 DUP2 LT ISZERO PUSH2 0x2B79 JUMPI DUP3 DUP2 SSTORE PUSH1 0x1 ADD PUSH2 0x5348 JUMP JUMPDEST DUP2 MLOAD PUSH1 0x1 PUSH1 0x1 PUSH1 0x40 SHL SUB DUP2 GT ISZERO PUSH2 0x5374 JUMPI PUSH2 0x5374 PUSH2 0x4AC9 JUMP JUMPDEST PUSH2 0x5388 DUP2 PUSH2 0x5382 DUP5 SLOAD PUSH2 0x52A9 JUMP JUMPDEST DUP5 PUSH2 0x5315 JUMP JUMPDEST PUSH1 0x20 DUP1 PUSH1 0x1F DUP4 GT PUSH1 0x1 DUP2 EQ PUSH2 0x53BD JUMPI PUSH1 0x0 DUP5 ISZERO PUSH2 0x53A5 JUMPI POP DUP6 DUP4 ADD MLOAD JUMPDEST PUSH1 0x0 NOT PUSH1 0x3 DUP7 SWAP1 SHL SHR NOT AND PUSH1 0x1 DUP6 SWAP1 SHL OR DUP6 SSTORE PUSH2 0x2B79 JUMP JUMPDEST PUSH1 0x0 DUP6 DUP2 MSTORE PUSH1 0x20 DUP2 KECCAK256 PUSH1 0x1F NOT DUP7 AND SWAP2 JUMPDEST DUP3 DUP2 LT ISZERO PUSH2 0x53EC JUMPI DUP9 DUP7 ADD MLOAD DUP3 SSTORE SWAP5 DUP5 ADD SWAP5 PUSH1 0x1 SWAP1 SWAP2 ADD SWAP1 DUP5 ADD PUSH2 0x53CD JUMP JUMPDEST POP DUP6 DUP3 LT ISZERO PUSH2 0x540A JUMPI DUP8 DUP6 ADD MLOAD PUSH1 0x0 NOT PUSH1 0x3 DUP9 SWAP1 SHL PUSH1 0xF8 AND SHR NOT AND DUP2 SSTORE JUMPDEST POP POP POP POP POP PUSH1 0x1 SWAP1 DUP2 SHL ADD SWAP1 SSTORE POP JUMP JUMPDEST PUSH1 0x20 DUP1 DUP3 MSTORE PUSH1 0x2F SWAP1 DUP3 ADD MSTORE PUSH32 0x455243313135353A2063616C6C6572206973206E6F7420746F6B656E206F776E PUSH1 0x40 DUP3 ADD MSTORE PUSH15 0x195C881B9BDC88185C1C1C9BDD9959 PUSH1 0x8A SHL PUSH1 0x60 DUP3 ADD MSTORE PUSH1 0x80 ADD SWAP1 JUMP JUMPDEST PUSH4 0x4E487B71 PUSH1 0xE0 SHL PUSH1 0x0 MSTORE PUSH1 0x11 PUSH1 0x4 MSTORE PUSH1 0x24 PUSH1 0x0 REVERT JUMPDEST PUSH1 0x0 PUSH1 0x1 DUP3 ADD PUSH2 0x5491 JUMPI PUSH2 0x5491 PUSH2 0x5469 JUMP JUMPDEST POP PUSH1 0x1 ADD SWAP1 JUMP JUMPDEST PUSH1 0x0 PUSH1 0x20 DUP3 DUP5 SUB SLT ISZERO PUSH2 0x54AA JUMPI PUSH1 0x0 DUP1 REVERT JUMPDEST DUP2 MLOAD PUSH2 0x4AC2 DUP2 PUSH2 0x50BB JUMP JUMPDEST PUSH1 0x0 PUSH1 0x20 DUP3 DUP5 SUB SLT ISZERO PUSH2 0x54C7 JUMPI PUSH1 0x0 DUP1 REVERT JUMPDEST POP MLOAD SWAP2 SWAP1 POP JUMP JUMPDEST PUSH1 0xFF DUP3 DUP2 AND DUP3 DUP3 AND SUB SWAP1 DUP2 GT ISZERO PUSH2 0xA22 JUMPI PUSH2 0xA22 PUSH2 0x5469 JUMP JUMPDEST PUSH1 0x0 DUP1 DUP5 SLOAD PUSH2 0x54F5 DUP2 PUSH2 0x52A9 JUMP JUMPDEST PUSH1 0x1 DUP3 DUP2 AND DUP1 ISZERO PUSH2 0x550D JUMPI PUSH1 0x1 DUP2 EQ PUSH2 0x5522 JUMPI PUSH2 0x5551 JUMP JUMPDEST PUSH1 0xFF NOT DUP5 AND DUP8 MSTORE DUP3 ISZERO ISZERO DUP4 MUL DUP8 ADD SWAP5 POP PUSH2 0x5551 JUMP JUMPDEST DUP9 PUSH1 0x0 MSTORE PUSH1 0x20 DUP1 PUSH1 0x0 KECCAK256 PUSH1 0x0 JUMPDEST DUP6 DUP2 LT ISZERO PUSH2 0x5548 JUMPI DUP2 SLOAD DUP11 DUP3 ADD MSTORE SWAP1 DUP5 ADD SWAP1 DUP3 ADD PUSH2 0x552F JUMP JUMPDEST POP POP POP DUP3 DUP8 ADD SWAP5 POP JUMPDEST POP PUSH1 0x2F PUSH1 0xF8 SHL DUP5 MSTORE DUP7 MLOAD SWAP3 POP PUSH2 0x556D DUP4 DUP3 DUP7 ADD PUSH1 0x20 DUP11 ADD PUSH2 0x499E JUMP JUMPDEST PUSH5 0x173539B7B7 PUSH1 0xD9 SHL SWAP4 SWAP1 SWAP3 ADD SWAP2 DUP3 ADD SWAP3 SWAP1 SWAP3 MSTORE PUSH1 0x6 ADD SWAP6 SWAP5 POP POP POP POP POP JUMP JUMPDEST PUSH1 0x20 DUP1 DUP3 MSTORE PUSH1 0x25 SWAP1 DUP3 ADD MSTORE PUSH32 0x455243313135353A207472616E7366657220746F20746865207A65726F206164 PUSH1 0x40 DUP3 ADD MSTORE PUSH5 0x6472657373 PUSH1 0xD8 SHL PUSH1 0x60 DUP3 ADD MSTORE PUSH1 0x80 ADD SWAP1 JUMP JUMPDEST PUSH1 0x20 DUP1 DUP3 MSTORE PUSH1 0x2A SWAP1 DUP3 ADD MSTORE PUSH32 0x455243313135353A20696E73756666696369656E742062616C616E636520666F PUSH1 0x40 DUP3 ADD MSTORE PUSH10 0x39103A3930B739B332B9 PUSH1 0xB1 SHL PUSH1 0x60 DUP3 ADD MSTORE PUSH1 0x80 ADD SWAP1 JUMP JUMPDEST DUP1 DUP3 ADD DUP1 DUP3 GT ISZERO PUSH2 0xA22 JUMPI PUSH2 0xA22 PUSH2 0x5469 JUMP JUMPDEST PUSH1 0x40 DUP2 MSTORE PUSH1 0x0 PUSH2 0x5642 PUSH1 0x40 DUP4 ADD DUP6 PUSH2 0x4F1A JUMP JUMPDEST DUP3 DUP2 SUB PUSH1 0x20 DUP5 ADD MSTORE PUSH2 0x5654 DUP2 DUP6 PUSH2 0x4F1A JUMP JUMPDEST SWAP6 SWAP5 POP POP POP POP POP JUMP JUMPDEST PUSH1 0x0 DUP2 PUSH1 0x0 NOT DIV DUP4 GT DUP3 ISZERO ISZERO AND ISZERO PUSH2 0x5677 JUMPI PUSH2 0x5677 PUSH2 0x5469 JUMP JUMPDEST POP MUL SWAP1 JUMP JUMPDEST PUSH4 0x4E487B71 PUSH1 0xE0 SHL PUSH1 0x0 MSTORE PUSH1 0x12 PUSH1 0x4 MSTORE PUSH1 0x24 PUSH1 0x0 REVERT JUMPDEST PUSH1 0x0 DUP3 PUSH2 0x56A1 JUMPI PUSH2 0x56A1 PUSH2 0x567C JUMP JUMPDEST POP DIV SWAP1 JUMP JUMPDEST DUP2 DUP2 SUB DUP2 DUP2 GT ISZERO PUSH2 0xA22 JUMPI PUSH2 0xA22 PUSH2 0x5469 JUMP JUMPDEST PUSH1 0x0 DUP3 PUSH2 0x56C8 JUMPI PUSH2 0x56C8 PUSH2 0x567C JUMP JUMPDEST POP MOD SWAP1 JUMP JUMPDEST PUSH1 0x0 PUSH1 0xFF DUP4 AND DUP1 PUSH2 0x56E0 JUMPI PUSH2 0x56E0 PUSH2 0x567C JUMP JUMPDEST DUP1 PUSH1 0xFF DUP5 AND MOD SWAP2 POP POP SWAP3 SWAP2 POP POP JUMP JUMPDEST PUSH1 0x0 PUSH1 0xFF DUP3 AND PUSH1 0xFF DUP2 SUB PUSH2 0x5705 JUMPI PUSH2 0x5705 PUSH2 0x5469 JUMP JUMPDEST PUSH1 0x1 ADD SWAP3 SWAP2 POP POP JUMP JUMPDEST PUSH1 0xFF DUP2 DUP2 AND DUP4 DUP3 AND ADD SWAP1 DUP2 GT ISZERO PUSH2 0xA22 JUMPI PUSH2 0xA22 PUSH2 0x5469 JUMP JUMPDEST PUSH1 0x1 PUSH1 0x1 PUSH1 0xA0 SHL SUB DUP7 DUP2 AND DUP3 MSTORE DUP6 AND PUSH1 0x20 DUP3 ADD MSTORE PUSH1 0xA0 PUSH1 0x40 DUP3 ADD DUP2 SWAP1 MSTORE PUSH1 0x0 SWAP1 PUSH2 0x5753 SWAP1 DUP4 ADD DUP7 PUSH2 0x4F1A JUMP JUMPDEST DUP3 DUP2 SUB PUSH1 0x60 DUP5 ADD MSTORE PUSH2 0x5765 DUP2 DUP7 PUSH2 0x4F1A JUMP JUMPDEST SWAP1 POP DUP3 DUP2 SUB PUSH1 0x80 DUP5 ADD MSTORE PUSH2 0x5779 DUP2 DUP6 PUSH2 0x49C2 JUMP JUMPDEST SWAP9 SWAP8 POP POP POP POP POP POP POP POP JUMP JUMPDEST PUSH1 0x0 PUSH1 0x20 DUP3 DUP5 SUB SLT ISZERO PUSH2 0x5797 JUMPI PUSH1 0x0 DUP1 REVERT JUMPDEST DUP2 MLOAD PUSH2 0x4AC2 DUP2 PUSH2 0x4A8F JUMP JUMPDEST PUSH1 0x0 PUSH1 0x3 RETURNDATASIZE GT ISZERO PUSH2 0x57BB JUMPI PUSH1 0x4 PUSH1 0x0 DUP1 RETURNDATACOPY POP PUSH1 0x0 MLOAD PUSH1 0xE0 SHR JUMPDEST SWAP1 JUMP JUMPDEST PUSH1 0x0 PUSH1 0x44 RETURNDATASIZE LT ISZERO PUSH2 0x57CC JUMPI SWAP1 JUMP JUMPDEST PUSH1 0x40 MLOAD PUSH1 0x3 NOT RETURNDATASIZE DUP2 ADD PUSH1 0x4 DUP4 RETURNDATACOPY DUP2 MLOAD RETURNDATASIZE PUSH1 0x1 PUSH1 0x1 PUSH1 0x40 SHL SUB DUP2 PUSH1 0x24 DUP5 ADD GT DUP2 DUP5 GT OR ISZERO PUSH2 0x57FB JUMPI POP POP POP POP POP SWAP1 JUMP JUMPDEST DUP3 DUP6 ADD SWAP2 POP DUP2 MLOAD DUP2 DUP2 GT ISZERO PUSH2 0x5813 JUMPI POP POP POP POP POP POP SWAP1 JUMP JUMPDEST DUP5 RETURNDATASIZE DUP8 ADD ADD PUSH1 0x20 DUP3 DUP6 ADD ADD GT ISZERO PUSH2 0x582D JUMPI POP POP POP POP POP POP SWAP1 JUMP JUMPDEST PUSH2 0x583C PUSH1 0x20 DUP3 DUP7 ADD ADD DUP8 PUSH2 0x4ADF JUMP JUMPDEST POP SWAP1 SWAP6 SWAP5 POP POP POP POP POP JUMP JUMPDEST PUSH1 0x20 DUP1 DUP3 MSTORE PUSH1 0x28 SWAP1 DUP3 ADD MSTORE PUSH32 0x455243313135353A204552433131353552656365697665722072656A65637465 PUSH1 0x40 DUP3 ADD MSTORE PUSH8 0x6420746F6B656E73 PUSH1 0xC0 SHL PUSH1 0x60 DUP3 ADD MSTORE PUSH1 0x80 ADD SWAP1 JUMP JUMPDEST PUSH1 0x40 DUP2 ADD PUSH2 0xA22 DUP3 DUP5 PUSH2 0x4C44 JUMP JUMPDEST PUSH1 0x1 PUSH1 0x1 PUSH1 0xA0 SHL SUB DUP7 DUP2 AND DUP3 MSTORE DUP6 AND PUSH1 0x20 DUP3 ADD MSTORE PUSH1 0x40 DUP2 ADD DUP5 SWAP1 MSTORE PUSH1 0x60 DUP2 ADD DUP4 SWAP1 MSTORE PUSH1 0xA0 PUSH1 0x80 DUP3 ADD DUP2 SWAP1 MSTORE PUSH1 0x0 SWAP1 PUSH2 0x58D7 SWAP1 DUP4 ADD DUP5 PUSH2 0x49C2 JUMP JUMPDEST SWAP8 SWAP7 POP POP POP POP POP POP POP JUMP INVALID LOG2 PUSH5 0x6970667358 0x22 SLT KECCAK256 0xC0 0x1F 0xE8 SWAP2 0xC6 EXTCODESIZE CALLER 0xA8 CHAINID 0x49 DUP5 0x2E 0xE8 0x4C 0x23 PUSH9 0xFBD26E7C6BEDF5D878 PC GAS PUSH6 0x2255C9F96473 PUSH16 0x6C634300081000330000000000000000 "
		},
		"gasEstimates": {
			"creation": {
				"codeDepositCost": "4561600",
				"executionCost": "infinite",
				"totalCost": "infinite"
			},
			"external": {
				"": "253",
				"CELESTION()": "340",
				"DEVIL()": "295",
				"FIREBIRD()": "317",
				"GRIFFIN()": "339",
				"KAMO()": "319",
				"KUKULKAN()": "295",
				"MAX_ATTACK_DEFEND_STRENGTH()": "230",
				"attackOrDefendChoice(uint8,string)": "infinite",
				"balanceOf(address,uint256)": "2723",
				"balanceOfBatch(address[],uint256[])": "infinite",
				"baseURI()": "infinite",
				"battleInfo(string)": "infinite",
				"battles(uint256)": "infinite",
				"betAmount()": "2417",
				"commissionRate()": "2351",
				"createBattle(string)": "infinite",
				"createRandomGameToken(string)": "infinite",
				"exists(uint256)": "2518",
				"gameTokens(uint256)": "infinite",
				"getAllBattles()": "infinite",
				"getAllPlayerTokens()": "infinite",
				"getAllPlayers()": "infinite",
				"getBattle(string)": "infinite",
				"getBattleMoves(string)": "infinite",
				"getPlayer(address)": "infinite",
				"getPlayerToken(address)": "infinite",
				"getTotalSupply()": "2348",
				"isApprovedForAll(address,address)": "infinite",
				"isBattle(string)": "infinite",
				"isPlayer(address)": "2745",
				"isPlayerToken(address)": "2633",
				"joinBattle(string)": "infinite",
				"owner()": "2410",
				"playerInfo(address)": "2642",
				"playerTokenInfo(address)": "2554",
				"players(uint256)": "infinite",
				"quitBattle(string)": "infinite",
				"registerPlayer(string,string)": "infinite",
				"renounceOwnership()": "infinite",
				"safeBatchTransferFrom(address,address,uint256[],uint256[],bytes)": "infinite",
				"safeTransferFrom(address,address,uint256,uint256,bytes)": "infinite",
				"setApprovalForAll(address,bool)": "26801",
				"setURI(string)": "infinite",
				"supportsInterface(bytes4)": "623",
				"token()": "2469",
				"tokenURI(uint256)": "infinite",
				"totalSupply()": "2440",
				"totalSupply(uint256)": "2560",
				"transferOwnership(address)": "28424",
				"uri(uint256)": "infinite"
			},
			"internal": {
				"_awaitBattleResults(string memory)": "infinite",
				"_beforeTokenTransfer(address,address,address,uint256[] memory,uint256[] memory,bytes memory)": "infinite",
				"_createGameToken(string memory)": "infinite",
				"_createRandomNum(uint256,address)": "infinite",
				"_endBattle(address,struct AVAXGods.Battle memory)": "infinite",
				"_registerPlayerMove(uint256,uint8,string memory)": "infinite",
				"_resolveBattle(struct AVAXGods.Battle memory)": "infinite",
				"initialize()": "infinite",
				"uintToStr(uint256)": "infinite",
				"updateBattle(string memory,struct AVAXGods.Battle memory)": "infinite"
			}
		},
		"methodIdentifiers": {
			"CELESTION()": "9e4ecd11",
			"DEVIL()": "d2198cc5",
			"FIREBIRD()": "703730a5",
			"GRIFFIN()": "de96cefc",
			"KAMO()": "0677aa4e",
			"KUKULKAN()": "f1da7339",
			"MAX_ATTACK_DEFEND_STRENGTH()": "0daea2cd",
			"attackOrDefendChoice(uint8,string)": "ba274956",
			"balanceOf(address,uint256)": "00fdd58e",
			"balanceOfBatch(address[],uint256[])": "4e1273f4",
			"baseURI()": "6c0360eb",
			"battleInfo(string)": "3835e2b5",
			"battles(uint256)": "606d2e96",
			"betAmount()": "d24257c0",
			"commissionRate()": "5ea1d6f8",
			"createBattle(string)": "2ca04522",
			"createRandomGameToken(string)": "9ec40aa3",
			"exists(uint256)": "4f558e79",
			"gameTokens(uint256)": "bf034b69",
			"getAllBattles()": "5c93fc3d",
			"getAllPlayerTokens()": "015a3792",
			"getAllPlayers()": "efa1c482",
			"getBattle(string)": "16801d17",
			"getBattleMoves(string)": "9b09cc87",
			"getPlayer(address)": "5c12cd4b",
			"getPlayerToken(address)": "10898e4c",
			"getTotalSupply()": "c4e41b22",
			"isApprovedForAll(address,address)": "e985e9c5",
			"isBattle(string)": "1107ae3d",
			"isPlayer(address)": "09c95e10",
			"isPlayerToken(address)": "bf103a4d",
			"joinBattle(string)": "a1b4f57c",
			"owner()": "8da5cb5b",
			"playerInfo(address)": "4b114691",
			"playerTokenInfo(address)": "2711162e",
			"players(uint256)": "f71d96cb",
			"quitBattle(string)": "996d7bea",
			"registerPlayer(string,string)": "845f433b",
			"renounceOwnership()": "715018a6",
			"safeBatchTransferFrom(address,address,uint256[],uint256[],bytes)": "2eb2c2d6",
			"safeTransferFrom(address,address,uint256,uint256,bytes)": "f242432a",
			"setApprovalForAll(address,bool)": "a22cb465",
			"setURI(string)": "02fe5305",
			"supportsInterface(bytes4)": "01ffc9a7",
			"token()": "fc0c546a",
			"tokenURI(uint256)": "c87b56dd",
			"totalSupply()": "18160ddd",
			"totalSupply(uint256)": "bd85b039",
			"transferOwnership(address)": "f2fde38b",
			"uri(uint256)": "0e89341c"
		}
	},
	"abi": [
		{
			"inputs": [
				{
					"internalType": "string",
					"name": "_metadataURI",
					"type": "string"
				},
				{
					"internalType": "address",
					"name": "tokenAddress",
					"type": "address"
				},
				{
					"internalType": "address",
					"name": "commisionAddress",
					"type": "address"
				}
			],
			"stateMutability": "nonpayable",
			"type": "constructor"
		},
		{
			"anonymous": false,
			"inputs": [
				{
					"indexed": true,
					"internalType": "address",
					"name": "account",
					"type": "address"
				},
				{
					"indexed": true,
					"internalType": "address",
					"name": "operator",
					"type": "address"
				},
				{
					"indexed": false,
					"internalType": "bool",
					"name": "approved",
					"type": "bool"
				}
			],
			"name": "ApprovalForAll",
			"type": "event"
		},
		{
			"anonymous": false,
			"inputs": [
				{
					"indexed": false,
					"internalType": "string",
					"name": "battleName",
					"type": "string"
				},
				{
					"indexed": true,
					"internalType": "address",
					"name": "winner",
					"type": "address"
				},
				{
					"indexed": true,
					"internalType": "address",
					"name": "loser",
					"type": "address"
				}
			],
			"name": "BattleEnded",
			"type": "event"
		},
		{
			"anonymous": false,
			"inputs": [
				{
					"indexed": true,
					"internalType": "string",
					"name": "battleName",
					"type": "string"
				},
				{
					"indexed": true,
					"internalType": "bool",
					"name": "isFirstMove",
					"type": "bool"
				}
			],
			"name": "BattleMove",
			"type": "event"
		},
		{
			"anonymous": false,
			"inputs": [
				{
					"indexed": false,
					"internalType": "string",
					"name": "battleName",
					"type": "string"
				},
				{
					"indexed": true,
					"internalType": "address",
					"name": "player1",
					"type": "address"
				},
				{
					"indexed": true,
					"internalType": "address",
					"name": "player2",
					"type": "address"
				}
			],
			"name": "NewBattle",
			"type": "event"
		},
		{
			"anonymous": false,
			"inputs": [
				{
					"indexed": true,
					"internalType": "address",
					"name": "owner",
					"type": "address"
				},
				{
					"indexed": false,
					"internalType": "uint256",
					"name": "id",
					"type": "uint256"
				},
				{
					"indexed": false,
					"internalType": "uint256",
					"name": "attackStrength",
					"type": "uint256"
				},
				{
					"indexed": false,
					"internalType": "uint256",
					"name": "defenseStrength",
					"type": "uint256"
				}
			],
			"name": "NewGameToken",
			"type": "event"
		},
		{
			"anonymous": false,
			"inputs": [
				{
					"indexed": true,
					"internalType": "address",
					"name": "owner",
					"type": "address"
				},
				{
					"indexed": false,
					"internalType": "string",
					"name": "name",
					"type": "string"
				}
			],
			"name": "NewPlayer",
			"type": "event"
		},
		{
			"anonymous": false,
			"inputs": [
				{
					"indexed": true,
					"internalType": "address",
					"name": "previousOwner",
					"type": "address"
				},
				{
					"indexed": true,
					"internalType": "address",
					"name": "newOwner",
					"type": "address"
				}
			],
			"name": "OwnershipTransferred",
			"type": "event"
		},
		{
			"anonymous": false,
			"inputs": [
				{
					"indexed": false,
					"internalType": "address[2]",
					"name": "damagedPlayers",
					"type": "address[2]"
				}
			],
			"name": "RoundEnded",
			"type": "event"
		},
		{
			"anonymous": false,
			"inputs": [
				{
					"indexed": true,
					"internalType": "address",
					"name": "operator",
					"type": "address"
				},
				{
					"indexed": true,
					"internalType": "address",
					"name": "from",
					"type": "address"
				},
				{
					"indexed": true,
					"internalType": "address",
					"name": "to",
					"type": "address"
				},
				{
					"indexed": false,
					"internalType": "uint256[]",
					"name": "ids",
					"type": "uint256[]"
				},
				{
					"indexed": false,
					"internalType": "uint256[]",
					"name": "values",
					"type": "uint256[]"
				}
			],
			"name": "TransferBatch",
			"type": "event"
		},
		{
			"anonymous": false,
			"inputs": [
				{
					"indexed": true,
					"internalType": "address",
					"name": "operator",
					"type": "address"
				},
				{
					"indexed": true,
					"internalType": "address",
					"name": "from",
					"type": "address"
				},
				{
					"indexed": true,
					"internalType": "address",
					"name": "to",
					"type": "address"
				},
				{
					"indexed": false,
					"internalType": "uint256",
					"name": "id",
					"type": "uint256"
				},
				{
					"indexed": false,
					"internalType": "uint256",
					"name": "value",
					"type": "uint256"
				}
			],
			"name": "TransferSingle",
			"type": "event"
		},
		{
			"anonymous": false,
			"inputs": [
				{
					"indexed": false,
					"internalType": "string",
					"name": "value",
					"type": "string"
				},
				{
					"indexed": true,
					"internalType": "uint256",
					"name": "id",
					"type": "uint256"
				}
			],
			"name": "URI",
			"type": "event"
		},
		{
			"stateMutability": "payable",
			"type": "fallback"
		},
		{
			"inputs": [],
			"name": "CELESTION",
			"outputs": [
				{
					"internalType": "uint256",
					"name": "",
					"type": "uint256"
				}
			],
			"stateMutability": "view",
			"type": "function"
		},
		{
			"inputs": [],
			"name": "DEVIL",
			"outputs": [
				{
					"internalType": "uint256",
					"name": "",
					"type": "uint256"
				}
			],
			"stateMutability": "view",
			"type": "function"
		},
		{
			"inputs": [],
			"name": "FIREBIRD",
			"outputs": [
				{
					"internalType": "uint256",
					"name": "",
					"type": "uint256"
				}
			],
			"stateMutability": "view",
			"type": "function"
		},
		{
			"inputs": [],
			"name": "GRIFFIN",
			"outputs": [
				{
					"internalType": "uint256",
					"name": "",
					"type": "uint256"
				}
			],
			"stateMutability": "view",
			"type": "function"
		},
		{
			"inputs": [],
			"name": "KAMO",
			"outputs": [
				{
					"internalType": "uint256",
					"name": "",
					"type": "uint256"
				}
			],
			"stateMutability": "view",
			"type": "function"
		},
		{
			"inputs": [],
			"name": "KUKULKAN",
			"outputs": [
				{
					"internalType": "uint256",
					"name": "",
					"type": "uint256"
				}
			],
			"stateMutability": "view",
			"type": "function"
		},
		{
			"inputs": [],
			"name": "MAX_ATTACK_DEFEND_STRENGTH",
			"outputs": [
				{
					"internalType": "uint256",
					"name": "",
					"type": "uint256"
				}
			],
			"stateMutability": "view",
			"type": "function"
		},
		{
			"inputs": [
				{
					"internalType": "uint8",
					"name": "_choice",
					"type": "uint8"
				},
				{
					"internalType": "string",
					"name": "_battleName",
					"type": "string"
				}
			],
			"name": "attackOrDefendChoice",
			"outputs": [],
			"stateMutability": "nonpayable",
			"type": "function"
		},
		{
			"inputs": [
				{
					"internalType": "address",
					"name": "account",
					"type": "address"
				},
				{
					"internalType": "uint256",
					"name": "id",
					"type": "uint256"
				}
			],
			"name": "balanceOf",
			"outputs": [
				{
					"internalType": "uint256",
					"name": "",
					"type": "uint256"
				}
			],
			"stateMutability": "view",
			"type": "function"
		},
		{
			"inputs": [
				{
					"internalType": "address[]",
					"name": "accounts",
					"type": "address[]"
				},
				{
					"internalType": "uint256[]",
					"name": "ids",
					"type": "uint256[]"
				}
			],
			"name": "balanceOfBatch",
			"outputs": [
				{
					"internalType": "uint256[]",
					"name": "",
					"type": "uint256[]"
				}
			],
			"stateMutability": "view",
			"type": "function"
		},
		{
			"inputs": [],
			"name": "baseURI",
			"outputs": [
				{
					"internalType": "string",
					"name": "",
					"type": "string"
				}
			],
			"stateMutability": "view",
			"type": "function"
		},
		{
			"inputs": [
				{
					"internalType": "string",
					"name": "",
					"type": "string"
				}
			],
			"name": "battleInfo",
			"outputs": [
				{
					"internalType": "uint256",
					"name": "",
					"type": "uint256"
				}
			],
			"stateMutability": "view",
			"type": "function"
		},
		{
			"inputs": [
				{
					"internalType": "uint256",
					"name": "",
					"type": "uint256"
				}
			],
			"name": "battles",
			"outputs": [
				{
					"internalType": "enum AVAXGods.BattleStatus",
					"name": "battleStatus",
					"type": "uint8"
				},
				{
					"internalType": "bytes32",
					"name": "battleHash",
					"type": "bytes32"
				},
				{
					"internalType": "string",
					"name": "name",
					"type": "string"
				},
				{
					"internalType": "address",
					"name": "winner",
					"type": "address"
				}
			],
			"stateMutability": "view",
			"type": "function"
		},
		{
			"inputs": [],
			"name": "betAmount",
			"outputs": [
				{
					"internalType": "uint256",
					"name": "",
					"type": "uint256"
				}
			],
			"stateMutability": "view",
			"type": "function"
		},
		{
			"inputs": [],
			"name": "commissionRate",
			"outputs": [
				{
					"internalType": "uint256",
					"name": "",
					"type": "uint256"
				}
			],
			"stateMutability": "view",
			"type": "function"
		},
		{
			"inputs": [
				{
					"internalType": "string",
					"name": "_name",
					"type": "string"
				}
			],
			"name": "createBattle",
			"outputs": [
				{
					"components": [
						{
							"internalType": "enum AVAXGods.BattleStatus",
							"name": "battleStatus",
							"type": "uint8"
						},
						{
							"internalType": "bytes32",
							"name": "battleHash",
							"type": "bytes32"
						},
						{
							"internalType": "string",
							"name": "name",
							"type": "string"
						},
						{
							"internalType": "address[2]",
							"name": "players",
							"type": "address[2]"
						},
						{
							"internalType": "uint8[2]",
							"name": "moves",
							"type": "uint8[2]"
						},
						{
							"internalType": "address",
							"name": "winner",
							"type": "address"
						}
					],
					"internalType": "struct AVAXGods.Battle",
					"name": "",
					"type": "tuple"
				}
			],
			"stateMutability": "nonpayable",
			"type": "function"
		},
		{
			"inputs": [
				{
					"internalType": "string",
					"name": "_name",
					"type": "string"
				}
			],
			"name": "createRandomGameToken",
			"outputs": [],
			"stateMutability": "nonpayable",
			"type": "function"
		},
		{
			"inputs": [
				{
					"internalType": "uint256",
					"name": "id",
					"type": "uint256"
				}
			],
			"name": "exists",
			"outputs": [
				{
					"internalType": "bool",
					"name": "",
					"type": "bool"
				}
			],
			"stateMutability": "view",
			"type": "function"
		},
		{
			"inputs": [
				{
					"internalType": "uint256",
					"name": "",
					"type": "uint256"
				}
			],
			"name": "gameTokens",
			"outputs": [
				{
					"internalType": "string",
					"name": "name",
					"type": "string"
				},
				{
					"internalType": "uint256",
					"name": "id",
					"type": "uint256"
				},
				{
					"internalType": "uint256",
					"name": "attackStrength",
					"type": "uint256"
				},
				{
					"internalType": "uint256",
					"name": "defenseStrength",
					"type": "uint256"
				}
			],
			"stateMutability": "view",
			"type": "function"
		},
		{
			"inputs": [],
			"name": "getAllBattles",
			"outputs": [
				{
					"components": [
						{
							"internalType": "enum AVAXGods.BattleStatus",
							"name": "battleStatus",
							"type": "uint8"
						},
						{
							"internalType": "bytes32",
							"name": "battleHash",
							"type": "bytes32"
						},
						{
							"internalType": "string",
							"name": "name",
							"type": "string"
						},
						{
							"internalType": "address[2]",
							"name": "players",
							"type": "address[2]"
						},
						{
							"internalType": "uint8[2]",
							"name": "moves",
							"type": "uint8[2]"
						},
						{
							"internalType": "address",
							"name": "winner",
							"type": "address"
						}
					],
					"internalType": "struct AVAXGods.Battle[]",
					"name": "",
					"type": "tuple[]"
				}
			],
			"stateMutability": "view",
			"type": "function"
		},
		{
			"inputs": [],
			"name": "getAllPlayerTokens",
			"outputs": [
				{
					"components": [
						{
							"internalType": "string",
							"name": "name",
							"type": "string"
						},
						{
							"internalType": "uint256",
							"name": "id",
							"type": "uint256"
						},
						{
							"internalType": "uint256",
							"name": "attackStrength",
							"type": "uint256"
						},
						{
							"internalType": "uint256",
							"name": "defenseStrength",
							"type": "uint256"
						}
					],
					"internalType": "struct AVAXGods.GameToken[]",
					"name": "",
					"type": "tuple[]"
				}
			],
			"stateMutability": "view",
			"type": "function"
		},
		{
			"inputs": [],
			"name": "getAllPlayers",
			"outputs": [
				{
					"components": [
						{
							"internalType": "address",
							"name": "playerAddress",
							"type": "address"
						},
						{
							"internalType": "string",
							"name": "playerName",
							"type": "string"
						},
						{
							"internalType": "uint256",
							"name": "playerMana",
							"type": "uint256"
						},
						{
							"internalType": "uint256",
							"name": "playerHealth",
							"type": "uint256"
						},
						{
							"internalType": "bool",
							"name": "inBattle",
							"type": "bool"
						}
					],
					"internalType": "struct AVAXGods.Player[]",
					"name": "",
					"type": "tuple[]"
				}
			],
			"stateMutability": "view",
			"type": "function"
		},
		{
			"inputs": [
				{
					"internalType": "string",
					"name": "_name",
					"type": "string"
				}
			],
			"name": "getBattle",
			"outputs": [
				{
					"components": [
						{
							"internalType": "enum AVAXGods.BattleStatus",
							"name": "battleStatus",
							"type": "uint8"
						},
						{
							"internalType": "bytes32",
							"name": "battleHash",
							"type": "bytes32"
						},
						{
							"internalType": "string",
							"name": "name",
							"type": "string"
						},
						{
							"internalType": "address[2]",
							"name": "players",
							"type": "address[2]"
						},
						{
							"internalType": "uint8[2]",
							"name": "moves",
							"type": "uint8[2]"
						},
						{
							"internalType": "address",
							"name": "winner",
							"type": "address"
						}
					],
					"internalType": "struct AVAXGods.Battle",
					"name": "",
					"type": "tuple"
				}
			],
			"stateMutability": "view",
			"type": "function"
		},
		{
			"inputs": [
				{
					"internalType": "string",
					"name": "_battleName",
					"type": "string"
				}
			],
			"name": "getBattleMoves",
			"outputs": [
				{
					"internalType": "uint256",
					"name": "P1Move",
					"type": "uint256"
				},
				{
					"internalType": "uint256",
					"name": "P2Move",
					"type": "uint256"
				}
			],
			"stateMutability": "view",
			"type": "function"
		},
		{
			"inputs": [
				{
					"internalType": "address",
					"name": "addr",
					"type": "address"
				}
			],
			"name": "getPlayer",
			"outputs": [
				{
					"components": [
						{
							"internalType": "address",
							"name": "playerAddress",
							"type": "address"
						},
						{
							"internalType": "string",
							"name": "playerName",
							"type": "string"
						},
						{
							"internalType": "uint256",
							"name": "playerMana",
							"type": "uint256"
						},
						{
							"internalType": "uint256",
							"name": "playerHealth",
							"type": "uint256"
						},
						{
							"internalType": "bool",
							"name": "inBattle",
							"type": "bool"
						}
					],
					"internalType": "struct AVAXGods.Player",
					"name": "",
					"type": "tuple"
				}
			],
			"stateMutability": "view",
			"type": "function"
		},
		{
			"inputs": [
				{
					"internalType": "address",
					"name": "addr",
					"type": "address"
				}
			],
			"name": "getPlayerToken",
			"outputs": [
				{
					"components": [
						{
							"internalType": "string",
							"name": "name",
							"type": "string"
						},
						{
							"internalType": "uint256",
							"name": "id",
							"type": "uint256"
						},
						{
							"internalType": "uint256",
							"name": "attackStrength",
							"type": "uint256"
						},
						{
							"internalType": "uint256",
							"name": "defenseStrength",
							"type": "uint256"
						}
					],
					"internalType": "struct AVAXGods.GameToken",
					"name": "",
					"type": "tuple"
				}
			],
			"stateMutability": "view",
			"type": "function"
		},
		{
			"inputs": [],
			"name": "getTotalSupply",
			"outputs": [
				{
					"internalType": "uint256",
					"name": "",
					"type": "uint256"
				}
			],
			"stateMutability": "view",
			"type": "function"
		},
		{
			"inputs": [
				{
					"internalType": "address",
					"name": "account",
					"type": "address"
				},
				{
					"internalType": "address",
					"name": "operator",
					"type": "address"
				}
			],
			"name": "isApprovedForAll",
			"outputs": [
				{
					"internalType": "bool",
					"name": "",
					"type": "bool"
				}
			],
			"stateMutability": "view",
			"type": "function"
		},
		{
			"inputs": [
				{
					"internalType": "string",
					"name": "_name",
					"type": "string"
				}
			],
			"name": "isBattle",
			"outputs": [
				{
					"internalType": "bool",
					"name": "",
					"type": "bool"
				}
			],
			"stateMutability": "view",
			"type": "function"
		},
		{
			"inputs": [
				{
					"internalType": "address",
					"name": "addr",
					"type": "address"
				}
			],
			"name": "isPlayer",
			"outputs": [
				{
					"internalType": "bool",
					"name": "",
					"type": "bool"
				}
			],
			"stateMutability": "view",
			"type": "function"
		},
		{
			"inputs": [
				{
					"internalType": "address",
					"name": "addr",
					"type": "address"
				}
			],
			"name": "isPlayerToken",
			"outputs": [
				{
					"internalType": "bool",
					"name": "",
					"type": "bool"
				}
			],
			"stateMutability": "view",
			"type": "function"
		},
		{
			"inputs": [
				{
					"internalType": "string",
					"name": "_name",
					"type": "string"
				}
			],
			"name": "joinBattle",
			"outputs": [
				{
					"components": [
						{
							"internalType": "enum AVAXGods.BattleStatus",
							"name": "battleStatus",
							"type": "uint8"
						},
						{
							"internalType": "bytes32",
							"name": "battleHash",
							"type": "bytes32"
						},
						{
							"internalType": "string",
							"name": "name",
							"type": "string"
						},
						{
							"internalType": "address[2]",
							"name": "players",
							"type": "address[2]"
						},
						{
							"internalType": "uint8[2]",
							"name": "moves",
							"type": "uint8[2]"
						},
						{
							"internalType": "address",
							"name": "winner",
							"type": "address"
						}
					],
					"internalType": "struct AVAXGods.Battle",
					"name": "",
					"type": "tuple"
				}
			],
			"stateMutability": "payable",
			"type": "function"
		},
		{
			"inputs": [],
			"name": "owner",
			"outputs": [
				{
					"internalType": "address",
					"name": "",
					"type": "address"
				}
			],
			"stateMutability": "view",
			"type": "function"
		},
		{
			"inputs": [
				{
					"internalType": "address",
					"name": "",
					"type": "address"
				}
			],
			"name": "playerInfo",
			"outputs": [
				{
					"internalType": "uint256",
					"name": "",
					"type": "uint256"
				}
			],
			"stateMutability": "view",
			"type": "function"
		},
		{
			"inputs": [
				{
					"internalType": "address",
					"name": "",
					"type": "address"
				}
			],
			"name": "playerTokenInfo",
			"outputs": [
				{
					"internalType": "uint256",
					"name": "",
					"type": "uint256"
				}
			],
			"stateMutability": "view",
			"type": "function"
		},
		{
			"inputs": [
				{
					"internalType": "uint256",
					"name": "",
					"type": "uint256"
				}
			],
			"name": "players",
			"outputs": [
				{
					"internalType": "address",
					"name": "playerAddress",
					"type": "address"
				},
				{
					"internalType": "string",
					"name": "playerName",
					"type": "string"
				},
				{
					"internalType": "uint256",
					"name": "playerMana",
					"type": "uint256"
				},
				{
					"internalType": "uint256",
					"name": "playerHealth",
					"type": "uint256"
				},
				{
					"internalType": "bool",
					"name": "inBattle",
					"type": "bool"
				}
			],
			"stateMutability": "view",
			"type": "function"
		},
		{
			"inputs": [
				{
					"internalType": "string",
					"name": "_battleName",
					"type": "string"
				}
			],
			"name": "quitBattle",
			"outputs": [],
			"stateMutability": "nonpayable",
			"type": "function"
		},
		{
			"inputs": [
				{
					"internalType": "string",
					"name": "_name",
					"type": "string"
				},
				{
					"internalType": "string",
					"name": "_gameTokenName",
					"type": "string"
				}
			],
			"name": "registerPlayer",
			"outputs": [],
			"stateMutability": "nonpayable",
			"type": "function"
		},
		{
			"inputs": [],
			"name": "renounceOwnership",
			"outputs": [],
			"stateMutability": "nonpayable",
			"type": "function"
		},
		{
			"inputs": [
				{
					"internalType": "address",
					"name": "from",
					"type": "address"
				},
				{
					"internalType": "address",
					"name": "to",
					"type": "address"
				},
				{
					"internalType": "uint256[]",
					"name": "ids",
					"type": "uint256[]"
				},
				{
					"internalType": "uint256[]",
					"name": "amounts",
					"type": "uint256[]"
				},
				{
					"internalType": "bytes",
					"name": "data",
					"type": "bytes"
				}
			],
			"name": "safeBatchTransferFrom",
			"outputs": [],
			"stateMutability": "nonpayable",
			"type": "function"
		},
		{
			"inputs": [
				{
					"internalType": "address",
					"name": "from",
					"type": "address"
				},
				{
					"internalType": "address",
					"name": "to",
					"type": "address"
				},
				{
					"internalType": "uint256",
					"name": "id",
					"type": "uint256"
				},
				{
					"internalType": "uint256",
					"name": "amount",
					"type": "uint256"
				},
				{
					"internalType": "bytes",
					"name": "data",
					"type": "bytes"
				}
			],
			"name": "safeTransferFrom",
			"outputs": [],
			"stateMutability": "nonpayable",
			"type": "function"
		},
		{
			"inputs": [
				{
					"internalType": "address",
					"name": "operator",
					"type": "address"
				},
				{
					"internalType": "bool",
					"name": "approved",
					"type": "bool"
				}
			],
			"name": "setApprovalForAll",
			"outputs": [],
			"stateMutability": "nonpayable",
			"type": "function"
		},
		{
			"inputs": [
				{
					"internalType": "string",
					"name": "newuri",
					"type": "string"
				}
			],
			"name": "setURI",
			"outputs": [],
			"stateMutability": "nonpayable",
			"type": "function"
		},
		{
			"inputs": [
				{
					"internalType": "bytes4",
					"name": "interfaceId",
					"type": "bytes4"
				}
			],
			"name": "supportsInterface",
			"outputs": [
				{
					"internalType": "bool",
					"name": "",
					"type": "bool"
				}
			],
			"stateMutability": "view",
			"type": "function"
		},
		{
			"inputs": [],
			"name": "token",
			"outputs": [
				{
					"internalType": "contract IERC20",
					"name": "",
					"type": "address"
				}
			],
			"stateMutability": "view",
			"type": "function"
		},
		{
			"inputs": [
				{
					"internalType": "uint256",
					"name": "tokenId",
					"type": "uint256"
				}
			],
			"name": "tokenURI",
			"outputs": [
				{
					"internalType": "string",
					"name": "",
					"type": "string"
				}
			],
			"stateMutability": "view",
			"type": "function"
		},
		{
			"inputs": [],
			"name": "totalSupply",
			"outputs": [
				{
					"internalType": "uint256",
					"name": "",
					"type": "uint256"
				}
			],
			"stateMutability": "view",
			"type": "function"
		},
		{
			"inputs": [
				{
					"internalType": "uint256",
					"name": "id",
					"type": "uint256"
				}
			],
			"name": "totalSupply",
			"outputs": [
				{
					"internalType": "uint256",
					"name": "",
					"type": "uint256"
				}
			],
			"stateMutability": "view",
			"type": "function"
		},
		{
			"inputs": [
				{
					"internalType": "address",
					"name": "newOwner",
					"type": "address"
				}
			],
			"name": "transferOwnership",
			"outputs": [],
			"stateMutability": "nonpayable",
			"type": "function"
		},
		{
			"inputs": [
				{
					"internalType": "uint256",
					"name": "",
					"type": "uint256"
				}
			],
			"name": "uri",
			"outputs": [
				{
					"internalType": "string",
					"name": "",
					"type": "string"
				}
			],
			"stateMutability": "view",
			"type": "function"
		}
	]
}