{
	"data": {
		"bytecode": {
			"linkReferences": {},
			"object": "60806040523480156200001157600080fd5b506040516200590238038062005902833981016040819052620000349162000482565b8062000040816200006c565b506200004c336200007e565b60056200005a8282620005e6565b5062000065620000d0565b50620006c8565b60026200007a8282620005e6565b5050565b600380546001600160a01b038381166001600160a01b0319831681179093556040519116919082907f8be0079c531659141344cd1fd0a4f28419497f9722a3daafe3b4186f6b6457e090600090a35050565b6040805160a08101825260006080820181815282526020820181905291810182905260608101829052600b80546001810182559252805190916004027f0175b7a638427703f0dbe7bb9bbf987a2551717b34e79f33b5b1008d1fa01db9019081906200013d9082620005e6565b506020828101516001838101919091556040808501516002850155606094850151600390940193909355825160a08101845260008082528451808501865281815293820193845293810184905293840183905260808401839052600a8054918201815590925282517fc65a7bb8d6351c1cf70c95a316cc6a92839c986682d98bc35f958f4883f9d2a8600590930292830180546001600160a01b0319166001600160a01b03909216919091178155905190917fc65a7bb8d6351c1cf70c95a316cc6a92839c986682d98bc35f958f4883f9d2a901906200021e9082620005e6565b506040828101516002830155606083015160038301556080909201516004909101805460ff1916911515919091179055805160c08101909152600c90806000815260006020808301829052604080518083018252838152818501528051808201825283815280830184905260608501528051808201909152828152808201839052608084015260a09092018190528354600181810186559482529190208251600790920201805492939092839160ff1990911690836002811115620002e757620002e7620006b2565b021790555060208201516001820155604082015160028201906200030c9082620005e6565b50606082015162000324906003830190600262000368565b5060808201516200033c9060058301906002620003c5565b5060a09190910151600690910180546001600160a01b0319166001600160a01b03909216919091179055565b8260028101928215620003b3579160200282015b82811115620003b357825182546001600160a01b0319166001600160a01b039091161782556020909201916001909101906200037c565b50620003c192915062000455565b5090565b600183019183908215620003b35791602002820160005b838211156200041c57835183826101000a81548160ff021916908360ff1602179055509260200192600101602081600001049283019260010302620003dc565b80156200044b5782816101000a81549060ff02191690556001016020816000010492830192600103026200041c565b5050620003c19291505b5b80821115620003c1576000815560010162000456565b634e487b7160e01b600052604160045260246000fd5b600060208083850312156200049657600080fd5b82516001600160401b0380821115620004ae57600080fd5b818501915085601f830112620004c357600080fd5b815181811115620004d857620004d86200046c565b604051601f8201601f19908116603f011681019083821181831017156200050357620005036200046c565b8160405282815288868487010111156200051c57600080fd5b600093505b8284101562000540578484018601518185018701529285019262000521565b600086848301015280965050505050505092915050565b600181811c908216806200056c57607f821691505b6020821081036200058d57634e487b7160e01b600052602260045260246000fd5b50919050565b601f821115620005e157600081815260208120601f850160051c81016020861015620005bc5750805b601f850160051c820191505b81811015620005dd57828155600101620005c8565b5050505b505050565b81516001600160401b038111156200060257620006026200046c565b6200061a8162000613845462000557565b8462000593565b602080601f831160018114620006525760008415620006395750858301515b600019600386901b1c1916600185901b178555620005dd565b600085815260208120601f198616915b82811015620006835788860151825594840194600190910190840162000662565b5085821015620006a25787850151600019600388901b60f8161c191681555b5050505050600190811b01905550565b634e487b7160e01b600052602160045260246000fd5b61522a80620006d86000396000f3fe6080604052600436106102725760003560e01c8063703730a51161014e578063bf034b69116100bb578063e985e9c511610077578063e985e9c51461081a578063efa1c48214610863578063f1da733914610885578063f242432a1461089a578063f2fde38b146108ba578063f71d96cb146108da57005b8063bf034b691461076b578063bf103a4d1461079b578063c4e41b22146107bb578063c87b56dd146107d0578063d2198cc5146107f0578063de96cefc1461080557005b80639e4ecd111161010a5780639e4ecd11146106a95780639ec40aa3146106be578063a1b4f57c146106de578063a22cb465146106fe578063ba2749561461071e578063bd85b0391461073e57005b8063703730a5146105e2578063715018a6146105f7578063845f433b1461060c5780638da5cb5b1461062c578063996d7bea146106545780639b09cc871461067457005b806318160ddd116101ec5780634e1273f4116101a85780634e1273f4146104f25780634f558e791461051f5780635c12cd4b1461054e5780635c93fc3d1461057b578063606d2e961461059d5780636c0360eb146105cd57005b806318160ddd1461040a5780632711162e146104205780632ca045221461044d5780632eb2c2d61461046d5780633835e2b51461048d5780634b114691146104c557005b806309c95e101161023b57806309c95e101461032e5780630daea2cd1461034e5780630e89341c1461036357806310898e4c146103905780631107ae3d146103bd57806316801d17146103dd57005b8062fdd58e14610274578063015a3792146102a757806301ffc9a7146102c957806302fe5305146102f95780630677aa4e14610319575b005b34801561028057600080fd5b5061029461028f3660046142c5565b61090b565b6040519081526020015b60405180910390f35b3480156102b357600080fd5b506102bc6109a4565b60405161029e919061437e565b3480156102d557600080fd5b506102e96102e43660046143f6565b610ab3565b604051901515815260200161029e565b34801561030557600080fd5b506102726103143660046144cf565b610b03565b34801561032557600080fd5b50610294600381565b34801561033a57600080fd5b506102e9610349366004614503565b610b17565b34801561035a57600080fd5b50610294600a81565b34801561036f57600080fd5b5061038361037e36600461451e565b610b4b565b60405161029e9190614537565b34801561039c57600080fd5b506103b06103ab366004614503565b610bdf565b60405161029e919061454a565b3480156103c957600080fd5b506102e96103d83660046144cf565b610d5d565b3480156103e957600080fd5b506103fd6103f83660046144cf565b610d8d565b60405161029e9190614651565b34801561041657600080fd5b5061029460065481565b34801561042c57600080fd5b5061029461043b366004614503565b60086020526000908152604090205481565b34801561045957600080fd5b506103fd6104683660046144cf565b610fa8565b34801561047957600080fd5b506102726104883660046146f8565b6111ce565b34801561049957600080fd5b506102946104a83660046144cf565b805160208183018101805160098252928201919093012091525481565b3480156104d157600080fd5b506102946104e0366004614503565b60076020526000908152604090205481565b3480156104fe57600080fd5b5061051261050d3660046147a1565b61121a565b60405161029e91906148a6565b34801561052b57600080fd5b506102e961053a36600461451e565b600090815260046020526040902054151590565b34801561055a57600080fd5b5061056e610569366004614503565b611343565b60405161029e919061490c565b34801561058757600080fd5b506105906114e7565b60405161029e919061491f565b3480156105a957600080fd5b506105bd6105b836600461451e565b6116b2565b60405161029e9493929190614974565b3480156105d957600080fd5b50610383611784565b3480156105ee57600080fd5b50610294600281565b34801561060357600080fd5b50610272611812565b34801561061857600080fd5b506102726106273660046149b3565b611826565b34801561063857600080fd5b506003546040516001600160a01b03909116815260200161029e565b34801561066057600080fd5b5061027261066f3660046144cf565b6119bd565b34801561068057600080fd5b5061069461068f3660046144cf565b611a84565b6040805192835260208301919091520161029e565b3480156106b557600080fd5b50610294600581565b3480156106ca57600080fd5b506102726106d93660046144cf565b611aae565b3480156106ea57600080fd5b506103fd6106f93660046144cf565b611b62565b34801561070a57600080fd5b50610272610719366004614a0c565b611dd1565b34801561072a57600080fd5b50610272610739366004614a48565b611ddc565b34801561074a57600080fd5b5061029461075936600461451e565b60009081526004602052604090205490565b34801561077757600080fd5b5061078b61078636600461451e565b6120d3565b60405161029e9493929190614a93565b3480156107a757600080fd5b506102e96107b6366004614503565b61219b565b3480156107c757600080fd5b50600654610294565b3480156107dc57600080fd5b506103836107eb36600461451e565b6121c2565b3480156107fc57600080fd5b50610294600081565b34801561081157600080fd5b50610294600181565b34801561082657600080fd5b506102e9610835366004614ac2565b6001600160a01b03918216600090815260016020908152604080832093909416825291909152205460ff1690565b34801561086f57600080fd5b506108786121f6565b60405161029e9190614af5565b34801561089157600080fd5b50610294600481565b3480156108a657600080fd5b506102726108b5366004614b4a565b61231d565b3480156108c657600080fd5b506102726108d5366004614503565b612362565b3480156108e657600080fd5b506108fa6108f536600461451e565b6123d8565b60405161029e959493929190614bae565b60006001600160a01b03831661097b5760405162461bcd60e51b815260206004820152602a60248201527f455243313135353a2061646472657373207a65726f206973206e6f742061207660448201526930b634b21037bbb732b960b11b60648201526084015b60405180910390fd5b506000818152602081815260408083206001600160a01b03861684529091529020545b92915050565b6060600b805480602002602001604051908101604052809291908181526020016000905b82821015610aaa57838290600052602060002090600402016040518060800160405290816000820180546109fb90614bf1565b80601f0160208091040260200160405190810160405280929190818152602001828054610a2790614bf1565b8015610a745780601f10610a4957610100808354040283529160200191610a74565b820191906000526020600020905b815481529060010190602001808311610a5757829003601f168201915b505050505081526020016001820154815260200160028201548152602001600382015481525050815260200190600101906109c8565b50505050905090565b60006001600160e01b03198216636cdb3d1360e11b1480610ae457506001600160e01b031982166303a24d0760e21b145b8061099e57506301ffc9a760e01b6001600160e01b031983161461099e565b610b0b6124b1565b610b148161250b565b50565b6001600160a01b0381166000908152600760205260408120548103610b3e57506000919050565b506001919050565b919050565b606060028054610b5a90614bf1565b80601f0160208091040260200160405190810160405280929190818152602001828054610b8690614bf1565b8015610bd35780601f10610ba857610100808354040283529160200191610bd3565b820191906000526020600020905b815481529060010190602001808311610bb657829003601f168201915b50505050509050919050565b610c0a6040518060800160405280606081526020016000815260200160008152602001600081525090565b610c138261219b565b610c5f5760405162461bcd60e51b815260206004820152601960248201527f47616d6520746f6b656e20646f65736e277420657869737421000000000000006044820152606401610972565b6001600160a01b038216600090815260086020526040902054600b80549091908110610c8d57610c8d614c2b565b9060005260206000209060040201604051806080016040529081600082018054610cb690614bf1565b80601f0160208091040260200160405190810160405280929190818152602001828054610ce290614bf1565b8015610d2f5780601f10610d0457610100808354040283529160200191610d2f565b820191906000526020600020905b815481529060010190602001808311610d1257829003601f168201915b5050505050815260200160018201548152602001600282015481526020016003820154815250509050919050565b6000600982604051610d6f9190614c41565b908152602001604051809103902054600003610b3e57506000919050565b610d95614152565b610d9e82610d5d565b610de25760405162461bcd60e51b8152602060048201526015602482015274426174746c6520646f65736e27742065786973742160581b6044820152606401610972565b600c600983604051610df49190614c41565b90815260200160405180910390205481548110610e1357610e13614c2b565b600091825260209091206040805160c081019091526007909202018054829060ff166002811115610e4657610e4661455d565b6002811115610e5757610e5761455d565b815260200160018201548152602001600282018054610e7590614bf1565b80601f0160208091040260200160405190810160405280929190818152602001828054610ea190614bf1565b8015610eee5780601f10610ec357610100808354040283529160200191610eee565b820191906000526020600020905b815481529060010190602001808311610ed157829003601f168201915b5050509183525050604080518082019182905260209092019190600384019060029082845b81546001600160a01b03168152600190910190602001808311610f135750505091835250506040805180820191829052602090920191906005840190600290826000855b825461010083900a900460ff16815260206001928301818104948501949093039092029101808411610f5757505050928452505050600691909101546001600160a01b031660209091015292915050565b610fb0614152565b610fb933610b17565b6110055760405162461bcd60e51b815260206004820152601c60248201527f506c6561736520526567697374657220506c61796572204669727374000000006044820152606401610972565b61100e82610d5d565b156110545760405162461bcd60e51b8152602060048201526016602482015275426174746c6520616c7265616479206578697374732160501b6044820152606401610972565b6000826040516020016110679190614537565b60408051808303601f19018152828252805160209182012060c084018352600080855282850182905284840188905283518085018552338152808401829052606086015283518085018552818152928301819052608085019290925260a0840191909152600c54915190935081906009906110e3908890614c41565b90815260405190819003602001902055600c805460018181018355600092909252835160079091027fdf6966c971051c3d54ec59162606531493a51404a002842f56009d7e5cf4a8c70180548593919291839160ff19169083600281111561114d5761114d61455d565b021790555060208201516001820155604082015160028201906111709082614ca3565b5060608201516111869060038301906002614195565b50608082015161119c90600583019060026141ed565b5060a09190910151600690910180546001600160a01b0319166001600160a01b03909216919091179055509392505050565b6001600160a01b0385163314806111ea57506111ea8533610835565b6112065760405162461bcd60e51b815260040161097290614d62565b6112138585858585612517565b5050505050565b6060815183511461127f5760405162461bcd60e51b815260206004820152602960248201527f455243313135353a206163636f756e747320616e6420696473206c656e677468604482015268040dad2e6dac2e8c6d60bb1b6064820152608401610972565b600083516001600160401b0381111561129a5761129a61441a565b6040519080825280602002602001820160405280156112c3578160200160208202803683370190505b50905060005b845181101561133b5761130e8582815181106112e7576112e7614c2b565b602002602001015185838151811061130157611301614c2b565b602002602001015161090b565b82828151811061132057611320614c2b565b602090810291909101015261133481614dc7565b90506112c9565b509392505050565b6113806040518060a0016040528060006001600160a01b031681526020016060815260200160008152602001600081526020016000151581525090565b61138982610b17565b6113cd5760405162461bcd60e51b8152602060048201526015602482015274506c6179657220646f65736e27742065786973742160581b6044820152606401610972565b6001600160a01b038216600090815260076020526040902054600a805490919081106113fb576113fb614c2b565b60009182526020918290206040805160a0810190915260059092020180546001600160a01b03168252600181018054929391929184019161143b90614bf1565b80601f016020809104026020016040519081016040528092919081815260200182805461146790614bf1565b80156114b45780601f10611489576101008083540402835291602001916114b4565b820191906000526020600020905b81548152906001019060200180831161149757829003601f168201915b5050509183525050600282015460208201526003820154604082015260049091015460ff16151560609091015292915050565b6060600c805480602002602001604051908101604052809291908181526020016000905b82821015610aaa576000848152602090206040805160c08101909152600784029091018054829060ff1660028111156115465761154661455d565b60028111156115575761155761455d565b81526020016001820154815260200160028201805461157590614bf1565b80601f01602080910402602001604051908101604052809291908181526020018280546115a190614bf1565b80156115ee5780601f106115c3576101008083540402835291602001916115ee565b820191906000526020600020905b8154815290600101906020018083116115d157829003601f168201915b5050509183525050604080518082019182905260209092019190600384019060029082845b81546001600160a01b031681526001909101906020018083116116135750505091835250506040805180820191829052602090920191906005840190600290826000855b825461010083900a900460ff1681526020600192830181810494850194909303909202910180841161165757505050928452505050600691909101546001600160a01b0316602091820152908252600192909201910161150b565b600c81815481106116c257600080fd5b600091825260209091206007909102018054600182015460028301805460ff90931694509092916116f290614bf1565b80601f016020809104026020016040519081016040528092919081815260200182805461171e90614bf1565b801561176b5780601f106117405761010080835404028352916020019161176b565b820191906000526020600020905b81548152906001019060200180831161174e57829003601f168201915b505050600690930154919250506001600160a01b031684565b6005805461179190614bf1565b80601f01602080910402602001604051908101604052809291908181526020018280546117bd90614bf1565b801561180a5780601f106117df5761010080835404028352916020019161180a565b820191906000526020600020905b8154815290600101906020018083116117ed57829003601f168201915b505050505081565b61181a6124b1565b6118246000612702565b565b61182f33610b17565b1561187c5760405162461bcd60e51b815260206004820152601960248201527f506c6179657220616c72656164792072656769737465726564000000000000006044820152606401610972565b600a80546040805160a08101825233815260208101868152918101849052601960608201526000608082018190526001840185559390935282517fc65a7bb8d6351c1cf70c95a316cc6a92839c986682d98bc35f958f4883f9d2a86005840290810180546001600160a01b0319166001600160a01b03909316929092178255915192939290917fc65a7bb8d6351c1cf70c95a316cc6a92839c986682d98bc35f958f4883f9d2a9019061192f9082614ca3565b506040828101516002830155606083015160038301556080909201516004909101805460ff191691151591909117905533600090815260076020522081905561197782611aae565b336001600160a01b03167f81ef79d1cda814a60c0fc60792e648a06d9c6bae67176346d1cc8b63030bfccd846040516119b09190614537565b60405180910390a2505050565b60006119c882610d8d565b6060810151519091506001600160a01b03163314806119f757506060810151602001516001600160a01b031633145b611a435760405162461bcd60e51b815260206004820152601b60248201527f596f7520617265206e6f7420696e207468697320626174746c652100000000006044820152606401610972565b6060810151516001600160a01b03163314611a74576060810151611a6f9060005b602002015182612754565b505050565b6060810151611a6f906001611a64565b6000806000611a9284610d8d565b60800151805160209091015160ff918216969116945092505050565b611ab733611343565b6080015115611b005760405162461bcd60e51b8152602060048201526015602482015274506c6179657220697320696e206120626174746c6560581b6044820152606401610972565b611b0933610b17565b611b555760405162461bcd60e51b815260206004820152601c60248201527f506c6561736520526567697374657220506c61796572204669727374000000006044820152606401610972565b611b5e81612a0b565b5050565b611b6a614152565b6000611b7583610d8d565b9050600081516002811115611b8c57611b8c61455d565b14611bd95760405162461bcd60e51b815260206004820152601760248201527f426174746c6520616c72656164792073746172746564210000000000000000006044820152606401610972565b606081015151336001600160a01b0390911603611c425760405162461bcd60e51b815260206004820152602160248201527f4f6e6c7920706c617965722074776f2063616e206a6f696e206120626174746c6044820152606560f81b6064820152608401610972565b611c4b33611343565b6080015115611c905760405162461bcd60e51b8152602060048201526011602482015270416c726561647920696e20626174746c6560781b6044820152606401610972565b60018152606081015133602090910152611caa8382612c16565b6001600a600760008460600151600060028110611cc957611cc9614c2b565b60200201516001600160a01b03166001600160a01b031681526020019081526020016000205481548110611cff57611cff614c2b565b60009182526020808320600592909202909101600401805460ff19169315159390931790925560608301518201516001600160a01b0316815260079091526040902054600a8054600192908110611d5857611d58614c2b565b60009182526020822060059190910201600401805460ff1916921515929092179091556060820151339160200201516001600160a01b03167f024187b16c217a79f8d8e6252b542ec6e278fa91304acd9cfd866f2bbf00bd088360400151604051611dc39190614537565b60405180910390a392915050565b611b5e338383612d42565b6000611de782610d8d565b9050600181516002811115611dfe57611dfe61455d565b14611e7b5760405162461bcd60e51b815260206004820152604160248201527f426174746c65206e6f7420737461727465642e20506c656173652074656c6c2060448201527f616e6f7468657220706c6179657220746f206a6f696e2074686520626174746c6064820152606560f81b608482015260a401610972565b600281516002811115611e9057611e9061455d565b03611edd5760405162461bcd60e51b815260206004820152601860248201527f426174746c652068617320616c726561647920656e64656400000000000000006044820152606401610972565b6060810151516001600160a01b0316331480611f0957506060810151602001516001600160a01b031633145b611f555760405162461bcd60e51b815260206004820152601a60248201527f596f7520617265206e6f7420696e207468697320626174746c650000000000006044820152606401610972565b60808101516060820151516001600160a01b03163314611f76576001611f79565b60005b60ff1660028110611f8c57611f8c614c2b565b602002015160ff1615611fe15760405162461bcd60e51b815260206004820152601d60248201527f596f75206861766520616c7265616479206d6164652061206d6f7665210000006044820152606401610972565b60608101515161200e906001600160a01b03163314612001576001612004565b60005b60ff168484612e22565b61201782610d8d565b60808101516020015190915060009060ff1615612035576001612038565b60005b60808301515160ff161561204d576001612050565b60005b61205b906002614de0565b6120659190614de0565b60ff1690508060011461207957600061207c565b60015b15158360405161208c9190614c41565b604051908190038120907f54b82b77e7ae55a8e6c9e89deba70c7191dea2a3b08ae647b380e9f981d6a0f890600090a3806000036120cd576120cd83612f77565b50505050565b600b81815481106120e357600080fd5b906000526020600020906004020160009150905080600001805461210690614bf1565b80601f016020809104026020016040519081016040528092919081815260200182805461213290614bf1565b801561217f5780601f106121545761010080835404028352916020019161217f565b820191906000526020600020905b81548152906001019060200180831161216257829003601f168201915b5050505050908060010154908060020154908060030154905084565b6001600160a01b0381166000908152600860205260408120548103610b3e57506000919050565b606060056121cf83613091565b6040516020016121e0929190614df9565b6040516020818303038152906040529050919050565b6060600a805480602002602001604051908101604052809291908181526020016000905b82821015610aaa5760008481526020908190206040805160a081019091526005850290910180546001600160a01b03168252600181018054929391929184019161226390614bf1565b80601f016020809104026020016040519081016040528092919081815260200182805461228f90614bf1565b80156122dc5780601f106122b1576101008083540402835291602001916122dc565b820191906000526020600020905b8154815290600101906020018083116122bf57829003601f168201915b505050918352505060028201546020808301919091526003830154604083015260049092015460ff161515606090910152908252600192909201910161221a565b6001600160a01b03851633148061233957506123398533610835565b6123555760405162461bcd60e51b815260040161097290614d62565b61121385858585856131bc565b61236a6124b1565b6001600160a01b0381166123cf5760405162461bcd60e51b815260206004820152602660248201527f4f776e61626c653a206e6577206f776e657220697320746865207a65726f206160448201526564647265737360d01b6064820152608401610972565b610b1481612702565b600a81815481106123e857600080fd5b6000918252602090912060059091020180546001820180546001600160a01b0390921693509061241790614bf1565b80601f016020809104026020016040519081016040528092919081815260200182805461244390614bf1565b80156124905780601f1061246557610100808354040283529160200191612490565b820191906000526020600020905b81548152906001019060200180831161247357829003601f168201915b50505050600283015460038401546004909401549293909290915060ff1685565b6003546001600160a01b031633146118245760405162461bcd60e51b815260206004820181905260248201527f4f776e61626c653a2063616c6c6572206973206e6f7420746865206f776e65726044820152606401610972565b6002611b5e8282614ca3565b81518351146125795760405162461bcd60e51b815260206004820152602860248201527f455243313135353a2069647320616e6420616d6f756e7473206c656e677468206044820152670dad2e6dac2e8c6d60c31b6064820152608401610972565b6001600160a01b03841661259f5760405162461bcd60e51b815260040161097290614e9f565b336125ae8187878787876132f4565b60005b84518110156126945760008582815181106125ce576125ce614c2b565b6020026020010151905060008583815181106125ec576125ec614c2b565b602090810291909101810151600084815280835260408082206001600160a01b038e16835290935291909120549091508181101561263c5760405162461bcd60e51b815260040161097290614ee4565b6000838152602081815260408083206001600160a01b038e8116855292528083208585039055908b16825281208054849290612679908490614f2e565b925050819055505050508061268d90614dc7565b90506125b1565b50846001600160a01b0316866001600160a01b0316826001600160a01b03167f4a39dc06d4c0dbc64b70af90fd698a233a518aa5d07e595d983b8c0526c8f7fb87876040516126e4929190614f41565b60405180910390a46126fa818787878787613302565b505050505050565b600380546001600160a01b038381166001600160a01b0319831681179093556040519116919082907f8be0079c531659141344cd1fd0a4f28419497f9722a3daafe3b4186f6b6457e090600090a35050565b61275c614152565b6002825160028111156127715761277161455d565b036127b55760405162461bcd60e51b815260206004820152601460248201527310985d1d1b1948185b1c9958591e48195b99195960621b6044820152606401610972565b600282526001600160a01b03831660a083015260408201516127d79083612c16565b60006007600084606001516000600281106127f4576127f4614c2b565b60200201516001600160a01b03166001600160a01b03168152602001908152602001600020549050600060076000856060015160016002811061283957612839614c2b565b60200201516001600160a01b03166001600160a01b031681526020019081526020016000205490506000600a838154811061287657612876614c2b565b906000526020600020906005020160040160006101000a81548160ff0219169083151502179055506019600a83815481106128b3576128b3614c2b565b906000526020600020906005020160030181905550600a8083815481106128dc576128dc614c2b565b9060005260206000209060050201600201819055506000600a828154811061290657612906614c2b565b906000526020600020906005020160040160006101000a81548160ff0219169083151502179055506019600a828154811061294357612943614c2b565b906000526020600020906005020160030181905550600a80828154811061296c5761296c614c2b565b60009182526020822060059190910201600201919091556060850151516001600160a01b038781169116146129a6576060850151516129b0565b6060850151602001515b9050806001600160a01b0316866001600160a01b03167fae6e5eafb6cd1cb4b139e7a0b9140aa182ee7d50e99f50d660156f79212acbc087604001516040516129f99190614537565b60405180910390a35092949350505050565b612a366040518060800160405280606081526020016000815260200160008152602001600081525090565b6000612a43600a33613466565b90506000612a5282600a614f6f565b9050600060644233604051602001612a8692919091825260601b6bffffffffffffffffffffffff1916602082015260340190565b6040516020818303038152906040528051906020012060001c612aa99190614f98565b9050612ab6600682614fac565b90508060ff16600003612ad15780612acd81614fce565b9150505b6040805160808101825286815260ff8316602082015290810184905260608101839052600b805460018101825560009190915281518290600483027f0175b7a638427703f0dbe7bb9bbf987a2551717b34e79f33b5b1008d1fa01db901908190612b3b9082614ca3565b5060208201518160010155604082015181600201556060820151816003015550508060086000336001600160a01b03166001600160a01b0316815260200190815260200160002081905550612bb1338460ff1660016040518060400160405280600381526020016203078360ec1b8152506134e4565b60068054906000612bc183614dc7565b90915550506040805160ff851681526020810187905290810185905233907fca8ab07e9ed17d119729fc652dd24df9d8430ca862dda4631925b5b4b99da3629060600160405180910390a25095945050505050565b612c1f82610d5d565b612c625760405162461bcd60e51b815260206004820152601460248201527310985d1d1b1948191bd95cdb89dd08195e1a5cdd60621b6044820152606401610972565b80600c600984604051612c759190614c41565b90815260200160405180910390205481548110612c9457612c94614c2b565b6000918252602090912082516007909202018054909190829060ff19166001836002811115612cc557612cc561455d565b02179055506020820151600182015560408201516002820190612ce89082614ca3565b506060820151612cfe9060038301906002614195565b506080820151612d1490600583019060026141ed565b5060a09190910151600690910180546001600160a01b0319166001600160a01b039092169190911790555050565b816001600160a01b0316836001600160a01b031603612db55760405162461bcd60e51b815260206004820152602960248201527f455243313135353a2073657474696e6720617070726f76616c20737461747573604482015268103337b91039b2b63360b91b6064820152608401610972565b6001600160a01b03838116600081815260016020908152604080832094871680845294825291829020805460ff191686151590811790915591519182527f17307eab39ab6107e8899845ad3d59bd9653f200f220920489ca2b5937696c31910160405180910390a3505050565b8160ff1660011480612e3757508160ff166002145b612e835760405162461bcd60e51b815260206004820152601f60248201527f43686f6963652073686f756c64206265206569746865722031206f72203221006044820152606401610972565b8160ff16600114612e95576001612ea7565b6003612ea033611343565b6040015110155b612efe5760405162461bcd60e51b815260206004820152602260248201527f4d616e61206e6f742073756666696369656e7420666f722061747461636b696e604482015261672160f01b6064820152608401610972565b81600c600983604051612f119190614c41565b90815260200160405180910390205481548110612f3057612f30614c2b565b90600052602060002090600702016005018460028110612f5257612f52614c2b565b602091828204019190066101000a81548160ff021916908360ff160217905550505050565b6000612f8282610d8d565b6060810151519091506001600160a01b0316331480612fb157506060810151602001516001600160a01b031633145b6130115760405162461bcd60e51b815260206004820152602b60248201527f4f6e6c7920706c617965727320696e207468697320626174746c652063616e2060448201526a6d616b652061206d6f766560a81b6064820152608401610972565b60808101515160ff1615801590613032575060808101516020015160ff1615155b6130885760405162461bcd60e51b815260206004820152602160248201527f506c6179657273207374696c6c206e65656420746f206d616b652061206d6f766044820152606560f81b6064820152608401610972565b611b5e816135fe565b6060816000036130b85750506040805180820190915260018152600360fc1b602082015290565b8160005b81156130e257806130cc81614dc7565b91506130db9050600a83614fed565b91506130bc565b6000816001600160401b038111156130fc576130fc61441a565b6040519080825280601f01601f191660200182016040528015613126576020820181803683370190505b509050815b85156131b35761313c600182614f6f565b9050600061314b600a88614fed565b61315690600a615001565b6131609088614f6f565b61316b906030615020565b905060008160f81b90508084848151811061318857613188614c2b565b60200101906001600160f81b031916908160001a9053506131aa600a89614fed565b9750505061312b565b50949350505050565b6001600160a01b0384166131e25760405162461bcd60e51b815260040161097290614e9f565b3360006131ee85613ed3565b905060006131fb85613ed3565b905061320b8389898585896132f4565b6000868152602081815260408083206001600160a01b038c1684529091529020548581101561324c5760405162461bcd60e51b815260040161097290614ee4565b6000878152602081815260408083206001600160a01b038d8116855292528083208985039055908a16825281208054889290613289908490614f2e565b909155505060408051888152602081018890526001600160a01b03808b16928c821692918816917fc3d58168c5ae7397731d063d5bbf3d657854427343f4c083240f7aacaa2d0f62910160405180910390a46132e9848a8a8a8a8a613f1e565b505050505050505050565b6126fa868686868686613fd9565b6001600160a01b0384163b156126fa5760405163bc197c8160e01b81526001600160a01b0385169063bc197c81906133469089908990889088908890600401615039565b6020604051808303816000875af1925050508015613381575060408051601f3d908101601f1916820190925261337e91810190615097565b60015b61342d5761338d6150b4565b806308c379a0036133c657506133a16150d0565b806133ac57506133c8565b8060405162461bcd60e51b81526004016109729190614537565b505b60405162461bcd60e51b815260206004820152603460248201527f455243313135353a207472616e7366657220746f206e6f6e20455243313135356044820152732932b1b2b4bb32b91034b6b83632b6b2b73a32b960611b6064820152608401610972565b6001600160e01b0319811663bc197c8160e01b1461345d5760405162461bcd60e51b815260040161097290615159565b50505050505050565b6000804442846040516020016134a193929190928352602083019190915260601b6bffffffffffffffffffffffff1916604082015260540190565b60408051601f19818403018152919052805160209091012090506134c58482614f98565b9150816000036134dd576134da600285614fed565b91505b5092915050565b6001600160a01b0384166135445760405162461bcd60e51b815260206004820152602160248201527f455243313135353a206d696e7420746f20746865207a65726f206164647265736044820152607360f81b6064820152608401610972565b33600061355085613ed3565b9050600061355d85613ed3565b905061356e836000898585896132f4565b6000868152602081815260408083206001600160a01b038b1684529091528120805487929061359e908490614f2e565b909155505060408051878152602081018790526001600160a01b03808a1692600092918716917fc3d58168c5ae7397731d063d5bbf3d657854427343f4c083240f7aacaa2d0f62910160405180910390a461345d83600089898989613f1e565b60006040518060a0016040528060076000856060015160006002811061362657613626614c2b565b60200201516001600160a01b03166001600160a01b03168152602001908152602001600020548152602001836080015160006002811061366857613668614c2b565b602002015160ff168152602001613699846060015160006002811061368f5761368f614c2b565b6020020151611343565b6060015181526020016136c684606001516000600281106136bc576136bc614c2b565b6020020151610bdf565b6040015181526020016136e984606001516000600281106136bc576136bc614c2b565b60600151815250905060006040518060a0016040528060076000866060015160016002811061371a5761371a614c2b565b60200201516001600160a01b03166001600160a01b03168152602001908152602001600020548152602001846080015160016002811061375c5761375c614c2b565b602002015160ff168152602001613783856060015160016002811061368f5761368f614c2b565b6060015181526020016137a685606001516001600281106136bc576136bc614c2b565b6040015181526020016137c985606001516001600281106136bc576136bc614c2b565b606001519052604080518082019091526000808252602080830191909152840151919250906001148015613801575081602001516001145b1561395857816040015183606001511061383257606084015161382c9060005b602002015185612754565b50613c73565b826040015182606001511061385157606084015161382c906001613821565b8160600151600a84600001518154811061386d5761386d614c2b565b9060005260206000209060050201600301600082825461388d9190614f6f565b909155505060608301518251600a805490919081106138ae576138ae614c2b565b906000526020600020906005020160030160008282546138ce9190614f6f565b90915550508251600a80546003929081106138eb576138eb614c2b565b9060005260206000209060050201600201600082825461390b9190614f6f565b90915550508151600a805460039290811061392857613928614c2b565b906000526020600020906005020160020160008282546139489190614f6f565b9091555050506060830151613c73565b82602001516001148015613970575081602001516002145b15613aa75760008260800151836040015161398b9190614f2e565b9050808460600151106139b55760608501516139af9060005b602002015186612754565b5061382c565b60008460600151846080015111156139d2575060408301516139f8565b60608501516139e19083614f6f565b6060870151602001516001600160a01b0316845290505b80600a856000015181548110613a1057613a10614c2b565b9060005260206000209060050201600301819055506003600a866000015181548110613a3e57613a3e614c2b565b90600052602060002090600502016002016000828254613a5e9190614f6f565b90915550508351600a8054600392908110613a7b57613a7b614c2b565b90600052602060002090600502016002016000828254613a9b9190614f2e565b90915550505050613c73565b82602001516002148015613abf575081602001516001145b15613bda57600083608001518460400151613ada9190614f2e565b905080836060015110613af75760608501516139af9060016139a4565b6000836060015185608001511115613b1457506040840151613b37565b6060840151613b239083614f6f565b6060870151516001600160a01b0316845290505b80600a866000015181548110613b4f57613b4f614c2b565b9060005260206000209060050201600301819055506003600a866000015181548110613b7d57613b7d614c2b565b90600052602060002090600502016002016000828254613b9d9190614f2e565b90915550508351600a8054600392908110613bba57613bba614c2b565b90600052602060002090600502016002016000828254613a9b9190614f6f565b82602001516002148015613bf2575081602001516002145b15613c73576003600a846000015181548110613c1057613c10614c2b565b90600052602060002090600502016002016000828254613c309190614f2e565b90915550508151600a8054600392908110613c4d57613c4d614c2b565b90600052602060002090600502016002016000828254613c6d9190614f2e565b90915550505b7fc6bf860cbc15f7020f73993a671f01bbb1831a8a7a12c126ca735eb632e7577581604051613ca291906151a1565b60405180910390a16080840180516000908190529051602001526040840151613ccb9085612c16565b6000613cf3600a8660600151600060028110613ce957613ce9614c2b565b6020020151613466565b905080600b600860008860600151600060028110613d1357613d13614c2b565b60200201516001600160a01b03166001600160a01b031681526020019081526020016000205481548110613d4957613d49614c2b565b6000918252602090912060026004909202010155613d6881600a614f6f565b600b600860008860600151600060028110613d8557613d85614c2b565b60200201516001600160a01b03166001600160a01b031681526020019081526020016000205481548110613dbb57613dbb614c2b565b9060005260206000209060040201600301819055506000613dee600a8760600151600160028110613ce957613ce9614c2b565b905080600b600860008960600151600160028110613e0e57613e0e614c2b565b60200201516001600160a01b03166001600160a01b031681526020019081526020016000205481548110613e4457613e44614c2b565b6000918252602090912060026004909202010155613e6381600a614f6f565b600b600860008960600151600160028110613e8057613e80614c2b565b60200201516001600160a01b03166001600160a01b031681526020019081526020016000205481548110613eb657613eb6614c2b565b906000526020600020906004020160030181905550505050505050565b60408051600180825281830190925260609160009190602080830190803683370190505090508281600081518110613f0d57613f0d614c2b565b602090810291909101015292915050565b6001600160a01b0384163b156126fa5760405163f23a6e6160e01b81526001600160a01b0385169063f23a6e6190613f6290899089908890889088906004016151af565b6020604051808303816000875af1925050508015613f9d575060408051601f3d908101601f19168201909252613f9a91810190615097565b60015b613fa95761338d6150b4565b6001600160e01b0319811663f23a6e6160e01b1461345d5760405162461bcd60e51b815260040161097290615159565b6001600160a01b0385166140605760005b835181101561405e5782818151811061400557614005614c2b565b60200260200101516004600086848151811061402357614023614c2b565b6020026020010151815260200190815260200160002060008282546140489190614f2e565b90915550614057905081614dc7565b9050613fea565b505b6001600160a01b0384166126fa5760005b835181101561345d57600084828151811061408e5761408e614c2b565b6020026020010151905060008483815181106140ac576140ac614c2b565b602002602001015190506000600460008481526020019081526020016000205490508181101561412f5760405162461bcd60e51b815260206004820152602860248201527f455243313135353a206275726e20616d6f756e74206578636565647320746f74604482015267616c537570706c7960c01b6064820152608401610972565b6000928352600460205260409092209103905561414b81614dc7565b9050614071565b6040805160c081019091528060008152600060208201526060604082018190520161417b61427b565b815260200161418861427b565b8152600060209091015290565b82600281019282156141dd579160200282015b828111156141dd57825182546001600160a01b0319166001600160a01b039091161782556020909201916001909101906141a8565b506141e9929150614299565b5090565b6001830191839082156141dd5791602002820160005b8382111561424157835183826101000a81548160ff021916908360ff1602179055509260200192600101602081600001049283019260010302614203565b801561426e5782816101000a81549060ff0219169055600101602081600001049283019260010302614241565b50506141e9929150614299565b60405180604001604052806002906020820280368337509192915050565b5b808211156141e9576000815560010161429a565b80356001600160a01b0381168114610b4657600080fd5b600080604083850312156142d857600080fd5b6142e1836142ae565b946020939093013593505050565b60005b8381101561430a5781810151838201526020016142f2565b50506000910152565b6000815180845261432b8160208601602086016142ef565b601f01601f19169290920160200192915050565b60008151608084526143546080850182614313565b90506020830151602085015260408301516040850152606083015160608501528091505092915050565b6000602080830181845280855180835260408601915060408160051b870101925083870160005b828110156143d357603f198886030184526143c185835161433f565b945092850192908501906001016143a5565b5092979650505050505050565b6001600160e01b031981168114610b1457600080fd5b60006020828403121561440857600080fd5b8135614413816143e0565b9392505050565b634e487b7160e01b600052604160045260246000fd5b601f8201601f191681016001600160401b03811182821017156144555761445561441a565b6040525050565b600082601f83011261446d57600080fd5b81356001600160401b038111156144865761448661441a565b60405161449d601f8301601f191660200182614430565b8181528460208386010111156144b257600080fd5b816020850160208301376000918101602001919091529392505050565b6000602082840312156144e157600080fd5b81356001600160401b038111156144f757600080fd5b6134da8482850161445c565b60006020828403121561451557600080fd5b614413826142ae565b60006020828403121561453057600080fd5b5035919050565b6020815260006144136020830184614313565b602081526000614413602083018461433f565b634e487b7160e01b600052602160045260246000fd5b6003811061459157634e487b7160e01b600052602160045260246000fd5b9052565b8060005b60028110156120cd5781516001600160a01b0316845260209384019390910190600101614599565b60006101006145d1848451614573565b6020808401518186015260408401518260408701526145f283870182614313565b92505060608401516146076060870182614595565b50608084015160a0860160005b600281101561463457825160ff1682529183019190830190600101614614565b5050505060a08301516001600160a01b03811660e086015261133b565b60208152600061441360208301846145c1565b60006001600160401b0382111561467d5761467d61441a565b5060051b60200190565b600082601f83011261469857600080fd5b813560206146a582614664565b6040516146b28282614430565b83815260059390931b85018201928281019150868411156146d257600080fd5b8286015b848110156146ed57803583529183019183016146d6565b509695505050505050565b600080600080600060a0868803121561471057600080fd5b614719866142ae565b9450614727602087016142ae565b935060408601356001600160401b038082111561474357600080fd5b61474f89838a01614687565b9450606088013591508082111561476557600080fd5b61477189838a01614687565b9350608088013591508082111561478757600080fd5b506147948882890161445c565b9150509295509295909350565b600080604083850312156147b457600080fd5b82356001600160401b03808211156147cb57600080fd5b818501915085601f8301126147df57600080fd5b813560206147ec82614664565b6040516147f98282614430565b83815260059390931b850182019282810191508984111561481957600080fd5b948201945b8386101561483e5761482f866142ae565b8252948201949082019061481e565b9650508601359250508082111561485457600080fd5b5061486185828601614687565b9150509250929050565b600081518084526020808501945080840160005b8381101561489b5781518752958201959082019060010161487f565b509495945050505050565b602081526000614413602083018461486b565b60018060a01b0381511682526000602082015160a060208501526148e060a0850182614313565b905060408301516040850152606083015160608501526080830151151560808501528091505092915050565b60208152600061441360208301846148b9565b6000602080830181845280855180835260408601915060408160051b870101925083870160005b828110156143d357603f198886030184526149628583516145c1565b94509285019290850190600101614946565b61497e8186614573565b83602082015260806040820152600061499a6080830185614313565b905060018060a01b038316606083015295945050505050565b600080604083850312156149c657600080fd5b82356001600160401b03808211156149dd57600080fd5b6149e98683870161445c565b935060208501359150808211156149ff57600080fd5b506148618582860161445c565b60008060408385031215614a1f57600080fd5b614a28836142ae565b915060208301358015158114614a3d57600080fd5b809150509250929050565b60008060408385031215614a5b57600080fd5b823560ff81168114614a6c57600080fd5b915060208301356001600160401b03811115614a8757600080fd5b6148618582860161445c565b608081526000614aa66080830187614313565b6020830195909552506040810192909252606090910152919050565b60008060408385031215614ad557600080fd5b614ade836142ae565b9150614aec602084016142ae565b90509250929050565b6000602080830181845280855180835260408601915060408160051b870101925083870160005b828110156143d357603f19888603018452614b388583516148b9565b94509285019290850190600101614b1c565b600080600080600060a08688031215614b6257600080fd5b614b6b866142ae565b9450614b79602087016142ae565b9350604086013592506060860135915060808601356001600160401b03811115614ba257600080fd5b6147948882890161445c565b6001600160a01b038616815260a060208201819052600090614bd290830187614313565b6040830195909552506060810192909252151560809091015292915050565b600181811c90821680614c0557607f821691505b602082108103614c2557634e487b7160e01b600052602260045260246000fd5b50919050565b634e487b7160e01b600052603260045260246000fd5b60008251614c538184602087016142ef565b9190910192915050565b601f821115611a6f57600081815260208120601f850160051c81016020861015614c845750805b601f850160051c820191505b818110156126fa57828155600101614c90565b81516001600160401b03811115614cbc57614cbc61441a565b614cd081614cca8454614bf1565b84614c5d565b602080601f831160018114614d055760008415614ced5750858301515b600019600386901b1c1916600185901b1785556126fa565b600085815260208120601f198616915b82811015614d3457888601518255948401946001909101908401614d15565b5085821015614d525787850151600019600388901b60f8161c191681555b5050505050600190811b01905550565b6020808252602f908201527f455243313135353a2063616c6c6572206973206e6f7420746f6b656e206f776e60408201526e195c881b9bdc88185c1c1c9bdd9959608a1b606082015260800190565b634e487b7160e01b600052601160045260246000fd5b600060018201614dd957614dd9614db1565b5060010190565b60ff828116828216039081111561099e5761099e614db1565b6000808454614e0781614bf1565b60018281168015614e1f5760018114614e3457614e63565b60ff1984168752821515830287019450614e63565b8860005260208060002060005b85811015614e5a5781548a820152908401908201614e41565b50505082870194505b50602f60f81b845286519250614e7f8382860160208a016142ef565b64173539b7b760d91b939092019182019290925260060195945050505050565b60208082526025908201527f455243313135353a207472616e7366657220746f20746865207a65726f206164604082015264647265737360d81b606082015260800190565b6020808252602a908201527f455243313135353a20696e73756666696369656e742062616c616e636520666f60408201526939103a3930b739b332b960b11b606082015260800190565b8082018082111561099e5761099e614db1565b604081526000614f54604083018561486b565b8281036020840152614f66818561486b565b95945050505050565b8181038181111561099e5761099e614db1565b634e487b7160e01b600052601260045260246000fd5b600082614fa757614fa7614f82565b500690565b600060ff831680614fbf57614fbf614f82565b8060ff84160691505092915050565b600060ff821660ff8103614fe457614fe4614db1565b60010192915050565b600082614ffc57614ffc614f82565b500490565b600081600019048311821515161561501b5761501b614db1565b500290565b60ff818116838216019081111561099e5761099e614db1565b6001600160a01b0386811682528516602082015260a0604082018190526000906150659083018661486b565b8281036060840152615077818661486b565b9050828103608084015261508b8185614313565b98975050505050505050565b6000602082840312156150a957600080fd5b8151614413816143e0565b600060033d11156150cd5760046000803e5060005160e01c5b90565b600060443d10156150de5790565b6040516003193d81016004833e81513d6001600160401b03816024840111818411171561510d57505050505090565b82850191508151818111156151255750505050505090565b843d870101602082850101111561513f5750505050505090565b61514e60208286010187614430565b509095945050505050565b60208082526028908201527f455243313135353a204552433131353552656365697665722072656a656374656040820152676420746f6b656e7360c01b606082015260800190565b6040810161099e8284614595565b6001600160a01b03868116825285166020820152604081018490526060810183905260a0608082018190526000906151e990830184614313565b97965050505050505056fea26469706673582212200472b3bec543711983ff0bcc05f58dca4c81cf957ac8017bbb9aec75dca6b8f064736f6c63430008100033",
			"opcodes": "PUSH1 0x80 PUSH1 0x40 MSTORE CALLVALUE DUP1 ISZERO PUSH3 0x11 JUMPI PUSH1 0x0 DUP1 REVERT JUMPDEST POP PUSH1 0x40 MLOAD PUSH3 0x5902 CODESIZE SUB DUP1 PUSH3 0x5902 DUP4 CODECOPY DUP2 ADD PUSH1 0x40 DUP2 SWAP1 MSTORE PUSH3 0x34 SWAP2 PUSH3 0x482 JUMP JUMPDEST DUP1 PUSH3 0x40 DUP2 PUSH3 0x6C JUMP JUMPDEST POP PUSH3 0x4C CALLER PUSH3 0x7E JUMP JUMPDEST PUSH1 0x5 PUSH3 0x5A DUP3 DUP3 PUSH3 0x5E6 JUMP JUMPDEST POP PUSH3 0x65 PUSH3 0xD0 JUMP JUMPDEST POP PUSH3 0x6C8 JUMP JUMPDEST PUSH1 0x2 PUSH3 0x7A DUP3 DUP3 PUSH3 0x5E6 JUMP JUMPDEST POP POP JUMP JUMPDEST PUSH1 0x3 DUP1 SLOAD PUSH1 0x1 PUSH1 0x1 PUSH1 0xA0 SHL SUB DUP4 DUP2 AND PUSH1 0x1 PUSH1 0x1 PUSH1 0xA0 SHL SUB NOT DUP4 AND DUP2 OR SWAP1 SWAP4 SSTORE PUSH1 0x40 MLOAD SWAP2 AND SWAP2 SWAP1 DUP3 SWAP1 PUSH32 0x8BE0079C531659141344CD1FD0A4F28419497F9722A3DAAFE3B4186F6B6457E0 SWAP1 PUSH1 0x0 SWAP1 LOG3 POP POP JUMP JUMPDEST PUSH1 0x40 DUP1 MLOAD PUSH1 0xA0 DUP2 ADD DUP3 MSTORE PUSH1 0x0 PUSH1 0x80 DUP3 ADD DUP2 DUP2 MSTORE DUP3 MSTORE PUSH1 0x20 DUP3 ADD DUP2 SWAP1 MSTORE SWAP2 DUP2 ADD DUP3 SWAP1 MSTORE PUSH1 0x60 DUP2 ADD DUP3 SWAP1 MSTORE PUSH1 0xB DUP1 SLOAD PUSH1 0x1 DUP2 ADD DUP3 SSTORE SWAP3 MSTORE DUP1 MLOAD SWAP1 SWAP2 PUSH1 0x4 MUL PUSH32 0x175B7A638427703F0DBE7BB9BBF987A2551717B34E79F33B5B1008D1FA01DB9 ADD SWAP1 DUP2 SWAP1 PUSH3 0x13D SWAP1 DUP3 PUSH3 0x5E6 JUMP JUMPDEST POP PUSH1 0x20 DUP3 DUP2 ADD MLOAD PUSH1 0x1 DUP4 DUP2 ADD SWAP2 SWAP1 SWAP2 SSTORE PUSH1 0x40 DUP1 DUP6 ADD MLOAD PUSH1 0x2 DUP6 ADD SSTORE PUSH1 0x60 SWAP5 DUP6 ADD MLOAD PUSH1 0x3 SWAP1 SWAP5 ADD SWAP4 SWAP1 SWAP4 SSTORE DUP3 MLOAD PUSH1 0xA0 DUP2 ADD DUP5 MSTORE PUSH1 0x0 DUP1 DUP3 MSTORE DUP5 MLOAD DUP1 DUP6 ADD DUP7 MSTORE DUP2 DUP2 MSTORE SWAP4 DUP3 ADD SWAP4 DUP5 MSTORE SWAP4 DUP2 ADD DUP5 SWAP1 MSTORE SWAP4 DUP5 ADD DUP4 SWAP1 MSTORE PUSH1 0x80 DUP5 ADD DUP4 SWAP1 MSTORE PUSH1 0xA DUP1 SLOAD SWAP2 DUP3 ADD DUP2 SSTORE SWAP1 SWAP3 MSTORE DUP3 MLOAD PUSH32 0xC65A7BB8D6351C1CF70C95A316CC6A92839C986682D98BC35F958F4883F9D2A8 PUSH1 0x5 SWAP1 SWAP4 MUL SWAP3 DUP4 ADD DUP1 SLOAD PUSH1 0x1 PUSH1 0x1 PUSH1 0xA0 SHL SUB NOT AND PUSH1 0x1 PUSH1 0x1 PUSH1 0xA0 SHL SUB SWAP1 SWAP3 AND SWAP2 SWAP1 SWAP2 OR DUP2 SSTORE SWAP1 MLOAD SWAP1 SWAP2 PUSH32 0xC65A7BB8D6351C1CF70C95A316CC6A92839C986682D98BC35F958F4883F9D2A9 ADD SWAP1 PUSH3 0x21E SWAP1 DUP3 PUSH3 0x5E6 JUMP JUMPDEST POP PUSH1 0x40 DUP3 DUP2 ADD MLOAD PUSH1 0x2 DUP4 ADD SSTORE PUSH1 0x60 DUP4 ADD MLOAD PUSH1 0x3 DUP4 ADD SSTORE PUSH1 0x80 SWAP1 SWAP3 ADD MLOAD PUSH1 0x4 SWAP1 SWAP2 ADD DUP1 SLOAD PUSH1 0xFF NOT AND SWAP2 ISZERO ISZERO SWAP2 SWAP1 SWAP2 OR SWAP1 SSTORE DUP1 MLOAD PUSH1 0xC0 DUP2 ADD SWAP1 SWAP2 MSTORE PUSH1 0xC SWAP1 DUP1 PUSH1 0x0 DUP2 MSTORE PUSH1 0x0 PUSH1 0x20 DUP1 DUP4 ADD DUP3 SWAP1 MSTORE PUSH1 0x40 DUP1 MLOAD DUP1 DUP4 ADD DUP3 MSTORE DUP4 DUP2 MSTORE DUP2 DUP6 ADD MSTORE DUP1 MLOAD DUP1 DUP3 ADD DUP3 MSTORE DUP4 DUP2 MSTORE DUP1 DUP4 ADD DUP5 SWAP1 MSTORE PUSH1 0x60 DUP6 ADD MSTORE DUP1 MLOAD DUP1 DUP3 ADD SWAP1 SWAP2 MSTORE DUP3 DUP2 MSTORE DUP1 DUP3 ADD DUP4 SWAP1 MSTORE PUSH1 0x80 DUP5 ADD MSTORE PUSH1 0xA0 SWAP1 SWAP3 ADD DUP2 SWAP1 MSTORE DUP4 SLOAD PUSH1 0x1 DUP2 DUP2 ADD DUP7 SSTORE SWAP5 DUP3 MSTORE SWAP2 SWAP1 KECCAK256 DUP3 MLOAD PUSH1 0x7 SWAP1 SWAP3 MUL ADD DUP1 SLOAD SWAP3 SWAP4 SWAP1 SWAP3 DUP4 SWAP2 PUSH1 0xFF NOT SWAP1 SWAP2 AND SWAP1 DUP4 PUSH1 0x2 DUP2 GT ISZERO PUSH3 0x2E7 JUMPI PUSH3 0x2E7 PUSH3 0x6B2 JUMP JUMPDEST MUL OR SWAP1 SSTORE POP PUSH1 0x20 DUP3 ADD MLOAD PUSH1 0x1 DUP3 ADD SSTORE PUSH1 0x40 DUP3 ADD MLOAD PUSH1 0x2 DUP3 ADD SWAP1 PUSH3 0x30C SWAP1 DUP3 PUSH3 0x5E6 JUMP JUMPDEST POP PUSH1 0x60 DUP3 ADD MLOAD PUSH3 0x324 SWAP1 PUSH1 0x3 DUP4 ADD SWAP1 PUSH1 0x2 PUSH3 0x368 JUMP JUMPDEST POP PUSH1 0x80 DUP3 ADD MLOAD PUSH3 0x33C SWAP1 PUSH1 0x5 DUP4 ADD SWAP1 PUSH1 0x2 PUSH3 0x3C5 JUMP JUMPDEST POP PUSH1 0xA0 SWAP2 SWAP1 SWAP2 ADD MLOAD PUSH1 0x6 SWAP1 SWAP2 ADD DUP1 SLOAD PUSH1 0x1 PUSH1 0x1 PUSH1 0xA0 SHL SUB NOT AND PUSH1 0x1 PUSH1 0x1 PUSH1 0xA0 SHL SUB SWAP1 SWAP3 AND SWAP2 SWAP1 SWAP2 OR SWAP1 SSTORE JUMP JUMPDEST DUP3 PUSH1 0x2 DUP2 ADD SWAP3 DUP3 ISZERO PUSH3 0x3B3 JUMPI SWAP2 PUSH1 0x20 MUL DUP3 ADD JUMPDEST DUP3 DUP2 GT ISZERO PUSH3 0x3B3 JUMPI DUP3 MLOAD DUP3 SLOAD PUSH1 0x1 PUSH1 0x1 PUSH1 0xA0 SHL SUB NOT AND PUSH1 0x1 PUSH1 0x1 PUSH1 0xA0 SHL SUB SWAP1 SWAP2 AND OR DUP3 SSTORE PUSH1 0x20 SWAP1 SWAP3 ADD SWAP2 PUSH1 0x1 SWAP1 SWAP2 ADD SWAP1 PUSH3 0x37C JUMP JUMPDEST POP PUSH3 0x3C1 SWAP3 SWAP2 POP PUSH3 0x455 JUMP JUMPDEST POP SWAP1 JUMP JUMPDEST PUSH1 0x1 DUP4 ADD SWAP2 DUP4 SWAP1 DUP3 ISZERO PUSH3 0x3B3 JUMPI SWAP2 PUSH1 0x20 MUL DUP3 ADD PUSH1 0x0 JUMPDEST DUP4 DUP3 GT ISZERO PUSH3 0x41C JUMPI DUP4 MLOAD DUP4 DUP3 PUSH2 0x100 EXP DUP2 SLOAD DUP2 PUSH1 0xFF MUL NOT AND SWAP1 DUP4 PUSH1 0xFF AND MUL OR SWAP1 SSTORE POP SWAP3 PUSH1 0x20 ADD SWAP3 PUSH1 0x1 ADD PUSH1 0x20 DUP2 PUSH1 0x0 ADD DIV SWAP3 DUP4 ADD SWAP3 PUSH1 0x1 SUB MUL PUSH3 0x3DC JUMP JUMPDEST DUP1 ISZERO PUSH3 0x44B JUMPI DUP3 DUP2 PUSH2 0x100 EXP DUP2 SLOAD SWAP1 PUSH1 0xFF MUL NOT AND SWAP1 SSTORE PUSH1 0x1 ADD PUSH1 0x20 DUP2 PUSH1 0x0 ADD DIV SWAP3 DUP4 ADD SWAP3 PUSH1 0x1 SUB MUL PUSH3 0x41C JUMP JUMPDEST POP POP PUSH3 0x3C1 SWAP3 SWAP2 POP JUMPDEST JUMPDEST DUP1 DUP3 GT ISZERO PUSH3 0x3C1 JUMPI PUSH1 0x0 DUP2 SSTORE PUSH1 0x1 ADD PUSH3 0x456 JUMP JUMPDEST PUSH4 0x4E487B71 PUSH1 0xE0 SHL PUSH1 0x0 MSTORE PUSH1 0x41 PUSH1 0x4 MSTORE PUSH1 0x24 PUSH1 0x0 REVERT JUMPDEST PUSH1 0x0 PUSH1 0x20 DUP1 DUP4 DUP6 SUB SLT ISZERO PUSH3 0x496 JUMPI PUSH1 0x0 DUP1 REVERT JUMPDEST DUP3 MLOAD PUSH1 0x1 PUSH1 0x1 PUSH1 0x40 SHL SUB DUP1 DUP3 GT ISZERO PUSH3 0x4AE JUMPI PUSH1 0x0 DUP1 REVERT JUMPDEST DUP2 DUP6 ADD SWAP2 POP DUP6 PUSH1 0x1F DUP4 ADD SLT PUSH3 0x4C3 JUMPI PUSH1 0x0 DUP1 REVERT JUMPDEST DUP2 MLOAD DUP2 DUP2 GT ISZERO PUSH3 0x4D8 JUMPI PUSH3 0x4D8 PUSH3 0x46C JUMP JUMPDEST PUSH1 0x40 MLOAD PUSH1 0x1F DUP3 ADD PUSH1 0x1F NOT SWAP1 DUP2 AND PUSH1 0x3F ADD AND DUP2 ADD SWAP1 DUP4 DUP3 GT DUP2 DUP4 LT OR ISZERO PUSH3 0x503 JUMPI PUSH3 0x503 PUSH3 0x46C JUMP JUMPDEST DUP2 PUSH1 0x40 MSTORE DUP3 DUP2 MSTORE DUP9 DUP7 DUP5 DUP8 ADD ADD GT ISZERO PUSH3 0x51C JUMPI PUSH1 0x0 DUP1 REVERT JUMPDEST PUSH1 0x0 SWAP4 POP JUMPDEST DUP3 DUP5 LT ISZERO PUSH3 0x540 JUMPI DUP5 DUP5 ADD DUP7 ADD MLOAD DUP2 DUP6 ADD DUP8 ADD MSTORE SWAP3 DUP6 ADD SWAP3 PUSH3 0x521 JUMP JUMPDEST PUSH1 0x0 DUP7 DUP5 DUP4 ADD ADD MSTORE DUP1 SWAP7 POP POP POP POP POP POP POP SWAP3 SWAP2 POP POP JUMP JUMPDEST PUSH1 0x1 DUP2 DUP2 SHR SWAP1 DUP3 AND DUP1 PUSH3 0x56C JUMPI PUSH1 0x7F DUP3 AND SWAP2 POP JUMPDEST PUSH1 0x20 DUP3 LT DUP2 SUB PUSH3 0x58D JUMPI PUSH4 0x4E487B71 PUSH1 0xE0 SHL PUSH1 0x0 MSTORE PUSH1 0x22 PUSH1 0x4 MSTORE PUSH1 0x24 PUSH1 0x0 REVERT JUMPDEST POP SWAP2 SWAP1 POP JUMP JUMPDEST PUSH1 0x1F DUP3 GT ISZERO PUSH3 0x5E1 JUMPI PUSH1 0x0 DUP2 DUP2 MSTORE PUSH1 0x20 DUP2 KECCAK256 PUSH1 0x1F DUP6 ADD PUSH1 0x5 SHR DUP2 ADD PUSH1 0x20 DUP7 LT ISZERO PUSH3 0x5BC JUMPI POP DUP1 JUMPDEST PUSH1 0x1F DUP6 ADD PUSH1 0x5 SHR DUP3 ADD SWAP2 POP JUMPDEST DUP2 DUP2 LT ISZERO PUSH3 0x5DD JUMPI DUP3 DUP2 SSTORE PUSH1 0x1 ADD PUSH3 0x5C8 JUMP JUMPDEST POP POP POP JUMPDEST POP POP POP JUMP JUMPDEST DUP2 MLOAD PUSH1 0x1 PUSH1 0x1 PUSH1 0x40 SHL SUB DUP2 GT ISZERO PUSH3 0x602 JUMPI PUSH3 0x602 PUSH3 0x46C JUMP JUMPDEST PUSH3 0x61A DUP2 PUSH3 0x613 DUP5 SLOAD PUSH3 0x557 JUMP JUMPDEST DUP5 PUSH3 0x593 JUMP JUMPDEST PUSH1 0x20 DUP1 PUSH1 0x1F DUP4 GT PUSH1 0x1 DUP2 EQ PUSH3 0x652 JUMPI PUSH1 0x0 DUP5 ISZERO PUSH3 0x639 JUMPI POP DUP6 DUP4 ADD MLOAD JUMPDEST PUSH1 0x0 NOT PUSH1 0x3 DUP7 SWAP1 SHL SHR NOT AND PUSH1 0x1 DUP6 SWAP1 SHL OR DUP6 SSTORE PUSH3 0x5DD JUMP JUMPDEST PUSH1 0x0 DUP6 DUP2 MSTORE PUSH1 0x20 DUP2 KECCAK256 PUSH1 0x1F NOT DUP7 AND SWAP2 JUMPDEST DUP3 DUP2 LT ISZERO PUSH3 0x683 JUMPI DUP9 DUP7 ADD MLOAD DUP3 SSTORE SWAP5 DUP5 ADD SWAP5 PUSH1 0x1 SWAP1 SWAP2 ADD SWAP1 DUP5 ADD PUSH3 0x662 JUMP JUMPDEST POP DUP6 DUP3 LT ISZERO PUSH3 0x6A2 JUMPI DUP8 DUP6 ADD MLOAD PUSH1 0x0 NOT PUSH1 0x3 DUP9 SWAP1 SHL PUSH1 0xF8 AND SHR NOT AND DUP2 SSTORE JUMPDEST POP POP POP POP POP PUSH1 0x1 SWAP1 DUP2 SHL ADD SWAP1 SSTORE POP JUMP JUMPDEST PUSH4 0x4E487B71 PUSH1 0xE0 SHL PUSH1 0x0 MSTORE PUSH1 0x21 PUSH1 0x4 MSTORE PUSH1 0x24 PUSH1 0x0 REVERT JUMPDEST PUSH2 0x522A DUP1 PUSH3 0x6D8 PUSH1 0x0 CODECOPY PUSH1 0x0 RETURN INVALID PUSH1 0x80 PUSH1 0x40 MSTORE PUSH1 0x4 CALLDATASIZE LT PUSH2 0x272 JUMPI PUSH1 0x0 CALLDATALOAD PUSH1 0xE0 SHR DUP1 PUSH4 0x703730A5 GT PUSH2 0x14E JUMPI DUP1 PUSH4 0xBF034B69 GT PUSH2 0xBB JUMPI DUP1 PUSH4 0xE985E9C5 GT PUSH2 0x77 JUMPI DUP1 PUSH4 0xE985E9C5 EQ PUSH2 0x81A JUMPI DUP1 PUSH4 0xEFA1C482 EQ PUSH2 0x863 JUMPI DUP1 PUSH4 0xF1DA7339 EQ PUSH2 0x885 JUMPI DUP1 PUSH4 0xF242432A EQ PUSH2 0x89A JUMPI DUP1 PUSH4 0xF2FDE38B EQ PUSH2 0x8BA JUMPI DUP1 PUSH4 0xF71D96CB EQ PUSH2 0x8DA JUMPI STOP JUMPDEST DUP1 PUSH4 0xBF034B69 EQ PUSH2 0x76B JUMPI DUP1 PUSH4 0xBF103A4D EQ PUSH2 0x79B JUMPI DUP1 PUSH4 0xC4E41B22 EQ PUSH2 0x7BB JUMPI DUP1 PUSH4 0xC87B56DD EQ PUSH2 0x7D0 JUMPI DUP1 PUSH4 0xD2198CC5 EQ PUSH2 0x7F0 JUMPI DUP1 PUSH4 0xDE96CEFC EQ PUSH2 0x805 JUMPI STOP JUMPDEST DUP1 PUSH4 0x9E4ECD11 GT PUSH2 0x10A JUMPI DUP1 PUSH4 0x9E4ECD11 EQ PUSH2 0x6A9 JUMPI DUP1 PUSH4 0x9EC40AA3 EQ PUSH2 0x6BE JUMPI DUP1 PUSH4 0xA1B4F57C EQ PUSH2 0x6DE JUMPI DUP1 PUSH4 0xA22CB465 EQ PUSH2 0x6FE JUMPI DUP1 PUSH4 0xBA274956 EQ PUSH2 0x71E JUMPI DUP1 PUSH4 0xBD85B039 EQ PUSH2 0x73E JUMPI STOP JUMPDEST DUP1 PUSH4 0x703730A5 EQ PUSH2 0x5E2 JUMPI DUP1 PUSH4 0x715018A6 EQ PUSH2 0x5F7 JUMPI DUP1 PUSH4 0x845F433B EQ PUSH2 0x60C JUMPI DUP1 PUSH4 0x8DA5CB5B EQ PUSH2 0x62C JUMPI DUP1 PUSH4 0x996D7BEA EQ PUSH2 0x654 JUMPI DUP1 PUSH4 0x9B09CC87 EQ PUSH2 0x674 JUMPI STOP JUMPDEST DUP1 PUSH4 0x18160DDD GT PUSH2 0x1EC JUMPI DUP1 PUSH4 0x4E1273F4 GT PUSH2 0x1A8 JUMPI DUP1 PUSH4 0x4E1273F4 EQ PUSH2 0x4F2 JUMPI DUP1 PUSH4 0x4F558E79 EQ PUSH2 0x51F JUMPI DUP1 PUSH4 0x5C12CD4B EQ PUSH2 0x54E JUMPI DUP1 PUSH4 0x5C93FC3D EQ PUSH2 0x57B JUMPI DUP1 PUSH4 0x606D2E96 EQ PUSH2 0x59D JUMPI DUP1 PUSH4 0x6C0360EB EQ PUSH2 0x5CD JUMPI STOP JUMPDEST DUP1 PUSH4 0x18160DDD EQ PUSH2 0x40A JUMPI DUP1 PUSH4 0x2711162E EQ PUSH2 0x420 JUMPI DUP1 PUSH4 0x2CA04522 EQ PUSH2 0x44D JUMPI DUP1 PUSH4 0x2EB2C2D6 EQ PUSH2 0x46D JUMPI DUP1 PUSH4 0x3835E2B5 EQ PUSH2 0x48D JUMPI DUP1 PUSH4 0x4B114691 EQ PUSH2 0x4C5 JUMPI STOP JUMPDEST DUP1 PUSH4 0x9C95E10 GT PUSH2 0x23B JUMPI DUP1 PUSH4 0x9C95E10 EQ PUSH2 0x32E JUMPI DUP1 PUSH4 0xDAEA2CD EQ PUSH2 0x34E JUMPI DUP1 PUSH4 0xE89341C EQ PUSH2 0x363 JUMPI DUP1 PUSH4 0x10898E4C EQ PUSH2 0x390 JUMPI DUP1 PUSH4 0x1107AE3D EQ PUSH2 0x3BD JUMPI DUP1 PUSH4 0x16801D17 EQ PUSH2 0x3DD JUMPI STOP JUMPDEST DUP1 PUSH3 0xFDD58E EQ PUSH2 0x274 JUMPI DUP1 PUSH4 0x15A3792 EQ PUSH2 0x2A7 JUMPI DUP1 PUSH4 0x1FFC9A7 EQ PUSH2 0x2C9 JUMPI DUP1 PUSH4 0x2FE5305 EQ PUSH2 0x2F9 JUMPI DUP1 PUSH4 0x677AA4E EQ PUSH2 0x319 JUMPI JUMPDEST STOP JUMPDEST CALLVALUE DUP1 ISZERO PUSH2 0x280 JUMPI PUSH1 0x0 DUP1 REVERT JUMPDEST POP PUSH2 0x294 PUSH2 0x28F CALLDATASIZE PUSH1 0x4 PUSH2 0x42C5 JUMP JUMPDEST PUSH2 0x90B JUMP JUMPDEST PUSH1 0x40 MLOAD SWAP1 DUP2 MSTORE PUSH1 0x20 ADD JUMPDEST PUSH1 0x40 MLOAD DUP1 SWAP2 SUB SWAP1 RETURN JUMPDEST CALLVALUE DUP1 ISZERO PUSH2 0x2B3 JUMPI PUSH1 0x0 DUP1 REVERT JUMPDEST POP PUSH2 0x2BC PUSH2 0x9A4 JUMP JUMPDEST PUSH1 0x40 MLOAD PUSH2 0x29E SWAP2 SWAP1 PUSH2 0x437E JUMP JUMPDEST CALLVALUE DUP1 ISZERO PUSH2 0x2D5 JUMPI PUSH1 0x0 DUP1 REVERT JUMPDEST POP PUSH2 0x2E9 PUSH2 0x2E4 CALLDATASIZE PUSH1 0x4 PUSH2 0x43F6 JUMP JUMPDEST PUSH2 0xAB3 JUMP JUMPDEST PUSH1 0x40 MLOAD SWAP1 ISZERO ISZERO DUP2 MSTORE PUSH1 0x20 ADD PUSH2 0x29E JUMP JUMPDEST CALLVALUE DUP1 ISZERO PUSH2 0x305 JUMPI PUSH1 0x0 DUP1 REVERT JUMPDEST POP PUSH2 0x272 PUSH2 0x314 CALLDATASIZE PUSH1 0x4 PUSH2 0x44CF JUMP JUMPDEST PUSH2 0xB03 JUMP JUMPDEST CALLVALUE DUP1 ISZERO PUSH2 0x325 JUMPI PUSH1 0x0 DUP1 REVERT JUMPDEST POP PUSH2 0x294 PUSH1 0x3 DUP2 JUMP JUMPDEST CALLVALUE DUP1 ISZERO PUSH2 0x33A JUMPI PUSH1 0x0 DUP1 REVERT JUMPDEST POP PUSH2 0x2E9 PUSH2 0x349 CALLDATASIZE PUSH1 0x4 PUSH2 0x4503 JUMP JUMPDEST PUSH2 0xB17 JUMP JUMPDEST CALLVALUE DUP1 ISZERO PUSH2 0x35A JUMPI PUSH1 0x0 DUP1 REVERT JUMPDEST POP PUSH2 0x294 PUSH1 0xA DUP2 JUMP JUMPDEST CALLVALUE DUP1 ISZERO PUSH2 0x36F JUMPI PUSH1 0x0 DUP1 REVERT JUMPDEST POP PUSH2 0x383 PUSH2 0x37E CALLDATASIZE PUSH1 0x4 PUSH2 0x451E JUMP JUMPDEST PUSH2 0xB4B JUMP JUMPDEST PUSH1 0x40 MLOAD PUSH2 0x29E SWAP2 SWAP1 PUSH2 0x4537 JUMP JUMPDEST CALLVALUE DUP1 ISZERO PUSH2 0x39C JUMPI PUSH1 0x0 DUP1 REVERT JUMPDEST POP PUSH2 0x3B0 PUSH2 0x3AB CALLDATASIZE PUSH1 0x4 PUSH2 0x4503 JUMP JUMPDEST PUSH2 0xBDF JUMP JUMPDEST PUSH1 0x40 MLOAD PUSH2 0x29E SWAP2 SWAP1 PUSH2 0x454A JUMP JUMPDEST CALLVALUE DUP1 ISZERO PUSH2 0x3C9 JUMPI PUSH1 0x0 DUP1 REVERT JUMPDEST POP PUSH2 0x2E9 PUSH2 0x3D8 CALLDATASIZE PUSH1 0x4 PUSH2 0x44CF JUMP JUMPDEST PUSH2 0xD5D JUMP JUMPDEST CALLVALUE DUP1 ISZERO PUSH2 0x3E9 JUMPI PUSH1 0x0 DUP1 REVERT JUMPDEST POP PUSH2 0x3FD PUSH2 0x3F8 CALLDATASIZE PUSH1 0x4 PUSH2 0x44CF JUMP JUMPDEST PUSH2 0xD8D JUMP JUMPDEST PUSH1 0x40 MLOAD PUSH2 0x29E SWAP2 SWAP1 PUSH2 0x4651 JUMP JUMPDEST CALLVALUE DUP1 ISZERO PUSH2 0x416 JUMPI PUSH1 0x0 DUP1 REVERT JUMPDEST POP PUSH2 0x294 PUSH1 0x6 SLOAD DUP2 JUMP JUMPDEST CALLVALUE DUP1 ISZERO PUSH2 0x42C JUMPI PUSH1 0x0 DUP1 REVERT JUMPDEST POP PUSH2 0x294 PUSH2 0x43B CALLDATASIZE PUSH1 0x4 PUSH2 0x4503 JUMP JUMPDEST PUSH1 0x8 PUSH1 0x20 MSTORE PUSH1 0x0 SWAP1 DUP2 MSTORE PUSH1 0x40 SWAP1 KECCAK256 SLOAD DUP2 JUMP JUMPDEST CALLVALUE DUP1 ISZERO PUSH2 0x459 JUMPI PUSH1 0x0 DUP1 REVERT JUMPDEST POP PUSH2 0x3FD PUSH2 0x468 CALLDATASIZE PUSH1 0x4 PUSH2 0x44CF JUMP JUMPDEST PUSH2 0xFA8 JUMP JUMPDEST CALLVALUE DUP1 ISZERO PUSH2 0x479 JUMPI PUSH1 0x0 DUP1 REVERT JUMPDEST POP PUSH2 0x272 PUSH2 0x488 CALLDATASIZE PUSH1 0x4 PUSH2 0x46F8 JUMP JUMPDEST PUSH2 0x11CE JUMP JUMPDEST CALLVALUE DUP1 ISZERO PUSH2 0x499 JUMPI PUSH1 0x0 DUP1 REVERT JUMPDEST POP PUSH2 0x294 PUSH2 0x4A8 CALLDATASIZE PUSH1 0x4 PUSH2 0x44CF JUMP JUMPDEST DUP1 MLOAD PUSH1 0x20 DUP2 DUP4 ADD DUP2 ADD DUP1 MLOAD PUSH1 0x9 DUP3 MSTORE SWAP3 DUP3 ADD SWAP2 SWAP1 SWAP4 ADD KECCAK256 SWAP2 MSTORE SLOAD DUP2 JUMP JUMPDEST CALLVALUE DUP1 ISZERO PUSH2 0x4D1 JUMPI PUSH1 0x0 DUP1 REVERT JUMPDEST POP PUSH2 0x294 PUSH2 0x4E0 CALLDATASIZE PUSH1 0x4 PUSH2 0x4503 JUMP JUMPDEST PUSH1 0x7 PUSH1 0x20 MSTORE PUSH1 0x0 SWAP1 DUP2 MSTORE PUSH1 0x40 SWAP1 KECCAK256 SLOAD DUP2 JUMP JUMPDEST CALLVALUE DUP1 ISZERO PUSH2 0x4FE JUMPI PUSH1 0x0 DUP1 REVERT JUMPDEST POP PUSH2 0x512 PUSH2 0x50D CALLDATASIZE PUSH1 0x4 PUSH2 0x47A1 JUMP JUMPDEST PUSH2 0x121A JUMP JUMPDEST PUSH1 0x40 MLOAD PUSH2 0x29E SWAP2 SWAP1 PUSH2 0x48A6 JUMP JUMPDEST CALLVALUE DUP1 ISZERO PUSH2 0x52B JUMPI PUSH1 0x0 DUP1 REVERT JUMPDEST POP PUSH2 0x2E9 PUSH2 0x53A CALLDATASIZE PUSH1 0x4 PUSH2 0x451E JUMP JUMPDEST PUSH1 0x0 SWAP1 DUP2 MSTORE PUSH1 0x4 PUSH1 0x20 MSTORE PUSH1 0x40 SWAP1 KECCAK256 SLOAD ISZERO ISZERO SWAP1 JUMP JUMPDEST CALLVALUE DUP1 ISZERO PUSH2 0x55A JUMPI PUSH1 0x0 DUP1 REVERT JUMPDEST POP PUSH2 0x56E PUSH2 0x569 CALLDATASIZE PUSH1 0x4 PUSH2 0x4503 JUMP JUMPDEST PUSH2 0x1343 JUMP JUMPDEST PUSH1 0x40 MLOAD PUSH2 0x29E SWAP2 SWAP1 PUSH2 0x490C JUMP JUMPDEST CALLVALUE DUP1 ISZERO PUSH2 0x587 JUMPI PUSH1 0x0 DUP1 REVERT JUMPDEST POP PUSH2 0x590 PUSH2 0x14E7 JUMP JUMPDEST PUSH1 0x40 MLOAD PUSH2 0x29E SWAP2 SWAP1 PUSH2 0x491F JUMP JUMPDEST CALLVALUE DUP1 ISZERO PUSH2 0x5A9 JUMPI PUSH1 0x0 DUP1 REVERT JUMPDEST POP PUSH2 0x5BD PUSH2 0x5B8 CALLDATASIZE PUSH1 0x4 PUSH2 0x451E JUMP JUMPDEST PUSH2 0x16B2 JUMP JUMPDEST PUSH1 0x40 MLOAD PUSH2 0x29E SWAP5 SWAP4 SWAP3 SWAP2 SWAP1 PUSH2 0x4974 JUMP JUMPDEST CALLVALUE DUP1 ISZERO PUSH2 0x5D9 JUMPI PUSH1 0x0 DUP1 REVERT JUMPDEST POP PUSH2 0x383 PUSH2 0x1784 JUMP JUMPDEST CALLVALUE DUP1 ISZERO PUSH2 0x5EE JUMPI PUSH1 0x0 DUP1 REVERT JUMPDEST POP PUSH2 0x294 PUSH1 0x2 DUP2 JUMP JUMPDEST CALLVALUE DUP1 ISZERO PUSH2 0x603 JUMPI PUSH1 0x0 DUP1 REVERT JUMPDEST POP PUSH2 0x272 PUSH2 0x1812 JUMP JUMPDEST CALLVALUE DUP1 ISZERO PUSH2 0x618 JUMPI PUSH1 0x0 DUP1 REVERT JUMPDEST POP PUSH2 0x272 PUSH2 0x627 CALLDATASIZE PUSH1 0x4 PUSH2 0x49B3 JUMP JUMPDEST PUSH2 0x1826 JUMP JUMPDEST CALLVALUE DUP1 ISZERO PUSH2 0x638 JUMPI PUSH1 0x0 DUP1 REVERT JUMPDEST POP PUSH1 0x3 SLOAD PUSH1 0x40 MLOAD PUSH1 0x1 PUSH1 0x1 PUSH1 0xA0 SHL SUB SWAP1 SWAP2 AND DUP2 MSTORE PUSH1 0x20 ADD PUSH2 0x29E JUMP JUMPDEST CALLVALUE DUP1 ISZERO PUSH2 0x660 JUMPI PUSH1 0x0 DUP1 REVERT JUMPDEST POP PUSH2 0x272 PUSH2 0x66F CALLDATASIZE PUSH1 0x4 PUSH2 0x44CF JUMP JUMPDEST PUSH2 0x19BD JUMP JUMPDEST CALLVALUE DUP1 ISZERO PUSH2 0x680 JUMPI PUSH1 0x0 DUP1 REVERT JUMPDEST POP PUSH2 0x694 PUSH2 0x68F CALLDATASIZE PUSH1 0x4 PUSH2 0x44CF JUMP JUMPDEST PUSH2 0x1A84 JUMP JUMPDEST PUSH1 0x40 DUP1 MLOAD SWAP3 DUP4 MSTORE PUSH1 0x20 DUP4 ADD SWAP2 SWAP1 SWAP2 MSTORE ADD PUSH2 0x29E JUMP JUMPDEST CALLVALUE DUP1 ISZERO PUSH2 0x6B5 JUMPI PUSH1 0x0 DUP1 REVERT JUMPDEST POP PUSH2 0x294 PUSH1 0x5 DUP2 JUMP JUMPDEST CALLVALUE DUP1 ISZERO PUSH2 0x6CA JUMPI PUSH1 0x0 DUP1 REVERT JUMPDEST POP PUSH2 0x272 PUSH2 0x6D9 CALLDATASIZE PUSH1 0x4 PUSH2 0x44CF JUMP JUMPDEST PUSH2 0x1AAE JUMP JUMPDEST CALLVALUE DUP1 ISZERO PUSH2 0x6EA JUMPI PUSH1 0x0 DUP1 REVERT JUMPDEST POP PUSH2 0x3FD PUSH2 0x6F9 CALLDATASIZE PUSH1 0x4 PUSH2 0x44CF JUMP JUMPDEST PUSH2 0x1B62 JUMP JUMPDEST CALLVALUE DUP1 ISZERO PUSH2 0x70A JUMPI PUSH1 0x0 DUP1 REVERT JUMPDEST POP PUSH2 0x272 PUSH2 0x719 CALLDATASIZE PUSH1 0x4 PUSH2 0x4A0C JUMP JUMPDEST PUSH2 0x1DD1 JUMP JUMPDEST CALLVALUE DUP1 ISZERO PUSH2 0x72A JUMPI PUSH1 0x0 DUP1 REVERT JUMPDEST POP PUSH2 0x272 PUSH2 0x739 CALLDATASIZE PUSH1 0x4 PUSH2 0x4A48 JUMP JUMPDEST PUSH2 0x1DDC JUMP JUMPDEST CALLVALUE DUP1 ISZERO PUSH2 0x74A JUMPI PUSH1 0x0 DUP1 REVERT JUMPDEST POP PUSH2 0x294 PUSH2 0x759 CALLDATASIZE PUSH1 0x4 PUSH2 0x451E JUMP JUMPDEST PUSH1 0x0 SWAP1 DUP2 MSTORE PUSH1 0x4 PUSH1 0x20 MSTORE PUSH1 0x40 SWAP1 KECCAK256 SLOAD SWAP1 JUMP JUMPDEST CALLVALUE DUP1 ISZERO PUSH2 0x777 JUMPI PUSH1 0x0 DUP1 REVERT JUMPDEST POP PUSH2 0x78B PUSH2 0x786 CALLDATASIZE PUSH1 0x4 PUSH2 0x451E JUMP JUMPDEST PUSH2 0x20D3 JUMP JUMPDEST PUSH1 0x40 MLOAD PUSH2 0x29E SWAP5 SWAP4 SWAP3 SWAP2 SWAP1 PUSH2 0x4A93 JUMP JUMPDEST CALLVALUE DUP1 ISZERO PUSH2 0x7A7 JUMPI PUSH1 0x0 DUP1 REVERT JUMPDEST POP PUSH2 0x2E9 PUSH2 0x7B6 CALLDATASIZE PUSH1 0x4 PUSH2 0x4503 JUMP JUMPDEST PUSH2 0x219B JUMP JUMPDEST CALLVALUE DUP1 ISZERO PUSH2 0x7C7 JUMPI PUSH1 0x0 DUP1 REVERT JUMPDEST POP PUSH1 0x6 SLOAD PUSH2 0x294 JUMP JUMPDEST CALLVALUE DUP1 ISZERO PUSH2 0x7DC JUMPI PUSH1 0x0 DUP1 REVERT JUMPDEST POP PUSH2 0x383 PUSH2 0x7EB CALLDATASIZE PUSH1 0x4 PUSH2 0x451E JUMP JUMPDEST PUSH2 0x21C2 JUMP JUMPDEST CALLVALUE DUP1 ISZERO PUSH2 0x7FC JUMPI PUSH1 0x0 DUP1 REVERT JUMPDEST POP PUSH2 0x294 PUSH1 0x0 DUP2 JUMP JUMPDEST CALLVALUE DUP1 ISZERO PUSH2 0x811 JUMPI PUSH1 0x0 DUP1 REVERT JUMPDEST POP PUSH2 0x294 PUSH1 0x1 DUP2 JUMP JUMPDEST CALLVALUE DUP1 ISZERO PUSH2 0x826 JUMPI PUSH1 0x0 DUP1 REVERT JUMPDEST POP PUSH2 0x2E9 PUSH2 0x835 CALLDATASIZE PUSH1 0x4 PUSH2 0x4AC2 JUMP JUMPDEST PUSH1 0x1 PUSH1 0x1 PUSH1 0xA0 SHL SUB SWAP2 DUP3 AND PUSH1 0x0 SWAP1 DUP2 MSTORE PUSH1 0x1 PUSH1 0x20 SWAP1 DUP2 MSTORE PUSH1 0x40 DUP1 DUP4 KECCAK256 SWAP4 SWAP1 SWAP5 AND DUP3 MSTORE SWAP2 SWAP1 SWAP2 MSTORE KECCAK256 SLOAD PUSH1 0xFF AND SWAP1 JUMP JUMPDEST CALLVALUE DUP1 ISZERO PUSH2 0x86F JUMPI PUSH1 0x0 DUP1 REVERT JUMPDEST POP PUSH2 0x878 PUSH2 0x21F6 JUMP JUMPDEST PUSH1 0x40 MLOAD PUSH2 0x29E SWAP2 SWAP1 PUSH2 0x4AF5 JUMP JUMPDEST CALLVALUE DUP1 ISZERO PUSH2 0x891 JUMPI PUSH1 0x0 DUP1 REVERT JUMPDEST POP PUSH2 0x294 PUSH1 0x4 DUP2 JUMP JUMPDEST CALLVALUE DUP1 ISZERO PUSH2 0x8A6 JUMPI PUSH1 0x0 DUP1 REVERT JUMPDEST POP PUSH2 0x272 PUSH2 0x8B5 CALLDATASIZE PUSH1 0x4 PUSH2 0x4B4A JUMP JUMPDEST PUSH2 0x231D JUMP JUMPDEST CALLVALUE DUP1 ISZERO PUSH2 0x8C6 JUMPI PUSH1 0x0 DUP1 REVERT JUMPDEST POP PUSH2 0x272 PUSH2 0x8D5 CALLDATASIZE PUSH1 0x4 PUSH2 0x4503 JUMP JUMPDEST PUSH2 0x2362 JUMP JUMPDEST CALLVALUE DUP1 ISZERO PUSH2 0x8E6 JUMPI PUSH1 0x0 DUP1 REVERT JUMPDEST POP PUSH2 0x8FA PUSH2 0x8F5 CALLDATASIZE PUSH1 0x4 PUSH2 0x451E JUMP JUMPDEST PUSH2 0x23D8 JUMP JUMPDEST PUSH1 0x40 MLOAD PUSH2 0x29E SWAP6 SWAP5 SWAP4 SWAP3 SWAP2 SWAP1 PUSH2 0x4BAE JUMP JUMPDEST PUSH1 0x0 PUSH1 0x1 PUSH1 0x1 PUSH1 0xA0 SHL SUB DUP4 AND PUSH2 0x97B JUMPI PUSH1 0x40 MLOAD PUSH3 0x461BCD PUSH1 0xE5 SHL DUP2 MSTORE PUSH1 0x20 PUSH1 0x4 DUP3 ADD MSTORE PUSH1 0x2A PUSH1 0x24 DUP3 ADD MSTORE PUSH32 0x455243313135353A2061646472657373207A65726F206973206E6F7420612076 PUSH1 0x44 DUP3 ADD MSTORE PUSH10 0x30B634B21037BBB732B9 PUSH1 0xB1 SHL PUSH1 0x64 DUP3 ADD MSTORE PUSH1 0x84 ADD JUMPDEST PUSH1 0x40 MLOAD DUP1 SWAP2 SUB SWAP1 REVERT JUMPDEST POP PUSH1 0x0 DUP2 DUP2 MSTORE PUSH1 0x20 DUP2 DUP2 MSTORE PUSH1 0x40 DUP1 DUP4 KECCAK256 PUSH1 0x1 PUSH1 0x1 PUSH1 0xA0 SHL SUB DUP7 AND DUP5 MSTORE SWAP1 SWAP2 MSTORE SWAP1 KECCAK256 SLOAD JUMPDEST SWAP3 SWAP2 POP POP JUMP JUMPDEST PUSH1 0x60 PUSH1 0xB DUP1 SLOAD DUP1 PUSH1 0x20 MUL PUSH1 0x20 ADD PUSH1 0x40 MLOAD SWAP1 DUP2 ADD PUSH1 0x40 MSTORE DUP1 SWAP3 SWAP2 SWAP1 DUP2 DUP2 MSTORE PUSH1 0x20 ADD PUSH1 0x0 SWAP1 JUMPDEST DUP3 DUP3 LT ISZERO PUSH2 0xAAA JUMPI DUP4 DUP3 SWAP1 PUSH1 0x0 MSTORE PUSH1 0x20 PUSH1 0x0 KECCAK256 SWAP1 PUSH1 0x4 MUL ADD PUSH1 0x40 MLOAD DUP1 PUSH1 0x80 ADD PUSH1 0x40 MSTORE SWAP1 DUP2 PUSH1 0x0 DUP3 ADD DUP1 SLOAD PUSH2 0x9FB SWAP1 PUSH2 0x4BF1 JUMP JUMPDEST DUP1 PUSH1 0x1F ADD PUSH1 0x20 DUP1 SWAP2 DIV MUL PUSH1 0x20 ADD PUSH1 0x40 MLOAD SWAP1 DUP2 ADD PUSH1 0x40 MSTORE DUP1 SWAP3 SWAP2 SWAP1 DUP2 DUP2 MSTORE PUSH1 0x20 ADD DUP3 DUP1 SLOAD PUSH2 0xA27 SWAP1 PUSH2 0x4BF1 JUMP JUMPDEST DUP1 ISZERO PUSH2 0xA74 JUMPI DUP1 PUSH1 0x1F LT PUSH2 0xA49 JUMPI PUSH2 0x100 DUP1 DUP4 SLOAD DIV MUL DUP4 MSTORE SWAP2 PUSH1 0x20 ADD SWAP2 PUSH2 0xA74 JUMP JUMPDEST DUP3 ADD SWAP2 SWAP1 PUSH1 0x0 MSTORE PUSH1 0x20 PUSH1 0x0 KECCAK256 SWAP1 JUMPDEST DUP2 SLOAD DUP2 MSTORE SWAP1 PUSH1 0x1 ADD SWAP1 PUSH1 0x20 ADD DUP1 DUP4 GT PUSH2 0xA57 JUMPI DUP3 SWAP1 SUB PUSH1 0x1F AND DUP3 ADD SWAP2 JUMPDEST POP POP POP POP POP DUP2 MSTORE PUSH1 0x20 ADD PUSH1 0x1 DUP3 ADD SLOAD DUP2 MSTORE PUSH1 0x20 ADD PUSH1 0x2 DUP3 ADD SLOAD DUP2 MSTORE PUSH1 0x20 ADD PUSH1 0x3 DUP3 ADD SLOAD DUP2 MSTORE POP POP DUP2 MSTORE PUSH1 0x20 ADD SWAP1 PUSH1 0x1 ADD SWAP1 PUSH2 0x9C8 JUMP JUMPDEST POP POP POP POP SWAP1 POP SWAP1 JUMP JUMPDEST PUSH1 0x0 PUSH1 0x1 PUSH1 0x1 PUSH1 0xE0 SHL SUB NOT DUP3 AND PUSH4 0x6CDB3D13 PUSH1 0xE1 SHL EQ DUP1 PUSH2 0xAE4 JUMPI POP PUSH1 0x1 PUSH1 0x1 PUSH1 0xE0 SHL SUB NOT DUP3 AND PUSH4 0x3A24D07 PUSH1 0xE2 SHL EQ JUMPDEST DUP1 PUSH2 0x99E JUMPI POP PUSH4 0x1FFC9A7 PUSH1 0xE0 SHL PUSH1 0x1 PUSH1 0x1 PUSH1 0xE0 SHL SUB NOT DUP4 AND EQ PUSH2 0x99E JUMP JUMPDEST PUSH2 0xB0B PUSH2 0x24B1 JUMP JUMPDEST PUSH2 0xB14 DUP2 PUSH2 0x250B JUMP JUMPDEST POP JUMP JUMPDEST PUSH1 0x1 PUSH1 0x1 PUSH1 0xA0 SHL SUB DUP2 AND PUSH1 0x0 SWAP1 DUP2 MSTORE PUSH1 0x7 PUSH1 0x20 MSTORE PUSH1 0x40 DUP2 KECCAK256 SLOAD DUP2 SUB PUSH2 0xB3E JUMPI POP PUSH1 0x0 SWAP2 SWAP1 POP JUMP JUMPDEST POP PUSH1 0x1 SWAP2 SWAP1 POP JUMP JUMPDEST SWAP2 SWAP1 POP JUMP JUMPDEST PUSH1 0x60 PUSH1 0x2 DUP1 SLOAD PUSH2 0xB5A SWAP1 PUSH2 0x4BF1 JUMP JUMPDEST DUP1 PUSH1 0x1F ADD PUSH1 0x20 DUP1 SWAP2 DIV MUL PUSH1 0x20 ADD PUSH1 0x40 MLOAD SWAP1 DUP2 ADD PUSH1 0x40 MSTORE DUP1 SWAP3 SWAP2 SWAP1 DUP2 DUP2 MSTORE PUSH1 0x20 ADD DUP3 DUP1 SLOAD PUSH2 0xB86 SWAP1 PUSH2 0x4BF1 JUMP JUMPDEST DUP1 ISZERO PUSH2 0xBD3 JUMPI DUP1 PUSH1 0x1F LT PUSH2 0xBA8 JUMPI PUSH2 0x100 DUP1 DUP4 SLOAD DIV MUL DUP4 MSTORE SWAP2 PUSH1 0x20 ADD SWAP2 PUSH2 0xBD3 JUMP JUMPDEST DUP3 ADD SWAP2 SWAP1 PUSH1 0x0 MSTORE PUSH1 0x20 PUSH1 0x0 KECCAK256 SWAP1 JUMPDEST DUP2 SLOAD DUP2 MSTORE SWAP1 PUSH1 0x1 ADD SWAP1 PUSH1 0x20 ADD DUP1 DUP4 GT PUSH2 0xBB6 JUMPI DUP3 SWAP1 SUB PUSH1 0x1F AND DUP3 ADD SWAP2 JUMPDEST POP POP POP POP POP SWAP1 POP SWAP2 SWAP1 POP JUMP JUMPDEST PUSH2 0xC0A PUSH1 0x40 MLOAD DUP1 PUSH1 0x80 ADD PUSH1 0x40 MSTORE DUP1 PUSH1 0x60 DUP2 MSTORE PUSH1 0x20 ADD PUSH1 0x0 DUP2 MSTORE PUSH1 0x20 ADD PUSH1 0x0 DUP2 MSTORE PUSH1 0x20 ADD PUSH1 0x0 DUP2 MSTORE POP SWAP1 JUMP JUMPDEST PUSH2 0xC13 DUP3 PUSH2 0x219B JUMP JUMPDEST PUSH2 0xC5F JUMPI PUSH1 0x40 MLOAD PUSH3 0x461BCD PUSH1 0xE5 SHL DUP2 MSTORE PUSH1 0x20 PUSH1 0x4 DUP3 ADD MSTORE PUSH1 0x19 PUSH1 0x24 DUP3 ADD MSTORE PUSH32 0x47616D6520746F6B656E20646F65736E27742065786973742100000000000000 PUSH1 0x44 DUP3 ADD MSTORE PUSH1 0x64 ADD PUSH2 0x972 JUMP JUMPDEST PUSH1 0x1 PUSH1 0x1 PUSH1 0xA0 SHL SUB DUP3 AND PUSH1 0x0 SWAP1 DUP2 MSTORE PUSH1 0x8 PUSH1 0x20 MSTORE PUSH1 0x40 SWAP1 KECCAK256 SLOAD PUSH1 0xB DUP1 SLOAD SWAP1 SWAP2 SWAP1 DUP2 LT PUSH2 0xC8D JUMPI PUSH2 0xC8D PUSH2 0x4C2B JUMP JUMPDEST SWAP1 PUSH1 0x0 MSTORE PUSH1 0x20 PUSH1 0x0 KECCAK256 SWAP1 PUSH1 0x4 MUL ADD PUSH1 0x40 MLOAD DUP1 PUSH1 0x80 ADD PUSH1 0x40 MSTORE SWAP1 DUP2 PUSH1 0x0 DUP3 ADD DUP1 SLOAD PUSH2 0xCB6 SWAP1 PUSH2 0x4BF1 JUMP JUMPDEST DUP1 PUSH1 0x1F ADD PUSH1 0x20 DUP1 SWAP2 DIV MUL PUSH1 0x20 ADD PUSH1 0x40 MLOAD SWAP1 DUP2 ADD PUSH1 0x40 MSTORE DUP1 SWAP3 SWAP2 SWAP1 DUP2 DUP2 MSTORE PUSH1 0x20 ADD DUP3 DUP1 SLOAD PUSH2 0xCE2 SWAP1 PUSH2 0x4BF1 JUMP JUMPDEST DUP1 ISZERO PUSH2 0xD2F JUMPI DUP1 PUSH1 0x1F LT PUSH2 0xD04 JUMPI PUSH2 0x100 DUP1 DUP4 SLOAD DIV MUL DUP4 MSTORE SWAP2 PUSH1 0x20 ADD SWAP2 PUSH2 0xD2F JUMP JUMPDEST DUP3 ADD SWAP2 SWAP1 PUSH1 0x0 MSTORE PUSH1 0x20 PUSH1 0x0 KECCAK256 SWAP1 JUMPDEST DUP2 SLOAD DUP2 MSTORE SWAP1 PUSH1 0x1 ADD SWAP1 PUSH1 0x20 ADD DUP1 DUP4 GT PUSH2 0xD12 JUMPI DUP3 SWAP1 SUB PUSH1 0x1F AND DUP3 ADD SWAP2 JUMPDEST POP POP POP POP POP DUP2 MSTORE PUSH1 0x20 ADD PUSH1 0x1 DUP3 ADD SLOAD DUP2 MSTORE PUSH1 0x20 ADD PUSH1 0x2 DUP3 ADD SLOAD DUP2 MSTORE PUSH1 0x20 ADD PUSH1 0x3 DUP3 ADD SLOAD DUP2 MSTORE POP POP SWAP1 POP SWAP2 SWAP1 POP JUMP JUMPDEST PUSH1 0x0 PUSH1 0x9 DUP3 PUSH1 0x40 MLOAD PUSH2 0xD6F SWAP2 SWAP1 PUSH2 0x4C41 JUMP JUMPDEST SWAP1 DUP2 MSTORE PUSH1 0x20 ADD PUSH1 0x40 MLOAD DUP1 SWAP2 SUB SWAP1 KECCAK256 SLOAD PUSH1 0x0 SUB PUSH2 0xB3E JUMPI POP PUSH1 0x0 SWAP2 SWAP1 POP JUMP JUMPDEST PUSH2 0xD95 PUSH2 0x4152 JUMP JUMPDEST PUSH2 0xD9E DUP3 PUSH2 0xD5D JUMP JUMPDEST PUSH2 0xDE2 JUMPI PUSH1 0x40 MLOAD PUSH3 0x461BCD PUSH1 0xE5 SHL DUP2 MSTORE PUSH1 0x20 PUSH1 0x4 DUP3 ADD MSTORE PUSH1 0x15 PUSH1 0x24 DUP3 ADD MSTORE PUSH21 0x426174746C6520646F65736E277420657869737421 PUSH1 0x58 SHL PUSH1 0x44 DUP3 ADD MSTORE PUSH1 0x64 ADD PUSH2 0x972 JUMP JUMPDEST PUSH1 0xC PUSH1 0x9 DUP4 PUSH1 0x40 MLOAD PUSH2 0xDF4 SWAP2 SWAP1 PUSH2 0x4C41 JUMP JUMPDEST SWAP1 DUP2 MSTORE PUSH1 0x20 ADD PUSH1 0x40 MLOAD DUP1 SWAP2 SUB SWAP1 KECCAK256 SLOAD DUP2 SLOAD DUP2 LT PUSH2 0xE13 JUMPI PUSH2 0xE13 PUSH2 0x4C2B JUMP JUMPDEST PUSH1 0x0 SWAP2 DUP3 MSTORE PUSH1 0x20 SWAP1 SWAP2 KECCAK256 PUSH1 0x40 DUP1 MLOAD PUSH1 0xC0 DUP2 ADD SWAP1 SWAP2 MSTORE PUSH1 0x7 SWAP1 SWAP3 MUL ADD DUP1 SLOAD DUP3 SWAP1 PUSH1 0xFF AND PUSH1 0x2 DUP2 GT ISZERO PUSH2 0xE46 JUMPI PUSH2 0xE46 PUSH2 0x455D JUMP JUMPDEST PUSH1 0x2 DUP2 GT ISZERO PUSH2 0xE57 JUMPI PUSH2 0xE57 PUSH2 0x455D JUMP JUMPDEST DUP2 MSTORE PUSH1 0x20 ADD PUSH1 0x1 DUP3 ADD SLOAD DUP2 MSTORE PUSH1 0x20 ADD PUSH1 0x2 DUP3 ADD DUP1 SLOAD PUSH2 0xE75 SWAP1 PUSH2 0x4BF1 JUMP JUMPDEST DUP1 PUSH1 0x1F ADD PUSH1 0x20 DUP1 SWAP2 DIV MUL PUSH1 0x20 ADD PUSH1 0x40 MLOAD SWAP1 DUP2 ADD PUSH1 0x40 MSTORE DUP1 SWAP3 SWAP2 SWAP1 DUP2 DUP2 MSTORE PUSH1 0x20 ADD DUP3 DUP1 SLOAD PUSH2 0xEA1 SWAP1 PUSH2 0x4BF1 JUMP JUMPDEST DUP1 ISZERO PUSH2 0xEEE JUMPI DUP1 PUSH1 0x1F LT PUSH2 0xEC3 JUMPI PUSH2 0x100 DUP1 DUP4 SLOAD DIV MUL DUP4 MSTORE SWAP2 PUSH1 0x20 ADD SWAP2 PUSH2 0xEEE JUMP JUMPDEST DUP3 ADD SWAP2 SWAP1 PUSH1 0x0 MSTORE PUSH1 0x20 PUSH1 0x0 KECCAK256 SWAP1 JUMPDEST DUP2 SLOAD DUP2 MSTORE SWAP1 PUSH1 0x1 ADD SWAP1 PUSH1 0x20 ADD DUP1 DUP4 GT PUSH2 0xED1 JUMPI DUP3 SWAP1 SUB PUSH1 0x1F AND DUP3 ADD SWAP2 JUMPDEST POP POP POP SWAP2 DUP4 MSTORE POP POP PUSH1 0x40 DUP1 MLOAD DUP1 DUP3 ADD SWAP2 DUP3 SWAP1 MSTORE PUSH1 0x20 SWAP1 SWAP3 ADD SWAP2 SWAP1 PUSH1 0x3 DUP5 ADD SWAP1 PUSH1 0x2 SWAP1 DUP3 DUP5 JUMPDEST DUP2 SLOAD PUSH1 0x1 PUSH1 0x1 PUSH1 0xA0 SHL SUB AND DUP2 MSTORE PUSH1 0x1 SWAP1 SWAP2 ADD SWAP1 PUSH1 0x20 ADD DUP1 DUP4 GT PUSH2 0xF13 JUMPI POP POP POP SWAP2 DUP4 MSTORE POP POP PUSH1 0x40 DUP1 MLOAD DUP1 DUP3 ADD SWAP2 DUP3 SWAP1 MSTORE PUSH1 0x20 SWAP1 SWAP3 ADD SWAP2 SWAP1 PUSH1 0x5 DUP5 ADD SWAP1 PUSH1 0x2 SWAP1 DUP3 PUSH1 0x0 DUP6 JUMPDEST DUP3 SLOAD PUSH2 0x100 DUP4 SWAP1 EXP SWAP1 DIV PUSH1 0xFF AND DUP2 MSTORE PUSH1 0x20 PUSH1 0x1 SWAP3 DUP4 ADD DUP2 DUP2 DIV SWAP5 DUP6 ADD SWAP5 SWAP1 SWAP4 SUB SWAP1 SWAP3 MUL SWAP2 ADD DUP1 DUP5 GT PUSH2 0xF57 JUMPI POP POP POP SWAP3 DUP5 MSTORE POP POP POP PUSH1 0x6 SWAP2 SWAP1 SWAP2 ADD SLOAD PUSH1 0x1 PUSH1 0x1 PUSH1 0xA0 SHL SUB AND PUSH1 0x20 SWAP1 SWAP2 ADD MSTORE SWAP3 SWAP2 POP POP JUMP JUMPDEST PUSH2 0xFB0 PUSH2 0x4152 JUMP JUMPDEST PUSH2 0xFB9 CALLER PUSH2 0xB17 JUMP JUMPDEST PUSH2 0x1005 JUMPI PUSH1 0x40 MLOAD PUSH3 0x461BCD PUSH1 0xE5 SHL DUP2 MSTORE PUSH1 0x20 PUSH1 0x4 DUP3 ADD MSTORE PUSH1 0x1C PUSH1 0x24 DUP3 ADD MSTORE PUSH32 0x506C6561736520526567697374657220506C6179657220466972737400000000 PUSH1 0x44 DUP3 ADD MSTORE PUSH1 0x64 ADD PUSH2 0x972 JUMP JUMPDEST PUSH2 0x100E DUP3 PUSH2 0xD5D JUMP JUMPDEST ISZERO PUSH2 0x1054 JUMPI PUSH1 0x40 MLOAD PUSH3 0x461BCD PUSH1 0xE5 SHL DUP2 MSTORE PUSH1 0x20 PUSH1 0x4 DUP3 ADD MSTORE PUSH1 0x16 PUSH1 0x24 DUP3 ADD MSTORE PUSH22 0x426174746C6520616C72656164792065786973747321 PUSH1 0x50 SHL PUSH1 0x44 DUP3 ADD MSTORE PUSH1 0x64 ADD PUSH2 0x972 JUMP JUMPDEST PUSH1 0x0 DUP3 PUSH1 0x40 MLOAD PUSH1 0x20 ADD PUSH2 0x1067 SWAP2 SWAP1 PUSH2 0x4537 JUMP JUMPDEST PUSH1 0x40 DUP1 MLOAD DUP1 DUP4 SUB PUSH1 0x1F NOT ADD DUP2 MSTORE DUP3 DUP3 MSTORE DUP1 MLOAD PUSH1 0x20 SWAP2 DUP3 ADD KECCAK256 PUSH1 0xC0 DUP5 ADD DUP4 MSTORE PUSH1 0x0 DUP1 DUP6 MSTORE DUP3 DUP6 ADD DUP3 SWAP1 MSTORE DUP5 DUP5 ADD DUP9 SWAP1 MSTORE DUP4 MLOAD DUP1 DUP6 ADD DUP6 MSTORE CALLER DUP2 MSTORE DUP1 DUP5 ADD DUP3 SWAP1 MSTORE PUSH1 0x60 DUP7 ADD MSTORE DUP4 MLOAD DUP1 DUP6 ADD DUP6 MSTORE DUP2 DUP2 MSTORE SWAP3 DUP4 ADD DUP2 SWAP1 MSTORE PUSH1 0x80 DUP6 ADD SWAP3 SWAP1 SWAP3 MSTORE PUSH1 0xA0 DUP5 ADD SWAP2 SWAP1 SWAP2 MSTORE PUSH1 0xC SLOAD SWAP2 MLOAD SWAP1 SWAP4 POP DUP2 SWAP1 PUSH1 0x9 SWAP1 PUSH2 0x10E3 SWAP1 DUP9 SWAP1 PUSH2 0x4C41 JUMP JUMPDEST SWAP1 DUP2 MSTORE PUSH1 0x40 MLOAD SWAP1 DUP2 SWAP1 SUB PUSH1 0x20 ADD SWAP1 KECCAK256 SSTORE PUSH1 0xC DUP1 SLOAD PUSH1 0x1 DUP2 DUP2 ADD DUP4 SSTORE PUSH1 0x0 SWAP3 SWAP1 SWAP3 MSTORE DUP4 MLOAD PUSH1 0x7 SWAP1 SWAP2 MUL PUSH32 0xDF6966C971051C3D54EC59162606531493A51404A002842F56009D7E5CF4A8C7 ADD DUP1 SLOAD DUP6 SWAP4 SWAP2 SWAP3 SWAP2 DUP4 SWAP2 PUSH1 0xFF NOT AND SWAP1 DUP4 PUSH1 0x2 DUP2 GT ISZERO PUSH2 0x114D JUMPI PUSH2 0x114D PUSH2 0x455D JUMP JUMPDEST MUL OR SWAP1 SSTORE POP PUSH1 0x20 DUP3 ADD MLOAD PUSH1 0x1 DUP3 ADD SSTORE PUSH1 0x40 DUP3 ADD MLOAD PUSH1 0x2 DUP3 ADD SWAP1 PUSH2 0x1170 SWAP1 DUP3 PUSH2 0x4CA3 JUMP JUMPDEST POP PUSH1 0x60 DUP3 ADD MLOAD PUSH2 0x1186 SWAP1 PUSH1 0x3 DUP4 ADD SWAP1 PUSH1 0x2 PUSH2 0x4195 JUMP JUMPDEST POP PUSH1 0x80 DUP3 ADD MLOAD PUSH2 0x119C SWAP1 PUSH1 0x5 DUP4 ADD SWAP1 PUSH1 0x2 PUSH2 0x41ED JUMP JUMPDEST POP PUSH1 0xA0 SWAP2 SWAP1 SWAP2 ADD MLOAD PUSH1 0x6 SWAP1 SWAP2 ADD DUP1 SLOAD PUSH1 0x1 PUSH1 0x1 PUSH1 0xA0 SHL SUB NOT AND PUSH1 0x1 PUSH1 0x1 PUSH1 0xA0 SHL SUB SWAP1 SWAP3 AND SWAP2 SWAP1 SWAP2 OR SWAP1 SSTORE POP SWAP4 SWAP3 POP POP POP JUMP JUMPDEST PUSH1 0x1 PUSH1 0x1 PUSH1 0xA0 SHL SUB DUP6 AND CALLER EQ DUP1 PUSH2 0x11EA JUMPI POP PUSH2 0x11EA DUP6 CALLER PUSH2 0x835 JUMP JUMPDEST PUSH2 0x1206 JUMPI PUSH1 0x40 MLOAD PUSH3 0x461BCD PUSH1 0xE5 SHL DUP2 MSTORE PUSH1 0x4 ADD PUSH2 0x972 SWAP1 PUSH2 0x4D62 JUMP JUMPDEST PUSH2 0x1213 DUP6 DUP6 DUP6 DUP6 DUP6 PUSH2 0x2517 JUMP JUMPDEST POP POP POP POP POP JUMP JUMPDEST PUSH1 0x60 DUP2 MLOAD DUP4 MLOAD EQ PUSH2 0x127F JUMPI PUSH1 0x40 MLOAD PUSH3 0x461BCD PUSH1 0xE5 SHL DUP2 MSTORE PUSH1 0x20 PUSH1 0x4 DUP3 ADD MSTORE PUSH1 0x29 PUSH1 0x24 DUP3 ADD MSTORE PUSH32 0x455243313135353A206163636F756E747320616E6420696473206C656E677468 PUSH1 0x44 DUP3 ADD MSTORE PUSH9 0x40DAD2E6DAC2E8C6D PUSH1 0xBB SHL PUSH1 0x64 DUP3 ADD MSTORE PUSH1 0x84 ADD PUSH2 0x972 JUMP JUMPDEST PUSH1 0x0 DUP4 MLOAD PUSH1 0x1 PUSH1 0x1 PUSH1 0x40 SHL SUB DUP2 GT ISZERO PUSH2 0x129A JUMPI PUSH2 0x129A PUSH2 0x441A JUMP JUMPDEST PUSH1 0x40 MLOAD SWAP1 DUP1 DUP3 MSTORE DUP1 PUSH1 0x20 MUL PUSH1 0x20 ADD DUP3 ADD PUSH1 0x40 MSTORE DUP1 ISZERO PUSH2 0x12C3 JUMPI DUP2 PUSH1 0x20 ADD PUSH1 0x20 DUP3 MUL DUP1 CALLDATASIZE DUP4 CALLDATACOPY ADD SWAP1 POP JUMPDEST POP SWAP1 POP PUSH1 0x0 JUMPDEST DUP5 MLOAD DUP2 LT ISZERO PUSH2 0x133B JUMPI PUSH2 0x130E DUP6 DUP3 DUP2 MLOAD DUP2 LT PUSH2 0x12E7 JUMPI PUSH2 0x12E7 PUSH2 0x4C2B JUMP JUMPDEST PUSH1 0x20 MUL PUSH1 0x20 ADD ADD MLOAD DUP6 DUP4 DUP2 MLOAD DUP2 LT PUSH2 0x1301 JUMPI PUSH2 0x1301 PUSH2 0x4C2B JUMP JUMPDEST PUSH1 0x20 MUL PUSH1 0x20 ADD ADD MLOAD PUSH2 0x90B JUMP JUMPDEST DUP3 DUP3 DUP2 MLOAD DUP2 LT PUSH2 0x1320 JUMPI PUSH2 0x1320 PUSH2 0x4C2B JUMP JUMPDEST PUSH1 0x20 SWAP1 DUP2 MUL SWAP2 SWAP1 SWAP2 ADD ADD MSTORE PUSH2 0x1334 DUP2 PUSH2 0x4DC7 JUMP JUMPDEST SWAP1 POP PUSH2 0x12C9 JUMP JUMPDEST POP SWAP4 SWAP3 POP POP POP JUMP JUMPDEST PUSH2 0x1380 PUSH1 0x40 MLOAD DUP1 PUSH1 0xA0 ADD PUSH1 0x40 MSTORE DUP1 PUSH1 0x0 PUSH1 0x1 PUSH1 0x1 PUSH1 0xA0 SHL SUB AND DUP2 MSTORE PUSH1 0x20 ADD PUSH1 0x60 DUP2 MSTORE PUSH1 0x20 ADD PUSH1 0x0 DUP2 MSTORE PUSH1 0x20 ADD PUSH1 0x0 DUP2 MSTORE PUSH1 0x20 ADD PUSH1 0x0 ISZERO ISZERO DUP2 MSTORE POP SWAP1 JUMP JUMPDEST PUSH2 0x1389 DUP3 PUSH2 0xB17 JUMP JUMPDEST PUSH2 0x13CD JUMPI PUSH1 0x40 MLOAD PUSH3 0x461BCD PUSH1 0xE5 SHL DUP2 MSTORE PUSH1 0x20 PUSH1 0x4 DUP3 ADD MSTORE PUSH1 0x15 PUSH1 0x24 DUP3 ADD MSTORE PUSH21 0x506C6179657220646F65736E277420657869737421 PUSH1 0x58 SHL PUSH1 0x44 DUP3 ADD MSTORE PUSH1 0x64 ADD PUSH2 0x972 JUMP JUMPDEST PUSH1 0x1 PUSH1 0x1 PUSH1 0xA0 SHL SUB DUP3 AND PUSH1 0x0 SWAP1 DUP2 MSTORE PUSH1 0x7 PUSH1 0x20 MSTORE PUSH1 0x40 SWAP1 KECCAK256 SLOAD PUSH1 0xA DUP1 SLOAD SWAP1 SWAP2 SWAP1 DUP2 LT PUSH2 0x13FB JUMPI PUSH2 0x13FB PUSH2 0x4C2B JUMP JUMPDEST PUSH1 0x0 SWAP2 DUP3 MSTORE PUSH1 0x20 SWAP2 DUP3 SWAP1 KECCAK256 PUSH1 0x40 DUP1 MLOAD PUSH1 0xA0 DUP2 ADD SWAP1 SWAP2 MSTORE PUSH1 0x5 SWAP1 SWAP3 MUL ADD DUP1 SLOAD PUSH1 0x1 PUSH1 0x1 PUSH1 0xA0 SHL SUB AND DUP3 MSTORE PUSH1 0x1 DUP2 ADD DUP1 SLOAD SWAP3 SWAP4 SWAP2 SWAP3 SWAP2 DUP5 ADD SWAP2 PUSH2 0x143B SWAP1 PUSH2 0x4BF1 JUMP JUMPDEST DUP1 PUSH1 0x1F ADD PUSH1 0x20 DUP1 SWAP2 DIV MUL PUSH1 0x20 ADD PUSH1 0x40 MLOAD SWAP1 DUP2 ADD PUSH1 0x40 MSTORE DUP1 SWAP3 SWAP2 SWAP1 DUP2 DUP2 MSTORE PUSH1 0x20 ADD DUP3 DUP1 SLOAD PUSH2 0x1467 SWAP1 PUSH2 0x4BF1 JUMP JUMPDEST DUP1 ISZERO PUSH2 0x14B4 JUMPI DUP1 PUSH1 0x1F LT PUSH2 0x1489 JUMPI PUSH2 0x100 DUP1 DUP4 SLOAD DIV MUL DUP4 MSTORE SWAP2 PUSH1 0x20 ADD SWAP2 PUSH2 0x14B4 JUMP JUMPDEST DUP3 ADD SWAP2 SWAP1 PUSH1 0x0 MSTORE PUSH1 0x20 PUSH1 0x0 KECCAK256 SWAP1 JUMPDEST DUP2 SLOAD DUP2 MSTORE SWAP1 PUSH1 0x1 ADD SWAP1 PUSH1 0x20 ADD DUP1 DUP4 GT PUSH2 0x1497 JUMPI DUP3 SWAP1 SUB PUSH1 0x1F AND DUP3 ADD SWAP2 JUMPDEST POP POP POP SWAP2 DUP4 MSTORE POP POP PUSH1 0x2 DUP3 ADD SLOAD PUSH1 0x20 DUP3 ADD MSTORE PUSH1 0x3 DUP3 ADD SLOAD PUSH1 0x40 DUP3 ADD MSTORE PUSH1 0x4 SWAP1 SWAP2 ADD SLOAD PUSH1 0xFF AND ISZERO ISZERO PUSH1 0x60 SWAP1 SWAP2 ADD MSTORE SWAP3 SWAP2 POP POP JUMP JUMPDEST PUSH1 0x60 PUSH1 0xC DUP1 SLOAD DUP1 PUSH1 0x20 MUL PUSH1 0x20 ADD PUSH1 0x40 MLOAD SWAP1 DUP2 ADD PUSH1 0x40 MSTORE DUP1 SWAP3 SWAP2 SWAP1 DUP2 DUP2 MSTORE PUSH1 0x20 ADD PUSH1 0x0 SWAP1 JUMPDEST DUP3 DUP3 LT ISZERO PUSH2 0xAAA JUMPI PUSH1 0x0 DUP5 DUP2 MSTORE PUSH1 0x20 SWAP1 KECCAK256 PUSH1 0x40 DUP1 MLOAD PUSH1 0xC0 DUP2 ADD SWAP1 SWAP2 MSTORE PUSH1 0x7 DUP5 MUL SWAP1 SWAP2 ADD DUP1 SLOAD DUP3 SWAP1 PUSH1 0xFF AND PUSH1 0x2 DUP2 GT ISZERO PUSH2 0x1546 JUMPI PUSH2 0x1546 PUSH2 0x455D JUMP JUMPDEST PUSH1 0x2 DUP2 GT ISZERO PUSH2 0x1557 JUMPI PUSH2 0x1557 PUSH2 0x455D JUMP JUMPDEST DUP2 MSTORE PUSH1 0x20 ADD PUSH1 0x1 DUP3 ADD SLOAD DUP2 MSTORE PUSH1 0x20 ADD PUSH1 0x2 DUP3 ADD DUP1 SLOAD PUSH2 0x1575 SWAP1 PUSH2 0x4BF1 JUMP JUMPDEST DUP1 PUSH1 0x1F ADD PUSH1 0x20 DUP1 SWAP2 DIV MUL PUSH1 0x20 ADD PUSH1 0x40 MLOAD SWAP1 DUP2 ADD PUSH1 0x40 MSTORE DUP1 SWAP3 SWAP2 SWAP1 DUP2 DUP2 MSTORE PUSH1 0x20 ADD DUP3 DUP1 SLOAD PUSH2 0x15A1 SWAP1 PUSH2 0x4BF1 JUMP JUMPDEST DUP1 ISZERO PUSH2 0x15EE JUMPI DUP1 PUSH1 0x1F LT PUSH2 0x15C3 JUMPI PUSH2 0x100 DUP1 DUP4 SLOAD DIV MUL DUP4 MSTORE SWAP2 PUSH1 0x20 ADD SWAP2 PUSH2 0x15EE JUMP JUMPDEST DUP3 ADD SWAP2 SWAP1 PUSH1 0x0 MSTORE PUSH1 0x20 PUSH1 0x0 KECCAK256 SWAP1 JUMPDEST DUP2 SLOAD DUP2 MSTORE SWAP1 PUSH1 0x1 ADD SWAP1 PUSH1 0x20 ADD DUP1 DUP4 GT PUSH2 0x15D1 JUMPI DUP3 SWAP1 SUB PUSH1 0x1F AND DUP3 ADD SWAP2 JUMPDEST POP POP POP SWAP2 DUP4 MSTORE POP POP PUSH1 0x40 DUP1 MLOAD DUP1 DUP3 ADD SWAP2 DUP3 SWAP1 MSTORE PUSH1 0x20 SWAP1 SWAP3 ADD SWAP2 SWAP1 PUSH1 0x3 DUP5 ADD SWAP1 PUSH1 0x2 SWAP1 DUP3 DUP5 JUMPDEST DUP2 SLOAD PUSH1 0x1 PUSH1 0x1 PUSH1 0xA0 SHL SUB AND DUP2 MSTORE PUSH1 0x1 SWAP1 SWAP2 ADD SWAP1 PUSH1 0x20 ADD DUP1 DUP4 GT PUSH2 0x1613 JUMPI POP POP POP SWAP2 DUP4 MSTORE POP POP PUSH1 0x40 DUP1 MLOAD DUP1 DUP3 ADD SWAP2 DUP3 SWAP1 MSTORE PUSH1 0x20 SWAP1 SWAP3 ADD SWAP2 SWAP1 PUSH1 0x5 DUP5 ADD SWAP1 PUSH1 0x2 SWAP1 DUP3 PUSH1 0x0 DUP6 JUMPDEST DUP3 SLOAD PUSH2 0x100 DUP4 SWAP1 EXP SWAP1 DIV PUSH1 0xFF AND DUP2 MSTORE PUSH1 0x20 PUSH1 0x1 SWAP3 DUP4 ADD DUP2 DUP2 DIV SWAP5 DUP6 ADD SWAP5 SWAP1 SWAP4 SUB SWAP1 SWAP3 MUL SWAP2 ADD DUP1 DUP5 GT PUSH2 0x1657 JUMPI POP POP POP SWAP3 DUP5 MSTORE POP POP POP PUSH1 0x6 SWAP2 SWAP1 SWAP2 ADD SLOAD PUSH1 0x1 PUSH1 0x1 PUSH1 0xA0 SHL SUB AND PUSH1 0x20 SWAP2 DUP3 ADD MSTORE SWAP1 DUP3 MSTORE PUSH1 0x1 SWAP3 SWAP1 SWAP3 ADD SWAP2 ADD PUSH2 0x150B JUMP JUMPDEST PUSH1 0xC DUP2 DUP2 SLOAD DUP2 LT PUSH2 0x16C2 JUMPI PUSH1 0x0 DUP1 REVERT JUMPDEST PUSH1 0x0 SWAP2 DUP3 MSTORE PUSH1 0x20 SWAP1 SWAP2 KECCAK256 PUSH1 0x7 SWAP1 SWAP2 MUL ADD DUP1 SLOAD PUSH1 0x1 DUP3 ADD SLOAD PUSH1 0x2 DUP4 ADD DUP1 SLOAD PUSH1 0xFF SWAP1 SWAP4 AND SWAP5 POP SWAP1 SWAP3 SWAP2 PUSH2 0x16F2 SWAP1 PUSH2 0x4BF1 JUMP JUMPDEST DUP1 PUSH1 0x1F ADD PUSH1 0x20 DUP1 SWAP2 DIV MUL PUSH1 0x20 ADD PUSH1 0x40 MLOAD SWAP1 DUP2 ADD PUSH1 0x40 MSTORE DUP1 SWAP3 SWAP2 SWAP1 DUP2 DUP2 MSTORE PUSH1 0x20 ADD DUP3 DUP1 SLOAD PUSH2 0x171E SWAP1 PUSH2 0x4BF1 JUMP JUMPDEST DUP1 ISZERO PUSH2 0x176B JUMPI DUP1 PUSH1 0x1F LT PUSH2 0x1740 JUMPI PUSH2 0x100 DUP1 DUP4 SLOAD DIV MUL DUP4 MSTORE SWAP2 PUSH1 0x20 ADD SWAP2 PUSH2 0x176B JUMP JUMPDEST DUP3 ADD SWAP2 SWAP1 PUSH1 0x0 MSTORE PUSH1 0x20 PUSH1 0x0 KECCAK256 SWAP1 JUMPDEST DUP2 SLOAD DUP2 MSTORE SWAP1 PUSH1 0x1 ADD SWAP1 PUSH1 0x20 ADD DUP1 DUP4 GT PUSH2 0x174E JUMPI DUP3 SWAP1 SUB PUSH1 0x1F AND DUP3 ADD SWAP2 JUMPDEST POP POP POP PUSH1 0x6 SWAP1 SWAP4 ADD SLOAD SWAP2 SWAP3 POP POP PUSH1 0x1 PUSH1 0x1 PUSH1 0xA0 SHL SUB AND DUP5 JUMP JUMPDEST PUSH1 0x5 DUP1 SLOAD PUSH2 0x1791 SWAP1 PUSH2 0x4BF1 JUMP JUMPDEST DUP1 PUSH1 0x1F ADD PUSH1 0x20 DUP1 SWAP2 DIV MUL PUSH1 0x20 ADD PUSH1 0x40 MLOAD SWAP1 DUP2 ADD PUSH1 0x40 MSTORE DUP1 SWAP3 SWAP2 SWAP1 DUP2 DUP2 MSTORE PUSH1 0x20 ADD DUP3 DUP1 SLOAD PUSH2 0x17BD SWAP1 PUSH2 0x4BF1 JUMP JUMPDEST DUP1 ISZERO PUSH2 0x180A JUMPI DUP1 PUSH1 0x1F LT PUSH2 0x17DF JUMPI PUSH2 0x100 DUP1 DUP4 SLOAD DIV MUL DUP4 MSTORE SWAP2 PUSH1 0x20 ADD SWAP2 PUSH2 0x180A JUMP JUMPDEST DUP3 ADD SWAP2 SWAP1 PUSH1 0x0 MSTORE PUSH1 0x20 PUSH1 0x0 KECCAK256 SWAP1 JUMPDEST DUP2 SLOAD DUP2 MSTORE SWAP1 PUSH1 0x1 ADD SWAP1 PUSH1 0x20 ADD DUP1 DUP4 GT PUSH2 0x17ED JUMPI DUP3 SWAP1 SUB PUSH1 0x1F AND DUP3 ADD SWAP2 JUMPDEST POP POP POP POP POP DUP2 JUMP JUMPDEST PUSH2 0x181A PUSH2 0x24B1 JUMP JUMPDEST PUSH2 0x1824 PUSH1 0x0 PUSH2 0x2702 JUMP JUMPDEST JUMP JUMPDEST PUSH2 0x182F CALLER PUSH2 0xB17 JUMP JUMPDEST ISZERO PUSH2 0x187C JUMPI PUSH1 0x40 MLOAD PUSH3 0x461BCD PUSH1 0xE5 SHL DUP2 MSTORE PUSH1 0x20 PUSH1 0x4 DUP3 ADD MSTORE PUSH1 0x19 PUSH1 0x24 DUP3 ADD MSTORE PUSH32 0x506C6179657220616C7265616479207265676973746572656400000000000000 PUSH1 0x44 DUP3 ADD MSTORE PUSH1 0x64 ADD PUSH2 0x972 JUMP JUMPDEST PUSH1 0xA DUP1 SLOAD PUSH1 0x40 DUP1 MLOAD PUSH1 0xA0 DUP2 ADD DUP3 MSTORE CALLER DUP2 MSTORE PUSH1 0x20 DUP2 ADD DUP7 DUP2 MSTORE SWAP2 DUP2 ADD DUP5 SWAP1 MSTORE PUSH1 0x19 PUSH1 0x60 DUP3 ADD MSTORE PUSH1 0x0 PUSH1 0x80 DUP3 ADD DUP2 SWAP1 MSTORE PUSH1 0x1 DUP5 ADD DUP6 SSTORE SWAP4 SWAP1 SWAP4 MSTORE DUP3 MLOAD PUSH32 0xC65A7BB8D6351C1CF70C95A316CC6A92839C986682D98BC35F958F4883F9D2A8 PUSH1 0x5 DUP5 MUL SWAP1 DUP2 ADD DUP1 SLOAD PUSH1 0x1 PUSH1 0x1 PUSH1 0xA0 SHL SUB NOT AND PUSH1 0x1 PUSH1 0x1 PUSH1 0xA0 SHL SUB SWAP1 SWAP4 AND SWAP3 SWAP1 SWAP3 OR DUP3 SSTORE SWAP2 MLOAD SWAP3 SWAP4 SWAP3 SWAP1 SWAP2 PUSH32 0xC65A7BB8D6351C1CF70C95A316CC6A92839C986682D98BC35F958F4883F9D2A9 ADD SWAP1 PUSH2 0x192F SWAP1 DUP3 PUSH2 0x4CA3 JUMP JUMPDEST POP PUSH1 0x40 DUP3 DUP2 ADD MLOAD PUSH1 0x2 DUP4 ADD SSTORE PUSH1 0x60 DUP4 ADD MLOAD PUSH1 0x3 DUP4 ADD SSTORE PUSH1 0x80 SWAP1 SWAP3 ADD MLOAD PUSH1 0x4 SWAP1 SWAP2 ADD DUP1 SLOAD PUSH1 0xFF NOT AND SWAP2 ISZERO ISZERO SWAP2 SWAP1 SWAP2 OR SWAP1 SSTORE CALLER PUSH1 0x0 SWAP1 DUP2 MSTORE PUSH1 0x7 PUSH1 0x20 MSTORE KECCAK256 DUP2 SWAP1 SSTORE PUSH2 0x1977 DUP3 PUSH2 0x1AAE JUMP JUMPDEST CALLER PUSH1 0x1 PUSH1 0x1 PUSH1 0xA0 SHL SUB AND PUSH32 0x81EF79D1CDA814A60C0FC60792E648A06D9C6BAE67176346D1CC8B63030BFCCD DUP5 PUSH1 0x40 MLOAD PUSH2 0x19B0 SWAP2 SWAP1 PUSH2 0x4537 JUMP JUMPDEST PUSH1 0x40 MLOAD DUP1 SWAP2 SUB SWAP1 LOG2 POP POP POP JUMP JUMPDEST PUSH1 0x0 PUSH2 0x19C8 DUP3 PUSH2 0xD8D JUMP JUMPDEST PUSH1 0x60 DUP2 ADD MLOAD MLOAD SWAP1 SWAP2 POP PUSH1 0x1 PUSH1 0x1 PUSH1 0xA0 SHL SUB AND CALLER EQ DUP1 PUSH2 0x19F7 JUMPI POP PUSH1 0x60 DUP2 ADD MLOAD PUSH1 0x20 ADD MLOAD PUSH1 0x1 PUSH1 0x1 PUSH1 0xA0 SHL SUB AND CALLER EQ JUMPDEST PUSH2 0x1A43 JUMPI PUSH1 0x40 MLOAD PUSH3 0x461BCD PUSH1 0xE5 SHL DUP2 MSTORE PUSH1 0x20 PUSH1 0x4 DUP3 ADD MSTORE PUSH1 0x1B PUSH1 0x24 DUP3 ADD MSTORE PUSH32 0x596F7520617265206E6F7420696E207468697320626174746C65210000000000 PUSH1 0x44 DUP3 ADD MSTORE PUSH1 0x64 ADD PUSH2 0x972 JUMP JUMPDEST PUSH1 0x60 DUP2 ADD MLOAD MLOAD PUSH1 0x1 PUSH1 0x1 PUSH1 0xA0 SHL SUB AND CALLER EQ PUSH2 0x1A74 JUMPI PUSH1 0x60 DUP2 ADD MLOAD PUSH2 0x1A6F SWAP1 PUSH1 0x0 JUMPDEST PUSH1 0x20 MUL ADD MLOAD DUP3 PUSH2 0x2754 JUMP JUMPDEST POP POP POP JUMP JUMPDEST PUSH1 0x60 DUP2 ADD MLOAD PUSH2 0x1A6F SWAP1 PUSH1 0x1 PUSH2 0x1A64 JUMP JUMPDEST PUSH1 0x0 DUP1 PUSH1 0x0 PUSH2 0x1A92 DUP5 PUSH2 0xD8D JUMP JUMPDEST PUSH1 0x80 ADD MLOAD DUP1 MLOAD PUSH1 0x20 SWAP1 SWAP2 ADD MLOAD PUSH1 0xFF SWAP2 DUP3 AND SWAP7 SWAP2 AND SWAP5 POP SWAP3 POP POP POP JUMP JUMPDEST PUSH2 0x1AB7 CALLER PUSH2 0x1343 JUMP JUMPDEST PUSH1 0x80 ADD MLOAD ISZERO PUSH2 0x1B00 JUMPI PUSH1 0x40 MLOAD PUSH3 0x461BCD PUSH1 0xE5 SHL DUP2 MSTORE PUSH1 0x20 PUSH1 0x4 DUP3 ADD MSTORE PUSH1 0x15 PUSH1 0x24 DUP3 ADD MSTORE PUSH21 0x506C6179657220697320696E206120626174746C65 PUSH1 0x58 SHL PUSH1 0x44 DUP3 ADD MSTORE PUSH1 0x64 ADD PUSH2 0x972 JUMP JUMPDEST PUSH2 0x1B09 CALLER PUSH2 0xB17 JUMP JUMPDEST PUSH2 0x1B55 JUMPI PUSH1 0x40 MLOAD PUSH3 0x461BCD PUSH1 0xE5 SHL DUP2 MSTORE PUSH1 0x20 PUSH1 0x4 DUP3 ADD MSTORE PUSH1 0x1C PUSH1 0x24 DUP3 ADD MSTORE PUSH32 0x506C6561736520526567697374657220506C6179657220466972737400000000 PUSH1 0x44 DUP3 ADD MSTORE PUSH1 0x64 ADD PUSH2 0x972 JUMP JUMPDEST PUSH2 0x1B5E DUP2 PUSH2 0x2A0B JUMP JUMPDEST POP POP JUMP JUMPDEST PUSH2 0x1B6A PUSH2 0x4152 JUMP JUMPDEST PUSH1 0x0 PUSH2 0x1B75 DUP4 PUSH2 0xD8D JUMP JUMPDEST SWAP1 POP PUSH1 0x0 DUP2 MLOAD PUSH1 0x2 DUP2 GT ISZERO PUSH2 0x1B8C JUMPI PUSH2 0x1B8C PUSH2 0x455D JUMP JUMPDEST EQ PUSH2 0x1BD9 JUMPI PUSH1 0x40 MLOAD PUSH3 0x461BCD PUSH1 0xE5 SHL DUP2 MSTORE PUSH1 0x20 PUSH1 0x4 DUP3 ADD MSTORE PUSH1 0x17 PUSH1 0x24 DUP3 ADD MSTORE PUSH32 0x426174746C6520616C7265616479207374617274656421000000000000000000 PUSH1 0x44 DUP3 ADD MSTORE PUSH1 0x64 ADD PUSH2 0x972 JUMP JUMPDEST PUSH1 0x60 DUP2 ADD MLOAD MLOAD CALLER PUSH1 0x1 PUSH1 0x1 PUSH1 0xA0 SHL SUB SWAP1 SWAP2 AND SUB PUSH2 0x1C42 JUMPI PUSH1 0x40 MLOAD PUSH3 0x461BCD PUSH1 0xE5 SHL DUP2 MSTORE PUSH1 0x20 PUSH1 0x4 DUP3 ADD MSTORE PUSH1 0x21 PUSH1 0x24 DUP3 ADD MSTORE PUSH32 0x4F6E6C7920706C617965722074776F2063616E206A6F696E206120626174746C PUSH1 0x44 DUP3 ADD MSTORE PUSH1 0x65 PUSH1 0xF8 SHL PUSH1 0x64 DUP3 ADD MSTORE PUSH1 0x84 ADD PUSH2 0x972 JUMP JUMPDEST PUSH2 0x1C4B CALLER PUSH2 0x1343 JUMP JUMPDEST PUSH1 0x80 ADD MLOAD ISZERO PUSH2 0x1C90 JUMPI PUSH1 0x40 MLOAD PUSH3 0x461BCD PUSH1 0xE5 SHL DUP2 MSTORE PUSH1 0x20 PUSH1 0x4 DUP3 ADD MSTORE PUSH1 0x11 PUSH1 0x24 DUP3 ADD MSTORE PUSH17 0x416C726561647920696E20626174746C65 PUSH1 0x78 SHL PUSH1 0x44 DUP3 ADD MSTORE PUSH1 0x64 ADD PUSH2 0x972 JUMP JUMPDEST PUSH1 0x1 DUP2 MSTORE PUSH1 0x60 DUP2 ADD MLOAD CALLER PUSH1 0x20 SWAP1 SWAP2 ADD MSTORE PUSH2 0x1CAA DUP4 DUP3 PUSH2 0x2C16 JUMP JUMPDEST PUSH1 0x1 PUSH1 0xA PUSH1 0x7 PUSH1 0x0 DUP5 PUSH1 0x60 ADD MLOAD PUSH1 0x0 PUSH1 0x2 DUP2 LT PUSH2 0x1CC9 JUMPI PUSH2 0x1CC9 PUSH2 0x4C2B JUMP JUMPDEST PUSH1 0x20 MUL ADD MLOAD PUSH1 0x1 PUSH1 0x1 PUSH1 0xA0 SHL SUB AND PUSH1 0x1 PUSH1 0x1 PUSH1 0xA0 SHL SUB AND DUP2 MSTORE PUSH1 0x20 ADD SWAP1 DUP2 MSTORE PUSH1 0x20 ADD PUSH1 0x0 KECCAK256 SLOAD DUP2 SLOAD DUP2 LT PUSH2 0x1CFF JUMPI PUSH2 0x1CFF PUSH2 0x4C2B JUMP JUMPDEST PUSH1 0x0 SWAP2 DUP3 MSTORE PUSH1 0x20 DUP1 DUP4 KECCAK256 PUSH1 0x5 SWAP3 SWAP1 SWAP3 MUL SWAP1 SWAP2 ADD PUSH1 0x4 ADD DUP1 SLOAD PUSH1 0xFF NOT AND SWAP4 ISZERO ISZERO SWAP4 SWAP1 SWAP4 OR SWAP1 SWAP3 SSTORE PUSH1 0x60 DUP4 ADD MLOAD DUP3 ADD MLOAD PUSH1 0x1 PUSH1 0x1 PUSH1 0xA0 SHL SUB AND DUP2 MSTORE PUSH1 0x7 SWAP1 SWAP2 MSTORE PUSH1 0x40 SWAP1 KECCAK256 SLOAD PUSH1 0xA DUP1 SLOAD PUSH1 0x1 SWAP3 SWAP1 DUP2 LT PUSH2 0x1D58 JUMPI PUSH2 0x1D58 PUSH2 0x4C2B JUMP JUMPDEST PUSH1 0x0 SWAP2 DUP3 MSTORE PUSH1 0x20 DUP3 KECCAK256 PUSH1 0x5 SWAP2 SWAP1 SWAP2 MUL ADD PUSH1 0x4 ADD DUP1 SLOAD PUSH1 0xFF NOT AND SWAP3 ISZERO ISZERO SWAP3 SWAP1 SWAP3 OR SWAP1 SWAP2 SSTORE PUSH1 0x60 DUP3 ADD MLOAD CALLER SWAP2 PUSH1 0x20 MUL ADD MLOAD PUSH1 0x1 PUSH1 0x1 PUSH1 0xA0 SHL SUB AND PUSH32 0x24187B16C217A79F8D8E6252B542EC6E278FA91304ACD9CFD866F2BBF00BD08 DUP4 PUSH1 0x40 ADD MLOAD PUSH1 0x40 MLOAD PUSH2 0x1DC3 SWAP2 SWAP1 PUSH2 0x4537 JUMP JUMPDEST PUSH1 0x40 MLOAD DUP1 SWAP2 SUB SWAP1 LOG3 SWAP3 SWAP2 POP POP JUMP JUMPDEST PUSH2 0x1B5E CALLER DUP4 DUP4 PUSH2 0x2D42 JUMP JUMPDEST PUSH1 0x0 PUSH2 0x1DE7 DUP3 PUSH2 0xD8D JUMP JUMPDEST SWAP1 POP PUSH1 0x1 DUP2 MLOAD PUSH1 0x2 DUP2 GT ISZERO PUSH2 0x1DFE JUMPI PUSH2 0x1DFE PUSH2 0x455D JUMP JUMPDEST EQ PUSH2 0x1E7B JUMPI PUSH1 0x40 MLOAD PUSH3 0x461BCD PUSH1 0xE5 SHL DUP2 MSTORE PUSH1 0x20 PUSH1 0x4 DUP3 ADD MSTORE PUSH1 0x41 PUSH1 0x24 DUP3 ADD MSTORE PUSH32 0x426174746C65206E6F7420737461727465642E20506C656173652074656C6C20 PUSH1 0x44 DUP3 ADD MSTORE PUSH32 0x616E6F7468657220706C6179657220746F206A6F696E2074686520626174746C PUSH1 0x64 DUP3 ADD MSTORE PUSH1 0x65 PUSH1 0xF8 SHL PUSH1 0x84 DUP3 ADD MSTORE PUSH1 0xA4 ADD PUSH2 0x972 JUMP JUMPDEST PUSH1 0x2 DUP2 MLOAD PUSH1 0x2 DUP2 GT ISZERO PUSH2 0x1E90 JUMPI PUSH2 0x1E90 PUSH2 0x455D JUMP JUMPDEST SUB PUSH2 0x1EDD JUMPI PUSH1 0x40 MLOAD PUSH3 0x461BCD PUSH1 0xE5 SHL DUP2 MSTORE PUSH1 0x20 PUSH1 0x4 DUP3 ADD MSTORE PUSH1 0x18 PUSH1 0x24 DUP3 ADD MSTORE PUSH32 0x426174746C652068617320616C726561647920656E6465640000000000000000 PUSH1 0x44 DUP3 ADD MSTORE PUSH1 0x64 ADD PUSH2 0x972 JUMP JUMPDEST PUSH1 0x60 DUP2 ADD MLOAD MLOAD PUSH1 0x1 PUSH1 0x1 PUSH1 0xA0 SHL SUB AND CALLER EQ DUP1 PUSH2 0x1F09 JUMPI POP PUSH1 0x60 DUP2 ADD MLOAD PUSH1 0x20 ADD MLOAD PUSH1 0x1 PUSH1 0x1 PUSH1 0xA0 SHL SUB AND CALLER EQ JUMPDEST PUSH2 0x1F55 JUMPI PUSH1 0x40 MLOAD PUSH3 0x461BCD PUSH1 0xE5 SHL DUP2 MSTORE PUSH1 0x20 PUSH1 0x4 DUP3 ADD MSTORE PUSH1 0x1A PUSH1 0x24 DUP3 ADD MSTORE PUSH32 0x596F7520617265206E6F7420696E207468697320626174746C65000000000000 PUSH1 0x44 DUP3 ADD MSTORE PUSH1 0x64 ADD PUSH2 0x972 JUMP JUMPDEST PUSH1 0x80 DUP2 ADD MLOAD PUSH1 0x60 DUP3 ADD MLOAD MLOAD PUSH1 0x1 PUSH1 0x1 PUSH1 0xA0 SHL SUB AND CALLER EQ PUSH2 0x1F76 JUMPI PUSH1 0x1 PUSH2 0x1F79 JUMP JUMPDEST PUSH1 0x0 JUMPDEST PUSH1 0xFF AND PUSH1 0x2 DUP2 LT PUSH2 0x1F8C JUMPI PUSH2 0x1F8C PUSH2 0x4C2B JUMP JUMPDEST PUSH1 0x20 MUL ADD MLOAD PUSH1 0xFF AND ISZERO PUSH2 0x1FE1 JUMPI PUSH1 0x40 MLOAD PUSH3 0x461BCD PUSH1 0xE5 SHL DUP2 MSTORE PUSH1 0x20 PUSH1 0x4 DUP3 ADD MSTORE PUSH1 0x1D PUSH1 0x24 DUP3 ADD MSTORE PUSH32 0x596F75206861766520616C7265616479206D6164652061206D6F766521000000 PUSH1 0x44 DUP3 ADD MSTORE PUSH1 0x64 ADD PUSH2 0x972 JUMP JUMPDEST PUSH1 0x60 DUP2 ADD MLOAD MLOAD PUSH2 0x200E SWAP1 PUSH1 0x1 PUSH1 0x1 PUSH1 0xA0 SHL SUB AND CALLER EQ PUSH2 0x2001 JUMPI PUSH1 0x1 PUSH2 0x2004 JUMP JUMPDEST PUSH1 0x0 JUMPDEST PUSH1 0xFF AND DUP5 DUP5 PUSH2 0x2E22 JUMP JUMPDEST PUSH2 0x2017 DUP3 PUSH2 0xD8D JUMP JUMPDEST PUSH1 0x80 DUP2 ADD MLOAD PUSH1 0x20 ADD MLOAD SWAP1 SWAP2 POP PUSH1 0x0 SWAP1 PUSH1 0xFF AND ISZERO PUSH2 0x2035 JUMPI PUSH1 0x1 PUSH2 0x2038 JUMP JUMPDEST PUSH1 0x0 JUMPDEST PUSH1 0x80 DUP4 ADD MLOAD MLOAD PUSH1 0xFF AND ISZERO PUSH2 0x204D JUMPI PUSH1 0x1 PUSH2 0x2050 JUMP JUMPDEST PUSH1 0x0 JUMPDEST PUSH2 0x205B SWAP1 PUSH1 0x2 PUSH2 0x4DE0 JUMP JUMPDEST PUSH2 0x2065 SWAP2 SWAP1 PUSH2 0x4DE0 JUMP JUMPDEST PUSH1 0xFF AND SWAP1 POP DUP1 PUSH1 0x1 EQ PUSH2 0x2079 JUMPI PUSH1 0x0 PUSH2 0x207C JUMP JUMPDEST PUSH1 0x1 JUMPDEST ISZERO ISZERO DUP4 PUSH1 0x40 MLOAD PUSH2 0x208C SWAP2 SWAP1 PUSH2 0x4C41 JUMP JUMPDEST PUSH1 0x40 MLOAD SWAP1 DUP2 SWAP1 SUB DUP2 KECCAK256 SWAP1 PUSH32 0x54B82B77E7AE55A8E6C9E89DEBA70C7191DEA2A3B08AE647B380E9F981D6A0F8 SWAP1 PUSH1 0x0 SWAP1 LOG3 DUP1 PUSH1 0x0 SUB PUSH2 0x20CD JUMPI PUSH2 0x20CD DUP4 PUSH2 0x2F77 JUMP JUMPDEST POP POP POP POP JUMP JUMPDEST PUSH1 0xB DUP2 DUP2 SLOAD DUP2 LT PUSH2 0x20E3 JUMPI PUSH1 0x0 DUP1 REVERT JUMPDEST SWAP1 PUSH1 0x0 MSTORE PUSH1 0x20 PUSH1 0x0 KECCAK256 SWAP1 PUSH1 0x4 MUL ADD PUSH1 0x0 SWAP2 POP SWAP1 POP DUP1 PUSH1 0x0 ADD DUP1 SLOAD PUSH2 0x2106 SWAP1 PUSH2 0x4BF1 JUMP JUMPDEST DUP1 PUSH1 0x1F ADD PUSH1 0x20 DUP1 SWAP2 DIV MUL PUSH1 0x20 ADD PUSH1 0x40 MLOAD SWAP1 DUP2 ADD PUSH1 0x40 MSTORE DUP1 SWAP3 SWAP2 SWAP1 DUP2 DUP2 MSTORE PUSH1 0x20 ADD DUP3 DUP1 SLOAD PUSH2 0x2132 SWAP1 PUSH2 0x4BF1 JUMP JUMPDEST DUP1 ISZERO PUSH2 0x217F JUMPI DUP1 PUSH1 0x1F LT PUSH2 0x2154 JUMPI PUSH2 0x100 DUP1 DUP4 SLOAD DIV MUL DUP4 MSTORE SWAP2 PUSH1 0x20 ADD SWAP2 PUSH2 0x217F JUMP JUMPDEST DUP3 ADD SWAP2 SWAP1 PUSH1 0x0 MSTORE PUSH1 0x20 PUSH1 0x0 KECCAK256 SWAP1 JUMPDEST DUP2 SLOAD DUP2 MSTORE SWAP1 PUSH1 0x1 ADD SWAP1 PUSH1 0x20 ADD DUP1 DUP4 GT PUSH2 0x2162 JUMPI DUP3 SWAP1 SUB PUSH1 0x1F AND DUP3 ADD SWAP2 JUMPDEST POP POP POP POP POP SWAP1 DUP1 PUSH1 0x1 ADD SLOAD SWAP1 DUP1 PUSH1 0x2 ADD SLOAD SWAP1 DUP1 PUSH1 0x3 ADD SLOAD SWAP1 POP DUP5 JUMP JUMPDEST PUSH1 0x1 PUSH1 0x1 PUSH1 0xA0 SHL SUB DUP2 AND PUSH1 0x0 SWAP1 DUP2 MSTORE PUSH1 0x8 PUSH1 0x20 MSTORE PUSH1 0x40 DUP2 KECCAK256 SLOAD DUP2 SUB PUSH2 0xB3E JUMPI POP PUSH1 0x0 SWAP2 SWAP1 POP JUMP JUMPDEST PUSH1 0x60 PUSH1 0x5 PUSH2 0x21CF DUP4 PUSH2 0x3091 JUMP JUMPDEST PUSH1 0x40 MLOAD PUSH1 0x20 ADD PUSH2 0x21E0 SWAP3 SWAP2 SWAP1 PUSH2 0x4DF9 JUMP JUMPDEST PUSH1 0x40 MLOAD PUSH1 0x20 DUP2 DUP4 SUB SUB DUP2 MSTORE SWAP1 PUSH1 0x40 MSTORE SWAP1 POP SWAP2 SWAP1 POP JUMP JUMPDEST PUSH1 0x60 PUSH1 0xA DUP1 SLOAD DUP1 PUSH1 0x20 MUL PUSH1 0x20 ADD PUSH1 0x40 MLOAD SWAP1 DUP2 ADD PUSH1 0x40 MSTORE DUP1 SWAP3 SWAP2 SWAP1 DUP2 DUP2 MSTORE PUSH1 0x20 ADD PUSH1 0x0 SWAP1 JUMPDEST DUP3 DUP3 LT ISZERO PUSH2 0xAAA JUMPI PUSH1 0x0 DUP5 DUP2 MSTORE PUSH1 0x20 SWAP1 DUP2 SWAP1 KECCAK256 PUSH1 0x40 DUP1 MLOAD PUSH1 0xA0 DUP2 ADD SWAP1 SWAP2 MSTORE PUSH1 0x5 DUP6 MUL SWAP1 SWAP2 ADD DUP1 SLOAD PUSH1 0x1 PUSH1 0x1 PUSH1 0xA0 SHL SUB AND DUP3 MSTORE PUSH1 0x1 DUP2 ADD DUP1 SLOAD SWAP3 SWAP4 SWAP2 SWAP3 SWAP2 DUP5 ADD SWAP2 PUSH2 0x2263 SWAP1 PUSH2 0x4BF1 JUMP JUMPDEST DUP1 PUSH1 0x1F ADD PUSH1 0x20 DUP1 SWAP2 DIV MUL PUSH1 0x20 ADD PUSH1 0x40 MLOAD SWAP1 DUP2 ADD PUSH1 0x40 MSTORE DUP1 SWAP3 SWAP2 SWAP1 DUP2 DUP2 MSTORE PUSH1 0x20 ADD DUP3 DUP1 SLOAD PUSH2 0x228F SWAP1 PUSH2 0x4BF1 JUMP JUMPDEST DUP1 ISZERO PUSH2 0x22DC JUMPI DUP1 PUSH1 0x1F LT PUSH2 0x22B1 JUMPI PUSH2 0x100 DUP1 DUP4 SLOAD DIV MUL DUP4 MSTORE SWAP2 PUSH1 0x20 ADD SWAP2 PUSH2 0x22DC JUMP JUMPDEST DUP3 ADD SWAP2 SWAP1 PUSH1 0x0 MSTORE PUSH1 0x20 PUSH1 0x0 KECCAK256 SWAP1 JUMPDEST DUP2 SLOAD DUP2 MSTORE SWAP1 PUSH1 0x1 ADD SWAP1 PUSH1 0x20 ADD DUP1 DUP4 GT PUSH2 0x22BF JUMPI DUP3 SWAP1 SUB PUSH1 0x1F AND DUP3 ADD SWAP2 JUMPDEST POP POP POP SWAP2 DUP4 MSTORE POP POP PUSH1 0x2 DUP3 ADD SLOAD PUSH1 0x20 DUP1 DUP4 ADD SWAP2 SWAP1 SWAP2 MSTORE PUSH1 0x3 DUP4 ADD SLOAD PUSH1 0x40 DUP4 ADD MSTORE PUSH1 0x4 SWAP1 SWAP3 ADD SLOAD PUSH1 0xFF AND ISZERO ISZERO PUSH1 0x60 SWAP1 SWAP2 ADD MSTORE SWAP1 DUP3 MSTORE PUSH1 0x1 SWAP3 SWAP1 SWAP3 ADD SWAP2 ADD PUSH2 0x221A JUMP JUMPDEST PUSH1 0x1 PUSH1 0x1 PUSH1 0xA0 SHL SUB DUP6 AND CALLER EQ DUP1 PUSH2 0x2339 JUMPI POP PUSH2 0x2339 DUP6 CALLER PUSH2 0x835 JUMP JUMPDEST PUSH2 0x2355 JUMPI PUSH1 0x40 MLOAD PUSH3 0x461BCD PUSH1 0xE5 SHL DUP2 MSTORE PUSH1 0x4 ADD PUSH2 0x972 SWAP1 PUSH2 0x4D62 JUMP JUMPDEST PUSH2 0x1213 DUP6 DUP6 DUP6 DUP6 DUP6 PUSH2 0x31BC JUMP JUMPDEST PUSH2 0x236A PUSH2 0x24B1 JUMP JUMPDEST PUSH1 0x1 PUSH1 0x1 PUSH1 0xA0 SHL SUB DUP2 AND PUSH2 0x23CF JUMPI PUSH1 0x40 MLOAD PUSH3 0x461BCD PUSH1 0xE5 SHL DUP2 MSTORE PUSH1 0x20 PUSH1 0x4 DUP3 ADD MSTORE PUSH1 0x26 PUSH1 0x24 DUP3 ADD MSTORE PUSH32 0x4F776E61626C653A206E6577206F776E657220697320746865207A65726F2061 PUSH1 0x44 DUP3 ADD MSTORE PUSH6 0x646472657373 PUSH1 0xD0 SHL PUSH1 0x64 DUP3 ADD MSTORE PUSH1 0x84 ADD PUSH2 0x972 JUMP JUMPDEST PUSH2 0xB14 DUP2 PUSH2 0x2702 JUMP JUMPDEST PUSH1 0xA DUP2 DUP2 SLOAD DUP2 LT PUSH2 0x23E8 JUMPI PUSH1 0x0 DUP1 REVERT JUMPDEST PUSH1 0x0 SWAP2 DUP3 MSTORE PUSH1 0x20 SWAP1 SWAP2 KECCAK256 PUSH1 0x5 SWAP1 SWAP2 MUL ADD DUP1 SLOAD PUSH1 0x1 DUP3 ADD DUP1 SLOAD PUSH1 0x1 PUSH1 0x1 PUSH1 0xA0 SHL SUB SWAP1 SWAP3 AND SWAP4 POP SWAP1 PUSH2 0x2417 SWAP1 PUSH2 0x4BF1 JUMP JUMPDEST DUP1 PUSH1 0x1F ADD PUSH1 0x20 DUP1 SWAP2 DIV MUL PUSH1 0x20 ADD PUSH1 0x40 MLOAD SWAP1 DUP2 ADD PUSH1 0x40 MSTORE DUP1 SWAP3 SWAP2 SWAP1 DUP2 DUP2 MSTORE PUSH1 0x20 ADD DUP3 DUP1 SLOAD PUSH2 0x2443 SWAP1 PUSH2 0x4BF1 JUMP JUMPDEST DUP1 ISZERO PUSH2 0x2490 JUMPI DUP1 PUSH1 0x1F LT PUSH2 0x2465 JUMPI PUSH2 0x100 DUP1 DUP4 SLOAD DIV MUL DUP4 MSTORE SWAP2 PUSH1 0x20 ADD SWAP2 PUSH2 0x2490 JUMP JUMPDEST DUP3 ADD SWAP2 SWAP1 PUSH1 0x0 MSTORE PUSH1 0x20 PUSH1 0x0 KECCAK256 SWAP1 JUMPDEST DUP2 SLOAD DUP2 MSTORE SWAP1 PUSH1 0x1 ADD SWAP1 PUSH1 0x20 ADD DUP1 DUP4 GT PUSH2 0x2473 JUMPI DUP3 SWAP1 SUB PUSH1 0x1F AND DUP3 ADD SWAP2 JUMPDEST POP POP POP POP PUSH1 0x2 DUP4 ADD SLOAD PUSH1 0x3 DUP5 ADD SLOAD PUSH1 0x4 SWAP1 SWAP5 ADD SLOAD SWAP3 SWAP4 SWAP1 SWAP3 SWAP1 SWAP2 POP PUSH1 0xFF AND DUP6 JUMP JUMPDEST PUSH1 0x3 SLOAD PUSH1 0x1 PUSH1 0x1 PUSH1 0xA0 SHL SUB AND CALLER EQ PUSH2 0x1824 JUMPI PUSH1 0x40 MLOAD PUSH3 0x461BCD PUSH1 0xE5 SHL DUP2 MSTORE PUSH1 0x20 PUSH1 0x4 DUP3 ADD DUP2 SWAP1 MSTORE PUSH1 0x24 DUP3 ADD MSTORE PUSH32 0x4F776E61626C653A2063616C6C6572206973206E6F7420746865206F776E6572 PUSH1 0x44 DUP3 ADD MSTORE PUSH1 0x64 ADD PUSH2 0x972 JUMP JUMPDEST PUSH1 0x2 PUSH2 0x1B5E DUP3 DUP3 PUSH2 0x4CA3 JUMP JUMPDEST DUP2 MLOAD DUP4 MLOAD EQ PUSH2 0x2579 JUMPI PUSH1 0x40 MLOAD PUSH3 0x461BCD PUSH1 0xE5 SHL DUP2 MSTORE PUSH1 0x20 PUSH1 0x4 DUP3 ADD MSTORE PUSH1 0x28 PUSH1 0x24 DUP3 ADD MSTORE PUSH32 0x455243313135353A2069647320616E6420616D6F756E7473206C656E67746820 PUSH1 0x44 DUP3 ADD MSTORE PUSH8 0xDAD2E6DAC2E8C6D PUSH1 0xC3 SHL PUSH1 0x64 DUP3 ADD MSTORE PUSH1 0x84 ADD PUSH2 0x972 JUMP JUMPDEST PUSH1 0x1 PUSH1 0x1 PUSH1 0xA0 SHL SUB DUP5 AND PUSH2 0x259F JUMPI PUSH1 0x40 MLOAD PUSH3 0x461BCD PUSH1 0xE5 SHL DUP2 MSTORE PUSH1 0x4 ADD PUSH2 0x972 SWAP1 PUSH2 0x4E9F JUMP JUMPDEST CALLER PUSH2 0x25AE DUP2 DUP8 DUP8 DUP8 DUP8 DUP8 PUSH2 0x32F4 JUMP JUMPDEST PUSH1 0x0 JUMPDEST DUP5 MLOAD DUP2 LT ISZERO PUSH2 0x2694 JUMPI PUSH1 0x0 DUP6 DUP3 DUP2 MLOAD DUP2 LT PUSH2 0x25CE JUMPI PUSH2 0x25CE PUSH2 0x4C2B JUMP JUMPDEST PUSH1 0x20 MUL PUSH1 0x20 ADD ADD MLOAD SWAP1 POP PUSH1 0x0 DUP6 DUP4 DUP2 MLOAD DUP2 LT PUSH2 0x25EC JUMPI PUSH2 0x25EC PUSH2 0x4C2B JUMP JUMPDEST PUSH1 0x20 SWAP1 DUP2 MUL SWAP2 SWAP1 SWAP2 ADD DUP2 ADD MLOAD PUSH1 0x0 DUP5 DUP2 MSTORE DUP1 DUP4 MSTORE PUSH1 0x40 DUP1 DUP3 KECCAK256 PUSH1 0x1 PUSH1 0x1 PUSH1 0xA0 SHL SUB DUP15 AND DUP4 MSTORE SWAP1 SWAP4 MSTORE SWAP2 SWAP1 SWAP2 KECCAK256 SLOAD SWAP1 SWAP2 POP DUP2 DUP2 LT ISZERO PUSH2 0x263C JUMPI PUSH1 0x40 MLOAD PUSH3 0x461BCD PUSH1 0xE5 SHL DUP2 MSTORE PUSH1 0x4 ADD PUSH2 0x972 SWAP1 PUSH2 0x4EE4 JUMP JUMPDEST PUSH1 0x0 DUP4 DUP2 MSTORE PUSH1 0x20 DUP2 DUP2 MSTORE PUSH1 0x40 DUP1 DUP4 KECCAK256 PUSH1 0x1 PUSH1 0x1 PUSH1 0xA0 SHL SUB DUP15 DUP2 AND DUP6 MSTORE SWAP3 MSTORE DUP1 DUP4 KECCAK256 DUP6 DUP6 SUB SWAP1 SSTORE SWAP1 DUP12 AND DUP3 MSTORE DUP2 KECCAK256 DUP1 SLOAD DUP5 SWAP3 SWAP1 PUSH2 0x2679 SWAP1 DUP5 SWAP1 PUSH2 0x4F2E JUMP JUMPDEST SWAP3 POP POP DUP2 SWAP1 SSTORE POP POP POP POP DUP1 PUSH2 0x268D SWAP1 PUSH2 0x4DC7 JUMP JUMPDEST SWAP1 POP PUSH2 0x25B1 JUMP JUMPDEST POP DUP5 PUSH1 0x1 PUSH1 0x1 PUSH1 0xA0 SHL SUB AND DUP7 PUSH1 0x1 PUSH1 0x1 PUSH1 0xA0 SHL SUB AND DUP3 PUSH1 0x1 PUSH1 0x1 PUSH1 0xA0 SHL SUB AND PUSH32 0x4A39DC06D4C0DBC64B70AF90FD698A233A518AA5D07E595D983B8C0526C8F7FB DUP8 DUP8 PUSH1 0x40 MLOAD PUSH2 0x26E4 SWAP3 SWAP2 SWAP1 PUSH2 0x4F41 JUMP JUMPDEST PUSH1 0x40 MLOAD DUP1 SWAP2 SUB SWAP1 LOG4 PUSH2 0x26FA DUP2 DUP8 DUP8 DUP8 DUP8 DUP8 PUSH2 0x3302 JUMP JUMPDEST POP POP POP POP POP POP JUMP JUMPDEST PUSH1 0x3 DUP1 SLOAD PUSH1 0x1 PUSH1 0x1 PUSH1 0xA0 SHL SUB DUP4 DUP2 AND PUSH1 0x1 PUSH1 0x1 PUSH1 0xA0 SHL SUB NOT DUP4 AND DUP2 OR SWAP1 SWAP4 SSTORE PUSH1 0x40 MLOAD SWAP2 AND SWAP2 SWAP1 DUP3 SWAP1 PUSH32 0x8BE0079C531659141344CD1FD0A4F28419497F9722A3DAAFE3B4186F6B6457E0 SWAP1 PUSH1 0x0 SWAP1 LOG3 POP POP JUMP JUMPDEST PUSH2 0x275C PUSH2 0x4152 JUMP JUMPDEST PUSH1 0x2 DUP3 MLOAD PUSH1 0x2 DUP2 GT ISZERO PUSH2 0x2771 JUMPI PUSH2 0x2771 PUSH2 0x455D JUMP JUMPDEST SUB PUSH2 0x27B5 JUMPI PUSH1 0x40 MLOAD PUSH3 0x461BCD PUSH1 0xE5 SHL DUP2 MSTORE PUSH1 0x20 PUSH1 0x4 DUP3 ADD MSTORE PUSH1 0x14 PUSH1 0x24 DUP3 ADD MSTORE PUSH20 0x10985D1D1B1948185B1C9958591E48195B991959 PUSH1 0x62 SHL PUSH1 0x44 DUP3 ADD MSTORE PUSH1 0x64 ADD PUSH2 0x972 JUMP JUMPDEST PUSH1 0x2 DUP3 MSTORE PUSH1 0x1 PUSH1 0x1 PUSH1 0xA0 SHL SUB DUP4 AND PUSH1 0xA0 DUP4 ADD MSTORE PUSH1 0x40 DUP3 ADD MLOAD PUSH2 0x27D7 SWAP1 DUP4 PUSH2 0x2C16 JUMP JUMPDEST PUSH1 0x0 PUSH1 0x7 PUSH1 0x0 DUP5 PUSH1 0x60 ADD MLOAD PUSH1 0x0 PUSH1 0x2 DUP2 LT PUSH2 0x27F4 JUMPI PUSH2 0x27F4 PUSH2 0x4C2B JUMP JUMPDEST PUSH1 0x20 MUL ADD MLOAD PUSH1 0x1 PUSH1 0x1 PUSH1 0xA0 SHL SUB AND PUSH1 0x1 PUSH1 0x1 PUSH1 0xA0 SHL SUB AND DUP2 MSTORE PUSH1 0x20 ADD SWAP1 DUP2 MSTORE PUSH1 0x20 ADD PUSH1 0x0 KECCAK256 SLOAD SWAP1 POP PUSH1 0x0 PUSH1 0x7 PUSH1 0x0 DUP6 PUSH1 0x60 ADD MLOAD PUSH1 0x1 PUSH1 0x2 DUP2 LT PUSH2 0x2839 JUMPI PUSH2 0x2839 PUSH2 0x4C2B JUMP JUMPDEST PUSH1 0x20 MUL ADD MLOAD PUSH1 0x1 PUSH1 0x1 PUSH1 0xA0 SHL SUB AND PUSH1 0x1 PUSH1 0x1 PUSH1 0xA0 SHL SUB AND DUP2 MSTORE PUSH1 0x20 ADD SWAP1 DUP2 MSTORE PUSH1 0x20 ADD PUSH1 0x0 KECCAK256 SLOAD SWAP1 POP PUSH1 0x0 PUSH1 0xA DUP4 DUP2 SLOAD DUP2 LT PUSH2 0x2876 JUMPI PUSH2 0x2876 PUSH2 0x4C2B JUMP JUMPDEST SWAP1 PUSH1 0x0 MSTORE PUSH1 0x20 PUSH1 0x0 KECCAK256 SWAP1 PUSH1 0x5 MUL ADD PUSH1 0x4 ADD PUSH1 0x0 PUSH2 0x100 EXP DUP2 SLOAD DUP2 PUSH1 0xFF MUL NOT AND SWAP1 DUP4 ISZERO ISZERO MUL OR SWAP1 SSTORE POP PUSH1 0x19 PUSH1 0xA DUP4 DUP2 SLOAD DUP2 LT PUSH2 0x28B3 JUMPI PUSH2 0x28B3 PUSH2 0x4C2B JUMP JUMPDEST SWAP1 PUSH1 0x0 MSTORE PUSH1 0x20 PUSH1 0x0 KECCAK256 SWAP1 PUSH1 0x5 MUL ADD PUSH1 0x3 ADD DUP2 SWAP1 SSTORE POP PUSH1 0xA DUP1 DUP4 DUP2 SLOAD DUP2 LT PUSH2 0x28DC JUMPI PUSH2 0x28DC PUSH2 0x4C2B JUMP JUMPDEST SWAP1 PUSH1 0x0 MSTORE PUSH1 0x20 PUSH1 0x0 KECCAK256 SWAP1 PUSH1 0x5 MUL ADD PUSH1 0x2 ADD DUP2 SWAP1 SSTORE POP PUSH1 0x0 PUSH1 0xA DUP3 DUP2 SLOAD DUP2 LT PUSH2 0x2906 JUMPI PUSH2 0x2906 PUSH2 0x4C2B JUMP JUMPDEST SWAP1 PUSH1 0x0 MSTORE PUSH1 0x20 PUSH1 0x0 KECCAK256 SWAP1 PUSH1 0x5 MUL ADD PUSH1 0x4 ADD PUSH1 0x0 PUSH2 0x100 EXP DUP2 SLOAD DUP2 PUSH1 0xFF MUL NOT AND SWAP1 DUP4 ISZERO ISZERO MUL OR SWAP1 SSTORE POP PUSH1 0x19 PUSH1 0xA DUP3 DUP2 SLOAD DUP2 LT PUSH2 0x2943 JUMPI PUSH2 0x2943 PUSH2 0x4C2B JUMP JUMPDEST SWAP1 PUSH1 0x0 MSTORE PUSH1 0x20 PUSH1 0x0 KECCAK256 SWAP1 PUSH1 0x5 MUL ADD PUSH1 0x3 ADD DUP2 SWAP1 SSTORE POP PUSH1 0xA DUP1 DUP3 DUP2 SLOAD DUP2 LT PUSH2 0x296C JUMPI PUSH2 0x296C PUSH2 0x4C2B JUMP JUMPDEST PUSH1 0x0 SWAP2 DUP3 MSTORE PUSH1 0x20 DUP3 KECCAK256 PUSH1 0x5 SWAP2 SWAP1 SWAP2 MUL ADD PUSH1 0x2 ADD SWAP2 SWAP1 SWAP2 SSTORE PUSH1 0x60 DUP6 ADD MLOAD MLOAD PUSH1 0x1 PUSH1 0x1 PUSH1 0xA0 SHL SUB DUP8 DUP2 AND SWAP2 AND EQ PUSH2 0x29A6 JUMPI PUSH1 0x60 DUP6 ADD MLOAD MLOAD PUSH2 0x29B0 JUMP JUMPDEST PUSH1 0x60 DUP6 ADD MLOAD PUSH1 0x20 ADD MLOAD JUMPDEST SWAP1 POP DUP1 PUSH1 0x1 PUSH1 0x1 PUSH1 0xA0 SHL SUB AND DUP7 PUSH1 0x1 PUSH1 0x1 PUSH1 0xA0 SHL SUB AND PUSH32 0xAE6E5EAFB6CD1CB4B139E7A0B9140AA182EE7D50E99F50D660156F79212ACBC0 DUP8 PUSH1 0x40 ADD MLOAD PUSH1 0x40 MLOAD PUSH2 0x29F9 SWAP2 SWAP1 PUSH2 0x4537 JUMP JUMPDEST PUSH1 0x40 MLOAD DUP1 SWAP2 SUB SWAP1 LOG3 POP SWAP3 SWAP5 SWAP4 POP POP POP POP JUMP JUMPDEST PUSH2 0x2A36 PUSH1 0x40 MLOAD DUP1 PUSH1 0x80 ADD PUSH1 0x40 MSTORE DUP1 PUSH1 0x60 DUP2 MSTORE PUSH1 0x20 ADD PUSH1 0x0 DUP2 MSTORE PUSH1 0x20 ADD PUSH1 0x0 DUP2 MSTORE PUSH1 0x20 ADD PUSH1 0x0 DUP2 MSTORE POP SWAP1 JUMP JUMPDEST PUSH1 0x0 PUSH2 0x2A43 PUSH1 0xA CALLER PUSH2 0x3466 JUMP JUMPDEST SWAP1 POP PUSH1 0x0 PUSH2 0x2A52 DUP3 PUSH1 0xA PUSH2 0x4F6F JUMP JUMPDEST SWAP1 POP PUSH1 0x0 PUSH1 0x64 TIMESTAMP CALLER PUSH1 0x40 MLOAD PUSH1 0x20 ADD PUSH2 0x2A86 SWAP3 SWAP2 SWAP1 SWAP2 DUP3 MSTORE PUSH1 0x60 SHL PUSH12 0xFFFFFFFFFFFFFFFFFFFFFFFF NOT AND PUSH1 0x20 DUP3 ADD MSTORE PUSH1 0x34 ADD SWAP1 JUMP JUMPDEST PUSH1 0x40 MLOAD PUSH1 0x20 DUP2 DUP4 SUB SUB DUP2 MSTORE SWAP1 PUSH1 0x40 MSTORE DUP1 MLOAD SWAP1 PUSH1 0x20 ADD KECCAK256 PUSH1 0x0 SHR PUSH2 0x2AA9 SWAP2 SWAP1 PUSH2 0x4F98 JUMP JUMPDEST SWAP1 POP PUSH2 0x2AB6 PUSH1 0x6 DUP3 PUSH2 0x4FAC JUMP JUMPDEST SWAP1 POP DUP1 PUSH1 0xFF AND PUSH1 0x0 SUB PUSH2 0x2AD1 JUMPI DUP1 PUSH2 0x2ACD DUP2 PUSH2 0x4FCE JUMP JUMPDEST SWAP2 POP POP JUMPDEST PUSH1 0x40 DUP1 MLOAD PUSH1 0x80 DUP2 ADD DUP3 MSTORE DUP7 DUP2 MSTORE PUSH1 0xFF DUP4 AND PUSH1 0x20 DUP3 ADD MSTORE SWAP1 DUP2 ADD DUP5 SWAP1 MSTORE PUSH1 0x60 DUP2 ADD DUP4 SWAP1 MSTORE PUSH1 0xB DUP1 SLOAD PUSH1 0x1 DUP2 ADD DUP3 SSTORE PUSH1 0x0 SWAP2 SWAP1 SWAP2 MSTORE DUP2 MLOAD DUP3 SWAP1 PUSH1 0x4 DUP4 MUL PUSH32 0x175B7A638427703F0DBE7BB9BBF987A2551717B34E79F33B5B1008D1FA01DB9 ADD SWAP1 DUP2 SWAP1 PUSH2 0x2B3B SWAP1 DUP3 PUSH2 0x4CA3 JUMP JUMPDEST POP PUSH1 0x20 DUP3 ADD MLOAD DUP2 PUSH1 0x1 ADD SSTORE PUSH1 0x40 DUP3 ADD MLOAD DUP2 PUSH1 0x2 ADD SSTORE PUSH1 0x60 DUP3 ADD MLOAD DUP2 PUSH1 0x3 ADD SSTORE POP POP DUP1 PUSH1 0x8 PUSH1 0x0 CALLER PUSH1 0x1 PUSH1 0x1 PUSH1 0xA0 SHL SUB AND PUSH1 0x1 PUSH1 0x1 PUSH1 0xA0 SHL SUB AND DUP2 MSTORE PUSH1 0x20 ADD SWAP1 DUP2 MSTORE PUSH1 0x20 ADD PUSH1 0x0 KECCAK256 DUP2 SWAP1 SSTORE POP PUSH2 0x2BB1 CALLER DUP5 PUSH1 0xFF AND PUSH1 0x1 PUSH1 0x40 MLOAD DUP1 PUSH1 0x40 ADD PUSH1 0x40 MSTORE DUP1 PUSH1 0x3 DUP2 MSTORE PUSH1 0x20 ADD PUSH3 0x30783 PUSH1 0xEC SHL DUP2 MSTORE POP PUSH2 0x34E4 JUMP JUMPDEST PUSH1 0x6 DUP1 SLOAD SWAP1 PUSH1 0x0 PUSH2 0x2BC1 DUP4 PUSH2 0x4DC7 JUMP JUMPDEST SWAP1 SWAP2 SSTORE POP POP PUSH1 0x40 DUP1 MLOAD PUSH1 0xFF DUP6 AND DUP2 MSTORE PUSH1 0x20 DUP2 ADD DUP8 SWAP1 MSTORE SWAP1 DUP2 ADD DUP6 SWAP1 MSTORE CALLER SWAP1 PUSH32 0xCA8AB07E9ED17D119729FC652DD24DF9D8430CA862DDA4631925B5B4B99DA362 SWAP1 PUSH1 0x60 ADD PUSH1 0x40 MLOAD DUP1 SWAP2 SUB SWAP1 LOG2 POP SWAP6 SWAP5 POP POP POP POP POP JUMP JUMPDEST PUSH2 0x2C1F DUP3 PUSH2 0xD5D JUMP JUMPDEST PUSH2 0x2C62 JUMPI PUSH1 0x40 MLOAD PUSH3 0x461BCD PUSH1 0xE5 SHL DUP2 MSTORE PUSH1 0x20 PUSH1 0x4 DUP3 ADD MSTORE PUSH1 0x14 PUSH1 0x24 DUP3 ADD MSTORE PUSH20 0x10985D1D1B1948191BD95CDB89DD08195E1A5CDD PUSH1 0x62 SHL PUSH1 0x44 DUP3 ADD MSTORE PUSH1 0x64 ADD PUSH2 0x972 JUMP JUMPDEST DUP1 PUSH1 0xC PUSH1 0x9 DUP5 PUSH1 0x40 MLOAD PUSH2 0x2C75 SWAP2 SWAP1 PUSH2 0x4C41 JUMP JUMPDEST SWAP1 DUP2 MSTORE PUSH1 0x20 ADD PUSH1 0x40 MLOAD DUP1 SWAP2 SUB SWAP1 KECCAK256 SLOAD DUP2 SLOAD DUP2 LT PUSH2 0x2C94 JUMPI PUSH2 0x2C94 PUSH2 0x4C2B JUMP JUMPDEST PUSH1 0x0 SWAP2 DUP3 MSTORE PUSH1 0x20 SWAP1 SWAP2 KECCAK256 DUP3 MLOAD PUSH1 0x7 SWAP1 SWAP3 MUL ADD DUP1 SLOAD SWAP1 SWAP2 SWAP1 DUP3 SWAP1 PUSH1 0xFF NOT AND PUSH1 0x1 DUP4 PUSH1 0x2 DUP2 GT ISZERO PUSH2 0x2CC5 JUMPI PUSH2 0x2CC5 PUSH2 0x455D JUMP JUMPDEST MUL OR SWAP1 SSTORE POP PUSH1 0x20 DUP3 ADD MLOAD PUSH1 0x1 DUP3 ADD SSTORE PUSH1 0x40 DUP3 ADD MLOAD PUSH1 0x2 DUP3 ADD SWAP1 PUSH2 0x2CE8 SWAP1 DUP3 PUSH2 0x4CA3 JUMP JUMPDEST POP PUSH1 0x60 DUP3 ADD MLOAD PUSH2 0x2CFE SWAP1 PUSH1 0x3 DUP4 ADD SWAP1 PUSH1 0x2 PUSH2 0x4195 JUMP JUMPDEST POP PUSH1 0x80 DUP3 ADD MLOAD PUSH2 0x2D14 SWAP1 PUSH1 0x5 DUP4 ADD SWAP1 PUSH1 0x2 PUSH2 0x41ED JUMP JUMPDEST POP PUSH1 0xA0 SWAP2 SWAP1 SWAP2 ADD MLOAD PUSH1 0x6 SWAP1 SWAP2 ADD DUP1 SLOAD PUSH1 0x1 PUSH1 0x1 PUSH1 0xA0 SHL SUB NOT AND PUSH1 0x1 PUSH1 0x1 PUSH1 0xA0 SHL SUB SWAP1 SWAP3 AND SWAP2 SWAP1 SWAP2 OR SWAP1 SSTORE POP POP JUMP JUMPDEST DUP2 PUSH1 0x1 PUSH1 0x1 PUSH1 0xA0 SHL SUB AND DUP4 PUSH1 0x1 PUSH1 0x1 PUSH1 0xA0 SHL SUB AND SUB PUSH2 0x2DB5 JUMPI PUSH1 0x40 MLOAD PUSH3 0x461BCD PUSH1 0xE5 SHL DUP2 MSTORE PUSH1 0x20 PUSH1 0x4 DUP3 ADD MSTORE PUSH1 0x29 PUSH1 0x24 DUP3 ADD MSTORE PUSH32 0x455243313135353A2073657474696E6720617070726F76616C20737461747573 PUSH1 0x44 DUP3 ADD MSTORE PUSH9 0x103337B91039B2B633 PUSH1 0xB9 SHL PUSH1 0x64 DUP3 ADD MSTORE PUSH1 0x84 ADD PUSH2 0x972 JUMP JUMPDEST PUSH1 0x1 PUSH1 0x1 PUSH1 0xA0 SHL SUB DUP4 DUP2 AND PUSH1 0x0 DUP2 DUP2 MSTORE PUSH1 0x1 PUSH1 0x20 SWAP1 DUP2 MSTORE PUSH1 0x40 DUP1 DUP4 KECCAK256 SWAP5 DUP8 AND DUP1 DUP5 MSTORE SWAP5 DUP3 MSTORE SWAP2 DUP3 SWAP1 KECCAK256 DUP1 SLOAD PUSH1 0xFF NOT AND DUP7 ISZERO ISZERO SWAP1 DUP2 OR SWAP1 SWAP2 SSTORE SWAP2 MLOAD SWAP2 DUP3 MSTORE PUSH32 0x17307EAB39AB6107E8899845AD3D59BD9653F200F220920489CA2B5937696C31 SWAP2 ADD PUSH1 0x40 MLOAD DUP1 SWAP2 SUB SWAP1 LOG3 POP POP POP JUMP JUMPDEST DUP2 PUSH1 0xFF AND PUSH1 0x1 EQ DUP1 PUSH2 0x2E37 JUMPI POP DUP2 PUSH1 0xFF AND PUSH1 0x2 EQ JUMPDEST PUSH2 0x2E83 JUMPI PUSH1 0x40 MLOAD PUSH3 0x461BCD PUSH1 0xE5 SHL DUP2 MSTORE PUSH1 0x20 PUSH1 0x4 DUP3 ADD MSTORE PUSH1 0x1F PUSH1 0x24 DUP3 ADD MSTORE PUSH32 0x43686F6963652073686F756C64206265206569746865722031206F7220322100 PUSH1 0x44 DUP3 ADD MSTORE PUSH1 0x64 ADD PUSH2 0x972 JUMP JUMPDEST DUP2 PUSH1 0xFF AND PUSH1 0x1 EQ PUSH2 0x2E95 JUMPI PUSH1 0x1 PUSH2 0x2EA7 JUMP JUMPDEST PUSH1 0x3 PUSH2 0x2EA0 CALLER PUSH2 0x1343 JUMP JUMPDEST PUSH1 0x40 ADD MLOAD LT ISZERO JUMPDEST PUSH2 0x2EFE JUMPI PUSH1 0x40 MLOAD PUSH3 0x461BCD PUSH1 0xE5 SHL DUP2 MSTORE PUSH1 0x20 PUSH1 0x4 DUP3 ADD MSTORE PUSH1 0x22 PUSH1 0x24 DUP3 ADD MSTORE PUSH32 0x4D616E61206E6F742073756666696369656E7420666F722061747461636B696E PUSH1 0x44 DUP3 ADD MSTORE PUSH2 0x6721 PUSH1 0xF0 SHL PUSH1 0x64 DUP3 ADD MSTORE PUSH1 0x84 ADD PUSH2 0x972 JUMP JUMPDEST DUP2 PUSH1 0xC PUSH1 0x9 DUP4 PUSH1 0x40 MLOAD PUSH2 0x2F11 SWAP2 SWAP1 PUSH2 0x4C41 JUMP JUMPDEST SWAP1 DUP2 MSTORE PUSH1 0x20 ADD PUSH1 0x40 MLOAD DUP1 SWAP2 SUB SWAP1 KECCAK256 SLOAD DUP2 SLOAD DUP2 LT PUSH2 0x2F30 JUMPI PUSH2 0x2F30 PUSH2 0x4C2B JUMP JUMPDEST SWAP1 PUSH1 0x0 MSTORE PUSH1 0x20 PUSH1 0x0 KECCAK256 SWAP1 PUSH1 0x7 MUL ADD PUSH1 0x5 ADD DUP5 PUSH1 0x2 DUP2 LT PUSH2 0x2F52 JUMPI PUSH2 0x2F52 PUSH2 0x4C2B JUMP JUMPDEST PUSH1 0x20 SWAP2 DUP3 DUP3 DIV ADD SWAP2 SWAP1 MOD PUSH2 0x100 EXP DUP2 SLOAD DUP2 PUSH1 0xFF MUL NOT AND SWAP1 DUP4 PUSH1 0xFF AND MUL OR SWAP1 SSTORE POP POP POP POP JUMP JUMPDEST PUSH1 0x0 PUSH2 0x2F82 DUP3 PUSH2 0xD8D JUMP JUMPDEST PUSH1 0x60 DUP2 ADD MLOAD MLOAD SWAP1 SWAP2 POP PUSH1 0x1 PUSH1 0x1 PUSH1 0xA0 SHL SUB AND CALLER EQ DUP1 PUSH2 0x2FB1 JUMPI POP PUSH1 0x60 DUP2 ADD MLOAD PUSH1 0x20 ADD MLOAD PUSH1 0x1 PUSH1 0x1 PUSH1 0xA0 SHL SUB AND CALLER EQ JUMPDEST PUSH2 0x3011 JUMPI PUSH1 0x40 MLOAD PUSH3 0x461BCD PUSH1 0xE5 SHL DUP2 MSTORE PUSH1 0x20 PUSH1 0x4 DUP3 ADD MSTORE PUSH1 0x2B PUSH1 0x24 DUP3 ADD MSTORE PUSH32 0x4F6E6C7920706C617965727320696E207468697320626174746C652063616E20 PUSH1 0x44 DUP3 ADD MSTORE PUSH11 0x6D616B652061206D6F7665 PUSH1 0xA8 SHL PUSH1 0x64 DUP3 ADD MSTORE PUSH1 0x84 ADD PUSH2 0x972 JUMP JUMPDEST PUSH1 0x80 DUP2 ADD MLOAD MLOAD PUSH1 0xFF AND ISZERO DUP1 ISZERO SWAP1 PUSH2 0x3032 JUMPI POP PUSH1 0x80 DUP2 ADD MLOAD PUSH1 0x20 ADD MLOAD PUSH1 0xFF AND ISZERO ISZERO JUMPDEST PUSH2 0x3088 JUMPI PUSH1 0x40 MLOAD PUSH3 0x461BCD PUSH1 0xE5 SHL DUP2 MSTORE PUSH1 0x20 PUSH1 0x4 DUP3 ADD MSTORE PUSH1 0x21 PUSH1 0x24 DUP3 ADD MSTORE PUSH32 0x506C6179657273207374696C6C206E65656420746F206D616B652061206D6F76 PUSH1 0x44 DUP3 ADD MSTORE PUSH1 0x65 PUSH1 0xF8 SHL PUSH1 0x64 DUP3 ADD MSTORE PUSH1 0x84 ADD PUSH2 0x972 JUMP JUMPDEST PUSH2 0x1B5E DUP2 PUSH2 0x35FE JUMP JUMPDEST PUSH1 0x60 DUP2 PUSH1 0x0 SUB PUSH2 0x30B8 JUMPI POP POP PUSH1 0x40 DUP1 MLOAD DUP1 DUP3 ADD SWAP1 SWAP2 MSTORE PUSH1 0x1 DUP2 MSTORE PUSH1 0x3 PUSH1 0xFC SHL PUSH1 0x20 DUP3 ADD MSTORE SWAP1 JUMP JUMPDEST DUP2 PUSH1 0x0 JUMPDEST DUP2 ISZERO PUSH2 0x30E2 JUMPI DUP1 PUSH2 0x30CC DUP2 PUSH2 0x4DC7 JUMP JUMPDEST SWAP2 POP PUSH2 0x30DB SWAP1 POP PUSH1 0xA DUP4 PUSH2 0x4FED JUMP JUMPDEST SWAP2 POP PUSH2 0x30BC JUMP JUMPDEST PUSH1 0x0 DUP2 PUSH1 0x1 PUSH1 0x1 PUSH1 0x40 SHL SUB DUP2 GT ISZERO PUSH2 0x30FC JUMPI PUSH2 0x30FC PUSH2 0x441A JUMP JUMPDEST PUSH1 0x40 MLOAD SWAP1 DUP1 DUP3 MSTORE DUP1 PUSH1 0x1F ADD PUSH1 0x1F NOT AND PUSH1 0x20 ADD DUP3 ADD PUSH1 0x40 MSTORE DUP1 ISZERO PUSH2 0x3126 JUMPI PUSH1 0x20 DUP3 ADD DUP2 DUP1 CALLDATASIZE DUP4 CALLDATACOPY ADD SWAP1 POP JUMPDEST POP SWAP1 POP DUP2 JUMPDEST DUP6 ISZERO PUSH2 0x31B3 JUMPI PUSH2 0x313C PUSH1 0x1 DUP3 PUSH2 0x4F6F JUMP JUMPDEST SWAP1 POP PUSH1 0x0 PUSH2 0x314B PUSH1 0xA DUP9 PUSH2 0x4FED JUMP JUMPDEST PUSH2 0x3156 SWAP1 PUSH1 0xA PUSH2 0x5001 JUMP JUMPDEST PUSH2 0x3160 SWAP1 DUP9 PUSH2 0x4F6F JUMP JUMPDEST PUSH2 0x316B SWAP1 PUSH1 0x30 PUSH2 0x5020 JUMP JUMPDEST SWAP1 POP PUSH1 0x0 DUP2 PUSH1 0xF8 SHL SWAP1 POP DUP1 DUP5 DUP5 DUP2 MLOAD DUP2 LT PUSH2 0x3188 JUMPI PUSH2 0x3188 PUSH2 0x4C2B JUMP JUMPDEST PUSH1 0x20 ADD ADD SWAP1 PUSH1 0x1 PUSH1 0x1 PUSH1 0xF8 SHL SUB NOT AND SWAP1 DUP2 PUSH1 0x0 BYTE SWAP1 MSTORE8 POP PUSH2 0x31AA PUSH1 0xA DUP10 PUSH2 0x4FED JUMP JUMPDEST SWAP8 POP POP POP PUSH2 0x312B JUMP JUMPDEST POP SWAP5 SWAP4 POP POP POP POP JUMP JUMPDEST PUSH1 0x1 PUSH1 0x1 PUSH1 0xA0 SHL SUB DUP5 AND PUSH2 0x31E2 JUMPI PUSH1 0x40 MLOAD PUSH3 0x461BCD PUSH1 0xE5 SHL DUP2 MSTORE PUSH1 0x4 ADD PUSH2 0x972 SWAP1 PUSH2 0x4E9F JUMP JUMPDEST CALLER PUSH1 0x0 PUSH2 0x31EE DUP6 PUSH2 0x3ED3 JUMP JUMPDEST SWAP1 POP PUSH1 0x0 PUSH2 0x31FB DUP6 PUSH2 0x3ED3 JUMP JUMPDEST SWAP1 POP PUSH2 0x320B DUP4 DUP10 DUP10 DUP6 DUP6 DUP10 PUSH2 0x32F4 JUMP JUMPDEST PUSH1 0x0 DUP7 DUP2 MSTORE PUSH1 0x20 DUP2 DUP2 MSTORE PUSH1 0x40 DUP1 DUP4 KECCAK256 PUSH1 0x1 PUSH1 0x1 PUSH1 0xA0 SHL SUB DUP13 AND DUP5 MSTORE SWAP1 SWAP2 MSTORE SWAP1 KECCAK256 SLOAD DUP6 DUP2 LT ISZERO PUSH2 0x324C JUMPI PUSH1 0x40 MLOAD PUSH3 0x461BCD PUSH1 0xE5 SHL DUP2 MSTORE PUSH1 0x4 ADD PUSH2 0x972 SWAP1 PUSH2 0x4EE4 JUMP JUMPDEST PUSH1 0x0 DUP8 DUP2 MSTORE PUSH1 0x20 DUP2 DUP2 MSTORE PUSH1 0x40 DUP1 DUP4 KECCAK256 PUSH1 0x1 PUSH1 0x1 PUSH1 0xA0 SHL SUB DUP14 DUP2 AND DUP6 MSTORE SWAP3 MSTORE DUP1 DUP4 KECCAK256 DUP10 DUP6 SUB SWAP1 SSTORE SWAP1 DUP11 AND DUP3 MSTORE DUP2 KECCAK256 DUP1 SLOAD DUP9 SWAP3 SWAP1 PUSH2 0x3289 SWAP1 DUP5 SWAP1 PUSH2 0x4F2E JUMP JUMPDEST SWAP1 SWAP2 SSTORE POP POP PUSH1 0x40 DUP1 MLOAD DUP9 DUP2 MSTORE PUSH1 0x20 DUP2 ADD DUP9 SWAP1 MSTORE PUSH1 0x1 PUSH1 0x1 PUSH1 0xA0 SHL SUB DUP1 DUP12 AND SWAP3 DUP13 DUP3 AND SWAP3 SWAP2 DUP9 AND SWAP2 PUSH32 0xC3D58168C5AE7397731D063D5BBF3D657854427343F4C083240F7AACAA2D0F62 SWAP2 ADD PUSH1 0x40 MLOAD DUP1 SWAP2 SUB SWAP1 LOG4 PUSH2 0x32E9 DUP5 DUP11 DUP11 DUP11 DUP11 DUP11 PUSH2 0x3F1E JUMP JUMPDEST POP POP POP POP POP POP POP POP POP JUMP JUMPDEST PUSH2 0x26FA DUP7 DUP7 DUP7 DUP7 DUP7 DUP7 PUSH2 0x3FD9 JUMP JUMPDEST PUSH1 0x1 PUSH1 0x1 PUSH1 0xA0 SHL SUB DUP5 AND EXTCODESIZE ISZERO PUSH2 0x26FA JUMPI PUSH1 0x40 MLOAD PUSH4 0xBC197C81 PUSH1 0xE0 SHL DUP2 MSTORE PUSH1 0x1 PUSH1 0x1 PUSH1 0xA0 SHL SUB DUP6 AND SWAP1 PUSH4 0xBC197C81 SWAP1 PUSH2 0x3346 SWAP1 DUP10 SWAP1 DUP10 SWAP1 DUP9 SWAP1 DUP9 SWAP1 DUP9 SWAP1 PUSH1 0x4 ADD PUSH2 0x5039 JUMP JUMPDEST PUSH1 0x20 PUSH1 0x40 MLOAD DUP1 DUP4 SUB DUP2 PUSH1 0x0 DUP8 GAS CALL SWAP3 POP POP POP DUP1 ISZERO PUSH2 0x3381 JUMPI POP PUSH1 0x40 DUP1 MLOAD PUSH1 0x1F RETURNDATASIZE SWAP1 DUP2 ADD PUSH1 0x1F NOT AND DUP3 ADD SWAP1 SWAP3 MSTORE PUSH2 0x337E SWAP2 DUP2 ADD SWAP1 PUSH2 0x5097 JUMP JUMPDEST PUSH1 0x1 JUMPDEST PUSH2 0x342D JUMPI PUSH2 0x338D PUSH2 0x50B4 JUMP JUMPDEST DUP1 PUSH4 0x8C379A0 SUB PUSH2 0x33C6 JUMPI POP PUSH2 0x33A1 PUSH2 0x50D0 JUMP JUMPDEST DUP1 PUSH2 0x33AC JUMPI POP PUSH2 0x33C8 JUMP JUMPDEST DUP1 PUSH1 0x40 MLOAD PUSH3 0x461BCD PUSH1 0xE5 SHL DUP2 MSTORE PUSH1 0x4 ADD PUSH2 0x972 SWAP2 SWAP1 PUSH2 0x4537 JUMP JUMPDEST POP JUMPDEST PUSH1 0x40 MLOAD PUSH3 0x461BCD PUSH1 0xE5 SHL DUP2 MSTORE PUSH1 0x20 PUSH1 0x4 DUP3 ADD MSTORE PUSH1 0x34 PUSH1 0x24 DUP3 ADD MSTORE PUSH32 0x455243313135353A207472616E7366657220746F206E6F6E2045524331313535 PUSH1 0x44 DUP3 ADD MSTORE PUSH20 0x2932B1B2B4BB32B91034B6B83632B6B2B73A32B9 PUSH1 0x61 SHL PUSH1 0x64 DUP3 ADD MSTORE PUSH1 0x84 ADD PUSH2 0x972 JUMP JUMPDEST PUSH1 0x1 PUSH1 0x1 PUSH1 0xE0 SHL SUB NOT DUP2 AND PUSH4 0xBC197C81 PUSH1 0xE0 SHL EQ PUSH2 0x345D JUMPI PUSH1 0x40 MLOAD PUSH3 0x461BCD PUSH1 0xE5 SHL DUP2 MSTORE PUSH1 0x4 ADD PUSH2 0x972 SWAP1 PUSH2 0x5159 JUMP JUMPDEST POP POP POP POP POP POP POP JUMP JUMPDEST PUSH1 0x0 DUP1 DIFFICULTY TIMESTAMP DUP5 PUSH1 0x40 MLOAD PUSH1 0x20 ADD PUSH2 0x34A1 SWAP4 SWAP3 SWAP2 SWAP1 SWAP3 DUP4 MSTORE PUSH1 0x20 DUP4 ADD SWAP2 SWAP1 SWAP2 MSTORE PUSH1 0x60 SHL PUSH12 0xFFFFFFFFFFFFFFFFFFFFFFFF NOT AND PUSH1 0x40 DUP3 ADD MSTORE PUSH1 0x54 ADD SWAP1 JUMP JUMPDEST PUSH1 0x40 DUP1 MLOAD PUSH1 0x1F NOT DUP2 DUP5 SUB ADD DUP2 MSTORE SWAP2 SWAP1 MSTORE DUP1 MLOAD PUSH1 0x20 SWAP1 SWAP2 ADD KECCAK256 SWAP1 POP PUSH2 0x34C5 DUP5 DUP3 PUSH2 0x4F98 JUMP JUMPDEST SWAP2 POP DUP2 PUSH1 0x0 SUB PUSH2 0x34DD JUMPI PUSH2 0x34DA PUSH1 0x2 DUP6 PUSH2 0x4FED JUMP JUMPDEST SWAP2 POP JUMPDEST POP SWAP3 SWAP2 POP POP JUMP JUMPDEST PUSH1 0x1 PUSH1 0x1 PUSH1 0xA0 SHL SUB DUP5 AND PUSH2 0x3544 JUMPI PUSH1 0x40 MLOAD PUSH3 0x461BCD PUSH1 0xE5 SHL DUP2 MSTORE PUSH1 0x20 PUSH1 0x4 DUP3 ADD MSTORE PUSH1 0x21 PUSH1 0x24 DUP3 ADD MSTORE PUSH32 0x455243313135353A206D696E7420746F20746865207A65726F20616464726573 PUSH1 0x44 DUP3 ADD MSTORE PUSH1 0x73 PUSH1 0xF8 SHL PUSH1 0x64 DUP3 ADD MSTORE PUSH1 0x84 ADD PUSH2 0x972 JUMP JUMPDEST CALLER PUSH1 0x0 PUSH2 0x3550 DUP6 PUSH2 0x3ED3 JUMP JUMPDEST SWAP1 POP PUSH1 0x0 PUSH2 0x355D DUP6 PUSH2 0x3ED3 JUMP JUMPDEST SWAP1 POP PUSH2 0x356E DUP4 PUSH1 0x0 DUP10 DUP6 DUP6 DUP10 PUSH2 0x32F4 JUMP JUMPDEST PUSH1 0x0 DUP7 DUP2 MSTORE PUSH1 0x20 DUP2 DUP2 MSTORE PUSH1 0x40 DUP1 DUP4 KECCAK256 PUSH1 0x1 PUSH1 0x1 PUSH1 0xA0 SHL SUB DUP12 AND DUP5 MSTORE SWAP1 SWAP2 MSTORE DUP2 KECCAK256 DUP1 SLOAD DUP8 SWAP3 SWAP1 PUSH2 0x359E SWAP1 DUP5 SWAP1 PUSH2 0x4F2E JUMP JUMPDEST SWAP1 SWAP2 SSTORE POP POP PUSH1 0x40 DUP1 MLOAD DUP8 DUP2 MSTORE PUSH1 0x20 DUP2 ADD DUP8 SWAP1 MSTORE PUSH1 0x1 PUSH1 0x1 PUSH1 0xA0 SHL SUB DUP1 DUP11 AND SWAP3 PUSH1 0x0 SWAP3 SWAP2 DUP8 AND SWAP2 PUSH32 0xC3D58168C5AE7397731D063D5BBF3D657854427343F4C083240F7AACAA2D0F62 SWAP2 ADD PUSH1 0x40 MLOAD DUP1 SWAP2 SUB SWAP1 LOG4 PUSH2 0x345D DUP4 PUSH1 0x0 DUP10 DUP10 DUP10 DUP10 PUSH2 0x3F1E JUMP JUMPDEST PUSH1 0x0 PUSH1 0x40 MLOAD DUP1 PUSH1 0xA0 ADD PUSH1 0x40 MSTORE DUP1 PUSH1 0x7 PUSH1 0x0 DUP6 PUSH1 0x60 ADD MLOAD PUSH1 0x0 PUSH1 0x2 DUP2 LT PUSH2 0x3626 JUMPI PUSH2 0x3626 PUSH2 0x4C2B JUMP JUMPDEST PUSH1 0x20 MUL ADD MLOAD PUSH1 0x1 PUSH1 0x1 PUSH1 0xA0 SHL SUB AND PUSH1 0x1 PUSH1 0x1 PUSH1 0xA0 SHL SUB AND DUP2 MSTORE PUSH1 0x20 ADD SWAP1 DUP2 MSTORE PUSH1 0x20 ADD PUSH1 0x0 KECCAK256 SLOAD DUP2 MSTORE PUSH1 0x20 ADD DUP4 PUSH1 0x80 ADD MLOAD PUSH1 0x0 PUSH1 0x2 DUP2 LT PUSH2 0x3668 JUMPI PUSH2 0x3668 PUSH2 0x4C2B JUMP JUMPDEST PUSH1 0x20 MUL ADD MLOAD PUSH1 0xFF AND DUP2 MSTORE PUSH1 0x20 ADD PUSH2 0x3699 DUP5 PUSH1 0x60 ADD MLOAD PUSH1 0x0 PUSH1 0x2 DUP2 LT PUSH2 0x368F JUMPI PUSH2 0x368F PUSH2 0x4C2B JUMP JUMPDEST PUSH1 0x20 MUL ADD MLOAD PUSH2 0x1343 JUMP JUMPDEST PUSH1 0x60 ADD MLOAD DUP2 MSTORE PUSH1 0x20 ADD PUSH2 0x36C6 DUP5 PUSH1 0x60 ADD MLOAD PUSH1 0x0 PUSH1 0x2 DUP2 LT PUSH2 0x36BC JUMPI PUSH2 0x36BC PUSH2 0x4C2B JUMP JUMPDEST PUSH1 0x20 MUL ADD MLOAD PUSH2 0xBDF JUMP JUMPDEST PUSH1 0x40 ADD MLOAD DUP2 MSTORE PUSH1 0x20 ADD PUSH2 0x36E9 DUP5 PUSH1 0x60 ADD MLOAD PUSH1 0x0 PUSH1 0x2 DUP2 LT PUSH2 0x36BC JUMPI PUSH2 0x36BC PUSH2 0x4C2B JUMP JUMPDEST PUSH1 0x60 ADD MLOAD DUP2 MSTORE POP SWAP1 POP PUSH1 0x0 PUSH1 0x40 MLOAD DUP1 PUSH1 0xA0 ADD PUSH1 0x40 MSTORE DUP1 PUSH1 0x7 PUSH1 0x0 DUP7 PUSH1 0x60 ADD MLOAD PUSH1 0x1 PUSH1 0x2 DUP2 LT PUSH2 0x371A JUMPI PUSH2 0x371A PUSH2 0x4C2B JUMP JUMPDEST PUSH1 0x20 MUL ADD MLOAD PUSH1 0x1 PUSH1 0x1 PUSH1 0xA0 SHL SUB AND PUSH1 0x1 PUSH1 0x1 PUSH1 0xA0 SHL SUB AND DUP2 MSTORE PUSH1 0x20 ADD SWAP1 DUP2 MSTORE PUSH1 0x20 ADD PUSH1 0x0 KECCAK256 SLOAD DUP2 MSTORE PUSH1 0x20 ADD DUP5 PUSH1 0x80 ADD MLOAD PUSH1 0x1 PUSH1 0x2 DUP2 LT PUSH2 0x375C JUMPI PUSH2 0x375C PUSH2 0x4C2B JUMP JUMPDEST PUSH1 0x20 MUL ADD MLOAD PUSH1 0xFF AND DUP2 MSTORE PUSH1 0x20 ADD PUSH2 0x3783 DUP6 PUSH1 0x60 ADD MLOAD PUSH1 0x1 PUSH1 0x2 DUP2 LT PUSH2 0x368F JUMPI PUSH2 0x368F PUSH2 0x4C2B JUMP JUMPDEST PUSH1 0x60 ADD MLOAD DUP2 MSTORE PUSH1 0x20 ADD PUSH2 0x37A6 DUP6 PUSH1 0x60 ADD MLOAD PUSH1 0x1 PUSH1 0x2 DUP2 LT PUSH2 0x36BC JUMPI PUSH2 0x36BC PUSH2 0x4C2B JUMP JUMPDEST PUSH1 0x40 ADD MLOAD DUP2 MSTORE PUSH1 0x20 ADD PUSH2 0x37C9 DUP6 PUSH1 0x60 ADD MLOAD PUSH1 0x1 PUSH1 0x2 DUP2 LT PUSH2 0x36BC JUMPI PUSH2 0x36BC PUSH2 0x4C2B JUMP JUMPDEST PUSH1 0x60 ADD MLOAD SWAP1 MSTORE PUSH1 0x40 DUP1 MLOAD DUP1 DUP3 ADD SWAP1 SWAP2 MSTORE PUSH1 0x0 DUP1 DUP3 MSTORE PUSH1 0x20 DUP1 DUP4 ADD SWAP2 SWAP1 SWAP2 MSTORE DUP5 ADD MLOAD SWAP2 SWAP3 POP SWAP1 PUSH1 0x1 EQ DUP1 ISZERO PUSH2 0x3801 JUMPI POP DUP2 PUSH1 0x20 ADD MLOAD PUSH1 0x1 EQ JUMPDEST ISZERO PUSH2 0x3958 JUMPI DUP2 PUSH1 0x40 ADD MLOAD DUP4 PUSH1 0x60 ADD MLOAD LT PUSH2 0x3832 JUMPI PUSH1 0x60 DUP5 ADD MLOAD PUSH2 0x382C SWAP1 PUSH1 0x0 JUMPDEST PUSH1 0x20 MUL ADD MLOAD DUP6 PUSH2 0x2754 JUMP JUMPDEST POP PUSH2 0x3C73 JUMP JUMPDEST DUP3 PUSH1 0x40 ADD MLOAD DUP3 PUSH1 0x60 ADD MLOAD LT PUSH2 0x3851 JUMPI PUSH1 0x60 DUP5 ADD MLOAD PUSH2 0x382C SWAP1 PUSH1 0x1 PUSH2 0x3821 JUMP JUMPDEST DUP2 PUSH1 0x60 ADD MLOAD PUSH1 0xA DUP5 PUSH1 0x0 ADD MLOAD DUP2 SLOAD DUP2 LT PUSH2 0x386D JUMPI PUSH2 0x386D PUSH2 0x4C2B JUMP JUMPDEST SWAP1 PUSH1 0x0 MSTORE PUSH1 0x20 PUSH1 0x0 KECCAK256 SWAP1 PUSH1 0x5 MUL ADD PUSH1 0x3 ADD PUSH1 0x0 DUP3 DUP3 SLOAD PUSH2 0x388D SWAP2 SWAP1 PUSH2 0x4F6F JUMP JUMPDEST SWAP1 SWAP2 SSTORE POP POP PUSH1 0x60 DUP4 ADD MLOAD DUP3 MLOAD PUSH1 0xA DUP1 SLOAD SWAP1 SWAP2 SWAP1 DUP2 LT PUSH2 0x38AE JUMPI PUSH2 0x38AE PUSH2 0x4C2B JUMP JUMPDEST SWAP1 PUSH1 0x0 MSTORE PUSH1 0x20 PUSH1 0x0 KECCAK256 SWAP1 PUSH1 0x5 MUL ADD PUSH1 0x3 ADD PUSH1 0x0 DUP3 DUP3 SLOAD PUSH2 0x38CE SWAP2 SWAP1 PUSH2 0x4F6F JUMP JUMPDEST SWAP1 SWAP2 SSTORE POP POP DUP3 MLOAD PUSH1 0xA DUP1 SLOAD PUSH1 0x3 SWAP3 SWAP1 DUP2 LT PUSH2 0x38EB JUMPI PUSH2 0x38EB PUSH2 0x4C2B JUMP JUMPDEST SWAP1 PUSH1 0x0 MSTORE PUSH1 0x20 PUSH1 0x0 KECCAK256 SWAP1 PUSH1 0x5 MUL ADD PUSH1 0x2 ADD PUSH1 0x0 DUP3 DUP3 SLOAD PUSH2 0x390B SWAP2 SWAP1 PUSH2 0x4F6F JUMP JUMPDEST SWAP1 SWAP2 SSTORE POP POP DUP2 MLOAD PUSH1 0xA DUP1 SLOAD PUSH1 0x3 SWAP3 SWAP1 DUP2 LT PUSH2 0x3928 JUMPI PUSH2 0x3928 PUSH2 0x4C2B JUMP JUMPDEST SWAP1 PUSH1 0x0 MSTORE PUSH1 0x20 PUSH1 0x0 KECCAK256 SWAP1 PUSH1 0x5 MUL ADD PUSH1 0x2 ADD PUSH1 0x0 DUP3 DUP3 SLOAD PUSH2 0x3948 SWAP2 SWAP1 PUSH2 0x4F6F JUMP JUMPDEST SWAP1 SWAP2 SSTORE POP POP POP PUSH1 0x60 DUP4 ADD MLOAD PUSH2 0x3C73 JUMP JUMPDEST DUP3 PUSH1 0x20 ADD MLOAD PUSH1 0x1 EQ DUP1 ISZERO PUSH2 0x3970 JUMPI POP DUP2 PUSH1 0x20 ADD MLOAD PUSH1 0x2 EQ JUMPDEST ISZERO PUSH2 0x3AA7 JUMPI PUSH1 0x0 DUP3 PUSH1 0x80 ADD MLOAD DUP4 PUSH1 0x40 ADD MLOAD PUSH2 0x398B SWAP2 SWAP1 PUSH2 0x4F2E JUMP JUMPDEST SWAP1 POP DUP1 DUP5 PUSH1 0x60 ADD MLOAD LT PUSH2 0x39B5 JUMPI PUSH1 0x60 DUP6 ADD MLOAD PUSH2 0x39AF SWAP1 PUSH1 0x0 JUMPDEST PUSH1 0x20 MUL ADD MLOAD DUP7 PUSH2 0x2754 JUMP JUMPDEST POP PUSH2 0x382C JUMP JUMPDEST PUSH1 0x0 DUP5 PUSH1 0x60 ADD MLOAD DUP5 PUSH1 0x80 ADD MLOAD GT ISZERO PUSH2 0x39D2 JUMPI POP PUSH1 0x40 DUP4 ADD MLOAD PUSH2 0x39F8 JUMP JUMPDEST PUSH1 0x60 DUP6 ADD MLOAD PUSH2 0x39E1 SWAP1 DUP4 PUSH2 0x4F6F JUMP JUMPDEST PUSH1 0x60 DUP8 ADD MLOAD PUSH1 0x20 ADD MLOAD PUSH1 0x1 PUSH1 0x1 PUSH1 0xA0 SHL SUB AND DUP5 MSTORE SWAP1 POP JUMPDEST DUP1 PUSH1 0xA DUP6 PUSH1 0x0 ADD MLOAD DUP2 SLOAD DUP2 LT PUSH2 0x3A10 JUMPI PUSH2 0x3A10 PUSH2 0x4C2B JUMP JUMPDEST SWAP1 PUSH1 0x0 MSTORE PUSH1 0x20 PUSH1 0x0 KECCAK256 SWAP1 PUSH1 0x5 MUL ADD PUSH1 0x3 ADD DUP2 SWAP1 SSTORE POP PUSH1 0x3 PUSH1 0xA DUP7 PUSH1 0x0 ADD MLOAD DUP2 SLOAD DUP2 LT PUSH2 0x3A3E JUMPI PUSH2 0x3A3E PUSH2 0x4C2B JUMP JUMPDEST SWAP1 PUSH1 0x0 MSTORE PUSH1 0x20 PUSH1 0x0 KECCAK256 SWAP1 PUSH1 0x5 MUL ADD PUSH1 0x2 ADD PUSH1 0x0 DUP3 DUP3 SLOAD PUSH2 0x3A5E SWAP2 SWAP1 PUSH2 0x4F6F JUMP JUMPDEST SWAP1 SWAP2 SSTORE POP POP DUP4 MLOAD PUSH1 0xA DUP1 SLOAD PUSH1 0x3 SWAP3 SWAP1 DUP2 LT PUSH2 0x3A7B JUMPI PUSH2 0x3A7B PUSH2 0x4C2B JUMP JUMPDEST SWAP1 PUSH1 0x0 MSTORE PUSH1 0x20 PUSH1 0x0 KECCAK256 SWAP1 PUSH1 0x5 MUL ADD PUSH1 0x2 ADD PUSH1 0x0 DUP3 DUP3 SLOAD PUSH2 0x3A9B SWAP2 SWAP1 PUSH2 0x4F2E JUMP JUMPDEST SWAP1 SWAP2 SSTORE POP POP POP POP PUSH2 0x3C73 JUMP JUMPDEST DUP3 PUSH1 0x20 ADD MLOAD PUSH1 0x2 EQ DUP1 ISZERO PUSH2 0x3ABF JUMPI POP DUP2 PUSH1 0x20 ADD MLOAD PUSH1 0x1 EQ JUMPDEST ISZERO PUSH2 0x3BDA JUMPI PUSH1 0x0 DUP4 PUSH1 0x80 ADD MLOAD DUP5 PUSH1 0x40 ADD MLOAD PUSH2 0x3ADA SWAP2 SWAP1 PUSH2 0x4F2E JUMP JUMPDEST SWAP1 POP DUP1 DUP4 PUSH1 0x60 ADD MLOAD LT PUSH2 0x3AF7 JUMPI PUSH1 0x60 DUP6 ADD MLOAD PUSH2 0x39AF SWAP1 PUSH1 0x1 PUSH2 0x39A4 JUMP JUMPDEST PUSH1 0x0 DUP4 PUSH1 0x60 ADD MLOAD DUP6 PUSH1 0x80 ADD MLOAD GT ISZERO PUSH2 0x3B14 JUMPI POP PUSH1 0x40 DUP5 ADD MLOAD PUSH2 0x3B37 JUMP JUMPDEST PUSH1 0x60 DUP5 ADD MLOAD PUSH2 0x3B23 SWAP1 DUP4 PUSH2 0x4F6F JUMP JUMPDEST PUSH1 0x60 DUP8 ADD MLOAD MLOAD PUSH1 0x1 PUSH1 0x1 PUSH1 0xA0 SHL SUB AND DUP5 MSTORE SWAP1 POP JUMPDEST DUP1 PUSH1 0xA DUP7 PUSH1 0x0 ADD MLOAD DUP2 SLOAD DUP2 LT PUSH2 0x3B4F JUMPI PUSH2 0x3B4F PUSH2 0x4C2B JUMP JUMPDEST SWAP1 PUSH1 0x0 MSTORE PUSH1 0x20 PUSH1 0x0 KECCAK256 SWAP1 PUSH1 0x5 MUL ADD PUSH1 0x3 ADD DUP2 SWAP1 SSTORE POP PUSH1 0x3 PUSH1 0xA DUP7 PUSH1 0x0 ADD MLOAD DUP2 SLOAD DUP2 LT PUSH2 0x3B7D JUMPI PUSH2 0x3B7D PUSH2 0x4C2B JUMP JUMPDEST SWAP1 PUSH1 0x0 MSTORE PUSH1 0x20 PUSH1 0x0 KECCAK256 SWAP1 PUSH1 0x5 MUL ADD PUSH1 0x2 ADD PUSH1 0x0 DUP3 DUP3 SLOAD PUSH2 0x3B9D SWAP2 SWAP1 PUSH2 0x4F2E JUMP JUMPDEST SWAP1 SWAP2 SSTORE POP POP DUP4 MLOAD PUSH1 0xA DUP1 SLOAD PUSH1 0x3 SWAP3 SWAP1 DUP2 LT PUSH2 0x3BBA JUMPI PUSH2 0x3BBA PUSH2 0x4C2B JUMP JUMPDEST SWAP1 PUSH1 0x0 MSTORE PUSH1 0x20 PUSH1 0x0 KECCAK256 SWAP1 PUSH1 0x5 MUL ADD PUSH1 0x2 ADD PUSH1 0x0 DUP3 DUP3 SLOAD PUSH2 0x3A9B SWAP2 SWAP1 PUSH2 0x4F6F JUMP JUMPDEST DUP3 PUSH1 0x20 ADD MLOAD PUSH1 0x2 EQ DUP1 ISZERO PUSH2 0x3BF2 JUMPI POP DUP2 PUSH1 0x20 ADD MLOAD PUSH1 0x2 EQ JUMPDEST ISZERO PUSH2 0x3C73 JUMPI PUSH1 0x3 PUSH1 0xA DUP5 PUSH1 0x0 ADD MLOAD DUP2 SLOAD DUP2 LT PUSH2 0x3C10 JUMPI PUSH2 0x3C10 PUSH2 0x4C2B JUMP JUMPDEST SWAP1 PUSH1 0x0 MSTORE PUSH1 0x20 PUSH1 0x0 KECCAK256 SWAP1 PUSH1 0x5 MUL ADD PUSH1 0x2 ADD PUSH1 0x0 DUP3 DUP3 SLOAD PUSH2 0x3C30 SWAP2 SWAP1 PUSH2 0x4F2E JUMP JUMPDEST SWAP1 SWAP2 SSTORE POP POP DUP2 MLOAD PUSH1 0xA DUP1 SLOAD PUSH1 0x3 SWAP3 SWAP1 DUP2 LT PUSH2 0x3C4D JUMPI PUSH2 0x3C4D PUSH2 0x4C2B JUMP JUMPDEST SWAP1 PUSH1 0x0 MSTORE PUSH1 0x20 PUSH1 0x0 KECCAK256 SWAP1 PUSH1 0x5 MUL ADD PUSH1 0x2 ADD PUSH1 0x0 DUP3 DUP3 SLOAD PUSH2 0x3C6D SWAP2 SWAP1 PUSH2 0x4F2E JUMP JUMPDEST SWAP1 SWAP2 SSTORE POP POP JUMPDEST PUSH32 0xC6BF860CBC15F7020F73993A671F01BBB1831A8A7A12C126CA735EB632E75775 DUP2 PUSH1 0x40 MLOAD PUSH2 0x3CA2 SWAP2 SWAP1 PUSH2 0x51A1 JUMP JUMPDEST PUSH1 0x40 MLOAD DUP1 SWAP2 SUB SWAP1 LOG1 PUSH1 0x80 DUP5 ADD DUP1 MLOAD PUSH1 0x0 SWAP1 DUP2 SWAP1 MSTORE SWAP1 MLOAD PUSH1 0x20 ADD MSTORE PUSH1 0x40 DUP5 ADD MLOAD PUSH2 0x3CCB SWAP1 DUP6 PUSH2 0x2C16 JUMP JUMPDEST PUSH1 0x0 PUSH2 0x3CF3 PUSH1 0xA DUP7 PUSH1 0x60 ADD MLOAD PUSH1 0x0 PUSH1 0x2 DUP2 LT PUSH2 0x3CE9 JUMPI PUSH2 0x3CE9 PUSH2 0x4C2B JUMP JUMPDEST PUSH1 0x20 MUL ADD MLOAD PUSH2 0x3466 JUMP JUMPDEST SWAP1 POP DUP1 PUSH1 0xB PUSH1 0x8 PUSH1 0x0 DUP9 PUSH1 0x60 ADD MLOAD PUSH1 0x0 PUSH1 0x2 DUP2 LT PUSH2 0x3D13 JUMPI PUSH2 0x3D13 PUSH2 0x4C2B JUMP JUMPDEST PUSH1 0x20 MUL ADD MLOAD PUSH1 0x1 PUSH1 0x1 PUSH1 0xA0 SHL SUB AND PUSH1 0x1 PUSH1 0x1 PUSH1 0xA0 SHL SUB AND DUP2 MSTORE PUSH1 0x20 ADD SWAP1 DUP2 MSTORE PUSH1 0x20 ADD PUSH1 0x0 KECCAK256 SLOAD DUP2 SLOAD DUP2 LT PUSH2 0x3D49 JUMPI PUSH2 0x3D49 PUSH2 0x4C2B JUMP JUMPDEST PUSH1 0x0 SWAP2 DUP3 MSTORE PUSH1 0x20 SWAP1 SWAP2 KECCAK256 PUSH1 0x2 PUSH1 0x4 SWAP1 SWAP3 MUL ADD ADD SSTORE PUSH2 0x3D68 DUP2 PUSH1 0xA PUSH2 0x4F6F JUMP JUMPDEST PUSH1 0xB PUSH1 0x8 PUSH1 0x0 DUP9 PUSH1 0x60 ADD MLOAD PUSH1 0x0 PUSH1 0x2 DUP2 LT PUSH2 0x3D85 JUMPI PUSH2 0x3D85 PUSH2 0x4C2B JUMP JUMPDEST PUSH1 0x20 MUL ADD MLOAD PUSH1 0x1 PUSH1 0x1 PUSH1 0xA0 SHL SUB AND PUSH1 0x1 PUSH1 0x1 PUSH1 0xA0 SHL SUB AND DUP2 MSTORE PUSH1 0x20 ADD SWAP1 DUP2 MSTORE PUSH1 0x20 ADD PUSH1 0x0 KECCAK256 SLOAD DUP2 SLOAD DUP2 LT PUSH2 0x3DBB JUMPI PUSH2 0x3DBB PUSH2 0x4C2B JUMP JUMPDEST SWAP1 PUSH1 0x0 MSTORE PUSH1 0x20 PUSH1 0x0 KECCAK256 SWAP1 PUSH1 0x4 MUL ADD PUSH1 0x3 ADD DUP2 SWAP1 SSTORE POP PUSH1 0x0 PUSH2 0x3DEE PUSH1 0xA DUP8 PUSH1 0x60 ADD MLOAD PUSH1 0x1 PUSH1 0x2 DUP2 LT PUSH2 0x3CE9 JUMPI PUSH2 0x3CE9 PUSH2 0x4C2B JUMP JUMPDEST SWAP1 POP DUP1 PUSH1 0xB PUSH1 0x8 PUSH1 0x0 DUP10 PUSH1 0x60 ADD MLOAD PUSH1 0x1 PUSH1 0x2 DUP2 LT PUSH2 0x3E0E JUMPI PUSH2 0x3E0E PUSH2 0x4C2B JUMP JUMPDEST PUSH1 0x20 MUL ADD MLOAD PUSH1 0x1 PUSH1 0x1 PUSH1 0xA0 SHL SUB AND PUSH1 0x1 PUSH1 0x1 PUSH1 0xA0 SHL SUB AND DUP2 MSTORE PUSH1 0x20 ADD SWAP1 DUP2 MSTORE PUSH1 0x20 ADD PUSH1 0x0 KECCAK256 SLOAD DUP2 SLOAD DUP2 LT PUSH2 0x3E44 JUMPI PUSH2 0x3E44 PUSH2 0x4C2B JUMP JUMPDEST PUSH1 0x0 SWAP2 DUP3 MSTORE PUSH1 0x20 SWAP1 SWAP2 KECCAK256 PUSH1 0x2 PUSH1 0x4 SWAP1 SWAP3 MUL ADD ADD SSTORE PUSH2 0x3E63 DUP2 PUSH1 0xA PUSH2 0x4F6F JUMP JUMPDEST PUSH1 0xB PUSH1 0x8 PUSH1 0x0 DUP10 PUSH1 0x60 ADD MLOAD PUSH1 0x1 PUSH1 0x2 DUP2 LT PUSH2 0x3E80 JUMPI PUSH2 0x3E80 PUSH2 0x4C2B JUMP JUMPDEST PUSH1 0x20 MUL ADD MLOAD PUSH1 0x1 PUSH1 0x1 PUSH1 0xA0 SHL SUB AND PUSH1 0x1 PUSH1 0x1 PUSH1 0xA0 SHL SUB AND DUP2 MSTORE PUSH1 0x20 ADD SWAP1 DUP2 MSTORE PUSH1 0x20 ADD PUSH1 0x0 KECCAK256 SLOAD DUP2 SLOAD DUP2 LT PUSH2 0x3EB6 JUMPI PUSH2 0x3EB6 PUSH2 0x4C2B JUMP JUMPDEST SWAP1 PUSH1 0x0 MSTORE PUSH1 0x20 PUSH1 0x0 KECCAK256 SWAP1 PUSH1 0x4 MUL ADD PUSH1 0x3 ADD DUP2 SWAP1 SSTORE POP POP POP POP POP POP POP JUMP JUMPDEST PUSH1 0x40 DUP1 MLOAD PUSH1 0x1 DUP1 DUP3 MSTORE DUP2 DUP4 ADD SWAP1 SWAP3 MSTORE PUSH1 0x60 SWAP2 PUSH1 0x0 SWAP2 SWAP1 PUSH1 0x20 DUP1 DUP4 ADD SWAP1 DUP1 CALLDATASIZE DUP4 CALLDATACOPY ADD SWAP1 POP POP SWAP1 POP DUP3 DUP2 PUSH1 0x0 DUP2 MLOAD DUP2 LT PUSH2 0x3F0D JUMPI PUSH2 0x3F0D PUSH2 0x4C2B JUMP JUMPDEST PUSH1 0x20 SWAP1 DUP2 MUL SWAP2 SWAP1 SWAP2 ADD ADD MSTORE SWAP3 SWAP2 POP POP JUMP JUMPDEST PUSH1 0x1 PUSH1 0x1 PUSH1 0xA0 SHL SUB DUP5 AND EXTCODESIZE ISZERO PUSH2 0x26FA JUMPI PUSH1 0x40 MLOAD PUSH4 0xF23A6E61 PUSH1 0xE0 SHL DUP2 MSTORE PUSH1 0x1 PUSH1 0x1 PUSH1 0xA0 SHL SUB DUP6 AND SWAP1 PUSH4 0xF23A6E61 SWAP1 PUSH2 0x3F62 SWAP1 DUP10 SWAP1 DUP10 SWAP1 DUP9 SWAP1 DUP9 SWAP1 DUP9 SWAP1 PUSH1 0x4 ADD PUSH2 0x51AF JUMP JUMPDEST PUSH1 0x20 PUSH1 0x40 MLOAD DUP1 DUP4 SUB DUP2 PUSH1 0x0 DUP8 GAS CALL SWAP3 POP POP POP DUP1 ISZERO PUSH2 0x3F9D JUMPI POP PUSH1 0x40 DUP1 MLOAD PUSH1 0x1F RETURNDATASIZE SWAP1 DUP2 ADD PUSH1 0x1F NOT AND DUP3 ADD SWAP1 SWAP3 MSTORE PUSH2 0x3F9A SWAP2 DUP2 ADD SWAP1 PUSH2 0x5097 JUMP JUMPDEST PUSH1 0x1 JUMPDEST PUSH2 0x3FA9 JUMPI PUSH2 0x338D PUSH2 0x50B4 JUMP JUMPDEST PUSH1 0x1 PUSH1 0x1 PUSH1 0xE0 SHL SUB NOT DUP2 AND PUSH4 0xF23A6E61 PUSH1 0xE0 SHL EQ PUSH2 0x345D JUMPI PUSH1 0x40 MLOAD PUSH3 0x461BCD PUSH1 0xE5 SHL DUP2 MSTORE PUSH1 0x4 ADD PUSH2 0x972 SWAP1 PUSH2 0x5159 JUMP JUMPDEST PUSH1 0x1 PUSH1 0x1 PUSH1 0xA0 SHL SUB DUP6 AND PUSH2 0x4060 JUMPI PUSH1 0x0 JUMPDEST DUP4 MLOAD DUP2 LT ISZERO PUSH2 0x405E JUMPI DUP3 DUP2 DUP2 MLOAD DUP2 LT PUSH2 0x4005 JUMPI PUSH2 0x4005 PUSH2 0x4C2B JUMP JUMPDEST PUSH1 0x20 MUL PUSH1 0x20 ADD ADD MLOAD PUSH1 0x4 PUSH1 0x0 DUP7 DUP5 DUP2 MLOAD DUP2 LT PUSH2 0x4023 JUMPI PUSH2 0x4023 PUSH2 0x4C2B JUMP JUMPDEST PUSH1 0x20 MUL PUSH1 0x20 ADD ADD MLOAD DUP2 MSTORE PUSH1 0x20 ADD SWAP1 DUP2 MSTORE PUSH1 0x20 ADD PUSH1 0x0 KECCAK256 PUSH1 0x0 DUP3 DUP3 SLOAD PUSH2 0x4048 SWAP2 SWAP1 PUSH2 0x4F2E JUMP JUMPDEST SWAP1 SWAP2 SSTORE POP PUSH2 0x4057 SWAP1 POP DUP2 PUSH2 0x4DC7 JUMP JUMPDEST SWAP1 POP PUSH2 0x3FEA JUMP JUMPDEST POP JUMPDEST PUSH1 0x1 PUSH1 0x1 PUSH1 0xA0 SHL SUB DUP5 AND PUSH2 0x26FA JUMPI PUSH1 0x0 JUMPDEST DUP4 MLOAD DUP2 LT ISZERO PUSH2 0x345D JUMPI PUSH1 0x0 DUP5 DUP3 DUP2 MLOAD DUP2 LT PUSH2 0x408E JUMPI PUSH2 0x408E PUSH2 0x4C2B JUMP JUMPDEST PUSH1 0x20 MUL PUSH1 0x20 ADD ADD MLOAD SWAP1 POP PUSH1 0x0 DUP5 DUP4 DUP2 MLOAD DUP2 LT PUSH2 0x40AC JUMPI PUSH2 0x40AC PUSH2 0x4C2B JUMP JUMPDEST PUSH1 0x20 MUL PUSH1 0x20 ADD ADD MLOAD SWAP1 POP PUSH1 0x0 PUSH1 0x4 PUSH1 0x0 DUP5 DUP2 MSTORE PUSH1 0x20 ADD SWAP1 DUP2 MSTORE PUSH1 0x20 ADD PUSH1 0x0 KECCAK256 SLOAD SWAP1 POP DUP2 DUP2 LT ISZERO PUSH2 0x412F JUMPI PUSH1 0x40 MLOAD PUSH3 0x461BCD PUSH1 0xE5 SHL DUP2 MSTORE PUSH1 0x20 PUSH1 0x4 DUP3 ADD MSTORE PUSH1 0x28 PUSH1 0x24 DUP3 ADD MSTORE PUSH32 0x455243313135353A206275726E20616D6F756E74206578636565647320746F74 PUSH1 0x44 DUP3 ADD MSTORE PUSH8 0x616C537570706C79 PUSH1 0xC0 SHL PUSH1 0x64 DUP3 ADD MSTORE PUSH1 0x84 ADD PUSH2 0x972 JUMP JUMPDEST PUSH1 0x0 SWAP3 DUP4 MSTORE PUSH1 0x4 PUSH1 0x20 MSTORE PUSH1 0x40 SWAP1 SWAP3 KECCAK256 SWAP2 SUB SWAP1 SSTORE PUSH2 0x414B DUP2 PUSH2 0x4DC7 JUMP JUMPDEST SWAP1 POP PUSH2 0x4071 JUMP JUMPDEST PUSH1 0x40 DUP1 MLOAD PUSH1 0xC0 DUP2 ADD SWAP1 SWAP2 MSTORE DUP1 PUSH1 0x0 DUP2 MSTORE PUSH1 0x0 PUSH1 0x20 DUP3 ADD MSTORE PUSH1 0x60 PUSH1 0x40 DUP3 ADD DUP2 SWAP1 MSTORE ADD PUSH2 0x417B PUSH2 0x427B JUMP JUMPDEST DUP2 MSTORE PUSH1 0x20 ADD PUSH2 0x4188 PUSH2 0x427B JUMP JUMPDEST DUP2 MSTORE PUSH1 0x0 PUSH1 0x20 SWAP1 SWAP2 ADD MSTORE SWAP1 JUMP JUMPDEST DUP3 PUSH1 0x2 DUP2 ADD SWAP3 DUP3 ISZERO PUSH2 0x41DD JUMPI SWAP2 PUSH1 0x20 MUL DUP3 ADD JUMPDEST DUP3 DUP2 GT ISZERO PUSH2 0x41DD JUMPI DUP3 MLOAD DUP3 SLOAD PUSH1 0x1 PUSH1 0x1 PUSH1 0xA0 SHL SUB NOT AND PUSH1 0x1 PUSH1 0x1 PUSH1 0xA0 SHL SUB SWAP1 SWAP2 AND OR DUP3 SSTORE PUSH1 0x20 SWAP1 SWAP3 ADD SWAP2 PUSH1 0x1 SWAP1 SWAP2 ADD SWAP1 PUSH2 0x41A8 JUMP JUMPDEST POP PUSH2 0x41E9 SWAP3 SWAP2 POP PUSH2 0x4299 JUMP JUMPDEST POP SWAP1 JUMP JUMPDEST PUSH1 0x1 DUP4 ADD SWAP2 DUP4 SWAP1 DUP3 ISZERO PUSH2 0x41DD JUMPI SWAP2 PUSH1 0x20 MUL DUP3 ADD PUSH1 0x0 JUMPDEST DUP4 DUP3 GT ISZERO PUSH2 0x4241 JUMPI DUP4 MLOAD DUP4 DUP3 PUSH2 0x100 EXP DUP2 SLOAD DUP2 PUSH1 0xFF MUL NOT AND SWAP1 DUP4 PUSH1 0xFF AND MUL OR SWAP1 SSTORE POP SWAP3 PUSH1 0x20 ADD SWAP3 PUSH1 0x1 ADD PUSH1 0x20 DUP2 PUSH1 0x0 ADD DIV SWAP3 DUP4 ADD SWAP3 PUSH1 0x1 SUB MUL PUSH2 0x4203 JUMP JUMPDEST DUP1 ISZERO PUSH2 0x426E JUMPI DUP3 DUP2 PUSH2 0x100 EXP DUP2 SLOAD SWAP1 PUSH1 0xFF MUL NOT AND SWAP1 SSTORE PUSH1 0x1 ADD PUSH1 0x20 DUP2 PUSH1 0x0 ADD DIV SWAP3 DUP4 ADD SWAP3 PUSH1 0x1 SUB MUL PUSH2 0x4241 JUMP JUMPDEST POP POP PUSH2 0x41E9 SWAP3 SWAP2 POP PUSH2 0x4299 JUMP JUMPDEST PUSH1 0x40 MLOAD DUP1 PUSH1 0x40 ADD PUSH1 0x40 MSTORE DUP1 PUSH1 0x2 SWAP1 PUSH1 0x20 DUP3 MUL DUP1 CALLDATASIZE DUP4 CALLDATACOPY POP SWAP2 SWAP3 SWAP2 POP POP JUMP JUMPDEST JUMPDEST DUP1 DUP3 GT ISZERO PUSH2 0x41E9 JUMPI PUSH1 0x0 DUP2 SSTORE PUSH1 0x1 ADD PUSH2 0x429A JUMP JUMPDEST DUP1 CALLDATALOAD PUSH1 0x1 PUSH1 0x1 PUSH1 0xA0 SHL SUB DUP2 AND DUP2 EQ PUSH2 0xB46 JUMPI PUSH1 0x0 DUP1 REVERT JUMPDEST PUSH1 0x0 DUP1 PUSH1 0x40 DUP4 DUP6 SUB SLT ISZERO PUSH2 0x42D8 JUMPI PUSH1 0x0 DUP1 REVERT JUMPDEST PUSH2 0x42E1 DUP4 PUSH2 0x42AE JUMP JUMPDEST SWAP5 PUSH1 0x20 SWAP4 SWAP1 SWAP4 ADD CALLDATALOAD SWAP4 POP POP POP JUMP JUMPDEST PUSH1 0x0 JUMPDEST DUP4 DUP2 LT ISZERO PUSH2 0x430A JUMPI DUP2 DUP2 ADD MLOAD DUP4 DUP3 ADD MSTORE PUSH1 0x20 ADD PUSH2 0x42F2 JUMP JUMPDEST POP POP PUSH1 0x0 SWAP2 ADD MSTORE JUMP JUMPDEST PUSH1 0x0 DUP2 MLOAD DUP1 DUP5 MSTORE PUSH2 0x432B DUP2 PUSH1 0x20 DUP7 ADD PUSH1 0x20 DUP7 ADD PUSH2 0x42EF JUMP JUMPDEST PUSH1 0x1F ADD PUSH1 0x1F NOT AND SWAP3 SWAP1 SWAP3 ADD PUSH1 0x20 ADD SWAP3 SWAP2 POP POP JUMP JUMPDEST PUSH1 0x0 DUP2 MLOAD PUSH1 0x80 DUP5 MSTORE PUSH2 0x4354 PUSH1 0x80 DUP6 ADD DUP3 PUSH2 0x4313 JUMP JUMPDEST SWAP1 POP PUSH1 0x20 DUP4 ADD MLOAD PUSH1 0x20 DUP6 ADD MSTORE PUSH1 0x40 DUP4 ADD MLOAD PUSH1 0x40 DUP6 ADD MSTORE PUSH1 0x60 DUP4 ADD MLOAD PUSH1 0x60 DUP6 ADD MSTORE DUP1 SWAP2 POP POP SWAP3 SWAP2 POP POP JUMP JUMPDEST PUSH1 0x0 PUSH1 0x20 DUP1 DUP4 ADD DUP2 DUP5 MSTORE DUP1 DUP6 MLOAD DUP1 DUP4 MSTORE PUSH1 0x40 DUP7 ADD SWAP2 POP PUSH1 0x40 DUP2 PUSH1 0x5 SHL DUP8 ADD ADD SWAP3 POP DUP4 DUP8 ADD PUSH1 0x0 JUMPDEST DUP3 DUP2 LT ISZERO PUSH2 0x43D3 JUMPI PUSH1 0x3F NOT DUP9 DUP7 SUB ADD DUP5 MSTORE PUSH2 0x43C1 DUP6 DUP4 MLOAD PUSH2 0x433F JUMP JUMPDEST SWAP5 POP SWAP3 DUP6 ADD SWAP3 SWAP1 DUP6 ADD SWAP1 PUSH1 0x1 ADD PUSH2 0x43A5 JUMP JUMPDEST POP SWAP3 SWAP8 SWAP7 POP POP POP POP POP POP POP JUMP JUMPDEST PUSH1 0x1 PUSH1 0x1 PUSH1 0xE0 SHL SUB NOT DUP2 AND DUP2 EQ PUSH2 0xB14 JUMPI PUSH1 0x0 DUP1 REVERT JUMPDEST PUSH1 0x0 PUSH1 0x20 DUP3 DUP5 SUB SLT ISZERO PUSH2 0x4408 JUMPI PUSH1 0x0 DUP1 REVERT JUMPDEST DUP2 CALLDATALOAD PUSH2 0x4413 DUP2 PUSH2 0x43E0 JUMP JUMPDEST SWAP4 SWAP3 POP POP POP JUMP JUMPDEST PUSH4 0x4E487B71 PUSH1 0xE0 SHL PUSH1 0x0 MSTORE PUSH1 0x41 PUSH1 0x4 MSTORE PUSH1 0x24 PUSH1 0x0 REVERT JUMPDEST PUSH1 0x1F DUP3 ADD PUSH1 0x1F NOT AND DUP2 ADD PUSH1 0x1 PUSH1 0x1 PUSH1 0x40 SHL SUB DUP2 GT DUP3 DUP3 LT OR ISZERO PUSH2 0x4455 JUMPI PUSH2 0x4455 PUSH2 0x441A JUMP JUMPDEST PUSH1 0x40 MSTORE POP POP JUMP JUMPDEST PUSH1 0x0 DUP3 PUSH1 0x1F DUP4 ADD SLT PUSH2 0x446D JUMPI PUSH1 0x0 DUP1 REVERT JUMPDEST DUP2 CALLDATALOAD PUSH1 0x1 PUSH1 0x1 PUSH1 0x40 SHL SUB DUP2 GT ISZERO PUSH2 0x4486 JUMPI PUSH2 0x4486 PUSH2 0x441A JUMP JUMPDEST PUSH1 0x40 MLOAD PUSH2 0x449D PUSH1 0x1F DUP4 ADD PUSH1 0x1F NOT AND PUSH1 0x20 ADD DUP3 PUSH2 0x4430 JUMP JUMPDEST DUP2 DUP2 MSTORE DUP5 PUSH1 0x20 DUP4 DUP7 ADD ADD GT ISZERO PUSH2 0x44B2 JUMPI PUSH1 0x0 DUP1 REVERT JUMPDEST DUP2 PUSH1 0x20 DUP6 ADD PUSH1 0x20 DUP4 ADD CALLDATACOPY PUSH1 0x0 SWAP2 DUP2 ADD PUSH1 0x20 ADD SWAP2 SWAP1 SWAP2 MSTORE SWAP4 SWAP3 POP POP POP JUMP JUMPDEST PUSH1 0x0 PUSH1 0x20 DUP3 DUP5 SUB SLT ISZERO PUSH2 0x44E1 JUMPI PUSH1 0x0 DUP1 REVERT JUMPDEST DUP2 CALLDATALOAD PUSH1 0x1 PUSH1 0x1 PUSH1 0x40 SHL SUB DUP2 GT ISZERO PUSH2 0x44F7 JUMPI PUSH1 0x0 DUP1 REVERT JUMPDEST PUSH2 0x34DA DUP5 DUP3 DUP6 ADD PUSH2 0x445C JUMP JUMPDEST PUSH1 0x0 PUSH1 0x20 DUP3 DUP5 SUB SLT ISZERO PUSH2 0x4515 JUMPI PUSH1 0x0 DUP1 REVERT JUMPDEST PUSH2 0x4413 DUP3 PUSH2 0x42AE JUMP JUMPDEST PUSH1 0x0 PUSH1 0x20 DUP3 DUP5 SUB SLT ISZERO PUSH2 0x4530 JUMPI PUSH1 0x0 DUP1 REVERT JUMPDEST POP CALLDATALOAD SWAP2 SWAP1 POP JUMP JUMPDEST PUSH1 0x20 DUP2 MSTORE PUSH1 0x0 PUSH2 0x4413 PUSH1 0x20 DUP4 ADD DUP5 PUSH2 0x4313 JUMP JUMPDEST PUSH1 0x20 DUP2 MSTORE PUSH1 0x0 PUSH2 0x4413 PUSH1 0x20 DUP4 ADD DUP5 PUSH2 0x433F JUMP JUMPDEST PUSH4 0x4E487B71 PUSH1 0xE0 SHL PUSH1 0x0 MSTORE PUSH1 0x21 PUSH1 0x4 MSTORE PUSH1 0x24 PUSH1 0x0 REVERT JUMPDEST PUSH1 0x3 DUP2 LT PUSH2 0x4591 JUMPI PUSH4 0x4E487B71 PUSH1 0xE0 SHL PUSH1 0x0 MSTORE PUSH1 0x21 PUSH1 0x4 MSTORE PUSH1 0x24 PUSH1 0x0 REVERT JUMPDEST SWAP1 MSTORE JUMP JUMPDEST DUP1 PUSH1 0x0 JUMPDEST PUSH1 0x2 DUP2 LT ISZERO PUSH2 0x20CD JUMPI DUP2 MLOAD PUSH1 0x1 PUSH1 0x1 PUSH1 0xA0 SHL SUB AND DUP5 MSTORE PUSH1 0x20 SWAP4 DUP5 ADD SWAP4 SWAP1 SWAP2 ADD SWAP1 PUSH1 0x1 ADD PUSH2 0x4599 JUMP JUMPDEST PUSH1 0x0 PUSH2 0x100 PUSH2 0x45D1 DUP5 DUP5 MLOAD PUSH2 0x4573 JUMP JUMPDEST PUSH1 0x20 DUP1 DUP5 ADD MLOAD DUP2 DUP7 ADD MSTORE PUSH1 0x40 DUP5 ADD MLOAD DUP3 PUSH1 0x40 DUP8 ADD MSTORE PUSH2 0x45F2 DUP4 DUP8 ADD DUP3 PUSH2 0x4313 JUMP JUMPDEST SWAP3 POP POP PUSH1 0x60 DUP5 ADD MLOAD PUSH2 0x4607 PUSH1 0x60 DUP8 ADD DUP3 PUSH2 0x4595 JUMP JUMPDEST POP PUSH1 0x80 DUP5 ADD MLOAD PUSH1 0xA0 DUP7 ADD PUSH1 0x0 JUMPDEST PUSH1 0x2 DUP2 LT ISZERO PUSH2 0x4634 JUMPI DUP3 MLOAD PUSH1 0xFF AND DUP3 MSTORE SWAP2 DUP4 ADD SWAP2 SWAP1 DUP4 ADD SWAP1 PUSH1 0x1 ADD PUSH2 0x4614 JUMP JUMPDEST POP POP POP POP PUSH1 0xA0 DUP4 ADD MLOAD PUSH1 0x1 PUSH1 0x1 PUSH1 0xA0 SHL SUB DUP2 AND PUSH1 0xE0 DUP7 ADD MSTORE PUSH2 0x133B JUMP JUMPDEST PUSH1 0x20 DUP2 MSTORE PUSH1 0x0 PUSH2 0x4413 PUSH1 0x20 DUP4 ADD DUP5 PUSH2 0x45C1 JUMP JUMPDEST PUSH1 0x0 PUSH1 0x1 PUSH1 0x1 PUSH1 0x40 SHL SUB DUP3 GT ISZERO PUSH2 0x467D JUMPI PUSH2 0x467D PUSH2 0x441A JUMP JUMPDEST POP PUSH1 0x5 SHL PUSH1 0x20 ADD SWAP1 JUMP JUMPDEST PUSH1 0x0 DUP3 PUSH1 0x1F DUP4 ADD SLT PUSH2 0x4698 JUMPI PUSH1 0x0 DUP1 REVERT JUMPDEST DUP2 CALLDATALOAD PUSH1 0x20 PUSH2 0x46A5 DUP3 PUSH2 0x4664 JUMP JUMPDEST PUSH1 0x40 MLOAD PUSH2 0x46B2 DUP3 DUP3 PUSH2 0x4430 JUMP JUMPDEST DUP4 DUP2 MSTORE PUSH1 0x5 SWAP4 SWAP1 SWAP4 SHL DUP6 ADD DUP3 ADD SWAP3 DUP3 DUP2 ADD SWAP2 POP DUP7 DUP5 GT ISZERO PUSH2 0x46D2 JUMPI PUSH1 0x0 DUP1 REVERT JUMPDEST DUP3 DUP7 ADD JUMPDEST DUP5 DUP2 LT ISZERO PUSH2 0x46ED JUMPI DUP1 CALLDATALOAD DUP4 MSTORE SWAP2 DUP4 ADD SWAP2 DUP4 ADD PUSH2 0x46D6 JUMP JUMPDEST POP SWAP7 SWAP6 POP POP POP POP POP POP JUMP JUMPDEST PUSH1 0x0 DUP1 PUSH1 0x0 DUP1 PUSH1 0x0 PUSH1 0xA0 DUP7 DUP9 SUB SLT ISZERO PUSH2 0x4710 JUMPI PUSH1 0x0 DUP1 REVERT JUMPDEST PUSH2 0x4719 DUP7 PUSH2 0x42AE JUMP JUMPDEST SWAP5 POP PUSH2 0x4727 PUSH1 0x20 DUP8 ADD PUSH2 0x42AE JUMP JUMPDEST SWAP4 POP PUSH1 0x40 DUP7 ADD CALLDATALOAD PUSH1 0x1 PUSH1 0x1 PUSH1 0x40 SHL SUB DUP1 DUP3 GT ISZERO PUSH2 0x4743 JUMPI PUSH1 0x0 DUP1 REVERT JUMPDEST PUSH2 0x474F DUP10 DUP4 DUP11 ADD PUSH2 0x4687 JUMP JUMPDEST SWAP5 POP PUSH1 0x60 DUP9 ADD CALLDATALOAD SWAP2 POP DUP1 DUP3 GT ISZERO PUSH2 0x4765 JUMPI PUSH1 0x0 DUP1 REVERT JUMPDEST PUSH2 0x4771 DUP10 DUP4 DUP11 ADD PUSH2 0x4687 JUMP JUMPDEST SWAP4 POP PUSH1 0x80 DUP9 ADD CALLDATALOAD SWAP2 POP DUP1 DUP3 GT ISZERO PUSH2 0x4787 JUMPI PUSH1 0x0 DUP1 REVERT JUMPDEST POP PUSH2 0x4794 DUP9 DUP3 DUP10 ADD PUSH2 0x445C JUMP JUMPDEST SWAP2 POP POP SWAP3 SWAP6 POP SWAP3 SWAP6 SWAP1 SWAP4 POP JUMP JUMPDEST PUSH1 0x0 DUP1 PUSH1 0x40 DUP4 DUP6 SUB SLT ISZERO PUSH2 0x47B4 JUMPI PUSH1 0x0 DUP1 REVERT JUMPDEST DUP3 CALLDATALOAD PUSH1 0x1 PUSH1 0x1 PUSH1 0x40 SHL SUB DUP1 DUP3 GT ISZERO PUSH2 0x47CB JUMPI PUSH1 0x0 DUP1 REVERT JUMPDEST DUP2 DUP6 ADD SWAP2 POP DUP6 PUSH1 0x1F DUP4 ADD SLT PUSH2 0x47DF JUMPI PUSH1 0x0 DUP1 REVERT JUMPDEST DUP2 CALLDATALOAD PUSH1 0x20 PUSH2 0x47EC DUP3 PUSH2 0x4664 JUMP JUMPDEST PUSH1 0x40 MLOAD PUSH2 0x47F9 DUP3 DUP3 PUSH2 0x4430 JUMP JUMPDEST DUP4 DUP2 MSTORE PUSH1 0x5 SWAP4 SWAP1 SWAP4 SHL DUP6 ADD DUP3 ADD SWAP3 DUP3 DUP2 ADD SWAP2 POP DUP10 DUP5 GT ISZERO PUSH2 0x4819 JUMPI PUSH1 0x0 DUP1 REVERT JUMPDEST SWAP5 DUP3 ADD SWAP5 JUMPDEST DUP4 DUP7 LT ISZERO PUSH2 0x483E JUMPI PUSH2 0x482F DUP7 PUSH2 0x42AE JUMP JUMPDEST DUP3 MSTORE SWAP5 DUP3 ADD SWAP5 SWAP1 DUP3 ADD SWAP1 PUSH2 0x481E JUMP JUMPDEST SWAP7 POP POP DUP7 ADD CALLDATALOAD SWAP3 POP POP DUP1 DUP3 GT ISZERO PUSH2 0x4854 JUMPI PUSH1 0x0 DUP1 REVERT JUMPDEST POP PUSH2 0x4861 DUP6 DUP3 DUP7 ADD PUSH2 0x4687 JUMP JUMPDEST SWAP2 POP POP SWAP3 POP SWAP3 SWAP1 POP JUMP JUMPDEST PUSH1 0x0 DUP2 MLOAD DUP1 DUP5 MSTORE PUSH1 0x20 DUP1 DUP6 ADD SWAP5 POP DUP1 DUP5 ADD PUSH1 0x0 JUMPDEST DUP4 DUP2 LT ISZERO PUSH2 0x489B JUMPI DUP2 MLOAD DUP8 MSTORE SWAP6 DUP3 ADD SWAP6 SWAP1 DUP3 ADD SWAP1 PUSH1 0x1 ADD PUSH2 0x487F JUMP JUMPDEST POP SWAP5 SWAP6 SWAP5 POP POP POP POP POP JUMP JUMPDEST PUSH1 0x20 DUP2 MSTORE PUSH1 0x0 PUSH2 0x4413 PUSH1 0x20 DUP4 ADD DUP5 PUSH2 0x486B JUMP JUMPDEST PUSH1 0x1 DUP1 PUSH1 0xA0 SHL SUB DUP2 MLOAD AND DUP3 MSTORE PUSH1 0x0 PUSH1 0x20 DUP3 ADD MLOAD PUSH1 0xA0 PUSH1 0x20 DUP6 ADD MSTORE PUSH2 0x48E0 PUSH1 0xA0 DUP6 ADD DUP3 PUSH2 0x4313 JUMP JUMPDEST SWAP1 POP PUSH1 0x40 DUP4 ADD MLOAD PUSH1 0x40 DUP6 ADD MSTORE PUSH1 0x60 DUP4 ADD MLOAD PUSH1 0x60 DUP6 ADD MSTORE PUSH1 0x80 DUP4 ADD MLOAD ISZERO ISZERO PUSH1 0x80 DUP6 ADD MSTORE DUP1 SWAP2 POP POP SWAP3 SWAP2 POP POP JUMP JUMPDEST PUSH1 0x20 DUP2 MSTORE PUSH1 0x0 PUSH2 0x4413 PUSH1 0x20 DUP4 ADD DUP5 PUSH2 0x48B9 JUMP JUMPDEST PUSH1 0x0 PUSH1 0x20 DUP1 DUP4 ADD DUP2 DUP5 MSTORE DUP1 DUP6 MLOAD DUP1 DUP4 MSTORE PUSH1 0x40 DUP7 ADD SWAP2 POP PUSH1 0x40 DUP2 PUSH1 0x5 SHL DUP8 ADD ADD SWAP3 POP DUP4 DUP8 ADD PUSH1 0x0 JUMPDEST DUP3 DUP2 LT ISZERO PUSH2 0x43D3 JUMPI PUSH1 0x3F NOT DUP9 DUP7 SUB ADD DUP5 MSTORE PUSH2 0x4962 DUP6 DUP4 MLOAD PUSH2 0x45C1 JUMP JUMPDEST SWAP5 POP SWAP3 DUP6 ADD SWAP3 SWAP1 DUP6 ADD SWAP1 PUSH1 0x1 ADD PUSH2 0x4946 JUMP JUMPDEST PUSH2 0x497E DUP2 DUP7 PUSH2 0x4573 JUMP JUMPDEST DUP4 PUSH1 0x20 DUP3 ADD MSTORE PUSH1 0x80 PUSH1 0x40 DUP3 ADD MSTORE PUSH1 0x0 PUSH2 0x499A PUSH1 0x80 DUP4 ADD DUP6 PUSH2 0x4313 JUMP JUMPDEST SWAP1 POP PUSH1 0x1 DUP1 PUSH1 0xA0 SHL SUB DUP4 AND PUSH1 0x60 DUP4 ADD MSTORE SWAP6 SWAP5 POP POP POP POP POP JUMP JUMPDEST PUSH1 0x0 DUP1 PUSH1 0x40 DUP4 DUP6 SUB SLT ISZERO PUSH2 0x49C6 JUMPI PUSH1 0x0 DUP1 REVERT JUMPDEST DUP3 CALLDATALOAD PUSH1 0x1 PUSH1 0x1 PUSH1 0x40 SHL SUB DUP1 DUP3 GT ISZERO PUSH2 0x49DD JUMPI PUSH1 0x0 DUP1 REVERT JUMPDEST PUSH2 0x49E9 DUP7 DUP4 DUP8 ADD PUSH2 0x445C JUMP JUMPDEST SWAP4 POP PUSH1 0x20 DUP6 ADD CALLDATALOAD SWAP2 POP DUP1 DUP3 GT ISZERO PUSH2 0x49FF JUMPI PUSH1 0x0 DUP1 REVERT JUMPDEST POP PUSH2 0x4861 DUP6 DUP3 DUP7 ADD PUSH2 0x445C JUMP JUMPDEST PUSH1 0x0 DUP1 PUSH1 0x40 DUP4 DUP6 SUB SLT ISZERO PUSH2 0x4A1F JUMPI PUSH1 0x0 DUP1 REVERT JUMPDEST PUSH2 0x4A28 DUP4 PUSH2 0x42AE JUMP JUMPDEST SWAP2 POP PUSH1 0x20 DUP4 ADD CALLDATALOAD DUP1 ISZERO ISZERO DUP2 EQ PUSH2 0x4A3D JUMPI PUSH1 0x0 DUP1 REVERT JUMPDEST DUP1 SWAP2 POP POP SWAP3 POP SWAP3 SWAP1 POP JUMP JUMPDEST PUSH1 0x0 DUP1 PUSH1 0x40 DUP4 DUP6 SUB SLT ISZERO PUSH2 0x4A5B JUMPI PUSH1 0x0 DUP1 REVERT JUMPDEST DUP3 CALLDATALOAD PUSH1 0xFF DUP2 AND DUP2 EQ PUSH2 0x4A6C JUMPI PUSH1 0x0 DUP1 REVERT JUMPDEST SWAP2 POP PUSH1 0x20 DUP4 ADD CALLDATALOAD PUSH1 0x1 PUSH1 0x1 PUSH1 0x40 SHL SUB DUP2 GT ISZERO PUSH2 0x4A87 JUMPI PUSH1 0x0 DUP1 REVERT JUMPDEST PUSH2 0x4861 DUP6 DUP3 DUP7 ADD PUSH2 0x445C JUMP JUMPDEST PUSH1 0x80 DUP2 MSTORE PUSH1 0x0 PUSH2 0x4AA6 PUSH1 0x80 DUP4 ADD DUP8 PUSH2 0x4313 JUMP JUMPDEST PUSH1 0x20 DUP4 ADD SWAP6 SWAP1 SWAP6 MSTORE POP PUSH1 0x40 DUP2 ADD SWAP3 SWAP1 SWAP3 MSTORE PUSH1 0x60 SWAP1 SWAP2 ADD MSTORE SWAP2 SWAP1 POP JUMP JUMPDEST PUSH1 0x0 DUP1 PUSH1 0x40 DUP4 DUP6 SUB SLT ISZERO PUSH2 0x4AD5 JUMPI PUSH1 0x0 DUP1 REVERT JUMPDEST PUSH2 0x4ADE DUP4 PUSH2 0x42AE JUMP JUMPDEST SWAP2 POP PUSH2 0x4AEC PUSH1 0x20 DUP5 ADD PUSH2 0x42AE JUMP JUMPDEST SWAP1 POP SWAP3 POP SWAP3 SWAP1 POP JUMP JUMPDEST PUSH1 0x0 PUSH1 0x20 DUP1 DUP4 ADD DUP2 DUP5 MSTORE DUP1 DUP6 MLOAD DUP1 DUP4 MSTORE PUSH1 0x40 DUP7 ADD SWAP2 POP PUSH1 0x40 DUP2 PUSH1 0x5 SHL DUP8 ADD ADD SWAP3 POP DUP4 DUP8 ADD PUSH1 0x0 JUMPDEST DUP3 DUP2 LT ISZERO PUSH2 0x43D3 JUMPI PUSH1 0x3F NOT DUP9 DUP7 SUB ADD DUP5 MSTORE PUSH2 0x4B38 DUP6 DUP4 MLOAD PUSH2 0x48B9 JUMP JUMPDEST SWAP5 POP SWAP3 DUP6 ADD SWAP3 SWAP1 DUP6 ADD SWAP1 PUSH1 0x1 ADD PUSH2 0x4B1C JUMP JUMPDEST PUSH1 0x0 DUP1 PUSH1 0x0 DUP1 PUSH1 0x0 PUSH1 0xA0 DUP7 DUP9 SUB SLT ISZERO PUSH2 0x4B62 JUMPI PUSH1 0x0 DUP1 REVERT JUMPDEST PUSH2 0x4B6B DUP7 PUSH2 0x42AE JUMP JUMPDEST SWAP5 POP PUSH2 0x4B79 PUSH1 0x20 DUP8 ADD PUSH2 0x42AE JUMP JUMPDEST SWAP4 POP PUSH1 0x40 DUP7 ADD CALLDATALOAD SWAP3 POP PUSH1 0x60 DUP7 ADD CALLDATALOAD SWAP2 POP PUSH1 0x80 DUP7 ADD CALLDATALOAD PUSH1 0x1 PUSH1 0x1 PUSH1 0x40 SHL SUB DUP2 GT ISZERO PUSH2 0x4BA2 JUMPI PUSH1 0x0 DUP1 REVERT JUMPDEST PUSH2 0x4794 DUP9 DUP3 DUP10 ADD PUSH2 0x445C JUMP JUMPDEST PUSH1 0x1 PUSH1 0x1 PUSH1 0xA0 SHL SUB DUP7 AND DUP2 MSTORE PUSH1 0xA0 PUSH1 0x20 DUP3 ADD DUP2 SWAP1 MSTORE PUSH1 0x0 SWAP1 PUSH2 0x4BD2 SWAP1 DUP4 ADD DUP8 PUSH2 0x4313 JUMP JUMPDEST PUSH1 0x40 DUP4 ADD SWAP6 SWAP1 SWAP6 MSTORE POP PUSH1 0x60 DUP2 ADD SWAP3 SWAP1 SWAP3 MSTORE ISZERO ISZERO PUSH1 0x80 SWAP1 SWAP2 ADD MSTORE SWAP3 SWAP2 POP POP JUMP JUMPDEST PUSH1 0x1 DUP2 DUP2 SHR SWAP1 DUP3 AND DUP1 PUSH2 0x4C05 JUMPI PUSH1 0x7F DUP3 AND SWAP2 POP JUMPDEST PUSH1 0x20 DUP3 LT DUP2 SUB PUSH2 0x4C25 JUMPI PUSH4 0x4E487B71 PUSH1 0xE0 SHL PUSH1 0x0 MSTORE PUSH1 0x22 PUSH1 0x4 MSTORE PUSH1 0x24 PUSH1 0x0 REVERT JUMPDEST POP SWAP2 SWAP1 POP JUMP JUMPDEST PUSH4 0x4E487B71 PUSH1 0xE0 SHL PUSH1 0x0 MSTORE PUSH1 0x32 PUSH1 0x4 MSTORE PUSH1 0x24 PUSH1 0x0 REVERT JUMPDEST PUSH1 0x0 DUP3 MLOAD PUSH2 0x4C53 DUP2 DUP5 PUSH1 0x20 DUP8 ADD PUSH2 0x42EF JUMP JUMPDEST SWAP2 SWAP1 SWAP2 ADD SWAP3 SWAP2 POP POP JUMP JUMPDEST PUSH1 0x1F DUP3 GT ISZERO PUSH2 0x1A6F JUMPI PUSH1 0x0 DUP2 DUP2 MSTORE PUSH1 0x20 DUP2 KECCAK256 PUSH1 0x1F DUP6 ADD PUSH1 0x5 SHR DUP2 ADD PUSH1 0x20 DUP7 LT ISZERO PUSH2 0x4C84 JUMPI POP DUP1 JUMPDEST PUSH1 0x1F DUP6 ADD PUSH1 0x5 SHR DUP3 ADD SWAP2 POP JUMPDEST DUP2 DUP2 LT ISZERO PUSH2 0x26FA JUMPI DUP3 DUP2 SSTORE PUSH1 0x1 ADD PUSH2 0x4C90 JUMP JUMPDEST DUP2 MLOAD PUSH1 0x1 PUSH1 0x1 PUSH1 0x40 SHL SUB DUP2 GT ISZERO PUSH2 0x4CBC JUMPI PUSH2 0x4CBC PUSH2 0x441A JUMP JUMPDEST PUSH2 0x4CD0 DUP2 PUSH2 0x4CCA DUP5 SLOAD PUSH2 0x4BF1 JUMP JUMPDEST DUP5 PUSH2 0x4C5D JUMP JUMPDEST PUSH1 0x20 DUP1 PUSH1 0x1F DUP4 GT PUSH1 0x1 DUP2 EQ PUSH2 0x4D05 JUMPI PUSH1 0x0 DUP5 ISZERO PUSH2 0x4CED JUMPI POP DUP6 DUP4 ADD MLOAD JUMPDEST PUSH1 0x0 NOT PUSH1 0x3 DUP7 SWAP1 SHL SHR NOT AND PUSH1 0x1 DUP6 SWAP1 SHL OR DUP6 SSTORE PUSH2 0x26FA JUMP JUMPDEST PUSH1 0x0 DUP6 DUP2 MSTORE PUSH1 0x20 DUP2 KECCAK256 PUSH1 0x1F NOT DUP7 AND SWAP2 JUMPDEST DUP3 DUP2 LT ISZERO PUSH2 0x4D34 JUMPI DUP9 DUP7 ADD MLOAD DUP3 SSTORE SWAP5 DUP5 ADD SWAP5 PUSH1 0x1 SWAP1 SWAP2 ADD SWAP1 DUP5 ADD PUSH2 0x4D15 JUMP JUMPDEST POP DUP6 DUP3 LT ISZERO PUSH2 0x4D52 JUMPI DUP8 DUP6 ADD MLOAD PUSH1 0x0 NOT PUSH1 0x3 DUP9 SWAP1 SHL PUSH1 0xF8 AND SHR NOT AND DUP2 SSTORE JUMPDEST POP POP POP POP POP PUSH1 0x1 SWAP1 DUP2 SHL ADD SWAP1 SSTORE POP JUMP JUMPDEST PUSH1 0x20 DUP1 DUP3 MSTORE PUSH1 0x2F SWAP1 DUP3 ADD MSTORE PUSH32 0x455243313135353A2063616C6C6572206973206E6F7420746F6B656E206F776E PUSH1 0x40 DUP3 ADD MSTORE PUSH15 0x195C881B9BDC88185C1C1C9BDD9959 PUSH1 0x8A SHL PUSH1 0x60 DUP3 ADD MSTORE PUSH1 0x80 ADD SWAP1 JUMP JUMPDEST PUSH4 0x4E487B71 PUSH1 0xE0 SHL PUSH1 0x0 MSTORE PUSH1 0x11 PUSH1 0x4 MSTORE PUSH1 0x24 PUSH1 0x0 REVERT JUMPDEST PUSH1 0x0 PUSH1 0x1 DUP3 ADD PUSH2 0x4DD9 JUMPI PUSH2 0x4DD9 PUSH2 0x4DB1 JUMP JUMPDEST POP PUSH1 0x1 ADD SWAP1 JUMP JUMPDEST PUSH1 0xFF DUP3 DUP2 AND DUP3 DUP3 AND SUB SWAP1 DUP2 GT ISZERO PUSH2 0x99E JUMPI PUSH2 0x99E PUSH2 0x4DB1 JUMP JUMPDEST PUSH1 0x0 DUP1 DUP5 SLOAD PUSH2 0x4E07 DUP2 PUSH2 0x4BF1 JUMP JUMPDEST PUSH1 0x1 DUP3 DUP2 AND DUP1 ISZERO PUSH2 0x4E1F JUMPI PUSH1 0x1 DUP2 EQ PUSH2 0x4E34 JUMPI PUSH2 0x4E63 JUMP JUMPDEST PUSH1 0xFF NOT DUP5 AND DUP8 MSTORE DUP3 ISZERO ISZERO DUP4 MUL DUP8 ADD SWAP5 POP PUSH2 0x4E63 JUMP JUMPDEST DUP9 PUSH1 0x0 MSTORE PUSH1 0x20 DUP1 PUSH1 0x0 KECCAK256 PUSH1 0x0 JUMPDEST DUP6 DUP2 LT ISZERO PUSH2 0x4E5A JUMPI DUP2 SLOAD DUP11 DUP3 ADD MSTORE SWAP1 DUP5 ADD SWAP1 DUP3 ADD PUSH2 0x4E41 JUMP JUMPDEST POP POP POP DUP3 DUP8 ADD SWAP5 POP JUMPDEST POP PUSH1 0x2F PUSH1 0xF8 SHL DUP5 MSTORE DUP7 MLOAD SWAP3 POP PUSH2 0x4E7F DUP4 DUP3 DUP7 ADD PUSH1 0x20 DUP11 ADD PUSH2 0x42EF JUMP JUMPDEST PUSH5 0x173539B7B7 PUSH1 0xD9 SHL SWAP4 SWAP1 SWAP3 ADD SWAP2 DUP3 ADD SWAP3 SWAP1 SWAP3 MSTORE PUSH1 0x6 ADD SWAP6 SWAP5 POP POP POP POP POP JUMP JUMPDEST PUSH1 0x20 DUP1 DUP3 MSTORE PUSH1 0x25 SWAP1 DUP3 ADD MSTORE PUSH32 0x455243313135353A207472616E7366657220746F20746865207A65726F206164 PUSH1 0x40 DUP3 ADD MSTORE PUSH5 0x6472657373 PUSH1 0xD8 SHL PUSH1 0x60 DUP3 ADD MSTORE PUSH1 0x80 ADD SWAP1 JUMP JUMPDEST PUSH1 0x20 DUP1 DUP3 MSTORE PUSH1 0x2A SWAP1 DUP3 ADD MSTORE PUSH32 0x455243313135353A20696E73756666696369656E742062616C616E636520666F PUSH1 0x40 DUP3 ADD MSTORE PUSH10 0x39103A3930B739B332B9 PUSH1 0xB1 SHL PUSH1 0x60 DUP3 ADD MSTORE PUSH1 0x80 ADD SWAP1 JUMP JUMPDEST DUP1 DUP3 ADD DUP1 DUP3 GT ISZERO PUSH2 0x99E JUMPI PUSH2 0x99E PUSH2 0x4DB1 JUMP JUMPDEST PUSH1 0x40 DUP2 MSTORE PUSH1 0x0 PUSH2 0x4F54 PUSH1 0x40 DUP4 ADD DUP6 PUSH2 0x486B JUMP JUMPDEST DUP3 DUP2 SUB PUSH1 0x20 DUP5 ADD MSTORE PUSH2 0x4F66 DUP2 DUP6 PUSH2 0x486B JUMP JUMPDEST SWAP6 SWAP5 POP POP POP POP POP JUMP JUMPDEST DUP2 DUP2 SUB DUP2 DUP2 GT ISZERO PUSH2 0x99E JUMPI PUSH2 0x99E PUSH2 0x4DB1 JUMP JUMPDEST PUSH4 0x4E487B71 PUSH1 0xE0 SHL PUSH1 0x0 MSTORE PUSH1 0x12 PUSH1 0x4 MSTORE PUSH1 0x24 PUSH1 0x0 REVERT JUMPDEST PUSH1 0x0 DUP3 PUSH2 0x4FA7 JUMPI PUSH2 0x4FA7 PUSH2 0x4F82 JUMP JUMPDEST POP MOD SWAP1 JUMP JUMPDEST PUSH1 0x0 PUSH1 0xFF DUP4 AND DUP1 PUSH2 0x4FBF JUMPI PUSH2 0x4FBF PUSH2 0x4F82 JUMP JUMPDEST DUP1 PUSH1 0xFF DUP5 AND MOD SWAP2 POP POP SWAP3 SWAP2 POP POP JUMP JUMPDEST PUSH1 0x0 PUSH1 0xFF DUP3 AND PUSH1 0xFF DUP2 SUB PUSH2 0x4FE4 JUMPI PUSH2 0x4FE4 PUSH2 0x4DB1 JUMP JUMPDEST PUSH1 0x1 ADD SWAP3 SWAP2 POP POP JUMP JUMPDEST PUSH1 0x0 DUP3 PUSH2 0x4FFC JUMPI PUSH2 0x4FFC PUSH2 0x4F82 JUMP JUMPDEST POP DIV SWAP1 JUMP JUMPDEST PUSH1 0x0 DUP2 PUSH1 0x0 NOT DIV DUP4 GT DUP3 ISZERO ISZERO AND ISZERO PUSH2 0x501B JUMPI PUSH2 0x501B PUSH2 0x4DB1 JUMP JUMPDEST POP MUL SWAP1 JUMP JUMPDEST PUSH1 0xFF DUP2 DUP2 AND DUP4 DUP3 AND ADD SWAP1 DUP2 GT ISZERO PUSH2 0x99E JUMPI PUSH2 0x99E PUSH2 0x4DB1 JUMP JUMPDEST PUSH1 0x1 PUSH1 0x1 PUSH1 0xA0 SHL SUB DUP7 DUP2 AND DUP3 MSTORE DUP6 AND PUSH1 0x20 DUP3 ADD MSTORE PUSH1 0xA0 PUSH1 0x40 DUP3 ADD DUP2 SWAP1 MSTORE PUSH1 0x0 SWAP1 PUSH2 0x5065 SWAP1 DUP4 ADD DUP7 PUSH2 0x486B JUMP JUMPDEST DUP3 DUP2 SUB PUSH1 0x60 DUP5 ADD MSTORE PUSH2 0x5077 DUP2 DUP7 PUSH2 0x486B JUMP JUMPDEST SWAP1 POP DUP3 DUP2 SUB PUSH1 0x80 DUP5 ADD MSTORE PUSH2 0x508B DUP2 DUP6 PUSH2 0x4313 JUMP JUMPDEST SWAP9 SWAP8 POP POP POP POP POP POP POP POP JUMP JUMPDEST PUSH1 0x0 PUSH1 0x20 DUP3 DUP5 SUB SLT ISZERO PUSH2 0x50A9 JUMPI PUSH1 0x0 DUP1 REVERT JUMPDEST DUP2 MLOAD PUSH2 0x4413 DUP2 PUSH2 0x43E0 JUMP JUMPDEST PUSH1 0x0 PUSH1 0x3 RETURNDATASIZE GT ISZERO PUSH2 0x50CD JUMPI PUSH1 0x4 PUSH1 0x0 DUP1 RETURNDATACOPY POP PUSH1 0x0 MLOAD PUSH1 0xE0 SHR JUMPDEST SWAP1 JUMP JUMPDEST PUSH1 0x0 PUSH1 0x44 RETURNDATASIZE LT ISZERO PUSH2 0x50DE JUMPI SWAP1 JUMP JUMPDEST PUSH1 0x40 MLOAD PUSH1 0x3 NOT RETURNDATASIZE DUP2 ADD PUSH1 0x4 DUP4 RETURNDATACOPY DUP2 MLOAD RETURNDATASIZE PUSH1 0x1 PUSH1 0x1 PUSH1 0x40 SHL SUB DUP2 PUSH1 0x24 DUP5 ADD GT DUP2 DUP5 GT OR ISZERO PUSH2 0x510D JUMPI POP POP POP POP POP SWAP1 JUMP JUMPDEST DUP3 DUP6 ADD SWAP2 POP DUP2 MLOAD DUP2 DUP2 GT ISZERO PUSH2 0x5125 JUMPI POP POP POP POP POP POP SWAP1 JUMP JUMPDEST DUP5 RETURNDATASIZE DUP8 ADD ADD PUSH1 0x20 DUP3 DUP6 ADD ADD GT ISZERO PUSH2 0x513F JUMPI POP POP POP POP POP POP SWAP1 JUMP JUMPDEST PUSH2 0x514E PUSH1 0x20 DUP3 DUP7 ADD ADD DUP8 PUSH2 0x4430 JUMP JUMPDEST POP SWAP1 SWAP6 SWAP5 POP POP POP POP POP JUMP JUMPDEST PUSH1 0x20 DUP1 DUP3 MSTORE PUSH1 0x28 SWAP1 DUP3 ADD MSTORE PUSH32 0x455243313135353A204552433131353552656365697665722072656A65637465 PUSH1 0x40 DUP3 ADD MSTORE PUSH8 0x6420746F6B656E73 PUSH1 0xC0 SHL PUSH1 0x60 DUP3 ADD MSTORE PUSH1 0x80 ADD SWAP1 JUMP JUMPDEST PUSH1 0x40 DUP2 ADD PUSH2 0x99E DUP3 DUP5 PUSH2 0x4595 JUMP JUMPDEST PUSH1 0x1 PUSH1 0x1 PUSH1 0xA0 SHL SUB DUP7 DUP2 AND DUP3 MSTORE DUP6 AND PUSH1 0x20 DUP3 ADD MSTORE PUSH1 0x40 DUP2 ADD DUP5 SWAP1 MSTORE PUSH1 0x60 DUP2 ADD DUP4 SWAP1 MSTORE PUSH1 0xA0 PUSH1 0x80 DUP3 ADD DUP2 SWAP1 MSTORE PUSH1 0x0 SWAP1 PUSH2 0x51E9 SWAP1 DUP4 ADD DUP5 PUSH2 0x4313 JUMP JUMPDEST SWAP8 SWAP7 POP POP POP POP POP POP POP JUMP INVALID LOG2 PUSH5 0x6970667358 0x22 SLT KECCAK256 DIV PUSH19 0xB3BEC543711983FF0BCC05F58DCA4C81CF957A 0xC8 ADD PUSH28 0xBB9AEC75DCA6B8F064736F6C63430008100033000000000000000000 "
		},
		"gasEstimates": {
			"creation": {
				"codeDepositCost": "4206800",
				"executionCost": "infinite",
				"totalCost": "infinite"
			},
			"external": {
				"": "231",
				"CELESTION()": "229",
				"DEVIL()": "317",
				"FIREBIRD()": "230",
				"GRIFFIN()": "339",
				"KAMO()": "319",
				"KUKULKAN()": "272",
				"MAX_ATTACK_DEFEND_STRENGTH()": "252",
				"attackOrDefendChoice(uint8,string)": "infinite",
				"balanceOf(address,uint256)": "2723",
				"balanceOfBatch(address[],uint256[])": "infinite",
				"baseURI()": "infinite",
				"battleInfo(string)": "infinite",
				"battles(uint256)": "infinite",
				"createBattle(string)": "infinite",
				"createRandomGameToken(string)": "infinite",
				"exists(uint256)": "2517",
				"gameTokens(uint256)": "infinite",
				"getAllBattles()": "infinite",
				"getAllPlayerTokens()": "infinite",
				"getAllPlayers()": "infinite",
				"getBattle(string)": "infinite",
				"getBattleMoves(string)": "infinite",
				"getPlayer(address)": "infinite",
				"getPlayerToken(address)": "infinite",
				"getTotalSupply()": "2370",
				"isApprovedForAll(address,address)": "infinite",
				"isBattle(string)": "infinite",
				"isPlayer(address)": "2634",
				"isPlayerToken(address)": "2655",
				"joinBattle(string)": "infinite",
				"owner()": "2413",
				"playerInfo(address)": "2664",
				"playerTokenInfo(address)": "2576",
				"players(uint256)": "infinite",
				"quitBattle(string)": "infinite",
				"registerPlayer(string,string)": "infinite",
				"renounceOwnership()": "infinite",
				"safeBatchTransferFrom(address,address,uint256[],uint256[],bytes)": "infinite",
				"safeTransferFrom(address,address,uint256,uint256,bytes)": "infinite",
				"setApprovalForAll(address,bool)": "26794",
				"setURI(string)": "infinite",
				"supportsInterface(bytes4)": "623",
				"tokenURI(uint256)": "infinite",
				"totalSupply()": "2330",
				"totalSupply(uint256)": "2582",
				"transferOwnership(address)": "28468",
				"uri(uint256)": "infinite"
			},
			"internal": {
				"_awaitBattleResults(string memory)": "infinite",
				"_beforeTokenTransfer(address,address,address,uint256[] memory,uint256[] memory,bytes memory)": "infinite",
				"_createGameToken(string memory)": "infinite",
				"_createRandomNum(uint256,address)": "infinite",
				"_endBattle(address,struct AVAXGods.Battle memory)": "infinite",
				"_registerPlayerMove(uint256,uint8,string memory)": "infinite",
				"_resolveBattle(struct AVAXGods.Battle memory)": "infinite",
				"initialize()": "infinite",
				"uintToStr(uint256)": "infinite",
				"updateBattle(string memory,struct AVAXGods.Battle memory)": "infinite"
			}
		},
		"methodIdentifiers": {
			"CELESTION()": "9e4ecd11",
			"DEVIL()": "d2198cc5",
			"FIREBIRD()": "703730a5",
			"GRIFFIN()": "de96cefc",
			"KAMO()": "0677aa4e",
			"KUKULKAN()": "f1da7339",
			"MAX_ATTACK_DEFEND_STRENGTH()": "0daea2cd",
			"attackOrDefendChoice(uint8,string)": "ba274956",
			"balanceOf(address,uint256)": "00fdd58e",
			"balanceOfBatch(address[],uint256[])": "4e1273f4",
			"baseURI()": "6c0360eb",
			"battleInfo(string)": "3835e2b5",
			"battles(uint256)": "606d2e96",
			"createBattle(string)": "2ca04522",
			"createRandomGameToken(string)": "9ec40aa3",
			"exists(uint256)": "4f558e79",
			"gameTokens(uint256)": "bf034b69",
			"getAllBattles()": "5c93fc3d",
			"getAllPlayerTokens()": "015a3792",
			"getAllPlayers()": "efa1c482",
			"getBattle(string)": "16801d17",
			"getBattleMoves(string)": "9b09cc87",
			"getPlayer(address)": "5c12cd4b",
			"getPlayerToken(address)": "10898e4c",
			"getTotalSupply()": "c4e41b22",
			"isApprovedForAll(address,address)": "e985e9c5",
			"isBattle(string)": "1107ae3d",
			"isPlayer(address)": "09c95e10",
			"isPlayerToken(address)": "bf103a4d",
			"joinBattle(string)": "a1b4f57c",
			"owner()": "8da5cb5b",
			"playerInfo(address)": "4b114691",
			"playerTokenInfo(address)": "2711162e",
			"players(uint256)": "f71d96cb",
			"quitBattle(string)": "996d7bea",
			"registerPlayer(string,string)": "845f433b",
			"renounceOwnership()": "715018a6",
			"safeBatchTransferFrom(address,address,uint256[],uint256[],bytes)": "2eb2c2d6",
			"safeTransferFrom(address,address,uint256,uint256,bytes)": "f242432a",
			"setApprovalForAll(address,bool)": "a22cb465",
			"setURI(string)": "02fe5305",
			"supportsInterface(bytes4)": "01ffc9a7",
			"tokenURI(uint256)": "c87b56dd",
			"totalSupply()": "18160ddd",
			"totalSupply(uint256)": "bd85b039",
			"transferOwnership(address)": "f2fde38b",
			"uri(uint256)": "0e89341c"
		}
	},
	"abi": [
		{
			"inputs": [
				{
					"internalType": "string",
					"name": "_metadataURI",
					"type": "string"
				}
			],
			"stateMutability": "nonpayable",
			"type": "constructor"
		},
		{
			"anonymous": false,
			"inputs": [
				{
					"indexed": true,
					"internalType": "address",
					"name": "account",
					"type": "address"
				},
				{
					"indexed": true,
					"internalType": "address",
					"name": "operator",
					"type": "address"
				},
				{
					"indexed": false,
					"internalType": "bool",
					"name": "approved",
					"type": "bool"
				}
			],
			"name": "ApprovalForAll",
			"type": "event"
		},
		{
			"anonymous": false,
			"inputs": [
				{
					"indexed": false,
					"internalType": "string",
					"name": "battleName",
					"type": "string"
				},
				{
					"indexed": true,
					"internalType": "address",
					"name": "winner",
					"type": "address"
				},
				{
					"indexed": true,
					"internalType": "address",
					"name": "loser",
					"type": "address"
				}
			],
			"name": "BattleEnded",
			"type": "event"
		},
		{
			"anonymous": false,
			"inputs": [
				{
					"indexed": true,
					"internalType": "string",
					"name": "battleName",
					"type": "string"
				},
				{
					"indexed": true,
					"internalType": "bool",
					"name": "isFirstMove",
					"type": "bool"
				}
			],
			"name": "BattleMove",
			"type": "event"
		},
		{
			"anonymous": false,
			"inputs": [
				{
					"indexed": false,
					"internalType": "string",
					"name": "battleName",
					"type": "string"
				},
				{
					"indexed": true,
					"internalType": "address",
					"name": "player1",
					"type": "address"
				},
				{
					"indexed": true,
					"internalType": "address",
					"name": "player2",
					"type": "address"
				}
			],
			"name": "NewBattle",
			"type": "event"
		},
		{
			"anonymous": false,
			"inputs": [
				{
					"indexed": true,
					"internalType": "address",
					"name": "owner",
					"type": "address"
				},
				{
					"indexed": false,
					"internalType": "uint256",
					"name": "id",
					"type": "uint256"
				},
				{
					"indexed": false,
					"internalType": "uint256",
					"name": "attackStrength",
					"type": "uint256"
				},
				{
					"indexed": false,
					"internalType": "uint256",
					"name": "defenseStrength",
					"type": "uint256"
				}
			],
			"name": "NewGameToken",
			"type": "event"
		},
		{
			"anonymous": false,
			"inputs": [
				{
					"indexed": true,
					"internalType": "address",
					"name": "owner",
					"type": "address"
				},
				{
					"indexed": false,
					"internalType": "string",
					"name": "name",
					"type": "string"
				}
			],
			"name": "NewPlayer",
			"type": "event"
		},
		{
			"anonymous": false,
			"inputs": [
				{
					"indexed": true,
					"internalType": "address",
					"name": "previousOwner",
					"type": "address"
				},
				{
					"indexed": true,
					"internalType": "address",
					"name": "newOwner",
					"type": "address"
				}
			],
			"name": "OwnershipTransferred",
			"type": "event"
		},
		{
			"anonymous": false,
			"inputs": [
				{
					"indexed": false,
					"internalType": "address[2]",
					"name": "damagedPlayers",
					"type": "address[2]"
				}
			],
			"name": "RoundEnded",
			"type": "event"
		},
		{
			"anonymous": false,
			"inputs": [
				{
					"indexed": true,
					"internalType": "address",
					"name": "operator",
					"type": "address"
				},
				{
					"indexed": true,
					"internalType": "address",
					"name": "from",
					"type": "address"
				},
				{
					"indexed": true,
					"internalType": "address",
					"name": "to",
					"type": "address"
				},
				{
					"indexed": false,
					"internalType": "uint256[]",
					"name": "ids",
					"type": "uint256[]"
				},
				{
					"indexed": false,
					"internalType": "uint256[]",
					"name": "values",
					"type": "uint256[]"
				}
			],
			"name": "TransferBatch",
			"type": "event"
		},
		{
			"anonymous": false,
			"inputs": [
				{
					"indexed": true,
					"internalType": "address",
					"name": "operator",
					"type": "address"
				},
				{
					"indexed": true,
					"internalType": "address",
					"name": "from",
					"type": "address"
				},
				{
					"indexed": true,
					"internalType": "address",
					"name": "to",
					"type": "address"
				},
				{
					"indexed": false,
					"internalType": "uint256",
					"name": "id",
					"type": "uint256"
				},
				{
					"indexed": false,
					"internalType": "uint256",
					"name": "value",
					"type": "uint256"
				}
			],
			"name": "TransferSingle",
			"type": "event"
		},
		{
			"anonymous": false,
			"inputs": [
				{
					"indexed": false,
					"internalType": "string",
					"name": "value",
					"type": "string"
				},
				{
					"indexed": true,
					"internalType": "uint256",
					"name": "id",
					"type": "uint256"
				}
			],
			"name": "URI",
			"type": "event"
		},
		{
			"stateMutability": "payable",
			"type": "fallback"
		},
		{
			"inputs": [],
			"name": "CELESTION",
			"outputs": [
				{
					"internalType": "uint256",
					"name": "",
					"type": "uint256"
				}
			],
			"stateMutability": "view",
			"type": "function"
		},
		{
			"inputs": [],
			"name": "DEVIL",
			"outputs": [
				{
					"internalType": "uint256",
					"name": "",
					"type": "uint256"
				}
			],
			"stateMutability": "view",
			"type": "function"
		},
		{
			"inputs": [],
			"name": "FIREBIRD",
			"outputs": [
				{
					"internalType": "uint256",
					"name": "",
					"type": "uint256"
				}
			],
			"stateMutability": "view",
			"type": "function"
		},
		{
			"inputs": [],
			"name": "GRIFFIN",
			"outputs": [
				{
					"internalType": "uint256",
					"name": "",
					"type": "uint256"
				}
			],
			"stateMutability": "view",
			"type": "function"
		},
		{
			"inputs": [],
			"name": "KAMO",
			"outputs": [
				{
					"internalType": "uint256",
					"name": "",
					"type": "uint256"
				}
			],
			"stateMutability": "view",
			"type": "function"
		},
		{
			"inputs": [],
			"name": "KUKULKAN",
			"outputs": [
				{
					"internalType": "uint256",
					"name": "",
					"type": "uint256"
				}
			],
			"stateMutability": "view",
			"type": "function"
		},
		{
			"inputs": [],
			"name": "MAX_ATTACK_DEFEND_STRENGTH",
			"outputs": [
				{
					"internalType": "uint256",
					"name": "",
					"type": "uint256"
				}
			],
			"stateMutability": "view",
			"type": "function"
		},
		{
			"inputs": [
				{
					"internalType": "uint8",
					"name": "_choice",
					"type": "uint8"
				},
				{
					"internalType": "string",
					"name": "_battleName",
					"type": "string"
				}
			],
			"name": "attackOrDefendChoice",
			"outputs": [],
			"stateMutability": "nonpayable",
			"type": "function"
		},
		{
			"inputs": [
				{
					"internalType": "address",
					"name": "account",
					"type": "address"
				},
				{
					"internalType": "uint256",
					"name": "id",
					"type": "uint256"
				}
			],
			"name": "balanceOf",
			"outputs": [
				{
					"internalType": "uint256",
					"name": "",
					"type": "uint256"
				}
			],
			"stateMutability": "view",
			"type": "function"
		},
		{
			"inputs": [
				{
					"internalType": "address[]",
					"name": "accounts",
					"type": "address[]"
				},
				{
					"internalType": "uint256[]",
					"name": "ids",
					"type": "uint256[]"
				}
			],
			"name": "balanceOfBatch",
			"outputs": [
				{
					"internalType": "uint256[]",
					"name": "",
					"type": "uint256[]"
				}
			],
			"stateMutability": "view",
			"type": "function"
		},
		{
			"inputs": [],
			"name": "baseURI",
			"outputs": [
				{
					"internalType": "string",
					"name": "",
					"type": "string"
				}
			],
			"stateMutability": "view",
			"type": "function"
		},
		{
			"inputs": [
				{
					"internalType": "string",
					"name": "",
					"type": "string"
				}
			],
			"name": "battleInfo",
			"outputs": [
				{
					"internalType": "uint256",
					"name": "",
					"type": "uint256"
				}
			],
			"stateMutability": "view",
			"type": "function"
		},
		{
			"inputs": [
				{
					"internalType": "uint256",
					"name": "",
					"type": "uint256"
				}
			],
			"name": "battles",
			"outputs": [
				{
					"internalType": "enum AVAXGods.BattleStatus",
					"name": "battleStatus",
					"type": "uint8"
				},
				{
					"internalType": "bytes32",
					"name": "battleHash",
					"type": "bytes32"
				},
				{
					"internalType": "string",
					"name": "name",
					"type": "string"
				},
				{
					"internalType": "address",
					"name": "winner",
					"type": "address"
				}
			],
			"stateMutability": "view",
			"type": "function"
		},
		{
			"inputs": [
				{
					"internalType": "string",
					"name": "_name",
					"type": "string"
				}
			],
			"name": "createBattle",
			"outputs": [
				{
					"components": [
						{
							"internalType": "enum AVAXGods.BattleStatus",
							"name": "battleStatus",
							"type": "uint8"
						},
						{
							"internalType": "bytes32",
							"name": "battleHash",
							"type": "bytes32"
						},
						{
							"internalType": "string",
							"name": "name",
							"type": "string"
						},
						{
							"internalType": "address[2]",
							"name": "players",
							"type": "address[2]"
						},
						{
							"internalType": "uint8[2]",
							"name": "moves",
							"type": "uint8[2]"
						},
						{
							"internalType": "address",
							"name": "winner",
							"type": "address"
						}
					],
					"internalType": "struct AVAXGods.Battle",
					"name": "",
					"type": "tuple"
				}
			],
			"stateMutability": "nonpayable",
			"type": "function"
		},
		{
			"inputs": [
				{
					"internalType": "string",
					"name": "_name",
					"type": "string"
				}
			],
			"name": "createRandomGameToken",
			"outputs": [],
			"stateMutability": "nonpayable",
			"type": "function"
		},
		{
			"inputs": [
				{
					"internalType": "uint256",
					"name": "id",
					"type": "uint256"
				}
			],
			"name": "exists",
			"outputs": [
				{
					"internalType": "bool",
					"name": "",
					"type": "bool"
				}
			],
			"stateMutability": "view",
			"type": "function"
		},
		{
			"inputs": [
				{
					"internalType": "uint256",
					"name": "",
					"type": "uint256"
				}
			],
			"name": "gameTokens",
			"outputs": [
				{
					"internalType": "string",
					"name": "name",
					"type": "string"
				},
				{
					"internalType": "uint256",
					"name": "id",
					"type": "uint256"
				},
				{
					"internalType": "uint256",
					"name": "attackStrength",
					"type": "uint256"
				},
				{
					"internalType": "uint256",
					"name": "defenseStrength",
					"type": "uint256"
				}
			],
			"stateMutability": "view",
			"type": "function"
		},
		{
			"inputs": [],
			"name": "getAllBattles",
			"outputs": [
				{
					"components": [
						{
							"internalType": "enum AVAXGods.BattleStatus",
							"name": "battleStatus",
							"type": "uint8"
						},
						{
							"internalType": "bytes32",
							"name": "battleHash",
							"type": "bytes32"
						},
						{
							"internalType": "string",
							"name": "name",
							"type": "string"
						},
						{
							"internalType": "address[2]",
							"name": "players",
							"type": "address[2]"
						},
						{
							"internalType": "uint8[2]",
							"name": "moves",
							"type": "uint8[2]"
						},
						{
							"internalType": "address",
							"name": "winner",
							"type": "address"
						}
					],
					"internalType": "struct AVAXGods.Battle[]",
					"name": "",
					"type": "tuple[]"
				}
			],
			"stateMutability": "view",
			"type": "function"
		},
		{
			"inputs": [],
			"name": "getAllPlayerTokens",
			"outputs": [
				{
					"components": [
						{
							"internalType": "string",
							"name": "name",
							"type": "string"
						},
						{
							"internalType": "uint256",
							"name": "id",
							"type": "uint256"
						},
						{
							"internalType": "uint256",
							"name": "attackStrength",
							"type": "uint256"
						},
						{
							"internalType": "uint256",
							"name": "defenseStrength",
							"type": "uint256"
						}
					],
					"internalType": "struct AVAXGods.GameToken[]",
					"name": "",
					"type": "tuple[]"
				}
			],
			"stateMutability": "view",
			"type": "function"
		},
		{
			"inputs": [],
			"name": "getAllPlayers",
			"outputs": [
				{
					"components": [
						{
							"internalType": "address",
							"name": "playerAddress",
							"type": "address"
						},
						{
							"internalType": "string",
							"name": "playerName",
							"type": "string"
						},
						{
							"internalType": "uint256",
							"name": "playerMana",
							"type": "uint256"
						},
						{
							"internalType": "uint256",
							"name": "playerHealth",
							"type": "uint256"
						},
						{
							"internalType": "bool",
							"name": "inBattle",
							"type": "bool"
						}
					],
					"internalType": "struct AVAXGods.Player[]",
					"name": "",
					"type": "tuple[]"
				}
			],
			"stateMutability": "view",
			"type": "function"
		},
		{
			"inputs": [
				{
					"internalType": "string",
					"name": "_name",
					"type": "string"
				}
			],
			"name": "getBattle",
			"outputs": [
				{
					"components": [
						{
							"internalType": "enum AVAXGods.BattleStatus",
							"name": "battleStatus",
							"type": "uint8"
						},
						{
							"internalType": "bytes32",
							"name": "battleHash",
							"type": "bytes32"
						},
						{
							"internalType": "string",
							"name": "name",
							"type": "string"
						},
						{
							"internalType": "address[2]",
							"name": "players",
							"type": "address[2]"
						},
						{
							"internalType": "uint8[2]",
							"name": "moves",
							"type": "uint8[2]"
						},
						{
							"internalType": "address",
							"name": "winner",
							"type": "address"
						}
					],
					"internalType": "struct AVAXGods.Battle",
					"name": "",
					"type": "tuple"
				}
			],
			"stateMutability": "view",
			"type": "function"
		},
		{
			"inputs": [
				{
					"internalType": "string",
					"name": "_battleName",
					"type": "string"
				}
			],
			"name": "getBattleMoves",
			"outputs": [
				{
					"internalType": "uint256",
					"name": "P1Move",
					"type": "uint256"
				},
				{
					"internalType": "uint256",
					"name": "P2Move",
					"type": "uint256"
				}
			],
			"stateMutability": "view",
			"type": "function"
		},
		{
			"inputs": [
				{
					"internalType": "address",
					"name": "addr",
					"type": "address"
				}
			],
			"name": "getPlayer",
			"outputs": [
				{
					"components": [
						{
							"internalType": "address",
							"name": "playerAddress",
							"type": "address"
						},
						{
							"internalType": "string",
							"name": "playerName",
							"type": "string"
						},
						{
							"internalType": "uint256",
							"name": "playerMana",
							"type": "uint256"
						},
						{
							"internalType": "uint256",
							"name": "playerHealth",
							"type": "uint256"
						},
						{
							"internalType": "bool",
							"name": "inBattle",
							"type": "bool"
						}
					],
					"internalType": "struct AVAXGods.Player",
					"name": "",
					"type": "tuple"
				}
			],
			"stateMutability": "view",
			"type": "function"
		},
		{
			"inputs": [
				{
					"internalType": "address",
					"name": "addr",
					"type": "address"
				}
			],
			"name": "getPlayerToken",
			"outputs": [
				{
					"components": [
						{
							"internalType": "string",
							"name": "name",
							"type": "string"
						},
						{
							"internalType": "uint256",
							"name": "id",
							"type": "uint256"
						},
						{
							"internalType": "uint256",
							"name": "attackStrength",
							"type": "uint256"
						},
						{
							"internalType": "uint256",
							"name": "defenseStrength",
							"type": "uint256"
						}
					],
					"internalType": "struct AVAXGods.GameToken",
					"name": "",
					"type": "tuple"
				}
			],
			"stateMutability": "view",
			"type": "function"
		},
		{
			"inputs": [],
			"name": "getTotalSupply",
			"outputs": [
				{
					"internalType": "uint256",
					"name": "",
					"type": "uint256"
				}
			],
			"stateMutability": "view",
			"type": "function"
		},
		{
			"inputs": [
				{
					"internalType": "address",
					"name": "account",
					"type": "address"
				},
				{
					"internalType": "address",
					"name": "operator",
					"type": "address"
				}
			],
			"name": "isApprovedForAll",
			"outputs": [
				{
					"internalType": "bool",
					"name": "",
					"type": "bool"
				}
			],
			"stateMutability": "view",
			"type": "function"
		},
		{
			"inputs": [
				{
					"internalType": "string",
					"name": "_name",
					"type": "string"
				}
			],
			"name": "isBattle",
			"outputs": [
				{
					"internalType": "bool",
					"name": "",
					"type": "bool"
				}
			],
			"stateMutability": "view",
			"type": "function"
		},
		{
			"inputs": [
				{
					"internalType": "address",
					"name": "addr",
					"type": "address"
				}
			],
			"name": "isPlayer",
			"outputs": [
				{
					"internalType": "bool",
					"name": "",
					"type": "bool"
				}
			],
			"stateMutability": "view",
			"type": "function"
		},
		{
			"inputs": [
				{
					"internalType": "address",
					"name": "addr",
					"type": "address"
				}
			],
			"name": "isPlayerToken",
			"outputs": [
				{
					"internalType": "bool",
					"name": "",
					"type": "bool"
				}
			],
			"stateMutability": "view",
			"type": "function"
		},
		{
			"inputs": [
				{
					"internalType": "string",
					"name": "_name",
					"type": "string"
				}
			],
			"name": "joinBattle",
			"outputs": [
				{
					"components": [
						{
							"internalType": "enum AVAXGods.BattleStatus",
							"name": "battleStatus",
							"type": "uint8"
						},
						{
							"internalType": "bytes32",
							"name": "battleHash",
							"type": "bytes32"
						},
						{
							"internalType": "string",
							"name": "name",
							"type": "string"
						},
						{
							"internalType": "address[2]",
							"name": "players",
							"type": "address[2]"
						},
						{
							"internalType": "uint8[2]",
							"name": "moves",
							"type": "uint8[2]"
						},
						{
							"internalType": "address",
							"name": "winner",
							"type": "address"
						}
					],
					"internalType": "struct AVAXGods.Battle",
					"name": "",
					"type": "tuple"
				}
			],
			"stateMutability": "nonpayable",
			"type": "function"
		},
		{
			"inputs": [],
			"name": "owner",
			"outputs": [
				{
					"internalType": "address",
					"name": "",
					"type": "address"
				}
			],
			"stateMutability": "view",
			"type": "function"
		},
		{
			"inputs": [
				{
					"internalType": "address",
					"name": "",
					"type": "address"
				}
			],
			"name": "playerInfo",
			"outputs": [
				{
					"internalType": "uint256",
					"name": "",
					"type": "uint256"
				}
			],
			"stateMutability": "view",
			"type": "function"
		},
		{
			"inputs": [
				{
					"internalType": "address",
					"name": "",
					"type": "address"
				}
			],
			"name": "playerTokenInfo",
			"outputs": [
				{
					"internalType": "uint256",
					"name": "",
					"type": "uint256"
				}
			],
			"stateMutability": "view",
			"type": "function"
		},
		{
			"inputs": [
				{
					"internalType": "uint256",
					"name": "",
					"type": "uint256"
				}
			],
			"name": "players",
			"outputs": [
				{
					"internalType": "address",
					"name": "playerAddress",
					"type": "address"
				},
				{
					"internalType": "string",
					"name": "playerName",
					"type": "string"
				},
				{
					"internalType": "uint256",
					"name": "playerMana",
					"type": "uint256"
				},
				{
					"internalType": "uint256",
					"name": "playerHealth",
					"type": "uint256"
				},
				{
					"internalType": "bool",
					"name": "inBattle",
					"type": "bool"
				}
			],
			"stateMutability": "view",
			"type": "function"
		},
		{
			"inputs": [
				{
					"internalType": "string",
					"name": "_battleName",
					"type": "string"
				}
			],
			"name": "quitBattle",
			"outputs": [],
			"stateMutability": "nonpayable",
			"type": "function"
		},
		{
			"inputs": [
				{
					"internalType": "string",
					"name": "_name",
					"type": "string"
				},
				{
					"internalType": "string",
					"name": "_gameTokenName",
					"type": "string"
				}
			],
			"name": "registerPlayer",
			"outputs": [],
			"stateMutability": "nonpayable",
			"type": "function"
		},
		{
			"inputs": [],
			"name": "renounceOwnership",
			"outputs": [],
			"stateMutability": "nonpayable",
			"type": "function"
		},
		{
			"inputs": [
				{
					"internalType": "address",
					"name": "from",
					"type": "address"
				},
				{
					"internalType": "address",
					"name": "to",
					"type": "address"
				},
				{
					"internalType": "uint256[]",
					"name": "ids",
					"type": "uint256[]"
				},
				{
					"internalType": "uint256[]",
					"name": "amounts",
					"type": "uint256[]"
				},
				{
					"internalType": "bytes",
					"name": "data",
					"type": "bytes"
				}
			],
			"name": "safeBatchTransferFrom",
			"outputs": [],
			"stateMutability": "nonpayable",
			"type": "function"
		},
		{
			"inputs": [
				{
					"internalType": "address",
					"name": "from",
					"type": "address"
				},
				{
					"internalType": "address",
					"name": "to",
					"type": "address"
				},
				{
					"internalType": "uint256",
					"name": "id",
					"type": "uint256"
				},
				{
					"internalType": "uint256",
					"name": "amount",
					"type": "uint256"
				},
				{
					"internalType": "bytes",
					"name": "data",
					"type": "bytes"
				}
			],
			"name": "safeTransferFrom",
			"outputs": [],
			"stateMutability": "nonpayable",
			"type": "function"
		},
		{
			"inputs": [
				{
					"internalType": "address",
					"name": "operator",
					"type": "address"
				},
				{
					"internalType": "bool",
					"name": "approved",
					"type": "bool"
				}
			],
			"name": "setApprovalForAll",
			"outputs": [],
			"stateMutability": "nonpayable",
			"type": "function"
		},
		{
			"inputs": [
				{
					"internalType": "string",
					"name": "newuri",
					"type": "string"
				}
			],
			"name": "setURI",
			"outputs": [],
			"stateMutability": "nonpayable",
			"type": "function"
		},
		{
			"inputs": [
				{
					"internalType": "bytes4",
					"name": "interfaceId",
					"type": "bytes4"
				}
			],
			"name": "supportsInterface",
			"outputs": [
				{
					"internalType": "bool",
					"name": "",
					"type": "bool"
				}
			],
			"stateMutability": "view",
			"type": "function"
		},
		{
			"inputs": [
				{
					"internalType": "uint256",
					"name": "tokenId",
					"type": "uint256"
				}
			],
			"name": "tokenURI",
			"outputs": [
				{
					"internalType": "string",
					"name": "",
					"type": "string"
				}
			],
			"stateMutability": "view",
			"type": "function"
		},
		{
			"inputs": [],
			"name": "totalSupply",
			"outputs": [
				{
					"internalType": "uint256",
					"name": "",
					"type": "uint256"
				}
			],
			"stateMutability": "view",
			"type": "function"
		},
		{
			"inputs": [
				{
					"internalType": "uint256",
					"name": "id",
					"type": "uint256"
				}
			],
			"name": "totalSupply",
			"outputs": [
				{
					"internalType": "uint256",
					"name": "",
					"type": "uint256"
				}
			],
			"stateMutability": "view",
			"type": "function"
		},
		{
			"inputs": [
				{
					"internalType": "address",
					"name": "newOwner",
					"type": "address"
				}
			],
			"name": "transferOwnership",
			"outputs": [],
			"stateMutability": "nonpayable",
			"type": "function"
		},
		{
			"inputs": [
				{
					"internalType": "uint256",
					"name": "",
					"type": "uint256"
				}
			],
			"name": "uri",
			"outputs": [
				{
					"internalType": "string",
					"name": "",
					"type": "string"
				}
			],
			"stateMutability": "view",
			"type": "function"
		}
	]
}